{
  "fileName": "iUniPool.sol",
  "contractName": "iUniPool",
  "source": "pragma solidity ^0.5.0;\n\nimport \"./Unipool.sol\";\nimport \"./iUniswapExchangeContract.sol\";\n\ncontract iUniPool {\n    using SafeMath for uint256;\n    using SafeERC20 for IERC20;\n\n    // --- ERC20 Data ---\n    string public constant name = \"DZSLT\";\n    string public constant symbol = \"DZSLT\";\n    string public constant version = \"1\";\n    uint8 public constant decimals = 18;\n    uint256 public totalSupply;\n\n    /**\n     - Need to check impact of Uniswap V2,  will we need to deploy a v2 or new version of DZSLT\n     due to changes in sETH_LP_TokenAddress and potentially a new version of SNXUniswapTokenAddress?\n    */\n    address public constant UnipoolAddress = 0x48D7f315feDcaD332F68aafa017c7C158BC54760;\n    IERC20 public constant sETHTokenAddress = IERC20(\n        0x5e74C9036fb86BD7eCdcb084a0673EFc32eA31cb\n    );\n    IERC20 public constant sETH_LP_TokenAddress = IERC20(\n        0xe9Cf7887b93150D4F2Da7dFc6D502B216438F244\n    );\n    IERC20 public constant SNXTokenAddress = IERC20(\n        0xC011a73ee8576Fb46F5E1c5751cA3B9Fe0af2a6F\n    );\n    IERC20 public constant SNXUniSwapTokenAddress = IERC20(\n        0x3958B4eC427F8fa24eB60F42821760e88d485f7F\n    );\n\n    uint256 public totalLPTokensStaked;\n\n    mapping(address => uint256) public balanceOf;\n    mapping(address => mapping(address => uint256)) public allowance;\n\n    // events\n    event LPTokensStaked(address indexed staker, uint256 qtyStaked);\n    event LPTokensWithdrawn(address indexed leaver, uint256 qtyWithdrawn);\n    event Approval(address indexed src, address indexed guy, uint256 wad);\n    event Transfer(address indexed src, address indexed dst, uint256 wad);\n\n    // testing events\n    event internall(string, uint256);\n\n    constructor() public {\n        approve_Addresses();\n    }\n\n    function approve_Addresses() internal {\n        sETH_LP_TokenAddress.approve(UnipoolAddress, ((2**256) - 1));\n        SNXTokenAddress.approve(\n            address(SNXUniSwapTokenAddress),\n            ((2**256) - 1)\n        );\n        sETHTokenAddress.approve(address(sETH_LP_TokenAddress), ((2**256) - 1));\n    }\n\n    // reader functions\n\n    function howMuchHasThisContractStaked()\n        public\n        view\n        returns (uint256 LPTokens)\n    {\n        return Unipool(UnipoolAddress).balanceOf(address(this));\n    }\n\n    function howMuchHasThisContractEarned()\n        public\n        view\n        returns (uint256 SNXEarned)\n    {\n        return Unipool(UnipoolAddress).earned(address(this));\n    }\n\n    /**\n     * @dev Returs the amount of LP required to stake / transfer to buy 1 DZLT token\n     */\n    // function PriceToStakeNow() external view returns (uint256) {\n    //     if (totalSupply > 0) {\n    //         if (Unipool(UnipoolAddress).earned(address(this)) > 0) {\n    //             uint256 eth4SNX = min_eth(\n    //             (Unipool(UnipoolAddress).earned(address(this))),\n    //             address(SNXUniSwapTokenAddress)\n    //         );\n    //         uint256 eth_reserves = address(sETH_LP_TokenAddress).balance;\n    //         uint256 LP_total_supply = sETH_LP_TokenAddress.totalSupply();\n    //         uint256 LP_for_stake = (eth4SNX.div(2).mul(LP_total_supply)).div(\n    //             eth_reserves\n    //         );\n    //         return\n    //             (LP_for_stake).add(howMuchHasThisContractStaked()).div(\n    //                 totalSupply\n    //             );\n    //         } else {\n    //             return (howMuchHasThisContractStaked()).div(\n    //                 totalSupply);\n    //         }\n\n    //     } else {\n    //         return (1);\n    //     }\n\n    // }\n\n    // action functions\n    function stakeMyShare(uint256 _LPTokenUints) public returns (uint256) {\n        // transfer to this address\n        sETH_LP_TokenAddress.transferFrom(\n            msg.sender,\n            address(this),\n            _LPTokenUints\n        );\n\n        uint256 tokens = issueTokens(msg.sender, _LPTokenUints);\n        emit internall(\"tokens\", tokens);\n\n        Unipool(UnipoolAddress).stake(_LPTokenUints);\n\n        totalLPTokensStaked = totalLPTokensStaked.add(_LPTokenUints);\n        return (tokens);\n    }\n\n    function issueTokens(address toWhom, uint256 howMuchLPStaked)\n        internal\n        returns (uint256 tokensIssued)\n    {\n        (uint256 totalLPs, uint256 totalDZTs) = getDetails(true);\n        uint256 tokens2bIssued = (howMuchLPStaked.mul(totalDZTs)).div(totalLPs);\n        emit internall(\"howMuchLPStaked\", howMuchLPStaked);\n        emit internall(\"tokens2bIssued\", tokens2bIssued);\n        mint(toWhom, tokens2bIssued);\n        return tokens2bIssued;\n    }\n\n    function getDetails(bool enter)\n        internal\n        returns (uint256 totalLPs, uint256 totalDZTs)\n    {\n        if (totalLPTokensStaked == 0 && totalSupply == 0) {\n            emit internall(\"entering phase 1\", 0);\n            return (1, 1);\n        } else {\n            emit internall(\"entering phase 2\", 1);\n            return (reBalance(enter), totalSupply);\n        }\n    }\n\n    function reBalance(bool enter) public returns (uint256 LPTokenWealth) {\n        /* @dev: it does not make economical sense to claim reward if the SNX \n        / earned is less than 0.000005; considering the price of SNX at the time \n        / of writing this contract\n        */\n\n        if (howMuchHasThisContractEarned() > 0.000005 ether) {\n            emit internall(\n                \"Earnings more than the threshold\",\n                howMuchHasThisContractEarned()\n            );\n            Unipool(UnipoolAddress).getReward();\n            emit internall(\"Claiming Reward\", 12);\n            uint256 SNXInHandHoldings = SNXTokenAddress.balanceOf(\n                address(this)\n            ); // 0\n            uint256 LPJustReceived = convertSNXtoLP(SNXInHandHoldings);\n            emit internall(\"LPJustReceived\", LPJustReceived);\n            if (enter) {\n                Unipool(UnipoolAddress).stake(LPJustReceived);\n                totalLPTokensStaked = totalLPTokensStaked.add(LPJustReceived);\n                emit internall(\"totalLPTokensStaked\", totalLPTokensStaked);\n                return (totalLPTokensStaked);\n            } else {\n                return (totalLPTokensStaked.add(LPJustReceived));\n            }\n\n        } else {\n            return (totalLPTokensStaked);\n        }\n    }\n\n    function convertSNXtoLP(uint256 SNXQty)\n        public\n        returns (uint256 LPReceived)\n    {\n        uint256 SNX2BcETH = SafeMath.mul(SNXQty, 4985).div(10000);\n        uint256 SNX2BcSETH = SafeMath.sub(SNXQty, SNX2BcETH);\n\n        uint256 ETHfromSNX = UniswapExchangeInterface(\n            address(SNXUniSwapTokenAddress)\n        )\n            .tokenToEthSwapInput(\n            SNX2BcETH,\n            (\n                (\n                    min_eth(SNX2BcETH, address(SNXUniSwapTokenAddress))\n                        .mul(995)\n                        .div(1000)\n                )\n            ),\n            now.add(300)\n        );\n\n        // converting a portion of the SNX to sETH for the purpose of adding liquidity\n        UniswapExchangeInterface(address(SNXUniSwapTokenAddress))\n            .tokenToTokenSwapInput(\n            SNX2BcSETH,\n            min_tokens(\n                (min_eth(SNX2BcSETH, address(SNXUniSwapTokenAddress)).mul(995))\n                    .div(1000),\n                address(sETH_LP_TokenAddress)\n            ),\n            (\n                min_eth(SNX2BcSETH, address(SNXUniSwapTokenAddress))\n                    .mul(995)\n                    .div(1000)\n            ),\n            now.add(300),\n            address(sETHTokenAddress)\n        );\n\n        // adding liquidity\n        uint256 LPU = UniswapExchangeInterface(address(sETH_LP_TokenAddress))\n            .addLiquidity\n            .value(ETHfromSNX)(\n            1,\n            getMaxTokens(\n                address(sETH_LP_TokenAddress),\n                sETHTokenAddress,\n                ETHfromSNX\n            ),\n            now.add(300)\n        );\n\n        // converting the balance sETH to SNX\n\n        UniswapExchangeInterface(address(sETH_LP_TokenAddress))\n            .tokenToTokenSwapInput(\n            (sETHTokenAddress.balanceOf(address(this))),\n            min_tokens(\n                (\n                    min_eth(\n                        (sETHTokenAddress.balanceOf(address(this))),\n                        address(sETH_LP_TokenAddress)\n                    )\n                        .mul(995)\n                        .div(1000)\n                ),\n                address(SNXUniSwapTokenAddress)\n            ),\n            (\n                min_eth(\n                    (sETHTokenAddress.balanceOf(address(this))),\n                    address(sETH_LP_TokenAddress)\n                )\n                    .mul(995)\n                    .div(1000)\n            ),\n            now.add(300),\n            address(SNXTokenAddress)\n        );\n\n        return LPU;\n    }\n\n    function getMaxTokens(address uniExchAdd, IERC20 ERC20Add, uint256 value)\n        public\n        view\n        returns (uint256)\n    {\n        uint256 contractBalance = address(uniExchAdd).balance;\n        uint256 eth_reserve = SafeMath.sub(contractBalance, value);\n        uint256 token_reserve = ERC20Add.balanceOf(uniExchAdd);\n        uint256 token_amount = SafeMath.div(\n            SafeMath.mul(value, token_reserve),\n            eth_reserve\n        ) +\n            1;\n        return token_amount;\n    }\n\n    function min_eth(uint256 tokenQTY, address uniExchAdd)\n        public\n        view\n        returns (uint256)\n    {\n        return\n            UniswapExchangeInterface(uniExchAdd).getTokenToEthInputPrice(\n                tokenQTY\n            );\n    }\n\n    function min_tokens(uint256 ethAmt, address uniExchAdd)\n        public\n        view\n        returns (uint256)\n    {\n        return\n            UniswapExchangeInterface(uniExchAdd).getEthToTokenInputPrice(\n                ethAmt\n            );\n    }\n\n    function getMyStakeOut(uint256 _tokenQTY) public {\n        require(balanceOf[msg.sender] >= _tokenQTY, \"Withdrawing qty invalid\");\n        (uint256 totalLPs, uint256 totalDZTs) = getDetails(false);\n        uint256 LPs2bRedemeed = (_tokenQTY.mul(totalLPs)).div(totalDZTs);\n        uint256 LPsInHand = sETH_LP_TokenAddress.balanceOf(address(this));\n        if (LPs2bRedemeed > LPsInHand) {\n            uint256 LPsShortOf = LPs2bRedemeed.sub(LPsInHand);\n            Unipool(UnipoolAddress).withdraw(LPsShortOf);\n            sETH_LP_TokenAddress.transfer(msg.sender, LPs2bRedemeed);\n        } else {\n            sETH_LP_TokenAddress.transfer(msg.sender, LPs2bRedemeed);\n            uint256 leftOverLPs = sETH_LP_TokenAddress.balanceOf(address(this));\n            if (leftOverLPs > 0) {\n                Unipool(UnipoolAddress).stake(leftOverLPs);\n            }\n        }\n        totalLPTokensStaked = totalLPTokensStaked.sub(LPs2bRedemeed);\n        burn(msg.sender, _tokenQTY);\n    }\n\n    function mint(address account, uint256 amount) internal {\n        require(account != address(0), \"ERC20: mint to the zero address\");\n        // _beforeTokenTransfer(address(0), account, amount);\n        totalSupply = totalSupply.add(amount);\n        balanceOf[account] = balanceOf[account].add(amount);\n        emit Transfer(address(0), account, amount);\n    }\n\n    function burn(address account, uint256 amount) internal {\n        require(account != address(0), \"ERC20: burn from the zero address\");\n        // _beforeTokenTransfer(account, address(0), amount);\n        balanceOf[account] = balanceOf[account].sub(\n            amount,\n            \"ERC20: burn amount exceeds balance\"\n        );\n        totalSupply = totalSupply.sub(amount);\n        emit Transfer(account, address(0), amount);\n    }\n\n    function transfer(address recipient, uint256 amount) public returns (bool) {\n        _transfer(msg.sender, recipient, amount);\n        return true;\n    }\n\n    function approve(address spender, uint256 amount) public returns (bool) {\n        _approve(msg.sender, spender, amount);\n        return true;\n    }\n\n    function transferFrom(address sender, address recipient, uint256 amount)\n        public\n        returns (bool)\n    {\n        _transfer(sender, recipient, amount);\n        _approve(\n            sender,\n            msg.sender,\n            allowance[sender][msg.sender].sub(\n                amount,\n                \"ERC20: transfer amount exceeds allowance\"\n            )\n        );\n        return true;\n    }\n\n    function _transfer(address sender, address recipient, uint256 amount)\n        internal\n    {\n        require(sender != address(0), \"ERC20: transfer from the zero address\");\n        require(recipient != address(0), \"ERC20: transfer to the zero address\");\n        // _beforeTokenTransfer(sender, recipient, amount);\n        balanceOf[sender] = balanceOf[sender].sub(\n            amount,\n            \"ERC20: transfer amount exceeds balance\"\n        );\n        balanceOf[recipient] = balanceOf[recipient].add(amount);\n        emit Transfer(sender, recipient, amount);\n    }\n\n    function _approve(address owner, address spender, uint256 amount) internal {\n        require(owner != address(0), \"ERC20: approve from the zero address\");\n        require(spender != address(0), \"ERC20: approve to the zero address\");\n        allowance[owner][spender] = amount;\n        emit Approval(owner, spender, amount);\n    }\n\n    function() external payable {\n        emit internall(\"got cash\", msg.value);\n    }\n\n}\n",
  "sourcePath": "contracts/iUniPool.sol",
  "abi": [
    {
      "inputs": [],
      "payable": false,
      "stateMutability": "nonpayable",
      "type": "constructor"
    },
    {
      "anonymous": false,
      "inputs": [
        {
          "indexed": true,
          "internalType": "address",
          "name": "src",
          "type": "address"
        },
        {
          "indexed": true,
          "internalType": "address",
          "name": "guy",
          "type": "address"
        },
        {
          "indexed": false,
          "internalType": "uint256",
          "name": "wad",
          "type": "uint256"
        }
      ],
      "name": "Approval",
      "type": "event"
    },
    {
      "anonymous": false,
      "inputs": [
        {
          "indexed": true,
          "internalType": "address",
          "name": "staker",
          "type": "address"
        },
        {
          "indexed": false,
          "internalType": "uint256",
          "name": "qtyStaked",
          "type": "uint256"
        }
      ],
      "name": "LPTokensStaked",
      "type": "event"
    },
    {
      "anonymous": false,
      "inputs": [
        {
          "indexed": true,
          "internalType": "address",
          "name": "leaver",
          "type": "address"
        },
        {
          "indexed": false,
          "internalType": "uint256",
          "name": "qtyWithdrawn",
          "type": "uint256"
        }
      ],
      "name": "LPTokensWithdrawn",
      "type": "event"
    },
    {
      "anonymous": false,
      "inputs": [
        {
          "indexed": true,
          "internalType": "address",
          "name": "src",
          "type": "address"
        },
        {
          "indexed": true,
          "internalType": "address",
          "name": "dst",
          "type": "address"
        },
        {
          "indexed": false,
          "internalType": "uint256",
          "name": "wad",
          "type": "uint256"
        }
      ],
      "name": "Transfer",
      "type": "event"
    },
    {
      "anonymous": false,
      "inputs": [
        {
          "indexed": false,
          "internalType": "string",
          "name": "",
          "type": "string"
        },
        {
          "indexed": false,
          "internalType": "uint256",
          "name": "",
          "type": "uint256"
        }
      ],
      "name": "internall",
      "type": "event"
    },
    {
      "payable": true,
      "stateMutability": "payable",
      "type": "fallback"
    },
    {
      "constant": true,
      "inputs": [],
      "name": "SNXTokenAddress",
      "outputs": [
        {
          "internalType": "contract IERC20",
          "name": "",
          "type": "address"
        }
      ],
      "payable": false,
      "stateMutability": "view",
      "type": "function"
    },
    {
      "constant": true,
      "inputs": [],
      "name": "SNXUniSwapTokenAddress",
      "outputs": [
        {
          "internalType": "contract IERC20",
          "name": "",
          "type": "address"
        }
      ],
      "payable": false,
      "stateMutability": "view",
      "type": "function"
    },
    {
      "constant": true,
      "inputs": [],
      "name": "UnipoolAddress",
      "outputs": [
        {
          "internalType": "address",
          "name": "",
          "type": "address"
        }
      ],
      "payable": false,
      "stateMutability": "view",
      "type": "function"
    },
    {
      "constant": true,
      "inputs": [
        {
          "internalType": "address",
          "name": "",
          "type": "address"
        },
        {
          "internalType": "address",
          "name": "",
          "type": "address"
        }
      ],
      "name": "allowance",
      "outputs": [
        {
          "internalType": "uint256",
          "name": "",
          "type": "uint256"
        }
      ],
      "payable": false,
      "stateMutability": "view",
      "type": "function"
    },
    {
      "constant": false,
      "inputs": [
        {
          "internalType": "address",
          "name": "spender",
          "type": "address"
        },
        {
          "internalType": "uint256",
          "name": "amount",
          "type": "uint256"
        }
      ],
      "name": "approve",
      "outputs": [
        {
          "internalType": "bool",
          "name": "",
          "type": "bool"
        }
      ],
      "payable": false,
      "stateMutability": "nonpayable",
      "type": "function"
    },
    {
      "constant": true,
      "inputs": [
        {
          "internalType": "address",
          "name": "",
          "type": "address"
        }
      ],
      "name": "balanceOf",
      "outputs": [
        {
          "internalType": "uint256",
          "name": "",
          "type": "uint256"
        }
      ],
      "payable": false,
      "stateMutability": "view",
      "type": "function"
    },
    {
      "constant": false,
      "inputs": [
        {
          "internalType": "uint256",
          "name": "SNXQty",
          "type": "uint256"
        }
      ],
      "name": "convertSNXtoLP",
      "outputs": [
        {
          "internalType": "uint256",
          "name": "LPReceived",
          "type": "uint256"
        }
      ],
      "payable": false,
      "stateMutability": "nonpayable",
      "type": "function"
    },
    {
      "constant": true,
      "inputs": [],
      "name": "decimals",
      "outputs": [
        {
          "internalType": "uint8",
          "name": "",
          "type": "uint8"
        }
      ],
      "payable": false,
      "stateMutability": "view",
      "type": "function"
    },
    {
      "constant": true,
      "inputs": [
        {
          "internalType": "address",
          "name": "uniExchAdd",
          "type": "address"
        },
        {
          "internalType": "contract IERC20",
          "name": "ERC20Add",
          "type": "address"
        },
        {
          "internalType": "uint256",
          "name": "value",
          "type": "uint256"
        }
      ],
      "name": "getMaxTokens",
      "outputs": [
        {
          "internalType": "uint256",
          "name": "",
          "type": "uint256"
        }
      ],
      "payable": false,
      "stateMutability": "view",
      "type": "function"
    },
    {
      "constant": false,
      "inputs": [
        {
          "internalType": "uint256",
          "name": "_tokenQTY",
          "type": "uint256"
        }
      ],
      "name": "getMyStakeOut",
      "outputs": [],
      "payable": false,
      "stateMutability": "nonpayable",
      "type": "function"
    },
    {
      "constant": true,
      "inputs": [],
      "name": "howMuchHasThisContractEarned",
      "outputs": [
        {
          "internalType": "uint256",
          "name": "SNXEarned",
          "type": "uint256"
        }
      ],
      "payable": false,
      "stateMutability": "view",
      "type": "function"
    },
    {
      "constant": true,
      "inputs": [],
      "name": "howMuchHasThisContractStaked",
      "outputs": [
        {
          "internalType": "uint256",
          "name": "LPTokens",
          "type": "uint256"
        }
      ],
      "payable": false,
      "stateMutability": "view",
      "type": "function"
    },
    {
      "constant": true,
      "inputs": [
        {
          "internalType": "uint256",
          "name": "tokenQTY",
          "type": "uint256"
        },
        {
          "internalType": "address",
          "name": "uniExchAdd",
          "type": "address"
        }
      ],
      "name": "min_eth",
      "outputs": [
        {
          "internalType": "uint256",
          "name": "",
          "type": "uint256"
        }
      ],
      "payable": false,
      "stateMutability": "view",
      "type": "function"
    },
    {
      "constant": true,
      "inputs": [
        {
          "internalType": "uint256",
          "name": "ethAmt",
          "type": "uint256"
        },
        {
          "internalType": "address",
          "name": "uniExchAdd",
          "type": "address"
        }
      ],
      "name": "min_tokens",
      "outputs": [
        {
          "internalType": "uint256",
          "name": "",
          "type": "uint256"
        }
      ],
      "payable": false,
      "stateMutability": "view",
      "type": "function"
    },
    {
      "constant": true,
      "inputs": [],
      "name": "name",
      "outputs": [
        {
          "internalType": "string",
          "name": "",
          "type": "string"
        }
      ],
      "payable": false,
      "stateMutability": "view",
      "type": "function"
    },
    {
      "constant": false,
      "inputs": [
        {
          "internalType": "bool",
          "name": "enter",
          "type": "bool"
        }
      ],
      "name": "reBalance",
      "outputs": [
        {
          "internalType": "uint256",
          "name": "LPTokenWealth",
          "type": "uint256"
        }
      ],
      "payable": false,
      "stateMutability": "nonpayable",
      "type": "function"
    },
    {
      "constant": true,
      "inputs": [],
      "name": "sETHTokenAddress",
      "outputs": [
        {
          "internalType": "contract IERC20",
          "name": "",
          "type": "address"
        }
      ],
      "payable": false,
      "stateMutability": "view",
      "type": "function"
    },
    {
      "constant": true,
      "inputs": [],
      "name": "sETH_LP_TokenAddress",
      "outputs": [
        {
          "internalType": "contract IERC20",
          "name": "",
          "type": "address"
        }
      ],
      "payable": false,
      "stateMutability": "view",
      "type": "function"
    },
    {
      "constant": false,
      "inputs": [
        {
          "internalType": "uint256",
          "name": "_LPTokenUints",
          "type": "uint256"
        }
      ],
      "name": "stakeMyShare",
      "outputs": [
        {
          "internalType": "uint256",
          "name": "",
          "type": "uint256"
        }
      ],
      "payable": false,
      "stateMutability": "nonpayable",
      "type": "function"
    },
    {
      "constant": true,
      "inputs": [],
      "name": "symbol",
      "outputs": [
        {
          "internalType": "string",
          "name": "",
          "type": "string"
        }
      ],
      "payable": false,
      "stateMutability": "view",
      "type": "function"
    },
    {
      "constant": true,
      "inputs": [],
      "name": "totalLPTokensStaked",
      "outputs": [
        {
          "internalType": "uint256",
          "name": "",
          "type": "uint256"
        }
      ],
      "payable": false,
      "stateMutability": "view",
      "type": "function"
    },
    {
      "constant": true,
      "inputs": [],
      "name": "totalSupply",
      "outputs": [
        {
          "internalType": "uint256",
          "name": "",
          "type": "uint256"
        }
      ],
      "payable": false,
      "stateMutability": "view",
      "type": "function"
    },
    {
      "constant": false,
      "inputs": [
        {
          "internalType": "address",
          "name": "recipient",
          "type": "address"
        },
        {
          "internalType": "uint256",
          "name": "amount",
          "type": "uint256"
        }
      ],
      "name": "transfer",
      "outputs": [
        {
          "internalType": "bool",
          "name": "",
          "type": "bool"
        }
      ],
      "payable": false,
      "stateMutability": "nonpayable",
      "type": "function"
    },
    {
      "constant": false,
      "inputs": [
        {
          "internalType": "address",
          "name": "sender",
          "type": "address"
        },
        {
          "internalType": "address",
          "name": "recipient",
          "type": "address"
        },
        {
          "internalType": "uint256",
          "name": "amount",
          "type": "uint256"
        }
      ],
      "name": "transferFrom",
      "outputs": [
        {
          "internalType": "bool",
          "name": "",
          "type": "bool"
        }
      ],
      "payable": false,
      "stateMutability": "nonpayable",
      "type": "function"
    },
    {
      "constant": true,
      "inputs": [],
      "name": "version",
      "outputs": [
        {
          "internalType": "string",
          "name": "",
          "type": "string"
        }
      ],
      "payable": false,
      "stateMutability": "view",
      "type": "function"
    }
  ],
  "bytecode": "0x60806040523480156200001157600080fd5b50620000226200002860201b60201c565b62000354565b73e9cf7887b93150d4f2da7dfc6d502b216438f24473ffffffffffffffffffffffffffffffffffffffff1663095ea7b37348d7f315fedcad332f68aafa017c7c158bc547607fffffffffffffffffffffffffffffffffffffffffffffffffffffffffffffffff6040518363ffffffff1660e01b8152600401808373ffffffffffffffffffffffffffffffffffffffff1673ffffffffffffffffffffffffffffffffffffffff16815260200182815260200192505050602060405180830381600087803b158015620000f857600080fd5b505af11580156200010d573d6000803e3d6000fd5b505050506040513d60208110156200012457600080fd5b81019080805190602001909291905050505073c011a73ee8576fb46f5e1c5751ca3b9fe0af2a6f73ffffffffffffffffffffffffffffffffffffffff1663095ea7b3733958b4ec427f8fa24eb60f42821760e88d485f7f7fffffffffffffffffffffffffffffffffffffffffffffffffffffffffffffffff6040518363ffffffff1660e01b8152600401808373ffffffffffffffffffffffffffffffffffffffff1673ffffffffffffffffffffffffffffffffffffffff16815260200182815260200192505050602060405180830381600087803b1580156200020657600080fd5b505af11580156200021b573d6000803e3d6000fd5b505050506040513d60208110156200023257600080fd5b810190808051906020019092919050505050735e74c9036fb86bd7ecdcb084a0673efc32ea31cb73ffffffffffffffffffffffffffffffffffffffff1663095ea7b373e9cf7887b93150d4f2da7dfc6d502b216438f2447fffffffffffffffffffffffffffffffffffffffffffffffffffffffffffffffff6040518363ffffffff1660e01b8152600401808373ffffffffffffffffffffffffffffffffffffffff1673ffffffffffffffffffffffffffffffffffffffff16815260200182815260200192505050602060405180830381600087803b1580156200031457600080fd5b505af115801562000329573d6000803e3d6000fd5b505050506040513d60208110156200034057600080fd5b810190808051906020019092919050505050565b61349e80620003646000396000f3fe6080604052600436106101965760003560e01c806370a08231116100e1578063b1adb1901161008a578063e4c7821111610064578063e4c78211146109fa578063e5be1a9614610a51578063f1171fe114610a7c578063f70f489314610aeb57610196565b8063b1adb1901461088f578063bbaabe041461091e578063dd62ed3e1461097557610196565b8063a75afc7d116100bb578063a75afc7d1461077c578063a9059cbb146107cd578063aca5bbd01461084057610196565b806370a082311461064c57806395d89b41146106b1578063966eed1f1461074157610196565b806323b872dd11610143578063522ffa3c1161011d578063522ffa3c1461054257806354fd4d50146105915780636c57e5751461062157610196565b806323b872dd14610453578063313ce567146104e65780634211a5951461051757610196565b8063161e8e8211610174578063161e8e821461036257806318160ddd146103b95780631f7604b8146103e457610196565b806306fdde0314610208578063095ea7b31461029857806314d742041461030b575b7f4f0ebd40ebf17fb5f44478155c0280633653900a58f6e78baa63e9b746fed051346040518080602001838152602001828103825260088152602001807f676f7420636173680000000000000000000000000000000000000000000000008152506020019250505060405180910390a1005b34801561021457600080fd5b5061021d610b42565b6040518080602001828103825283818151815260200191508051906020019080838360005b8381101561025d578082015181840152602081019050610242565b50505050905090810190601f16801561028a5780820380516001836020036101000a031916815260200191505b509250505060405180910390f35b3480156102a457600080fd5b506102f1600480360360408110156102bb57600080fd5b81019080803573ffffffffffffffffffffffffffffffffffffffff16906020019092919080359060200190929190505050610b7b565b604051808215151515815260200191505060405180910390f35b34801561031757600080fd5b50610320610b92565b604051808273ffffffffffffffffffffffffffffffffffffffff1673ffffffffffffffffffffffffffffffffffffffff16815260200191505060405180910390f35b34801561036e57600080fd5b50610377610baa565b604051808273ffffffffffffffffffffffffffffffffffffffff1673ffffffffffffffffffffffffffffffffffffffff16815260200191505060405180910390f35b3480156103c557600080fd5b506103ce610bc2565b6040518082815260200191505060405180910390f35b3480156103f057600080fd5b5061043d6004803603604081101561040757600080fd5b8101908080359060200190929190803573ffffffffffffffffffffffffffffffffffffffff169060200190929190505050610bc8565b6040518082815260200191505060405180910390f35b34801561045f57600080fd5b506104cc6004803603606081101561047657600080fd5b81019080803573ffffffffffffffffffffffffffffffffffffffff169060200190929190803573ffffffffffffffffffffffffffffffffffffffff16906020019092919080359060200190929190505050610c5e565b604051808215151515815260200191505060405180910390f35b3480156104f257600080fd5b506104fb610d29565b604051808260ff1660ff16815260200191505060405180910390f35b34801561052357600080fd5b5061052c610d2e565b6040518082815260200191505060405180910390f35b34801561054e57600080fd5b5061057b6004803603602081101561056557600080fd5b8101908080359060200190929190505050610d34565b6040518082815260200191505060405180910390f35b34801561059d57600080fd5b506105a661155d565b6040518080602001828103825283818151815260200191508051906020019080838360005b838110156105e65780820151818401526020810190506105cb565b50505050905090810190601f1680156106135780820380516001836020036101000a031916815260200191505b509250505060405180910390f35b34801561062d57600080fd5b50610636611596565b6040518082815260200191505060405180910390f35b34801561065857600080fd5b5061069b6004803603602081101561066f57600080fd5b81019080803573ffffffffffffffffffffffffffffffffffffffff169060200190929190505050611669565b6040518082815260200191505060405180910390f35b3480156106bd57600080fd5b506106c6611681565b6040518080602001828103825283818151815260200191508051906020019080838360005b838110156107065780820151818401526020810190506106eb565b50505050905090810190601f1680156107335780820380516001836020036101000a031916815260200191505b509250505060405180910390f35b34801561074d57600080fd5b5061077a6004803603602081101561076457600080fd5b81019080803590602001909291905050506116ba565b005b34801561078857600080fd5b506107b76004803603602081101561079f57600080fd5b81019080803515159060200190929190505050611c52565b6040518082815260200191505060405180910390f35b3480156107d957600080fd5b50610826600480360360408110156107f057600080fd5b81019080803573ffffffffffffffffffffffffffffffffffffffff16906020019092919080359060200190929190505050612059565b604051808215151515815260200191505060405180910390f35b34801561084c57600080fd5b506108796004803603602081101561086357600080fd5b8101908080359060200190929190505050612070565b6040518082815260200191505060405180910390f35b34801561089b57600080fd5b50610908600480360360608110156108b257600080fd5b81019080803573ffffffffffffffffffffffffffffffffffffffff169060200190929190803573ffffffffffffffffffffffffffffffffffffffff1690602001909291908035906020019092919050505061229e565b6040518082815260200191505060405180910390f35b34801561092a57600080fd5b506109336123ad565b604051808273ffffffffffffffffffffffffffffffffffffffff1673ffffffffffffffffffffffffffffffffffffffff16815260200191505060405180910390f35b34801561098157600080fd5b506109e46004803603604081101561099857600080fd5b81019080803573ffffffffffffffffffffffffffffffffffffffff169060200190929190803573ffffffffffffffffffffffffffffffffffffffff1690602001909291905050506123c5565b6040518082815260200191505060405180910390f35b348015610a0657600080fd5b50610a0f6123ea565b604051808273ffffffffffffffffffffffffffffffffffffffff1673ffffffffffffffffffffffffffffffffffffffff16815260200191505060405180910390f35b348015610a5d57600080fd5b50610a66612402565b6040518082815260200191505060405180910390f35b348015610a8857600080fd5b50610ad560048036036040811015610a9f57600080fd5b8101908080359060200190929190803573ffffffffffffffffffffffffffffffffffffffff1690602001909291905050506124d4565b6040518082815260200191505060405180910390f35b348015610af757600080fd5b50610b0061256a565b604051808273ffffffffffffffffffffffffffffffffffffffff1673ffffffffffffffffffffffffffffffffffffffff16815260200191505060405180910390f35b6040518060400160405280600581526020017f445a534c5400000000000000000000000000000000000000000000000000000081525081565b6000610b88338484612582565b6001905092915050565b73e9cf7887b93150d4f2da7dfc6d502b216438f24481565b733958b4ec427f8fa24eb60f42821760e88d485f7f81565b60005481565b60008173ffffffffffffffffffffffffffffffffffffffff166395b68fe7846040518263ffffffff1660e01b81526004018082815260200191505060206040518083038186803b158015610c1b57600080fd5b505afa158015610c2f573d6000803e3d6000fd5b505050506040513d6020811015610c4557600080fd5b8101908080519060200190929190505050905092915050565b6000610c6b848484612779565b610d1e8433610d19856040518060600160405280602881526020016133d860289139600360008b73ffffffffffffffffffffffffffffffffffffffff1673ffffffffffffffffffffffffffffffffffffffff16815260200190815260200160002060003373ffffffffffffffffffffffffffffffffffffffff1673ffffffffffffffffffffffffffffffffffffffff16815260200190815260200160002054612a339092919063ffffffff16565b612582565b600190509392505050565b601281565b60015481565b600080610d57612710610d4985611379612af3565b612b7990919063ffffffff16565b90506000610d658483612bc3565b90506000733958b4ec427f8fa24eb60f42821760e88d485f7f73ffffffffffffffffffffffffffffffffffffffff166395e3c50b84610de06103e8610dd26103e3610dc48a733958b4ec427f8fa24eb60f42821760e88d485f7f610bc8565b612af390919063ffffffff16565b612b7990919063ffffffff16565b610df561012c42612c0d90919063ffffffff16565b6040518463ffffffff1660e01b8152600401808481526020018381526020018281526020019350505050602060405180830381600087803b158015610e3957600080fd5b505af1158015610e4d573d6000803e3d6000fd5b505050506040513d6020811015610e6357600080fd5b81019080805190602001909291905050509050733958b4ec427f8fa24eb60f42821760e88d485f7f73ffffffffffffffffffffffffffffffffffffffff1663ddf7e1a783610f0a610ef06103e8610ee26103e3610ed48a733958b4ec427f8fa24eb60f42821760e88d485f7f610bc8565b612af390919063ffffffff16565b612b7990919063ffffffff16565b73e9cf7887b93150d4f2da7dfc6d502b216438f2446124d4565b610f506103e8610f426103e3610f348a733958b4ec427f8fa24eb60f42821760e88d485f7f610bc8565b612af390919063ffffffff16565b612b7990919063ffffffff16565b610f6561012c42612c0d90919063ffffffff16565b735e74c9036fb86bd7ecdcb084a0673efc32ea31cb6040518663ffffffff1660e01b8152600401808681526020018581526020018481526020018381526020018273ffffffffffffffffffffffffffffffffffffffff1673ffffffffffffffffffffffffffffffffffffffff16815260200195505050505050602060405180830381600087803b158015610ff857600080fd5b505af115801561100c573d6000803e3d6000fd5b505050506040513d602081101561102257600080fd5b810190808051906020019092919050505050600073e9cf7887b93150d4f2da7dfc6d502b216438f24473ffffffffffffffffffffffffffffffffffffffff1663422f104383600161109c73e9cf7887b93150d4f2da7dfc6d502b216438f244735e74c9036fb86bd7ecdcb084a0673efc32ea31cb8861229e565b6110b161012c42612c0d90919063ffffffff16565b6040518563ffffffff1660e01b81526004018084815260200183815260200182815260200193505050506020604051808303818588803b1580156110f457600080fd5b505af1158015611108573d6000803e3d6000fd5b50505050506040513d602081101561111f57600080fd5b8101908080519060200190929190505050905073e9cf7887b93150d4f2da7dfc6d502b216438f24473ffffffffffffffffffffffffffffffffffffffff1663ddf7e1a7735e74c9036fb86bd7ecdcb084a0673efc32ea31cb73ffffffffffffffffffffffffffffffffffffffff166370a08231306040518263ffffffff1660e01b8152600401808273ffffffffffffffffffffffffffffffffffffffff1673ffffffffffffffffffffffffffffffffffffffff16815260200191505060206040518083038186803b1580156111f357600080fd5b505afa158015611207573d6000803e3d6000fd5b505050506040513d602081101561121d57600080fd5b810190808051906020019092919050505061135c6113426103e86113346103e3611326735e74c9036fb86bd7ecdcb084a0673efc32ea31cb73ffffffffffffffffffffffffffffffffffffffff166370a08231306040518263ffffffff1660e01b8152600401808273ffffffffffffffffffffffffffffffffffffffff1673ffffffffffffffffffffffffffffffffffffffff16815260200191505060206040518083038186803b1580156112d157600080fd5b505afa1580156112e5573d6000803e3d6000fd5b505050506040513d60208110156112fb57600080fd5b810190808051906020019092919050505073e9cf7887b93150d4f2da7dfc6d502b216438f244610bc8565b612af390919063ffffffff16565b612b7990919063ffffffff16565b733958b4ec427f8fa24eb60f42821760e88d485f7f6124d4565b61146d6103e861145f6103e3611451735e74c9036fb86bd7ecdcb084a0673efc32ea31cb73ffffffffffffffffffffffffffffffffffffffff166370a08231306040518263ffffffff1660e01b8152600401808273ffffffffffffffffffffffffffffffffffffffff1673ffffffffffffffffffffffffffffffffffffffff16815260200191505060206040518083038186803b1580156113fc57600080fd5b505afa158015611410573d6000803e3d6000fd5b505050506040513d602081101561142657600080fd5b810190808051906020019092919050505073e9cf7887b93150d4f2da7dfc6d502b216438f244610bc8565b612af390919063ffffffff16565b612b7990919063ffffffff16565b61148261012c42612c0d90919063ffffffff16565b73c011a73ee8576fb46f5e1c5751ca3b9fe0af2a6f6040518663ffffffff1660e01b8152600401808681526020018581526020018481526020018381526020018273ffffffffffffffffffffffffffffffffffffffff1673ffffffffffffffffffffffffffffffffffffffff16815260200195505050505050602060405180830381600087803b15801561151557600080fd5b505af1158015611529573d6000803e3d6000fd5b505050506040513d602081101561153f57600080fd5b81019080805190602001909291905050505080945050505050919050565b6040518060400160405280600181526020017f310000000000000000000000000000000000000000000000000000000000000081525081565b60007348d7f315fedcad332f68aafa017c7c158bc5476073ffffffffffffffffffffffffffffffffffffffff166370a08231306040518263ffffffff1660e01b8152600401808273ffffffffffffffffffffffffffffffffffffffff1673ffffffffffffffffffffffffffffffffffffffff16815260200191505060206040518083038186803b15801561162957600080fd5b505afa15801561163d573d6000803e3d6000fd5b505050506040513d602081101561165357600080fd5b8101908080519060200190929190505050905090565b60026020528060005260406000206000915090505481565b6040518060400160405280600581526020017f445a534c5400000000000000000000000000000000000000000000000000000081525081565b80600260003373ffffffffffffffffffffffffffffffffffffffff1673ffffffffffffffffffffffffffffffffffffffff16815260200190815260200160002054101561176f576040517f08c379a00000000000000000000000000000000000000000000000000000000081526004018080602001828103825260178152602001807f5769746864726177696e672071747920696e76616c696400000000000000000081525060200191505060405180910390fd5b60008061177c6000612c95565b9150915060006117a7826117998587612af390919063ffffffff16565b612b7990919063ffffffff16565b9050600073e9cf7887b93150d4f2da7dfc6d502b216438f24473ffffffffffffffffffffffffffffffffffffffff166370a08231306040518263ffffffff1660e01b8152600401808273ffffffffffffffffffffffffffffffffffffffff1673ffffffffffffffffffffffffffffffffffffffff16815260200191505060206040518083038186803b15801561183c57600080fd5b505afa158015611850573d6000803e3d6000fd5b505050506040513d602081101561186657600080fd5b81019080805190602001909291905050509050808211156119f45760006118968284612bc390919063ffffffff16565b90507348d7f315fedcad332f68aafa017c7c158bc5476073ffffffffffffffffffffffffffffffffffffffff16632e1a7d4d826040518263ffffffff1660e01b815260040180828152602001915050600060405180830381600087803b1580156118ff57600080fd5b505af1158015611913573d6000803e3d6000fd5b5050505073e9cf7887b93150d4f2da7dfc6d502b216438f24473ffffffffffffffffffffffffffffffffffffffff1663a9059cbb33856040518363ffffffff1660e01b8152600401808373ffffffffffffffffffffffffffffffffffffffff1673ffffffffffffffffffffffffffffffffffffffff16815260200182815260200192505050602060405180830381600087803b1580156119b257600080fd5b505af11580156119c6573d6000803e3d6000fd5b505050506040513d60208110156119dc57600080fd5b81019080805190602001909291905050505050611c26565b73e9cf7887b93150d4f2da7dfc6d502b216438f24473ffffffffffffffffffffffffffffffffffffffff1663a9059cbb33846040518363ffffffff1660e01b8152600401808373ffffffffffffffffffffffffffffffffffffffff1673ffffffffffffffffffffffffffffffffffffffff16815260200182815260200192505050602060405180830381600087803b158015611a8f57600080fd5b505af1158015611aa3573d6000803e3d6000fd5b505050506040513d6020811015611ab957600080fd5b810190808051906020019092919050505050600073e9cf7887b93150d4f2da7dfc6d502b216438f24473ffffffffffffffffffffffffffffffffffffffff166370a08231306040518263ffffffff1660e01b8152600401808273ffffffffffffffffffffffffffffffffffffffff1673ffffffffffffffffffffffffffffffffffffffff16815260200191505060206040518083038186803b158015611b5e57600080fd5b505afa158015611b72573d6000803e3d6000fd5b505050506040513d6020811015611b8857600080fd5b810190808051906020019092919050505090506000811115611c24577348d7f315fedcad332f68aafa017c7c158bc5476073ffffffffffffffffffffffffffffffffffffffff1663a694fc3a826040518263ffffffff1660e01b815260040180828152602001915050600060405180830381600087803b158015611c0b57600080fd5b505af1158015611c1f573d6000803e3d6000fd5b505050505b505b611c3b82600154612bc390919063ffffffff16565b600181905550611c4b3386612dba565b5050505050565b600065048c27395000611c63612402565b111561204e577f4f0ebd40ebf17fb5f44478155c0280633653900a58f6e78baa63e9b746fed051611c92612402565b6040518080602001838152602001828103825260208152602001807f4561726e696e6773206d6f7265207468616e20746865207468726573686f6c648152506020019250505060405180910390a17348d7f315fedcad332f68aafa017c7c158bc5476073ffffffffffffffffffffffffffffffffffffffff16633d18b9126040518163ffffffff1660e01b8152600401600060405180830381600087803b158015611d3c57600080fd5b505af1158015611d50573d6000803e3d6000fd5b505050507f4f0ebd40ebf17fb5f44478155c0280633653900a58f6e78baa63e9b746fed051600c60405180806020018381526020018281038252600f8152602001807f436c61696d696e672052657761726400000000000000000000000000000000008152506020019250505060405180910390a1600073c011a73ee8576fb46f5e1c5751ca3b9fe0af2a6f73ffffffffffffffffffffffffffffffffffffffff166370a08231306040518263ffffffff1660e01b8152600401808273ffffffffffffffffffffffffffffffffffffffff1673ffffffffffffffffffffffffffffffffffffffff16815260200191505060206040518083038186803b158015611e5857600080fd5b505afa158015611e6c573d6000803e3d6000fd5b505050506040513d6020811015611e8257600080fd5b810190808051906020019092919050505090506000611ea082610d34565b90507f4f0ebd40ebf17fb5f44478155c0280633653900a58f6e78baa63e9b746fed0518160405180806020018381526020018281038252600e8152602001807f4c504a75737452656365697665640000000000000000000000000000000000008152506020019250505060405180910390a18315612030577348d7f315fedcad332f68aafa017c7c158bc5476073ffffffffffffffffffffffffffffffffffffffff1663a694fc3a826040518263ffffffff1660e01b815260040180828152602001915050600060405180830381600087803b158015611f7f57600080fd5b505af1158015611f93573d6000803e3d6000fd5b50505050611fac81600154612c0d90919063ffffffff16565b6001819055507f4f0ebd40ebf17fb5f44478155c0280633653900a58f6e78baa63e9b746fed0516001546040518080602001838152602001828103825260138152602001807f746f74616c4c50546f6b656e735374616b6564000000000000000000000000008152506020019250505060405180910390a160015492505050612054565b61204581600154612c0d90919063ffffffff16565b92505050612054565b60015490505b919050565b6000612066338484612779565b6001905092915050565b600073e9cf7887b93150d4f2da7dfc6d502b216438f24473ffffffffffffffffffffffffffffffffffffffff166323b872dd3330856040518463ffffffff1660e01b8152600401808473ffffffffffffffffffffffffffffffffffffffff1673ffffffffffffffffffffffffffffffffffffffff1681526020018373ffffffffffffffffffffffffffffffffffffffff1673ffffffffffffffffffffffffffffffffffffffff1681526020018281526020019350505050602060405180830381600087803b15801561214157600080fd5b505af1158015612155573d6000803e3d6000fd5b505050506040513d602081101561216b57600080fd5b81019080805190602001909291905050505060006121893384612f74565b90507f4f0ebd40ebf17fb5f44478155c0280633653900a58f6e78baa63e9b746fed051816040518080602001838152602001828103825260068152602001807f746f6b656e7300000000000000000000000000000000000000000000000000008152506020019250505060405180910390a17348d7f315fedcad332f68aafa017c7c158bc5476073ffffffffffffffffffffffffffffffffffffffff1663a694fc3a846040518263ffffffff1660e01b815260040180828152602001915050600060405180830381600087803b15801561226257600080fd5b505af1158015612276573d6000803e3d6000fd5b5050505061228f83600154612c0d90919063ffffffff16565b60018190555080915050919050565b6000808473ffffffffffffffffffffffffffffffffffffffff1631905060006122c78285612bc3565b905060008573ffffffffffffffffffffffffffffffffffffffff166370a08231886040518263ffffffff1660e01b8152600401808273ffffffffffffffffffffffffffffffffffffffff1673ffffffffffffffffffffffffffffffffffffffff16815260200191505060206040518083038186803b15801561234857600080fd5b505afa15801561235c573d6000803e3d6000fd5b505050506040513d602081101561237257600080fd5b810190808051906020019092919050505090506000600161239c6123968885612af3565b85612b79565b019050809450505050509392505050565b73c011a73ee8576fb46f5e1c5751ca3b9fe0af2a6f81565b6003602052816000526040600020602052806000526040600020600091509150505481565b7348d7f315fedcad332f68aafa017c7c158bc5476081565b60007348d7f315fedcad332f68aafa017c7c158bc5476073ffffffffffffffffffffffffffffffffffffffff16628cc262306040518263ffffffff1660e01b8152600401808273ffffffffffffffffffffffffffffffffffffffff1673ffffffffffffffffffffffffffffffffffffffff16815260200191505060206040518083038186803b15801561249457600080fd5b505afa1580156124a8573d6000803e3d6000fd5b505050506040513d60208110156124be57600080fd5b8101908080519060200190929190505050905090565b60008173ffffffffffffffffffffffffffffffffffffffff1663cd7724c3846040518263ffffffff1660e01b81526004018082815260200191505060206040518083038186803b15801561252757600080fd5b505afa15801561253b573d6000803e3d6000fd5b505050506040513d602081101561255157600080fd5b8101908080519060200190929190505050905092915050565b735e74c9036fb86bd7ecdcb084a0673efc32ea31cb81565b600073ffffffffffffffffffffffffffffffffffffffff168373ffffffffffffffffffffffffffffffffffffffff161415612608576040517f08c379a00000000000000000000000000000000000000000000000000000000081526004018080602001828103825260248152602001806134466024913960400191505060405180910390fd5b600073ffffffffffffffffffffffffffffffffffffffff168273ffffffffffffffffffffffffffffffffffffffff16141561268e576040517f08c379a000000000000000000000000000000000000000000000000000000000815260040180806020018281038252602281526020018061336f6022913960400191505060405180910390fd5b80600360008573ffffffffffffffffffffffffffffffffffffffff1673ffffffffffffffffffffffffffffffffffffffff16815260200190815260200160002060008473ffffffffffffffffffffffffffffffffffffffff1673ffffffffffffffffffffffffffffffffffffffff168152602001908152602001600020819055508173ffffffffffffffffffffffffffffffffffffffff168373ffffffffffffffffffffffffffffffffffffffff167f8c5be1e5ebec7d5bd14f71427d1e84f3dd0314c0f7b2291e5b200ac8c7c3b925836040518082815260200191505060405180910390a3505050565b600073ffffffffffffffffffffffffffffffffffffffff168373ffffffffffffffffffffffffffffffffffffffff1614156127ff576040517f08c379a00000000000000000000000000000000000000000000000000000000081526004018080602001828103825260258152602001806134216025913960400191505060405180910390fd5b600073ffffffffffffffffffffffffffffffffffffffff168273ffffffffffffffffffffffffffffffffffffffff161415612885576040517f08c379a000000000000000000000000000000000000000000000000000000000815260040180806020018281038252602381526020018061332a6023913960400191505060405180910390fd5b6128f18160405180606001604052806026815260200161339160269139600260008773ffffffffffffffffffffffffffffffffffffffff1673ffffffffffffffffffffffffffffffffffffffff16815260200190815260200160002054612a339092919063ffffffff16565b600260008573ffffffffffffffffffffffffffffffffffffffff1673ffffffffffffffffffffffffffffffffffffffff1681526020019081526020016000208190555061298681600260008573ffffffffffffffffffffffffffffffffffffffff1673ffffffffffffffffffffffffffffffffffffffff16815260200190815260200160002054612c0d90919063ffffffff16565b600260008473ffffffffffffffffffffffffffffffffffffffff1673ffffffffffffffffffffffffffffffffffffffff168152602001908152602001600020819055508173ffffffffffffffffffffffffffffffffffffffff168373ffffffffffffffffffffffffffffffffffffffff167fddf252ad1be2c89b69c2b068fc378daa952ba7f163c4a11628f55a4df523b3ef836040518082815260200191505060405180910390a3505050565b6000838311158290612ae0576040517f08c379a00000000000000000000000000000000000000000000000000000000081526004018080602001828103825283818151815260200191508051906020019080838360005b83811015612aa5578082015181840152602081019050612a8a565b50505050905090810190601f168015612ad25780820380516001836020036101000a031916815260200191505b509250505060405180910390fd5b5060008385039050809150509392505050565b600080831415612b065760009050612b73565b6000828402905082848281612b1757fe5b0414612b6e576040517f08c379a00000000000000000000000000000000000000000000000000000000081526004018080602001828103825260218152602001806133b76021913960400191505060405180910390fd5b809150505b92915050565b6000612bbb83836040518060400160405280601a81526020017f536166654d6174683a206469766973696f6e206279207a65726f0000000000008152506130a6565b905092915050565b6000612c0583836040518060400160405280601e81526020017f536166654d6174683a207375627472616374696f6e206f766572666c6f770000815250612a33565b905092915050565b600080828401905083811015612c8b576040517f08c379a000000000000000000000000000000000000000000000000000000000815260040180806020018281038252601b8152602001807f536166654d6174683a206164646974696f6e206f766572666c6f77000000000081525060200191505060405180910390fd5b8091505092915050565b6000806000600154148015612cab575060008054145b15612d33577f4f0ebd40ebf17fb5f44478155c0280633653900a58f6e78baa63e9b746fed05160006040518080602001838152602001828103825260108152602001807f656e746572696e672070686173652031000000000000000000000000000000008152506020019250505060405180910390a160018081915080905091509150612db5565b7f4f0ebd40ebf17fb5f44478155c0280633653900a58f6e78baa63e9b746fed05160016040518080602001838152602001828103825260108152602001807f656e746572696e672070686173652032000000000000000000000000000000008152506020019250505060405180910390a1612dad83611c52565b600054915091505b915091565b600073ffffffffffffffffffffffffffffffffffffffff168273ffffffffffffffffffffffffffffffffffffffff161415612e40576040517f08c379a00000000000000000000000000000000000000000000000000000000081526004018080602001828103825260218152602001806134006021913960400191505060405180910390fd5b612eac8160405180606001604052806022815260200161334d60229139600260008673ffffffffffffffffffffffffffffffffffffffff1673ffffffffffffffffffffffffffffffffffffffff16815260200190815260200160002054612a339092919063ffffffff16565b600260008473ffffffffffffffffffffffffffffffffffffffff1673ffffffffffffffffffffffffffffffffffffffff16815260200190815260200160002081905550612f0481600054612bc390919063ffffffff16565b600081905550600073ffffffffffffffffffffffffffffffffffffffff168273ffffffffffffffffffffffffffffffffffffffff167fddf252ad1be2c89b69c2b068fc378daa952ba7f163c4a11628f55a4df523b3ef836040518082815260200191505060405180910390a35050565b6000806000612f836001612c95565b915091506000612fae83612fa08488612af390919063ffffffff16565b612b7990919063ffffffff16565b90507f4f0ebd40ebf17fb5f44478155c0280633653900a58f6e78baa63e9b746fed0518560405180806020018381526020018281038252600f8152602001807f686f774d7563684c505374616b656400000000000000000000000000000000008152506020019250505060405180910390a17f4f0ebd40ebf17fb5f44478155c0280633653900a58f6e78baa63e9b746fed0518160405180806020018381526020018281038252600e8152602001807f746f6b656e7332624973737565640000000000000000000000000000000000008152506020019250505060405180910390a161309a868261316c565b80935050505092915050565b60008083118290613152576040517f08c379a00000000000000000000000000000000000000000000000000000000081526004018080602001828103825283818151815260200191508051906020019080838360005b838110156131175780820151818401526020810190506130fc565b50505050905090810190601f1680156131445780820380516001836020036101000a031916815260200191505b509250505060405180910390fd5b50600083858161315e57fe5b049050809150509392505050565b600073ffffffffffffffffffffffffffffffffffffffff168273ffffffffffffffffffffffffffffffffffffffff16141561320f576040517f08c379a000000000000000000000000000000000000000000000000000000000815260040180806020018281038252601f8152602001807f45524332303a206d696e7420746f20746865207a65726f20616464726573730081525060200191505060405180910390fd5b61322481600054612c0d90919063ffffffff16565b60008190555061327c81600260008573ffffffffffffffffffffffffffffffffffffffff1673ffffffffffffffffffffffffffffffffffffffff16815260200190815260200160002054612c0d90919063ffffffff16565b600260008473ffffffffffffffffffffffffffffffffffffffff1673ffffffffffffffffffffffffffffffffffffffff168152602001908152602001600020819055508173ffffffffffffffffffffffffffffffffffffffff16600073ffffffffffffffffffffffffffffffffffffffff167fddf252ad1be2c89b69c2b068fc378daa952ba7f163c4a11628f55a4df523b3ef836040518082815260200191505060405180910390a3505056fe45524332303a207472616e7366657220746f20746865207a65726f206164647265737345524332303a206275726e20616d6f756e7420657863656564732062616c616e636545524332303a20617070726f766520746f20746865207a65726f206164647265737345524332303a207472616e7366657220616d6f756e7420657863656564732062616c616e6365536166654d6174683a206d756c7469706c69636174696f6e206f766572666c6f7745524332303a207472616e7366657220616d6f756e74206578636565647320616c6c6f77616e636545524332303a206275726e2066726f6d20746865207a65726f206164647265737345524332303a207472616e736665722066726f6d20746865207a65726f206164647265737345524332303a20617070726f76652066726f6d20746865207a65726f2061646472657373a265627a7a723158202bde478a1df023afd99e893da8ef0f959af998fb73fd4adeec71cb934e2a6d2764736f6c634300050d0032",
  "compiler": {
    "name": "solc",
    "version": "0.5.13+commit.5b0b510c.Emscripten.clang",
    "optimizer": {
      "enabled": false,
      "runs": 500
    },
    "evmVersion": "petersburg"
  }
}