{
  "contractName": "iUniPool",
  "abi": [
    {
      "inputs": [
        {
          "internalType": "address",
          "name": "_UNipool",
          "type": "address"
        }
      ],
      "payable": false,
      "stateMutability": "nonpayable",
      "type": "constructor"
    },
    {
      "constant": true,
      "inputs": [],
      "name": "_Unipool",
      "outputs": [
        {
          "internalType": "address",
          "name": "",
          "type": "address"
        }
      ],
      "payable": false,
      "stateMutability": "view",
      "type": "function"
    },
    {
      "constant": true,
      "inputs": [
        {
          "internalType": "address",
          "name": "_ofWhose",
          "type": "address"
        }
      ],
      "name": "getReward",
      "outputs": [
        {
          "internalType": "uint256",
          "name": "",
          "type": "uint256"
        }
      ],
      "payable": false,
      "stateMutability": "view",
      "type": "function"
    }
  ],
  "bytecode": "0x608060405234801561001057600080fd5b506040516101be3803806101be8339818101604052602081101561003357600080fd5b5051600080546001600160a01b039092166001600160a01b0319909216919091179055610159806100656000396000f3fe608060405234801561001057600080fd5b50600436106100365760003560e01c8063317e62a91461003b578063c00007b01461005f575b600080fd5b610043610097565b604080516001600160a01b039092168252519081900360200190f35b6100856004803603602081101561007557600080fd5b50356001600160a01b03166100a6565b60408051918252519081900360200190f35b6000546001600160a01b031681565b60008054604080516246613160e11b81526001600160a01b03858116600483015291519190921691628cc262916024808301926020929190829003018186803b1580156100f257600080fd5b505afa158015610106573d6000803e3d6000fd5b505050506040513d602081101561011c57600080fd5b50519291505056fea265627a7a723158202a984e2392e4fa4df7a60d3aab9fe7af55882d48aa2f5611c0ee5b919990347464736f6c63430005100032",
  "source": "pragma solidity ^0.5.0;\n\nimport \"./Unipool.sol\";\n\ncontract iUniPool {\n    address public _Unipool;\n\n    constructor(address _UNipool) public {\n        _Unipool = _UNipool;\n    }\n\n    function getReward(address _ofWhose) public view returns (uint256) {\n        return Unipool(_Unipool).earned(_ofWhose);\n    }\n\n}\n",
  "sourcePath": "/home/sc_dev/synth_stake/Unipool/contracts/iUniPool.sol",
  "compiler": {
    "name": "solc",
    "version": "0.5.16+commit.9c3226ce.Emscripten.clang"
  },
  "schemaVersion": "3.0.23",
  "updatedAt": "2020-02-24T02:49:32.861Z",
  "networkType": "ethereum",
  "devdoc": {
    "methods": {}
  },
  "userdoc": {
    "methods": {}
  }
}