{
  "contractName": "iUniPool",
  "abi": [
    {
      "inputs": [],
      "payable": false,
      "stateMutability": "nonpayable",
      "type": "constructor"
    },
    {
      "anonymous": false,
      "inputs": [
        {
          "indexed": true,
          "internalType": "address",
          "name": "src",
          "type": "address"
        },
        {
          "indexed": true,
          "internalType": "address",
          "name": "guy",
          "type": "address"
        },
        {
          "indexed": false,
          "internalType": "uint256",
          "name": "wad",
          "type": "uint256"
        }
      ],
      "name": "Approval",
      "type": "event"
    },
    {
      "anonymous": false,
      "inputs": [
        {
          "indexed": true,
          "internalType": "address",
          "name": "staker",
          "type": "address"
        },
        {
          "indexed": false,
          "internalType": "uint256",
          "name": "qtyStaked",
          "type": "uint256"
        }
      ],
      "name": "LPTokensStaked",
      "type": "event"
    },
    {
      "anonymous": false,
      "inputs": [
        {
          "indexed": true,
          "internalType": "address",
          "name": "leaver",
          "type": "address"
        },
        {
          "indexed": false,
          "internalType": "uint256",
          "name": "qtyWithdrawn",
          "type": "uint256"
        }
      ],
      "name": "LPTokensWithdrawn",
      "type": "event"
    },
    {
      "anonymous": false,
      "inputs": [
        {
          "indexed": true,
          "internalType": "address",
          "name": "src",
          "type": "address"
        },
        {
          "indexed": true,
          "internalType": "address",
          "name": "dst",
          "type": "address"
        },
        {
          "indexed": false,
          "internalType": "uint256",
          "name": "wad",
          "type": "uint256"
        }
      ],
      "name": "Transfer",
      "type": "event"
    },
    {
      "anonymous": false,
      "inputs": [
        {
          "indexed": false,
          "internalType": "string",
          "name": "",
          "type": "string"
        },
        {
          "indexed": false,
          "internalType": "uint256",
          "name": "",
          "type": "uint256"
        }
      ],
      "name": "internall",
      "type": "event"
    },
    {
      "payable": true,
      "stateMutability": "payable",
      "type": "fallback"
    },
    {
      "constant": true,
      "inputs": [],
      "name": "SNXTokenAddress",
      "outputs": [
        {
          "internalType": "contract IERC20",
          "name": "",
          "type": "address"
        }
      ],
      "payable": false,
      "stateMutability": "view",
      "type": "function"
    },
    {
      "constant": true,
      "inputs": [],
      "name": "SNXUniSwapTokenAddress",
      "outputs": [
        {
          "internalType": "contract IERC20",
          "name": "",
          "type": "address"
        }
      ],
      "payable": false,
      "stateMutability": "view",
      "type": "function"
    },
    {
      "constant": true,
      "inputs": [],
      "name": "UnipoolAddress",
      "outputs": [
        {
          "internalType": "address",
          "name": "",
          "type": "address"
        }
      ],
      "payable": false,
      "stateMutability": "view",
      "type": "function"
    },
    {
      "constant": true,
      "inputs": [
        {
          "internalType": "address",
          "name": "",
          "type": "address"
        },
        {
          "internalType": "address",
          "name": "",
          "type": "address"
        }
      ],
      "name": "allowance",
      "outputs": [
        {
          "internalType": "uint256",
          "name": "",
          "type": "uint256"
        }
      ],
      "payable": false,
      "stateMutability": "view",
      "type": "function"
    },
    {
      "constant": true,
      "inputs": [
        {
          "internalType": "address",
          "name": "",
          "type": "address"
        }
      ],
      "name": "balanceOf",
      "outputs": [
        {
          "internalType": "uint256",
          "name": "",
          "type": "uint256"
        }
      ],
      "payable": false,
      "stateMutability": "view",
      "type": "function"
    },
    {
      "constant": true,
      "inputs": [],
      "name": "decimals",
      "outputs": [
        {
          "internalType": "uint8",
          "name": "",
          "type": "uint8"
        }
      ],
      "payable": false,
      "stateMutability": "view",
      "type": "function"
    },
    {
      "constant": true,
      "inputs": [],
      "name": "name",
      "outputs": [
        {
          "internalType": "string",
          "name": "",
          "type": "string"
        }
      ],
      "payable": false,
      "stateMutability": "view",
      "type": "function"
    },
    {
      "constant": true,
      "inputs": [],
      "name": "sETHTokenAddress",
      "outputs": [
        {
          "internalType": "contract IERC20",
          "name": "",
          "type": "address"
        }
      ],
      "payable": false,
      "stateMutability": "view",
      "type": "function"
    },
    {
      "constant": true,
      "inputs": [],
      "name": "sETH_LP_TokenAddress",
      "outputs": [
        {
          "internalType": "contract IERC20",
          "name": "",
          "type": "address"
        }
      ],
      "payable": false,
      "stateMutability": "view",
      "type": "function"
    },
    {
      "constant": true,
      "inputs": [],
      "name": "symbol",
      "outputs": [
        {
          "internalType": "string",
          "name": "",
          "type": "string"
        }
      ],
      "payable": false,
      "stateMutability": "view",
      "type": "function"
    },
    {
      "constant": true,
      "inputs": [],
      "name": "totalLPTokensStaked",
      "outputs": [
        {
          "internalType": "uint256",
          "name": "",
          "type": "uint256"
        }
      ],
      "payable": false,
      "stateMutability": "view",
      "type": "function"
    },
    {
      "constant": true,
      "inputs": [],
      "name": "totalSupply",
      "outputs": [
        {
          "internalType": "uint256",
          "name": "",
          "type": "uint256"
        }
      ],
      "payable": false,
      "stateMutability": "view",
      "type": "function"
    },
    {
      "constant": true,
      "inputs": [],
      "name": "version",
      "outputs": [
        {
          "internalType": "string",
          "name": "",
          "type": "string"
        }
      ],
      "payable": false,
      "stateMutability": "view",
      "type": "function"
    },
    {
      "constant": true,
      "inputs": [],
      "name": "howMuchHasThisContractStaked",
      "outputs": [
        {
          "internalType": "uint256",
          "name": "LPTokens",
          "type": "uint256"
        }
      ],
      "payable": false,
      "stateMutability": "view",
      "type": "function"
    },
    {
      "constant": true,
      "inputs": [],
      "name": "howMuchHasThisContractEarned",
      "outputs": [
        {
          "internalType": "uint256",
          "name": "SNXEarned",
          "type": "uint256"
        }
      ],
      "payable": false,
      "stateMutability": "view",
      "type": "function"
    },
    {
      "constant": false,
      "inputs": [
        {
          "internalType": "uint256",
          "name": "_LPTokenUints",
          "type": "uint256"
        }
      ],
      "name": "stakeMyShare",
      "outputs": [
        {
          "internalType": "uint256",
          "name": "",
          "type": "uint256"
        }
      ],
      "payable": false,
      "stateMutability": "nonpayable",
      "type": "function"
    },
    {
      "constant": false,
      "inputs": [
        {
          "internalType": "bool",
          "name": "enter",
          "type": "bool"
        }
      ],
      "name": "reBalance",
      "outputs": [
        {
          "internalType": "uint256",
          "name": "LPTokenWealth",
          "type": "uint256"
        }
      ],
      "payable": false,
      "stateMutability": "nonpayable",
      "type": "function"
    },
    {
      "constant": false,
      "inputs": [
        {
          "internalType": "uint256",
          "name": "SNXQty",
          "type": "uint256"
        }
      ],
      "name": "convertSNXtoLP",
      "outputs": [
        {
          "internalType": "uint256",
          "name": "LPReceived",
          "type": "uint256"
        }
      ],
      "payable": false,
      "stateMutability": "nonpayable",
      "type": "function"
    },
    {
      "constant": true,
      "inputs": [
        {
          "internalType": "address",
          "name": "uniExchAdd",
          "type": "address"
        },
        {
          "internalType": "contract IERC20",
          "name": "ERC20Add",
          "type": "address"
        },
        {
          "internalType": "uint256",
          "name": "value",
          "type": "uint256"
        }
      ],
      "name": "getMaxTokens",
      "outputs": [
        {
          "internalType": "uint256",
          "name": "",
          "type": "uint256"
        }
      ],
      "payable": false,
      "stateMutability": "view",
      "type": "function"
    },
    {
      "constant": true,
      "inputs": [
        {
          "internalType": "uint256",
          "name": "tokenQTY",
          "type": "uint256"
        },
        {
          "internalType": "address",
          "name": "uniExchAdd",
          "type": "address"
        }
      ],
      "name": "min_eth",
      "outputs": [
        {
          "internalType": "uint256",
          "name": "",
          "type": "uint256"
        }
      ],
      "payable": false,
      "stateMutability": "view",
      "type": "function"
    },
    {
      "constant": true,
      "inputs": [
        {
          "internalType": "uint256",
          "name": "ethAmt",
          "type": "uint256"
        },
        {
          "internalType": "address",
          "name": "uniExchAdd",
          "type": "address"
        }
      ],
      "name": "min_tokens",
      "outputs": [
        {
          "internalType": "uint256",
          "name": "",
          "type": "uint256"
        }
      ],
      "payable": false,
      "stateMutability": "view",
      "type": "function"
    },
    {
      "constant": false,
      "inputs": [
        {
          "internalType": "uint256",
          "name": "_tokenQTY",
          "type": "uint256"
        }
      ],
      "name": "getMyStakeOut",
      "outputs": [],
      "payable": false,
      "stateMutability": "nonpayable",
      "type": "function"
    },
    {
      "constant": false,
      "inputs": [
        {
          "internalType": "address",
          "name": "recipient",
          "type": "address"
        },
        {
          "internalType": "uint256",
          "name": "amount",
          "type": "uint256"
        }
      ],
      "name": "transfer",
      "outputs": [
        {
          "internalType": "bool",
          "name": "",
          "type": "bool"
        }
      ],
      "payable": false,
      "stateMutability": "nonpayable",
      "type": "function"
    },
    {
      "constant": false,
      "inputs": [
        {
          "internalType": "address",
          "name": "spender",
          "type": "address"
        },
        {
          "internalType": "uint256",
          "name": "amount",
          "type": "uint256"
        }
      ],
      "name": "approve",
      "outputs": [
        {
          "internalType": "bool",
          "name": "",
          "type": "bool"
        }
      ],
      "payable": false,
      "stateMutability": "nonpayable",
      "type": "function"
    },
    {
      "constant": false,
      "inputs": [
        {
          "internalType": "address",
          "name": "sender",
          "type": "address"
        },
        {
          "internalType": "address",
          "name": "recipient",
          "type": "address"
        },
        {
          "internalType": "uint256",
          "name": "amount",
          "type": "uint256"
        }
      ],
      "name": "transferFrom",
      "outputs": [
        {
          "internalType": "bool",
          "name": "",
          "type": "bool"
        }
      ],
      "payable": false,
      "stateMutability": "nonpayable",
      "type": "function"
    }
  ],
  "bytecode": "0x60806040523480156200001157600080fd5b50620000256001600160e01b036200002b16565b62000252565b604080517f095ea7b30000000000000000000000000000000000000000000000000000000081527348d7f315fedcad332f68aafa017c7c158bc5476060048201526000196024820152905173e9cf7887b93150d4f2da7dfc6d502b216438f2449163095ea7b39160448083019260209291908290030181600087803b158015620000b457600080fd5b505af1158015620000c9573d6000803e3d6000fd5b505050506040513d6020811015620000e057600080fd5b5050604080517f095ea7b3000000000000000000000000000000000000000000000000000000008152733958b4ec427f8fa24eb60f42821760e88d485f7f60048201526000196024820152905173c011a73ee8576fb46f5e1c5751ca3b9fe0af2a6f9163095ea7b39160448083019260209291908290030181600087803b1580156200016b57600080fd5b505af115801562000180573d6000803e3d6000fd5b505050506040513d60208110156200019757600080fd5b5050604080517f095ea7b300000000000000000000000000000000000000000000000000000000815273e9cf7887b93150d4f2da7dfc6d502b216438f244600482015260001960248201529051735e74c9036fb86bd7ecdcb084a0673efc32ea31cb9163095ea7b39160448083019260209291908290030181600087803b1580156200022257600080fd5b505af115801562000237573d6000803e3d6000fd5b505050506040513d60208110156200024e57600080fd5b5050565b6121d180620002626000396000f3fe6080604052600436106101965760003560e01c806370a08231116100e1578063b1adb1901161008a578063e4c7821111610064578063e4c78211146105ab578063e5be1a96146105c0578063f1171fe1146105d5578063f70f48931461060e57610196565b8063b1adb19014610518578063bbaabe041461055b578063dd62ed3e1461057057610196565b8063a75afc7d116100bb578063a75afc7d14610489578063a9059cbb146104b5578063aca5bbd0146104ee57610196565b806370a082311461042a57806395d89b41146101d6578063966eed1f1461045d57610196565b806323b872dd11610143578063522ffa3c1161011d578063522ffa3c146103d657806354fd4d50146104005780636c57e5751461041557610196565b806323b872dd14610353578063313ce567146103965780634211a595146103c157610196565b8063161e8e8211610174578063161e8e82146102de57806318160ddd146102f35780631f7604b81461031a57610196565b806306fdde03146101d6578063095ea7b31461026057806314d74204146102ad575b60408051346020820152818152600881830152670cedee840c6c2e6d60c31b606082015290516000805160206120ca8339815191529181900360800190a1005b3480156101e257600080fd5b506101eb610623565b6040805160208082528351818301528351919283929083019185019080838360005b8381101561022557818101518382015260200161020d565b50505050905090810190601f1680156102525780820380516001836020036101000a031916815260200191505b509250505060405180910390f35b34801561026c57600080fd5b506102996004803603604081101561028357600080fd5b506001600160a01b038135169060200135610644565b604080519115158252519081900360200190f35b3480156102b957600080fd5b506102c261065b565b604080516001600160a01b039092168252519081900360200190f35b3480156102ea57600080fd5b506102c2610673565b3480156102ff57600080fd5b5061030861068b565b60408051918252519081900360200190f35b34801561032657600080fd5b506103086004803603604081101561033d57600080fd5b50803590602001356001600160a01b0316610691565b34801561035f57600080fd5b506102996004803603606081101561037657600080fd5b506001600160a01b0381358116916020810135909116906040013561070a565b3480156103a257600080fd5b506103ab610779565b6040805160ff9092168252519081900360200190f35b3480156103cd57600080fd5b5061030861077e565b3480156103e257600080fd5b50610308600480360360208110156103f957600080fd5b5035610784565b34801561040c57600080fd5b506101eb610d0a565b34801561042157600080fd5b50610308610d27565b34801561043657600080fd5b506103086004803603602081101561044d57600080fd5b50356001600160a01b0316610dad565b34801561046957600080fd5b506104876004803603602081101561048057600080fd5b5035610dbf565b005b34801561049557600080fd5b50610308600480360360208110156104ac57600080fd5b50351515611196565b3480156104c157600080fd5b50610299600480360360408110156104d857600080fd5b506001600160a01b0381351690602001356114c3565b3480156104fa57600080fd5b506103086004803603602081101561051157600080fd5b50356114d0565b34801561052457600080fd5b506103086004803603606081101561053b57600080fd5b506001600160a01b0381358116916020810135909116906040013561163c565b34801561056757600080fd5b506102c2611700565b34801561057c57600080fd5b506103086004803603604081101561059357600080fd5b506001600160a01b0381358116916020013516611718565b3480156105b757600080fd5b506102c2611735565b3480156105cc57600080fd5b5061030861174d565b3480156105e157600080fd5b50610308600480360360408110156105f857600080fd5b50803590602001356001600160a01b03166117a0565b34801561061a57600080fd5b506102c26117e6565b60405180604001604052806005815260200164111694d31560da1b81525081565b60006106513384846117fe565b5060015b92915050565b73e9cf7887b93150d4f2da7dfc6d502b216438f24481565b733958b4ec427f8fa24eb60f42821760e88d485f7f81565b60005481565b6000816001600160a01b03166395b68fe7846040518263ffffffff1660e01b81526004018082815260200191505060206040518083038186803b1580156106d757600080fd5b505afa1580156106eb573d6000803e3d6000fd5b505050506040513d602081101561070157600080fd5b50519392505050565b60006107178484846118ea565b61076f843361076a8560405180606001604052806028815260200161210b602891396001600160a01b038a166000908152600360209081526040808320338452909152902054919063ffffffff611a4816565b6117fe565b5060019392505050565b601281565b60015481565b6000806107a561271061079985611379611adf565b9063ffffffff611b3f16565b905060006107b38483611b81565b90506000733958b4ec427f8fa24eb60f42821760e88d485f7f6395e3c50b846107f46103e86107996103e36107e88588610691565b9063ffffffff611adf16565b6108064261012c63ffffffff611bc316565b6040518463ffffffff1660e01b8152600401808481526020018381526020018281526020019350505050602060405180830381600087803b15801561084a57600080fd5b505af115801561085e573d6000803e3d6000fd5b505050506040513d602081101561087457600080fd5b50519050733958b4ec427f8fa24eb60f42821760e88d485f7f63ddf7e1a7836108c66108ac6103e86107996103e36107e88689610691565b73e9cf7887b93150d4f2da7dfc6d502b216438f2446117a0565b6108f06103e86107996103e36107e88a733958b4ec427f8fa24eb60f42821760e88d485f7f610691565b6109024261012c63ffffffff611bc316565b735e74c9036fb86bd7ecdcb084a0673efc32ea31cb6040518663ffffffff1660e01b815260040180868152602001858152602001848152602001838152602001826001600160a01b03166001600160a01b0316815260200195505050505050602060405180830381600087803b15801561097b57600080fd5b505af115801561098f573d6000803e3d6000fd5b505050506040513d60208110156109a557600080fd5b506000905073e9cf7887b93150d4f2da7dfc6d502b216438f24463422f10438360016109e684735e74c9036fb86bd7ecdcb084a0673efc32ea31cb8461163c565b6109f84261012c63ffffffff611bc316565b6040518563ffffffff1660e01b81526004018084815260200183815260200182815260200193505050506020604051808303818588803b158015610a3b57600080fd5b505af1158015610a4f573d6000803e3d6000fd5b50505050506040513d6020811015610a6657600080fd5b5051604080516370a0823160e01b8152306004820152905191925073e9cf7887b93150d4f2da7dfc6d502b216438f2449163ddf7e1a791735e74c9036fb86bd7ecdcb084a0673efc32ea31cb916370a0823191602480820192602092909190829003018186803b158015610ad957600080fd5b505afa158015610aed573d6000803e3d6000fd5b505050506040513d6020811015610b0357600080fd5b5051604080516370a0823160e01b81523060048201529051610bce91610bb4916103e891610799916103e3916107e891735e74c9036fb86bd7ecdcb084a0673efc32ea31cb916370a08231916024808301926020929190829003018186803b158015610b6e57600080fd5b505afa158015610b82573d6000803e3d6000fd5b505050506040513d6020811015610b9857600080fd5b505173e9cf7887b93150d4f2da7dfc6d502b216438f244610691565b733958b4ec427f8fa24eb60f42821760e88d485f7f6117a0565b610c476103e86107996103e36107e8735e74c9036fb86bd7ecdcb084a0673efc32ea31cb6001600160a01b03166370a08231306040518263ffffffff1660e01b815260040180826001600160a01b03166001600160a01b0316815260200191505060206040518083038186803b158015610b6e57600080fd5b610c594261012c63ffffffff611bc316565b73c011a73ee8576fb46f5e1c5751ca3b9fe0af2a6f6040518663ffffffff1660e01b815260040180868152602001858152602001848152602001838152602001826001600160a01b03166001600160a01b0316815260200195505050505050602060405180830381600087803b158015610cd257600080fd5b505af1158015610ce6573d6000803e3d6000fd5b505050506040513d6020811015610cfc57600080fd5b50909450505050505b919050565b604051806040016040528060018152602001603160f81b81525081565b604080516370a0823160e01b815230600482015290516000917348d7f315fedcad332f68aafa017c7c158bc54760916370a0823191602480820192602092909190829003018186803b158015610d7c57600080fd5b505afa158015610d90573d6000803e3d6000fd5b505050506040513d6020811015610da657600080fd5b5051905090565b60026020526000908152604090205481565b33600090815260026020526040902054811115610e23576040805162461bcd60e51b815260206004820152601760248201527f5769746864726177696e672071747920696e76616c6964000000000000000000604482015290519081900360640190fd5b600080610e306000611c1d565b90925090506000610e4b82610799868663ffffffff611adf16565b604080516370a0823160e01b8152306004820152905191925060009173e9cf7887b93150d4f2da7dfc6d502b216438f244916370a08231916024808301926020929190829003018186803b158015610ea257600080fd5b505afa158015610eb6573d6000803e3d6000fd5b505050506040513d6020811015610ecc57600080fd5b5051905080821115610feb576000610eea838363ffffffff611b8116565b90507348d7f315fedcad332f68aafa017c7c158bc547606001600160a01b0316632e1a7d4d826040518263ffffffff1660e01b815260040180828152602001915050600060405180830381600087803b158015610f4657600080fd5b505af1158015610f5a573d6000803e3d6000fd5b50506040805163a9059cbb60e01b815233600482015260248101879052905173e9cf7887b93150d4f2da7dfc6d502b216438f244935063a9059cbb925060448083019260209291908290030181600087803b158015610fb857600080fd5b505af1158015610fcc573d6000803e3d6000fd5b505050506040513d6020811015610fe257600080fd5b5061116f915050565b6040805163a9059cbb60e01b815233600482015260248101849052905173e9cf7887b93150d4f2da7dfc6d502b216438f2449163a9059cbb9160448083019260209291908290030181600087803b15801561104557600080fd5b505af1158015611059573d6000803e3d6000fd5b505050506040513d602081101561106f57600080fd5b5050604080516370a0823160e01b8152306004820152905160009173e9cf7887b93150d4f2da7dfc6d502b216438f244916370a0823191602480820192602092909190829003018186803b1580156110c657600080fd5b505afa1580156110da573d6000803e3d6000fd5b505050506040513d60208110156110f057600080fd5b50519050801561116d577348d7f315fedcad332f68aafa017c7c158bc547606001600160a01b031663a694fc3a826040518263ffffffff1660e01b815260040180828152602001915050600060405180830381600087803b15801561115457600080fd5b505af1158015611168573d6000803e3d6000fd5b505050505b505b600154611182908363ffffffff611b8116565b60015561118f3386611d00565b5050505050565b600065048c273950006111a761174d565b11156114ba576000805160206120ca8339815191526111c461174d565b60408051602080820193909352818152808201929092527f4561726e696e6773206d6f7265207468616e20746865207468726573686f6c646060830152519081900360800190a17348d7f315fedcad332f68aafa017c7c158bc547606001600160a01b0316633d18b9126040518163ffffffff1660e01b8152600401600060405180830381600087803b15801561125a57600080fd5b505af115801561126e573d6000803e3d6000fd5b505060408051600c6020820152818152600f818301527f436c61696d696e67205265776172640000000000000000000000000000000000606082015290516000805160206120ca8339815191529350908190036080019150a1604080516370a0823160e01b8152306004820152905160009173c011a73ee8576fb46f5e1c5751ca3b9fe0af2a6f916370a0823191602480820192602092909190829003018186803b15801561131c57600080fd5b505afa158015611330573d6000803e3d6000fd5b505050506040513d602081101561134657600080fd5b50519050600061135582610784565b6040805160208101839052818152600e818301527f4c504a7573745265636569766564000000000000000000000000000000000000606082015290519192506000805160206120ca833981519152919081900360800190a1831561149e577348d7f315fedcad332f68aafa017c7c158bc547606001600160a01b031663a694fc3a826040518263ffffffff1660e01b815260040180828152602001915050600060405180830381600087803b15801561140d57600080fd5b505af1158015611421573d6000803e3d6000fd5b5050600154611439925090508263ffffffff611bc316565b60018190556040805160208101929092528082526013828201527f746f74616c4c50546f6b656e735374616b6564000000000000000000000000006060830152516000805160206120ca8339815191529181900360800190a160015492505050610d05565b6001546114b1908263ffffffff611bc316565b92505050610d05565b50600154610d05565b60006106513384846118ea565b604080516323b872dd60e01b815233600482015230602482015260448101839052905160009173e9cf7887b93150d4f2da7dfc6d502b216438f244916323b872dd9160648082019260209290919082900301818787803b15801561153357600080fd5b505af1158015611547573d6000803e3d6000fd5b505050506040513d602081101561155d57600080fd5b506000905061156c3384611dfd565b604080516020810183905281815260068183015265746f6b656e7360d01b606082015290519192506000805160206120ca833981519152919081900360800190a17348d7f315fedcad332f68aafa017c7c158bc547606001600160a01b031663a694fc3a846040518263ffffffff1660e01b815260040180828152602001915050600060405180830381600087803b15801561160757600080fd5b505af115801561161b573d6000803e3d6000fd5b5050600154611633925090508463ffffffff611bc316565b60015592915050565b60006001600160a01b03841631816116548285611b81565b90506000856001600160a01b03166370a08231886040518263ffffffff1660e01b815260040180826001600160a01b03166001600160a01b0316815260200191505060206040518083038186803b1580156116ae57600080fd5b505afa1580156116c2573d6000803e3d6000fd5b505050506040513d60208110156116d857600080fd5b5051905060006116f16116eb8784611adf565b84611b3f565b60010198975050505050505050565b73c011a73ee8576fb46f5e1c5751ca3b9fe0af2a6f81565b600360209081526000928352604080842090915290825290205481565b7348d7f315fedcad332f68aafa017c7c158bc5476081565b604080516246613160e11b815230600482015290516000917348d7f315fedcad332f68aafa017c7c158bc5476091628cc26291602480820192602092909190829003018186803b158015610d7c57600080fd5b6000816001600160a01b031663cd7724c3846040518263ffffffff1660e01b81526004018082815260200191505060206040518083038186803b1580156106d757600080fd5b735e74c9036fb86bd7ecdcb084a0673efc32ea31cb81565b6001600160a01b0383166118435760405162461bcd60e51b81526004018080602001828103825260248152602001806121796024913960400191505060405180910390fd5b6001600160a01b0382166118885760405162461bcd60e51b81526004018080602001828103825260228152602001806120826022913960400191505060405180910390fd5b6001600160a01b03808416600081815260036020908152604080832094871680845294825291829020859055815185815291517f8c5be1e5ebec7d5bd14f71427d1e84f3dd0314c0f7b2291e5b200ac8c7c3b9259281900390910190a3505050565b6001600160a01b03831661192f5760405162461bcd60e51b81526004018080602001828103825260258152602001806121546025913960400191505060405180910390fd5b6001600160a01b0382166119745760405162461bcd60e51b815260040180806020018281038252602381526020018061203d6023913960400191505060405180910390fd5b6119b7816040518060600160405280602681526020016120a4602691396001600160a01b038616600090815260026020526040902054919063ffffffff611a4816565b6001600160a01b0380851660009081526002602052604080822093909355908416815220546119ec908263ffffffff611bc316565b6001600160a01b0380841660008181526002602090815260409182902094909455805185815290519193928716927fddf252ad1be2c89b69c2b068fc378daa952ba7f163c4a11628f55a4df523b3ef92918290030190a3505050565b60008184841115611ad75760405162461bcd60e51b81526004018080602001828103825283818151815260200191508051906020019080838360005b83811015611a9c578181015183820152602001611a84565b50505050905090810190601f168015611ac95780820380516001836020036101000a031916815260200191505b509250505060405180910390fd5b505050900390565b600082611aee57506000610655565b82820282848281611afb57fe5b0414611b385760405162461bcd60e51b81526004018080602001828103825260218152602001806120ea6021913960400191505060405180910390fd5b9392505050565b6000611b3883836040518060400160405280601a81526020017f536166654d6174683a206469766973696f6e206279207a65726f000000000000815250611ee6565b6000611b3883836040518060400160405280601e81526020017f536166654d6174683a207375627472616374696f6e206f766572666c6f770000815250611a48565b600082820183811015611b38576040805162461bcd60e51b815260206004820152601b60248201527f536166654d6174683a206164646974696f6e206f766572666c6f770000000000604482015290519081900360640190fd5b6000806001546000148015611c325750600054155b15611c965760408051600060208201528181526010818301527f656e746572696e67207068617365203100000000000000000000000000000000606082015290516000805160206120ca8339815191529181900360800190a1506001905080611cfb565b60408051600160208201528181526010818301527f656e746572696e67207068617365203200000000000000000000000000000000606082015290516000805160206120ca8339815191529181900360800190a1611cf383611196565b600054915091505b915091565b6001600160a01b038216611d455760405162461bcd60e51b81526004018080602001828103825260218152602001806121336021913960400191505060405180910390fd5b611d8881604051806060016040528060228152602001612060602291396001600160a01b038516600090815260026020526040902054919063ffffffff611a4816565b6001600160a01b03831660009081526002602052604081209190915554611db5908263ffffffff611b8116565b60009081556040805183815290516001600160a01b038516917fddf252ad1be2c89b69c2b068fc378daa952ba7f163c4a11628f55a4df523b3ef919081900360200190a35050565b6000806000611e0c6001611c1d565b90925090506000611e2783610799878563ffffffff611adf16565b6040805160208101889052818152600f818301527f686f774d7563684c505374616b65640000000000000000000000000000000000606082015290519192506000805160206120ca833981519152919081900360800190a16040805160208101839052818152600e818301527f746f6b656e733262497373756564000000000000000000000000000000000000606082015290516000805160206120ca8339815191529181900360800190a1611edd8682611f4b565b95945050505050565b60008183611f355760405162461bcd60e51b8152602060048201818152835160248401528351909283926044909101919085019080838360008315611a9c578181015183820152602001611a84565b506000838581611f4157fe5b0495945050505050565b6001600160a01b038216611fa6576040805162461bcd60e51b815260206004820152601f60248201527f45524332303a206d696e7420746f20746865207a65726f206164647265737300604482015290519081900360640190fd5b600054611fb9908263ffffffff611bc316565b60009081556001600160a01b038316815260026020526040902054611fe4908263ffffffff611bc316565b6001600160a01b03831660008181526002602090815260408083209490945583518581529351929391927fddf252ad1be2c89b69c2b068fc378daa952ba7f163c4a11628f55a4df523b3ef9281900390910190a3505056fe45524332303a207472616e7366657220746f20746865207a65726f206164647265737345524332303a206275726e20616d6f756e7420657863656564732062616c616e636545524332303a20617070726f766520746f20746865207a65726f206164647265737345524332303a207472616e7366657220616d6f756e7420657863656564732062616c616e63654f0ebd40ebf17fb5f44478155c0280633653900a58f6e78baa63e9b746fed051536166654d6174683a206d756c7469706c69636174696f6e206f766572666c6f7745524332303a207472616e7366657220616d6f756e74206578636565647320616c6c6f77616e636545524332303a206275726e2066726f6d20746865207a65726f206164647265737345524332303a207472616e736665722066726f6d20746865207a65726f206164647265737345524332303a20617070726f76652066726f6d20746865207a65726f2061646472657373a265627a7a72315820eb89dd16997d152e47b9d3f90b13f0b76e193db66e21e78e63f157094778edf264736f6c634300050d0032",
  "source": "pragma solidity ^0.5.0;\r\n\r\nimport \"./Unipool.sol\";\r\nimport \"./iUniswapExchangeContract.sol\";\r\n\r\ncontract iUniPool {\r\n    using SafeMath for uint256;\r\n    using SafeERC20 for IERC20;\r\n\r\n    // --- ERC20 Data ---\r\n    string public constant name = \"DZSLT\";\r\n    string public constant symbol = \"DZSLT\";\r\n    string public constant version = \"1\";\r\n    uint8 public constant decimals = 18;\r\n    uint256 public totalSupply;\r\n\r\n    /**\r\n     - Need to check impact of Uniswap V2,  will we need to deploy a v2 or new version of DZSLT\r\n     due to changes in sETH_LP_TokenAddress and potentially a new version of SNXUniswapTokenAddress?\r\n    */\r\n    address public constant UnipoolAddress = 0x48D7f315feDcaD332F68aafa017c7C158BC54760;\r\n    IERC20 public constant sETHTokenAddress = IERC20(\r\n        0x5e74C9036fb86BD7eCdcb084a0673EFc32eA31cb\r\n    );\r\n    IERC20 public constant sETH_LP_TokenAddress = IERC20(\r\n        0xe9Cf7887b93150D4F2Da7dFc6D502B216438F244\r\n    );\r\n    IERC20 public constant SNXTokenAddress = IERC20(\r\n        0xC011a73ee8576Fb46F5E1c5751cA3B9Fe0af2a6F\r\n    );\r\n    IERC20 public constant SNXUniSwapTokenAddress = IERC20(\r\n        0x3958B4eC427F8fa24eB60F42821760e88d485f7F\r\n    );\r\n\r\n    uint256 public totalLPTokensStaked;\r\n\r\n    mapping(address => uint256) public balanceOf;\r\n    mapping(address => mapping(address => uint256)) public allowance;\r\n\r\n    // events\r\n    event LPTokensStaked(address indexed staker, uint256 qtyStaked);\r\n    event LPTokensWithdrawn(address indexed leaver, uint256 qtyWithdrawn);\r\n    event Approval(address indexed src, address indexed guy, uint256 wad);\r\n    event Transfer(address indexed src, address indexed dst, uint256 wad);\r\n\r\n    // testing events\r\n    event internall(string, uint256);\r\n\r\n    constructor() public {\r\n        approve_Addresses();\r\n    }\r\n\r\n    function approve_Addresses() internal {\r\n        sETH_LP_TokenAddress.approve(UnipoolAddress, ((2**256) - 1));\r\n        SNXTokenAddress.approve(\r\n            address(SNXUniSwapTokenAddress),\r\n            ((2**256) - 1)\r\n        );\r\n        sETHTokenAddress.approve(address(sETH_LP_TokenAddress), ((2**256) - 1));\r\n    }\r\n\r\n    // reader functions\r\n\r\n    function howMuchHasThisContractStaked()\r\n        public\r\n        view\r\n        returns (uint256 LPTokens)\r\n    {\r\n        return Unipool(UnipoolAddress).balanceOf(address(this));\r\n    }\r\n\r\n    function howMuchHasThisContractEarned()\r\n        public\r\n        view\r\n        returns (uint256 SNXEarned)\r\n    {\r\n        return Unipool(UnipoolAddress).earned(address(this));\r\n    }\r\n\r\n    /**\r\n     * @dev Returs the amount of LP required to stake / transfer to buy 1 DZLT token\r\n     */\r\n    // function PriceToStakeNow() external view returns (uint256) {\r\n    //     if (totalSupply > 0) {\r\n    //         if (Unipool(UnipoolAddress).earned(address(this)) > 0) {\r\n    //             uint256 eth4SNX = min_eth(\r\n    //             (Unipool(UnipoolAddress).earned(address(this))),\r\n    //             address(SNXUniSwapTokenAddress)\r\n    //         );\r\n    //         uint256 eth_reserves = address(sETH_LP_TokenAddress).balance;\r\n    //         uint256 LP_total_supply = sETH_LP_TokenAddress.totalSupply();\r\n    //         uint256 LP_for_stake = (eth4SNX.div(2).mul(LP_total_supply)).div(\r\n    //             eth_reserves\r\n    //         );\r\n    //         return\r\n    //             (LP_for_stake).add(howMuchHasThisContractStaked()).div(\r\n    //                 totalSupply\r\n    //             );\r\n    //         } else {\r\n    //             return (howMuchHasThisContractStaked()).div(\r\n    //                 totalSupply);\r\n    //         }\r\n\r\n    //     } else {\r\n    //         return (1);\r\n    //     }\r\n\r\n    // }\r\n\r\n    // action functions\r\n    function stakeMyShare(uint256 _LPTokenUints) public returns (uint256) {\r\n        // transfer to this address\r\n        sETH_LP_TokenAddress.transferFrom(\r\n            msg.sender,\r\n            address(this),\r\n            _LPTokenUints\r\n        );\r\n\r\n        uint256 tokens = issueTokens(msg.sender, _LPTokenUints);\r\n        emit internall(\"tokens\", tokens);\r\n\r\n        Unipool(UnipoolAddress).stake(_LPTokenUints);\r\n\r\n        totalLPTokensStaked = totalLPTokensStaked.add(_LPTokenUints);\r\n        return (tokens);\r\n    }\r\n\r\n    function issueTokens(address toWhom, uint256 howMuchLPStaked)\r\n        internal\r\n        returns (uint256 tokensIssued)\r\n    {\r\n        (uint256 totalLPs, uint256 totalDZTs) = getDetails(true);\r\n        uint256 tokens2bIssued = (howMuchLPStaked.mul(totalDZTs)).div(totalLPs);\r\n        emit internall(\"howMuchLPStaked\", howMuchLPStaked);\r\n        emit internall(\"tokens2bIssued\", tokens2bIssued);\r\n        mint(toWhom, tokens2bIssued);\r\n        return tokens2bIssued;\r\n    }\r\n\r\n    function getDetails(bool enter)\r\n        internal\r\n        returns (uint256 totalLPs, uint256 totalDZTs)\r\n    {\r\n        if (totalLPTokensStaked == 0 && totalSupply == 0) {\r\n            emit internall(\"entering phase 1\", 0);\r\n            return (1, 1);\r\n        } else {\r\n            emit internall(\"entering phase 2\", 1);\r\n            return (reBalance(enter), totalSupply);\r\n        }\r\n    }\r\n\r\n    function reBalance(bool enter) public returns (uint256 LPTokenWealth) {\r\n        /* @dev: it does not make economical sense to claim reward if the SNX \r\n        / earned is less than 0.000005; considering the price of SNX at the time \r\n        / of writing this contract\r\n        */\r\n\r\n        if (howMuchHasThisContractEarned() > 0.000005 ether) {\r\n            emit internall(\r\n                \"Earnings more than the threshold\",\r\n                howMuchHasThisContractEarned()\r\n            );\r\n            Unipool(UnipoolAddress).getReward();\r\n            emit internall(\"Claiming Reward\", 12);\r\n            uint256 SNXInHandHoldings = SNXTokenAddress.balanceOf(\r\n                address(this)\r\n            ); // 0\r\n            uint256 LPJustReceived = convertSNXtoLP(SNXInHandHoldings);\r\n            emit internall(\"LPJustReceived\", LPJustReceived);\r\n            if (enter) {\r\n                Unipool(UnipoolAddress).stake(LPJustReceived);\r\n                totalLPTokensStaked = totalLPTokensStaked.add(LPJustReceived);\r\n                emit internall(\"totalLPTokensStaked\", totalLPTokensStaked);\r\n                return (totalLPTokensStaked);\r\n            } else {\r\n                return (totalLPTokensStaked.add(LPJustReceived));\r\n            }\r\n\r\n        } else {\r\n            return (totalLPTokensStaked);\r\n        }\r\n    }\r\n\r\n    function convertSNXtoLP(uint256 SNXQty)\r\n        public\r\n        returns (uint256 LPReceived)\r\n    {\r\n        uint256 SNX2BcETH = SafeMath.mul(SNXQty, 4985).div(10000);\r\n        uint256 SNX2BcSETH = SafeMath.sub(SNXQty, SNX2BcETH);\r\n\r\n        uint256 ETHfromSNX = UniswapExchangeInterface(\r\n            address(SNXUniSwapTokenAddress)\r\n        )\r\n            .tokenToEthSwapInput(\r\n            SNX2BcETH,\r\n            (\r\n                (\r\n                    min_eth(SNX2BcETH, address(SNXUniSwapTokenAddress))\r\n                        .mul(995)\r\n                        .div(1000)\r\n                )\r\n            ),\r\n            now.add(300)\r\n        );\r\n\r\n        // converting a portion of the SNX to sETH for the purpose of adding liquidity\r\n        UniswapExchangeInterface(address(SNXUniSwapTokenAddress))\r\n            .tokenToTokenSwapInput(\r\n            SNX2BcSETH,\r\n            min_tokens(\r\n                (min_eth(SNX2BcSETH, address(SNXUniSwapTokenAddress)).mul(995))\r\n                    .div(1000),\r\n                address(sETH_LP_TokenAddress)\r\n            ),\r\n            (\r\n                min_eth(SNX2BcSETH, address(SNXUniSwapTokenAddress))\r\n                    .mul(995)\r\n                    .div(1000)\r\n            ),\r\n            now.add(300),\r\n            address(sETHTokenAddress)\r\n        );\r\n\r\n        // adding liquidity\r\n        uint256 LPU = UniswapExchangeInterface(address(sETH_LP_TokenAddress))\r\n            .addLiquidity\r\n            .value(ETHfromSNX)(\r\n            1,\r\n            getMaxTokens(\r\n                address(sETH_LP_TokenAddress),\r\n                sETHTokenAddress,\r\n                ETHfromSNX\r\n            ),\r\n            now.add(300)\r\n        );\r\n\r\n        // converting the balance sETH to SNX\r\n\r\n        UniswapExchangeInterface(address(sETH_LP_TokenAddress))\r\n            .tokenToTokenSwapInput(\r\n            (sETHTokenAddress.balanceOf(address(this))),\r\n            min_tokens(\r\n                (\r\n                    min_eth(\r\n                        (sETHTokenAddress.balanceOf(address(this))),\r\n                        address(sETH_LP_TokenAddress)\r\n                    )\r\n                        .mul(995)\r\n                        .div(1000)\r\n                ),\r\n                address(SNXUniSwapTokenAddress)\r\n            ),\r\n            (\r\n                min_eth(\r\n                    (sETHTokenAddress.balanceOf(address(this))),\r\n                    address(sETH_LP_TokenAddress)\r\n                )\r\n                    .mul(995)\r\n                    .div(1000)\r\n            ),\r\n            now.add(300),\r\n            address(SNXTokenAddress)\r\n        );\r\n\r\n        return LPU;\r\n    }\r\n\r\n    function getMaxTokens(address uniExchAdd, IERC20 ERC20Add, uint256 value)\r\n        public\r\n        view\r\n        returns (uint256)\r\n    {\r\n        uint256 contractBalance = address(uniExchAdd).balance;\r\n        uint256 eth_reserve = SafeMath.sub(contractBalance, value);\r\n        uint256 token_reserve = ERC20Add.balanceOf(uniExchAdd);\r\n        uint256 token_amount = SafeMath.div(\r\n            SafeMath.mul(value, token_reserve),\r\n            eth_reserve\r\n        ) +\r\n            1;\r\n        return token_amount;\r\n    }\r\n\r\n    function min_eth(uint256 tokenQTY, address uniExchAdd)\r\n        public\r\n        view\r\n        returns (uint256)\r\n    {\r\n        return\r\n            UniswapExchangeInterface(uniExchAdd).getTokenToEthInputPrice(\r\n                tokenQTY\r\n            );\r\n    }\r\n\r\n    function min_tokens(uint256 ethAmt, address uniExchAdd)\r\n        public\r\n        view\r\n        returns (uint256)\r\n    {\r\n        return\r\n            UniswapExchangeInterface(uniExchAdd).getEthToTokenInputPrice(\r\n                ethAmt\r\n            );\r\n    }\r\n\r\n    function getMyStakeOut(uint256 _tokenQTY) public {\r\n        require(balanceOf[msg.sender] >= _tokenQTY, \"Withdrawing qty invalid\");\r\n        (uint256 totalLPs, uint256 totalDZTs) = getDetails(false);\r\n        uint256 LPs2bRedemeed = (_tokenQTY.mul(totalLPs)).div(totalDZTs);\r\n        uint256 LPsInHand = sETH_LP_TokenAddress.balanceOf(address(this));\r\n        if (LPs2bRedemeed > LPsInHand) {\r\n            uint256 LPsShortOf = LPs2bRedemeed.sub(LPsInHand);\r\n            Unipool(UnipoolAddress).withdraw(LPsShortOf);\r\n            sETH_LP_TokenAddress.transfer(msg.sender, LPs2bRedemeed);\r\n        } else {\r\n            sETH_LP_TokenAddress.transfer(msg.sender, LPs2bRedemeed);\r\n            uint256 leftOverLPs = sETH_LP_TokenAddress.balanceOf(address(this));\r\n            if (leftOverLPs > 0) {\r\n                Unipool(UnipoolAddress).stake(leftOverLPs);\r\n            }\r\n        }\r\n        totalLPTokensStaked = totalLPTokensStaked.sub(LPs2bRedemeed);\r\n        burn(msg.sender, _tokenQTY);\r\n    }\r\n\r\n    function mint(address account, uint256 amount) internal {\r\n        require(account != address(0), \"ERC20: mint to the zero address\");\r\n        // _beforeTokenTransfer(address(0), account, amount);\r\n        totalSupply = totalSupply.add(amount);\r\n        balanceOf[account] = balanceOf[account].add(amount);\r\n        emit Transfer(address(0), account, amount);\r\n    }\r\n\r\n    function burn(address account, uint256 amount) internal {\r\n        require(account != address(0), \"ERC20: burn from the zero address\");\r\n        // _beforeTokenTransfer(account, address(0), amount);\r\n        balanceOf[account] = balanceOf[account].sub(\r\n            amount,\r\n            \"ERC20: burn amount exceeds balance\"\r\n        );\r\n        totalSupply = totalSupply.sub(amount);\r\n        emit Transfer(account, address(0), amount);\r\n    }\r\n\r\n    function transfer(address recipient, uint256 amount) public returns (bool) {\r\n        _transfer(msg.sender, recipient, amount);\r\n        return true;\r\n    }\r\n\r\n    function approve(address spender, uint256 amount) public returns (bool) {\r\n        _approve(msg.sender, spender, amount);\r\n        return true;\r\n    }\r\n\r\n    function transferFrom(address sender, address recipient, uint256 amount)\r\n        public\r\n        returns (bool)\r\n    {\r\n        _transfer(sender, recipient, amount);\r\n        _approve(\r\n            sender,\r\n            msg.sender,\r\n            allowance[sender][msg.sender].sub(\r\n                amount,\r\n                \"ERC20: transfer amount exceeds allowance\"\r\n            )\r\n        );\r\n        return true;\r\n    }\r\n\r\n    function _transfer(address sender, address recipient, uint256 amount)\r\n        internal\r\n    {\r\n        require(sender != address(0), \"ERC20: transfer from the zero address\");\r\n        require(recipient != address(0), \"ERC20: transfer to the zero address\");\r\n        // _beforeTokenTransfer(sender, recipient, amount);\r\n        balanceOf[sender] = balanceOf[sender].sub(\r\n            amount,\r\n            \"ERC20: transfer amount exceeds balance\"\r\n        );\r\n        balanceOf[recipient] = balanceOf[recipient].add(amount);\r\n        emit Transfer(sender, recipient, amount);\r\n    }\r\n\r\n    function _approve(address owner, address spender, uint256 amount) internal {\r\n        require(owner != address(0), \"ERC20: approve from the zero address\");\r\n        require(spender != address(0), \"ERC20: approve to the zero address\");\r\n        allowance[owner][spender] = amount;\r\n        emit Approval(owner, spender, amount);\r\n    }\r\n\r\n    function() external payable {\r\n        emit internall(\"got cash\", msg.value);\r\n    }\r\n\r\n}\r\n",
  "sourcePath": "C:\\Users\\zonyc\\Dropbox\\GitHub\\Unipool\\contracts\\iUniPool.sol",
  "compiler": {
    "name": "solc",
    "version": "0.5.13+commit.5b0b510c.Emscripten.clang"
  },
  "schemaVersion": "3.0.23",
  "updatedAt": "2020-03-06T11:20:19.499Z",
  "networkType": "ethereum",
  "devdoc": {
    "methods": {
      "stakeMyShare(uint256)": {
        "details": "Returs the amount of LP required to stake / transfer to buy 1 DZLT token"
      }
    }
  },
  "userdoc": {
    "methods": {}
  }
}