{
  "contractName": "iUniPool",
  "abi": [
    {
      "inputs": [],
      "payable": false,
      "stateMutability": "nonpayable",
      "type": "constructor"
    },
    {
      "anonymous": false,
      "inputs": [
        {
          "indexed": true,
          "internalType": "address",
          "name": "src",
          "type": "address"
        },
        {
          "indexed": true,
          "internalType": "address",
          "name": "guy",
          "type": "address"
        },
        {
          "indexed": false,
          "internalType": "uint256",
          "name": "wad",
          "type": "uint256"
        }
      ],
      "name": "Approval",
      "type": "event"
    },
    {
      "anonymous": false,
      "inputs": [
        {
          "indexed": true,
          "internalType": "address",
          "name": "staker",
          "type": "address"
        },
        {
          "indexed": false,
          "internalType": "uint256",
          "name": "qtyStaked",
          "type": "uint256"
        }
      ],
      "name": "LPTokensStaked",
      "type": "event"
    },
    {
      "anonymous": false,
      "inputs": [
        {
          "indexed": true,
          "internalType": "address",
          "name": "leaver",
          "type": "address"
        },
        {
          "indexed": false,
          "internalType": "uint256",
          "name": "qtyWithdrawn",
          "type": "uint256"
        }
      ],
      "name": "LPTokensWithdrawn",
      "type": "event"
    },
    {
      "anonymous": false,
      "inputs": [
        {
          "indexed": true,
          "internalType": "address",
          "name": "src",
          "type": "address"
        },
        {
          "indexed": true,
          "internalType": "address",
          "name": "dst",
          "type": "address"
        },
        {
          "indexed": false,
          "internalType": "uint256",
          "name": "wad",
          "type": "uint256"
        }
      ],
      "name": "Transfer",
      "type": "event"
    },
    {
      "constant": true,
      "inputs": [
        {
          "internalType": "address",
          "name": "",
          "type": "address"
        }
      ],
      "name": "LPTokensSupplied",
      "outputs": [
        {
          "internalType": "uint256",
          "name": "",
          "type": "uint256"
        }
      ],
      "payable": false,
      "stateMutability": "view",
      "type": "function"
    },
    {
      "constant": true,
      "inputs": [],
      "name": "SNXTokenAddress",
      "outputs": [
        {
          "internalType": "contract IERC20",
          "name": "",
          "type": "address"
        }
      ],
      "payable": false,
      "stateMutability": "view",
      "type": "function"
    },
    {
      "constant": true,
      "inputs": [],
      "name": "SNXUniSwapTokenAddress",
      "outputs": [
        {
          "internalType": "contract IERC20",
          "name": "",
          "type": "address"
        }
      ],
      "payable": false,
      "stateMutability": "view",
      "type": "function"
    },
    {
      "constant": true,
      "inputs": [],
      "name": "UnipoolAddress",
      "outputs": [
        {
          "internalType": "address",
          "name": "",
          "type": "address"
        }
      ],
      "payable": false,
      "stateMutability": "view",
      "type": "function"
    },
    {
      "constant": true,
      "inputs": [
        {
          "internalType": "address",
          "name": "",
          "type": "address"
        },
        {
          "internalType": "address",
          "name": "",
          "type": "address"
        }
      ],
      "name": "allowance",
      "outputs": [
        {
          "internalType": "uint256",
          "name": "",
          "type": "uint256"
        }
      ],
      "payable": false,
      "stateMutability": "view",
      "type": "function"
    },
    {
      "constant": true,
      "inputs": [
        {
          "internalType": "address",
          "name": "",
          "type": "address"
        }
      ],
      "name": "balanceOf",
      "outputs": [
        {
          "internalType": "uint256",
          "name": "",
          "type": "uint256"
        }
      ],
      "payable": false,
      "stateMutability": "view",
      "type": "function"
    },
    {
      "constant": true,
      "inputs": [],
      "name": "decimals",
      "outputs": [
        {
          "internalType": "uint8",
          "name": "",
          "type": "uint8"
        }
      ],
      "payable": false,
      "stateMutability": "view",
      "type": "function"
    },
    {
      "constant": true,
      "inputs": [],
      "name": "name",
      "outputs": [
        {
          "internalType": "string",
          "name": "",
          "type": "string"
        }
      ],
      "payable": false,
      "stateMutability": "view",
      "type": "function"
    },
    {
      "constant": true,
      "inputs": [],
      "name": "sETHTokenAddress",
      "outputs": [
        {
          "internalType": "contract IERC20",
          "name": "",
          "type": "address"
        }
      ],
      "payable": false,
      "stateMutability": "view",
      "type": "function"
    },
    {
      "constant": true,
      "inputs": [],
      "name": "sETH_LP_TokenAddress",
      "outputs": [
        {
          "internalType": "contract IERC20",
          "name": "",
          "type": "address"
        }
      ],
      "payable": false,
      "stateMutability": "view",
      "type": "function"
    },
    {
      "constant": true,
      "inputs": [],
      "name": "symbol",
      "outputs": [
        {
          "internalType": "string",
          "name": "",
          "type": "string"
        }
      ],
      "payable": false,
      "stateMutability": "view",
      "type": "function"
    },
    {
      "constant": true,
      "inputs": [],
      "name": "totalLPTokensStaked",
      "outputs": [
        {
          "internalType": "uint256",
          "name": "",
          "type": "uint256"
        }
      ],
      "payable": false,
      "stateMutability": "view",
      "type": "function"
    },
    {
      "constant": true,
      "inputs": [],
      "name": "totalSupply",
      "outputs": [
        {
          "internalType": "uint256",
          "name": "",
          "type": "uint256"
        }
      ],
      "payable": false,
      "stateMutability": "view",
      "type": "function"
    },
    {
      "constant": true,
      "inputs": [],
      "name": "version",
      "outputs": [
        {
          "internalType": "string",
          "name": "",
          "type": "string"
        }
      ],
      "payable": false,
      "stateMutability": "view",
      "type": "function"
    },
    {
      "constant": true,
      "inputs": [],
      "name": "howMuchHasThisContractStaked",
      "outputs": [
        {
          "internalType": "uint256",
          "name": "LPTokens",
          "type": "uint256"
        }
      ],
      "payable": false,
      "stateMutability": "view",
      "type": "function"
    },
    {
      "constant": true,
      "inputs": [],
      "name": "howMuchHasThisContractEarned",
      "outputs": [
        {
          "internalType": "uint256",
          "name": "SNXEarned",
          "type": "uint256"
        }
      ],
      "payable": false,
      "stateMutability": "view",
      "type": "function"
    },
    {
      "constant": false,
      "inputs": [],
      "name": "PriceToStakeNow",
      "outputs": [
        {
          "internalType": "uint256",
          "name": "LP_per_token",
          "type": "uint256"
        }
      ],
      "payable": false,
      "stateMutability": "nonpayable",
      "type": "function"
    },
    {
      "constant": false,
      "inputs": [
        {
          "internalType": "uint256",
          "name": "_LPTokenUints",
          "type": "uint256"
        }
      ],
      "name": "stakeMyShare",
      "outputs": [
        {
          "internalType": "uint256",
          "name": "",
          "type": "uint256"
        }
      ],
      "payable": false,
      "stateMutability": "nonpayable",
      "type": "function"
    },
    {
      "constant": false,
      "inputs": [
        {
          "internalType": "uint256",
          "name": "_tokenQTY",
          "type": "uint256"
        }
      ],
      "name": "getMyStakeOut",
      "outputs": [],
      "payable": false,
      "stateMutability": "nonpayable",
      "type": "function"
    },
    {
      "constant": false,
      "inputs": [
        {
          "internalType": "bool",
          "name": "enter",
          "type": "bool"
        }
      ],
      "name": "reBalance",
      "outputs": [
        {
          "internalType": "uint256",
          "name": "LPTokenWealth",
          "type": "uint256"
        }
      ],
      "payable": false,
      "stateMutability": "nonpayable",
      "type": "function"
    },
    {
      "constant": false,
      "inputs": [
        {
          "internalType": "address",
          "name": "recipient",
          "type": "address"
        },
        {
          "internalType": "uint256",
          "name": "amount",
          "type": "uint256"
        }
      ],
      "name": "transfer",
      "outputs": [
        {
          "internalType": "bool",
          "name": "",
          "type": "bool"
        }
      ],
      "payable": false,
      "stateMutability": "nonpayable",
      "type": "function"
    },
    {
      "constant": false,
      "inputs": [
        {
          "internalType": "address",
          "name": "spender",
          "type": "address"
        },
        {
          "internalType": "uint256",
          "name": "amount",
          "type": "uint256"
        }
      ],
      "name": "approve",
      "outputs": [
        {
          "internalType": "bool",
          "name": "",
          "type": "bool"
        }
      ],
      "payable": false,
      "stateMutability": "nonpayable",
      "type": "function"
    },
    {
      "constant": false,
      "inputs": [
        {
          "internalType": "address",
          "name": "sender",
          "type": "address"
        },
        {
          "internalType": "address",
          "name": "recipient",
          "type": "address"
        },
        {
          "internalType": "uint256",
          "name": "amount",
          "type": "uint256"
        }
      ],
      "name": "transferFrom",
      "outputs": [
        {
          "internalType": "bool",
          "name": "",
          "type": "bool"
        }
      ],
      "payable": false,
      "stateMutability": "nonpayable",
      "type": "function"
    }
  ],
  "bytecode": "0x60806040523480156200001157600080fd5b50620000256001600160e01b036200002b16565b62000207565b6040805163095ea7b360e01b81527348d7f315fedcad332f68aafa017c7c158bc5476060048201526101016024820152905173e9cf7887b93150d4f2da7dfc6d502b216438f2449163095ea7b39160448083019260209291908290030181600087803b1580156200009b57600080fd5b505af1158015620000b0573d6000803e3d6000fd5b505050506040513d6020811015620000c757600080fd5b50506040805163095ea7b360e01b815273e3385df5b47687405a02fc24322dedb7df38185260048201526101016024820152905173c011a73ee8576fb46f5e1c5751ca3b9fe0af2a6f9163095ea7b39160448083019260209291908290030181600087803b1580156200013957600080fd5b505af11580156200014e573d6000803e3d6000fd5b505050506040513d60208110156200016557600080fd5b50506040805163095ea7b360e01b815273e9cf7887b93150d4f2da7dfc6d502b216438f244600482015261010160248201529051735e74c9036fb86bd7ecdcb084a0673efc32ea31cb9163095ea7b39160448083019260209291908290030181600087803b158015620001d757600080fd5b505af1158015620001ec573d6000803e3d6000fd5b505050506040513d60208110156200020357600080fd5b5050565b6119d880620002176000396000f3fe608060405234801561001057600080fd5b506004361061017d5760003560e01c80636c57e575116100e3578063aca5bbd01161008c578063e4c7821111610066578063e4c7821114610402578063e5be1a961461040a578063f70f4893146104125761017d565b8063aca5bbd0146103af578063bbaabe04146103cc578063dd62ed3e146103d45761017d565b8063966eed1f116100bd578063966eed1f14610345578063a75afc7d14610364578063a9059cbb146103835761017d565b80636c57e5751461031757806370a082311461031f57806395d89b41146101825761017d565b806323b872dd116101455780634211a5951161011f5780634211a595146102e157806354fd4d50146102e957806366d7a10f146102f15761017d565b806323b872dd146102855780632fd4bc52146102bb578063313ce567146102c35761017d565b806306fdde0314610182578063095ea7b3146101ff57806314d742041461023f578063161e8e821461026357806318160ddd1461026b575b600080fd5b61018a61041a565b6040805160208082528351818301528351919283929083019185019080838360005b838110156101c45781810151838201526020016101ac565b50505050905090810190601f1680156101f15780820380516001836020036101000a031916815260200191505b509250505060405180910390f35b61022b6004803603604081101561021557600080fd5b506001600160a01b03813516906020013561043b565b604080519115158252519081900360200190f35b610247610452565b604080516001600160a01b039092168252519081900360200190f35b61024761046a565b610273610482565b60408051918252519081900360200190f35b61022b6004803603606081101561029b57600080fd5b506001600160a01b03813581169160208101359091169060400135610488565b6102736104f7565b6102cb6105d3565b6040805160ff9092168252519081900360200190f35b6102736105d8565b61018a6105de565b6102736004803603602081101561030757600080fd5b50356001600160a01b03166105fb565b61027361060d565b6102736004803603602081101561033557600080fd5b50356001600160a01b0316610693565b6103626004803603602081101561035b57600080fd5b50356106a5565b005b6102736004803603602081101561037a57600080fd5b50351515610905565b61022b6004803603604081101561039957600080fd5b506001600160a01b038135169060200135610b28565b610273600480360360208110156103c557600080fd5b5035610b35565b610247610c75565b610273600480360360408110156103ea57600080fd5b506001600160a01b0381358116916020013516610c8d565b610247610caa565b610273610cc2565b610247610d15565b60405180604001604052806005815260200164111694d31560da1b81525081565b6000610448338484610d2d565b5060015b92915050565b73e9cf7887b93150d4f2da7dfc6d502b216438f24481565b73e3385df5b47687405a02fc24322dedb7df38185281565b60005481565b6000610495848484610e19565b6104ed84336104e885604051806060016040528060288152602001611912602891396001600160a01b038a166000908152600360209081526040808320338452909152902054919063ffffffff610f7716565b610d2d565b5060019392505050565b604080516246613160e11b8152306004820152905160009182917348d7f315fedcad332f68aafa017c7c158bc5476091628cc262916024808301926020929190829003018186803b15801561054b57600080fd5b505afa15801561055f573d6000803e3d6000fd5b505050506040513d602081101561057557600080fd5b5051905060006105998273e3385df5b47687405a02fc24322dedb7df38185261100e565b905060006105cb6105b183600263ffffffff61108716565b73e9cf7887b93150d4f2da7dfc6d502b216438f2446110d0565b905050505090565b601281565b60015481565b604051806040016040528060018152602001603160f81b81525081565b60046020526000908152604090205481565b604080516370a0823160e01b815230600482015290516000917348d7f315fedcad332f68aafa017c7c158bc54760916370a0823191602480820192602092909190829003018186803b15801561066257600080fd5b505afa158015610676573d6000803e3d6000fd5b505050506040513d602081101561068c57600080fd5b5051905090565b60026020526000908152604090205481565b33600090815260026020526040902054811115610709576040805162461bcd60e51b815260206004820152601760248201527f5769746864726177696e672071747920696e76616c6964000000000000000000604482015290519081900360640190fd5b60006107256107186000611116565b839063ffffffff61108716565b604080516370a0823160e01b8152306004820152905191925060009173e9cf7887b93150d4f2da7dfc6d502b216438f244916370a08231916024808301926020929190829003018186803b15801561077c57600080fd5b505afa158015610790573d6000803e3d6000fd5b505050506040513d60208110156107a657600080fd5b505190508082111561083a5760006107c4838363ffffffff61116016565b90507348d7f315fedcad332f68aafa017c7c158bc547606001600160a01b0316632e1a7d4d826040518263ffffffff1660e01b815260040180828152602001915050600060405180830381600087803b15801561082057600080fd5b505af1158015610834573d6000803e3d6000fd5b50505050505b6040805163a9059cbb60e01b815233600482015260248101849052905173e9cf7887b93150d4f2da7dfc6d502b216438f2449163a9059cbb9160448083019260209291908290030181600087803b15801561089457600080fd5b505af11580156108a8573d6000803e3d6000fd5b505050506040513d60208110156108be57600080fd5b5050336000908152600460205260409020546108da9083611160565b3360008181526004602052604090209190915560018054849003905561090090846111a2565b505050565b604080516370a0823160e01b8152306004820152905160009182917348d7f315fedcad332f68aafa017c7c158bc54760916370a08231916024808301926020929190829003018186803b15801561095b57600080fd5b505afa15801561096f573d6000803e3d6000fd5b505050506040513d602081101561098557600080fd5b505160408051631e8c5c8960e11b815290519192507348d7f315fedcad332f68aafa017c7c158bc5476091633d18b9129160048082019260009290919082900301818387803b1580156109d757600080fd5b505af11580156109eb573d6000803e3d6000fd5b5050604080516370a0823160e01b815230600482015290516000935073c011a73ee8576fb46f5e1c5751ca3b9fe0af2a6f92506370a0823191602480820192602092909190829003018186803b158015610a4457600080fd5b505afa158015610a58573d6000803e3d6000fd5b505050506040513d6020811015610a6e57600080fd5b505190508015610b20576000610a838261129f565b90508415610b06577348d7f315fedcad332f68aafa017c7c158bc547606001600160a01b031663a694fc3a826040518263ffffffff1660e01b815260040180828152602001915050600060405180830381600087803b158015610ae557600080fd5b505af1158015610af9573d6000803e3d6000fd5b5050600180548401905550505b610b16838263ffffffff61157916565b9350505050610b23565b50505b919050565b6000610448338484610e19565b604080516323b872dd60e01b815233600482015230602482015260448101839052905160009173e9cf7887b93150d4f2da7dfc6d502b216438f244916323b872dd9160648082019260209290919082900301818787803b158015610b9857600080fd5b505af1158015610bac573d6000803e3d6000fd5b505050506040513d6020811015610bc257600080fd5b505033600090815260046020526040902054610bde9083611579565b33600090815260046020819052604080832093909355825163534a7e1d60e11b815290810185905291517348d7f315fedcad332f68aafa017c7c158bc547609263a694fc3a92602480830193919282900301818387803b158015610c4157600080fd5b505af1158015610c55573d6000803e3d6000fd5b505050506000610c6533846115d3565b6001805485019055915050919050565b73c011a73ee8576fb46f5e1c5751ca3b9fe0af2a6f81565b600360209081526000928352604080842090915290825290205481565b7348d7f315fedcad332f68aafa017c7c158bc5476081565b604080516246613160e11b815230600482015290516000917348d7f315fedcad332f68aafa017c7c158bc5476091628cc26291602480820192602092909190829003018186803b15801561066257600080fd5b735e74c9036fb86bd7ecdcb084a0673efc32ea31cb81565b6001600160a01b038316610d725760405162461bcd60e51b81526004018080602001828103825260248152602001806119806024913960400191505060405180910390fd5b6001600160a01b038216610db75760405162461bcd60e51b81526004018080602001828103825260228152602001806118a96022913960400191505060405180910390fd5b6001600160a01b03808416600081815260036020908152604080832094871680845294825291829020859055815185815291517f8c5be1e5ebec7d5bd14f71427d1e84f3dd0314c0f7b2291e5b200ac8c7c3b9259281900390910190a3505050565b6001600160a01b038316610e5e5760405162461bcd60e51b815260040180806020018281038252602581526020018061195b6025913960400191505060405180910390fd5b6001600160a01b038216610ea35760405162461bcd60e51b81526004018080602001828103825260238152602001806118646023913960400191505060405180910390fd5b610ee6816040518060600160405280602681526020016118cb602691396001600160a01b038616600090815260026020526040902054919063ffffffff610f7716565b6001600160a01b038085166000908152600260205260408082209390935590841681522054610f1b908263ffffffff61157916565b6001600160a01b0380841660008181526002602090815260409182902094909455805185815290519193928716927fddf252ad1be2c89b69c2b068fc378daa952ba7f163c4a11628f55a4df523b3ef92918290030190a3505050565b600081848411156110065760405162461bcd60e51b81526004018080602001828103825283818151815260200191508051906020019080838360005b83811015610fcb578181015183820152602001610fb3565b50505050905090810190601f168015610ff85780820380516001836020036101000a031916815260200191505b509250505060405180910390fd5b505050900390565b6000816001600160a01b03166395b68fe7846040518263ffffffff1660e01b81526004018082815260200191505060206040518083038186803b15801561105457600080fd5b505afa158015611068573d6000803e3d6000fd5b505050506040513d602081101561107e57600080fd5b50519392505050565b60006110c983836040518060400160405280601a81526020017f536166654d6174683a206469766973696f6e206279207a65726f0000000000008152506115f0565b9392505050565b6000816001600160a01b031663cd7724c3846040518263ffffffff1660e01b81526004018082815260200191505060206040518083038186803b15801561105457600080fd5b6000600154600014801561112a5750600054155b1561113757506001610b23565b600061114283610905565b600054909150611158908263ffffffff61108716565b915050610b23565b60006110c983836040518060400160405280601e81526020017f536166654d6174683a207375627472616374696f6e206f766572666c6f770000815250610f77565b6001600160a01b0382166111e75760405162461bcd60e51b815260040180806020018281038252602181526020018061193a6021913960400191505060405180910390fd5b61122a81604051806060016040528060228152602001611887602291396001600160a01b038516600090815260026020526040902054919063ffffffff610f7716565b6001600160a01b03831660009081526002602052604081209190915554611257908263ffffffff61116016565b60009081556040805183815290516001600160a01b038516917fddf252ad1be2c89b69c2b068fc378daa952ba7f163c4a11628f55a4df523b3ef919081900360200190a35050565b6000806112bf6103e86112b3856002611087565b9063ffffffff61157916565b905060006112cd8483611160565b9050600073e3385df5b47687405a02fc24322dedb7df38185263ddf7e1a78461131b6105b1606461130f6063611303868961100e565b9063ffffffff61165516565b9063ffffffff61108716565b611343606461130f60636113038b73e3385df5b47687405a02fc24322dedb7df38185261100e565b6113554261012c63ffffffff61157916565b735e74c9036fb86bd7ecdcb084a0673efc32ea31cb6040518663ffffffff1660e01b815260040180868152602001858152602001848152602001838152602001826001600160a01b03166001600160a01b0316815260200195505050505050602060405180830381600087803b1580156113ce57600080fd5b505af11580156113e2573d6000803e3d6000fd5b505050506040513d60208110156113f857600080fd5b50519050600073e3385df5b47687405a02fc24322dedb7df3818526395e3c50b8461142d606461130f60636113038b8861100e565b61143f4261012c63ffffffff61157916565b6040518463ffffffff1660e01b8152600401808481526020018381526020018281526020019350505050602060405180830381600087803b15801561148357600080fd5b505af1158015611497573d6000803e3d6000fd5b505050506040513d60208110156114ad57600080fd5b5051905073e9cf7887b93150d4f2da7dfc6d502b216438f24463422f10438260016114ed84735e74c9036fb86bd7ecdcb084a0673efc32ea31cb846116ae565b6114ff4261012c63ffffffff61157916565b6040518563ffffffff1660e01b81526004018084815260200183815260200182815260200193505050506020604051808303818588803b15801561154257600080fd5b505af1158015611556573d6000803e3d6000fd5b50505050506040513d602081101561156d57600080fd5b50519695505050505050565b6000828201838110156110c9576040805162461bcd60e51b815260206004820152601b60248201527f536166654d6174683a206164646974696f6e206f766572666c6f770000000000604482015290519081900360640190fd5b6000806115e4836113036001611116565b90506110c98482611772565b6000818361163f5760405162461bcd60e51b8152602060048201818152835160248401528351909283926044909101919085019080838360008315610fcb578181015183820152602001610fb3565b50600083858161164b57fe5b0495945050505050565b6000826116645750600061044c565b8282028284828161167157fe5b04146110c95760405162461bcd60e51b81526004018080602001828103825260218152602001806118f16021913960400191505060405180910390fd5b60006001600160a01b03841631816116c68285611160565b90506000856001600160a01b03166370a08231886040518263ffffffff1660e01b815260040180826001600160a01b03166001600160a01b0316815260200191505060206040518083038186803b15801561172057600080fd5b505afa158015611734573d6000803e3d6000fd5b505050506040513d602081101561174a57600080fd5b50519050600061176361175d8784611655565b84611087565b60010198975050505050505050565b6001600160a01b0382166117cd576040805162461bcd60e51b815260206004820152601f60248201527f45524332303a206d696e7420746f20746865207a65726f206164647265737300604482015290519081900360640190fd5b6000546117e0908263ffffffff61157916565b60009081556001600160a01b03831681526002602052604090205461180b908263ffffffff61157916565b6001600160a01b03831660008181526002602090815260408083209490945583518581529351929391927fddf252ad1be2c89b69c2b068fc378daa952ba7f163c4a11628f55a4df523b3ef9281900390910190a3505056fe45524332303a207472616e7366657220746f20746865207a65726f206164647265737345524332303a206275726e20616d6f756e7420657863656564732062616c616e636545524332303a20617070726f766520746f20746865207a65726f206164647265737345524332303a207472616e7366657220616d6f756e7420657863656564732062616c616e6365536166654d6174683a206d756c7469706c69636174696f6e206f766572666c6f7745524332303a207472616e7366657220616d6f756e74206578636565647320616c6c6f77616e636545524332303a206275726e2066726f6d20746865207a65726f206164647265737345524332303a207472616e736665722066726f6d20746865207a65726f206164647265737345524332303a20617070726f76652066726f6d20746865207a65726f2061646472657373a265627a7a723158208cf9d1d297bd49e6cf8154d2b3fcb431c210a4b801c0c88fe316409f7c90ef8f64736f6c63430005100032",
  "source": "pragma solidity ^0.5.0;\n\nimport \"./Unipool.sol\";\nimport \"./iUniswapExchangeContract.sol\";\n\ncontract iUniPool {\n    using SafeMath for uint256;\n    using SafeERC20 for IERC20;\n\n    // --- ERC20 Data ---\n    string public constant name = \"DZSLT\";\n    string public constant symbol = \"DZSLT\";\n    string public constant version = \"1\";\n    uint8 public constant decimals = 18;\n    uint256 public totalSupply;\n\n    address public constant UnipoolAddress = 0x48D7f315feDcaD332F68aafa017c7C158BC54760;\n    IERC20 public constant sETHTokenAddress = IERC20(\n        0x5e74C9036fb86BD7eCdcb084a0673EFc32eA31cb\n    );\n    IERC20 public constant sETH_LP_TokenAddress = IERC20(\n        0xe9Cf7887b93150D4F2Da7dFc6D502B216438F244\n    );\n    IERC20 public constant SNXTokenAddress = IERC20(\n        0xC011a73ee8576Fb46F5E1c5751cA3B9Fe0af2a6F\n    );\n    IERC20 public constant SNXUniSwapTokenAddress = IERC20(\n        0xe3385df5b47687405A02Fc24322DeDb7df381852\n    );\n\n    uint256 public totalLPTokensStaked;\n\n    mapping(address => uint256) public balanceOf;\n    mapping(address => mapping(address => uint256)) public allowance;\n    mapping(address => uint256) public LPTokensSupplied;\n\n    // events\n    event LPTokensStaked(address indexed staker, uint256 qtyStaked);\n    event LPTokensWithdrawn(address indexed leaver, uint256 qtyWithdrawn);\n    event Approval(address indexed src, address indexed guy, uint256 wad);\n    event Transfer(address indexed src, address indexed dst, uint256 wad);\n\n    constructor() public {\n        approve_Addresses();\n    }\n\n    function approve_Addresses() internal {\n        IERC20(sETH_LP_TokenAddress).approve(UnipoolAddress, ((2 ^ 256) - 1));\n        IERC20(SNXTokenAddress).approve(\n            address(SNXUniSwapTokenAddress),\n            ((2 ^ 256) - 1)\n        );\n        IERC20(sETHTokenAddress).approve(\n            address(sETH_LP_TokenAddress),\n            ((2 ^ 256) - 1)\n        );\n\n    }\n\n    // reader functions\n\n    function howMuchHasThisContractStaked()\n        external\n        view\n        returns (uint256 LPTokens)\n    {\n        return Unipool(UnipoolAddress).balanceOf(address(this));\n    }\n\n    function howMuchHasThisContractEarned()\n        external\n        view\n        returns (uint256 SNXEarned)\n    {\n        return Unipool(UnipoolAddress).earned(address(this));\n    }\n\n    function PriceToStakeNow() external returns (uint256 LP_per_token) {\n        uint256 SNXrewardEarned = Unipool(UnipoolAddress).earned(address(this));\n        uint256 eth4SNX = min_eth(\n            SNXrewardEarned,\n            address(SNXUniSwapTokenAddress)\n        );\n        uint256 eth2sETH = min_tokens(\n            ((eth4SNX).div(2)),\n            address(sETH_LP_TokenAddress)\n        );\n        // FIXME: Suhail to help on this\n    }\n\n    // action functions\n    function stakeMyShare(uint256 _LPTokenUints) public returns (uint256) {\n        // transfer to this address\n        sETH_LP_TokenAddress.transferFrom(\n            msg.sender,\n            address(this),\n            _LPTokenUints\n        );\n\n        LPTokensSupplied[msg.sender] = SafeMath.add(\n            LPTokensSupplied[msg.sender],\n            _LPTokenUints\n        );\n\n        Unipool(UnipoolAddress).stake(_LPTokenUints);\n\n        uint256 tokens = issueTokens(msg.sender, _LPTokenUints);\n\n        // updating the in contract varaible for the number of uints staked\n        totalLPTokensStaked += _LPTokenUints;\n        return (tokens);\n    }\n\n    function issueTokens(address toWhom, uint256 howMuchLPStaked)\n        internal\n        returns (uint256 tokensIssued)\n    {\n        uint256 tokens2bIssued = getPricePerToken(true).mul(howMuchLPStaked);\n        mint(toWhom, tokens2bIssued);\n        return tokens2bIssued;\n    }\n\n    function getPricePerToken(bool enter)\n        internal\n        returns (uint256 LP_Per_Token)\n    {\n        if (totalLPTokensStaked == 0 && totalSupply == 0) {\n            return (1);\n        } else {\n            // FIXME: to write up the function of simulate\n            uint256 totalLPs = reBalance(enter);\n            return totalSupply.div(totalLPs);\n\n            // return ((totalLPTokensStaked).div(totalSupply));\n\n        }\n    }\n\n    function getMyStakeOut(uint256 _tokenQTY) public {\n        require(balanceOf[msg.sender] >= _tokenQTY, \"Withdrawing qty invalid\");\n        uint256 LPs2bRedemeed = _tokenQTY.div(getPricePerToken(false));\n        uint256 LPsInHand = sETH_LP_TokenAddress.balanceOf(address(this));\n        if (LPs2bRedemeed > LPsInHand) {\n            uint256 LPsShortOf = LPs2bRedemeed.sub(LPsInHand);\n            Unipool(UnipoolAddress).withdraw(LPsShortOf);\n        }\n        sETH_LP_TokenAddress.transfer(msg.sender, LPs2bRedemeed);\n        // updating the internal mapping to reduce user's qty staked\n        LPTokensSupplied[msg.sender] = SafeMath.sub(\n            LPTokensSupplied[msg.sender],\n            LPs2bRedemeed\n        );\n        totalLPTokensStaked -= LPs2bRedemeed;\n        burn(msg.sender, _tokenQTY);\n    }\n\n    function reBalance(bool enter) public returns (uint256 LPTokenWealth) {\n        // LP TokenHoldings (since everything will always be staked)\n        uint256 LPHoldings_b4Rebalance = Unipool(UnipoolAddress).balanceOf(\n            address(this)\n        );\n\n        // claim reward\n        Unipool(UnipoolAddress).getReward();\n\n        // SNX TokenHoldings\n        uint256 SNXInHandHoldings = SNXTokenAddress.balanceOf(address(this));\n\n        if (SNXInHandHoldings != 0) {\n            uint256 LPJustReceived = convertSNXtoLP(SNXInHandHoldings);\n            if (enter) {\n                Unipool(UnipoolAddress).stake(LPJustReceived);\n                totalLPTokensStaked += LPJustReceived;\n\n            }\n            return (LPHoldings_b4Rebalance.add(LPJustReceived));\n        }\n\n    }\n\n    function convertSNXtoLP(uint256 SNXQty)\n        internal\n        returns (uint256 LPReceived)\n    {\n        uint256 con_po = SafeMath.div(SNXQty, 2).add(1000);\n        uint256 non_con_po = SafeMath.sub(SNXQty, con_po);\n        uint256 con_po_seth = UniswapExchangeInterface(\n            address(SNXUniSwapTokenAddress)\n        )\n            .tokenToTokenSwapInput(\n            con_po,\n            min_tokens(\n                (min_eth(con_po, address(SNXUniSwapTokenAddress)).mul(99)).div(\n                    100\n                ),\n                address(sETH_LP_TokenAddress)\n            ),\n            (min_eth(con_po, address(SNXUniSwapTokenAddress)).mul(99).div(100)),\n            now.add(300),\n            address(sETHTokenAddress)\n        );\n        uint256 non_con_po_eth = UniswapExchangeInterface(\n            address(SNXUniSwapTokenAddress)\n        )\n            .tokenToEthSwapInput(\n            non_con_po,\n            (\n                (\n                    min_eth(con_po, address(SNXUniSwapTokenAddress))\n                        .mul(99)\n                        .div(100)\n                )\n            ),\n            now.add(300)\n        );\n        return\n            UniswapExchangeInterface(address(sETH_LP_TokenAddress))\n                .addLiquidity\n                .value(non_con_po_eth)(\n                1,\n                getMaxTokens(\n                    address(sETH_LP_TokenAddress),\n                    sETHTokenAddress,\n                    non_con_po_eth\n                ),\n                now.add(300)\n            );\n    }\n\n    function getMaxTokens(address uniExchAdd, IERC20 ERC20Add, uint256 value)\n        internal\n        view\n        returns (uint256)\n    {\n        uint256 contractBalance = address(uniExchAdd).balance;\n        uint256 eth_reserve = SafeMath.sub(contractBalance, value);\n        uint256 token_reserve = ERC20Add.balanceOf(uniExchAdd);\n        uint256 token_amount = SafeMath.div(\n            SafeMath.mul(value, token_reserve),\n            eth_reserve\n        ) +\n            1;\n        return token_amount;\n    }\n\n    function min_eth(uint256 tokenQTY, address uniExchAdd)\n        internal\n        returns (uint256)\n    {\n        return\n            UniswapExchangeInterface(uniExchAdd).getTokenToEthInputPrice(\n                tokenQTY\n            );\n    }\n\n    function min_tokens(uint256 ethAmt, address uniExchAdd)\n        internal\n        returns (uint256)\n    {\n        return\n            UniswapExchangeInterface(uniExchAdd).getEthToTokenInputPrice(\n                ethAmt\n            );\n    }\n\n    function mint(address account, uint256 amount) internal {\n        require(account != address(0), \"ERC20: mint to the zero address\");\n        // _beforeTokenTransfer(address(0), account, amount);\n        totalSupply = totalSupply.add(amount);\n        balanceOf[account] = balanceOf[account].add(amount);\n        emit Transfer(address(0), account, amount);\n    }\n\n    function burn(address account, uint256 amount) internal {\n        require(account != address(0), \"ERC20: burn from the zero address\");\n        // _beforeTokenTransfer(account, address(0), amount);\n        balanceOf[account] = balanceOf[account].sub(\n            amount,\n            \"ERC20: burn amount exceeds balance\"\n        );\n        totalSupply = totalSupply.sub(amount);\n        emit Transfer(account, address(0), amount);\n    }\n\n    // function _beforeTokenTransfer(address from, address to, uint256 amount)\n    //     internal\n    // {}\n\n    function transfer(address recipient, uint256 amount) public returns (bool) {\n        _transfer(msg.sender, recipient, amount);\n        return true;\n    }\n\n    function approve(address spender, uint256 amount) public returns (bool) {\n        _approve(msg.sender, spender, amount);\n        return true;\n    }\n\n    function transferFrom(address sender, address recipient, uint256 amount)\n        public\n        returns (bool)\n    {\n        _transfer(sender, recipient, amount);\n        _approve(\n            sender,\n            msg.sender,\n            allowance[sender][msg.sender].sub(\n                amount,\n                \"ERC20: transfer amount exceeds allowance\"\n            )\n        );\n        return true;\n    }\n\n    function _transfer(address sender, address recipient, uint256 amount)\n        internal\n    {\n        require(sender != address(0), \"ERC20: transfer from the zero address\");\n        require(recipient != address(0), \"ERC20: transfer to the zero address\");\n        // _beforeTokenTransfer(sender, recipient, amount);\n        balanceOf[sender] = balanceOf[sender].sub(\n            amount,\n            \"ERC20: transfer amount exceeds balance\"\n        );\n        balanceOf[recipient] = balanceOf[recipient].add(amount);\n        emit Transfer(sender, recipient, amount);\n    }\n\n    function _approve(address owner, address spender, uint256 amount) internal {\n        require(owner != address(0), \"ERC20: approve from the zero address\");\n        require(spender != address(0), \"ERC20: approve to the zero address\");\n        allowance[owner][spender] = amount;\n        emit Approval(owner, spender, amount);\n    }\n\n}\n",
  "sourcePath": "/home/sc_dev/synth_stake/Unipool/contracts/iUniPool.sol",
  "compiler": {
    "name": "solc",
    "version": "0.5.16+commit.9c3226ce.Emscripten.clang"
  },
  "schemaVersion": "3.0.23",
  "updatedAt": "2020-02-29T05:11:38.299Z",
  "devdoc": {
    "methods": {}
  },
  "userdoc": {
    "methods": {}
  }
}