{
  "contractName": "iUniPool",
  "abi": [
    {
      "inputs": [],
      "payable": false,
      "stateMutability": "nonpayable",
      "type": "constructor"
    },
    {
      "anonymous": false,
      "inputs": [
        {
          "indexed": true,
          "internalType": "address",
          "name": "src",
          "type": "address"
        },
        {
          "indexed": true,
          "internalType": "address",
          "name": "guy",
          "type": "address"
        },
        {
          "indexed": false,
          "internalType": "uint256",
          "name": "wad",
          "type": "uint256"
        }
      ],
      "name": "Approval",
      "type": "event"
    },
    {
      "anonymous": false,
      "inputs": [
        {
          "indexed": true,
          "internalType": "address",
          "name": "staker",
          "type": "address"
        },
        {
          "indexed": false,
          "internalType": "uint256",
          "name": "qtyStaked",
          "type": "uint256"
        }
      ],
      "name": "LPTokensStaked",
      "type": "event"
    },
    {
      "anonymous": false,
      "inputs": [
        {
          "indexed": true,
          "internalType": "address",
          "name": "leaver",
          "type": "address"
        },
        {
          "indexed": false,
          "internalType": "uint256",
          "name": "qtyWithdrawn",
          "type": "uint256"
        }
      ],
      "name": "LPTokensWithdrawn",
      "type": "event"
    },
    {
      "anonymous": false,
      "inputs": [
        {
          "indexed": true,
          "internalType": "address",
          "name": "src",
          "type": "address"
        },
        {
          "indexed": true,
          "internalType": "address",
          "name": "dst",
          "type": "address"
        },
        {
          "indexed": false,
          "internalType": "uint256",
          "name": "wad",
          "type": "uint256"
        }
      ],
      "name": "Transfer",
      "type": "event"
    },
    {
      "anonymous": false,
      "inputs": [
        {
          "indexed": false,
          "internalType": "string",
          "name": "",
          "type": "string"
        },
        {
          "indexed": false,
          "internalType": "uint256",
          "name": "",
          "type": "uint256"
        }
      ],
      "name": "internall",
      "type": "event"
    },
    {
      "payable": true,
      "stateMutability": "payable",
      "type": "fallback"
    },
    {
      "constant": true,
      "inputs": [
        {
          "internalType": "address",
          "name": "",
          "type": "address"
        }
      ],
      "name": "LPTokensSupplied",
      "outputs": [
        {
          "internalType": "uint256",
          "name": "",
          "type": "uint256"
        }
      ],
      "payable": false,
      "stateMutability": "view",
      "type": "function"
    },
    {
      "constant": true,
      "inputs": [],
      "name": "SNXTokenAddress",
      "outputs": [
        {
          "internalType": "contract IERC20",
          "name": "",
          "type": "address"
        }
      ],
      "payable": false,
      "stateMutability": "view",
      "type": "function"
    },
    {
      "constant": true,
      "inputs": [],
      "name": "SNXUniSwapTokenAddress",
      "outputs": [
        {
          "internalType": "contract IERC20",
          "name": "",
          "type": "address"
        }
      ],
      "payable": false,
      "stateMutability": "view",
      "type": "function"
    },
    {
      "constant": true,
      "inputs": [],
      "name": "UnipoolAddress",
      "outputs": [
        {
          "internalType": "address",
          "name": "",
          "type": "address"
        }
      ],
      "payable": false,
      "stateMutability": "view",
      "type": "function"
    },
    {
      "constant": true,
      "inputs": [
        {
          "internalType": "address",
          "name": "",
          "type": "address"
        },
        {
          "internalType": "address",
          "name": "",
          "type": "address"
        }
      ],
      "name": "allowance",
      "outputs": [
        {
          "internalType": "uint256",
          "name": "",
          "type": "uint256"
        }
      ],
      "payable": false,
      "stateMutability": "view",
      "type": "function"
    },
    {
      "constant": true,
      "inputs": [
        {
          "internalType": "address",
          "name": "",
          "type": "address"
        }
      ],
      "name": "balanceOf",
      "outputs": [
        {
          "internalType": "uint256",
          "name": "",
          "type": "uint256"
        }
      ],
      "payable": false,
      "stateMutability": "view",
      "type": "function"
    },
    {
      "constant": true,
      "inputs": [],
      "name": "decimals",
      "outputs": [
        {
          "internalType": "uint8",
          "name": "",
          "type": "uint8"
        }
      ],
      "payable": false,
      "stateMutability": "view",
      "type": "function"
    },
    {
      "constant": true,
      "inputs": [],
      "name": "name",
      "outputs": [
        {
          "internalType": "string",
          "name": "",
          "type": "string"
        }
      ],
      "payable": false,
      "stateMutability": "view",
      "type": "function"
    },
    {
      "constant": true,
      "inputs": [],
      "name": "sETHTokenAddress",
      "outputs": [
        {
          "internalType": "contract IERC20",
          "name": "",
          "type": "address"
        }
      ],
      "payable": false,
      "stateMutability": "view",
      "type": "function"
    },
    {
      "constant": true,
      "inputs": [],
      "name": "sETH_LP_TokenAddress",
      "outputs": [
        {
          "internalType": "contract IERC20",
          "name": "",
          "type": "address"
        }
      ],
      "payable": false,
      "stateMutability": "view",
      "type": "function"
    },
    {
      "constant": true,
      "inputs": [],
      "name": "symbol",
      "outputs": [
        {
          "internalType": "string",
          "name": "",
          "type": "string"
        }
      ],
      "payable": false,
      "stateMutability": "view",
      "type": "function"
    },
    {
      "constant": true,
      "inputs": [],
      "name": "totalLPTokensStaked",
      "outputs": [
        {
          "internalType": "uint256",
          "name": "",
          "type": "uint256"
        }
      ],
      "payable": false,
      "stateMutability": "view",
      "type": "function"
    },
    {
      "constant": true,
      "inputs": [],
      "name": "totalSupply",
      "outputs": [
        {
          "internalType": "uint256",
          "name": "",
          "type": "uint256"
        }
      ],
      "payable": false,
      "stateMutability": "view",
      "type": "function"
    },
    {
      "constant": true,
      "inputs": [],
      "name": "version",
      "outputs": [
        {
          "internalType": "string",
          "name": "",
          "type": "string"
        }
      ],
      "payable": false,
      "stateMutability": "view",
      "type": "function"
    },
    {
      "constant": true,
      "inputs": [],
      "name": "howMuchHasThisContractStaked",
      "outputs": [
        {
          "internalType": "uint256",
          "name": "LPTokens",
          "type": "uint256"
        }
      ],
      "payable": false,
      "stateMutability": "view",
      "type": "function"
    },
    {
      "constant": true,
      "inputs": [],
      "name": "howMuchHasThisContractEarned",
      "outputs": [
        {
          "internalType": "uint256",
          "name": "SNXEarned",
          "type": "uint256"
        }
      ],
      "payable": false,
      "stateMutability": "view",
      "type": "function"
    },
    {
      "constant": true,
      "inputs": [],
      "name": "PriceToStakeNow",
      "outputs": [
        {
          "internalType": "uint256",
          "name": "",
          "type": "uint256"
        }
      ],
      "payable": false,
      "stateMutability": "view",
      "type": "function"
    },
    {
      "constant": false,
      "inputs": [
        {
          "internalType": "uint256",
          "name": "_LPTokenUints",
          "type": "uint256"
        }
      ],
      "name": "stakeMyShare",
      "outputs": [
        {
          "internalType": "uint256",
          "name": "",
          "type": "uint256"
        }
      ],
      "payable": false,
      "stateMutability": "nonpayable",
      "type": "function"
    },
    {
      "constant": false,
      "inputs": [
        {
          "internalType": "uint256",
          "name": "_tokenQTY",
          "type": "uint256"
        }
      ],
      "name": "getMyStakeOut",
      "outputs": [],
      "payable": false,
      "stateMutability": "nonpayable",
      "type": "function"
    },
    {
      "constant": false,
      "inputs": [
        {
          "internalType": "bool",
          "name": "enter",
          "type": "bool"
        }
      ],
      "name": "reBalance",
      "outputs": [
        {
          "internalType": "uint256",
          "name": "LPTokenWealth",
          "type": "uint256"
        }
      ],
      "payable": false,
      "stateMutability": "nonpayable",
      "type": "function"
    },
    {
      "constant": false,
      "inputs": [
        {
          "internalType": "uint256",
          "name": "SNXQty",
          "type": "uint256"
        }
      ],
      "name": "convertSNXtoLP",
      "outputs": [
        {
          "internalType": "uint256",
          "name": "LPReceived",
          "type": "uint256"
        }
      ],
      "payable": false,
      "stateMutability": "nonpayable",
      "type": "function"
    },
    {
      "constant": true,
      "inputs": [
        {
          "internalType": "address",
          "name": "uniExchAdd",
          "type": "address"
        },
        {
          "internalType": "contract IERC20",
          "name": "ERC20Add",
          "type": "address"
        },
        {
          "internalType": "uint256",
          "name": "value",
          "type": "uint256"
        }
      ],
      "name": "getMaxTokens",
      "outputs": [
        {
          "internalType": "uint256",
          "name": "",
          "type": "uint256"
        }
      ],
      "payable": false,
      "stateMutability": "view",
      "type": "function"
    },
    {
      "constant": true,
      "inputs": [
        {
          "internalType": "uint256",
          "name": "tokenQTY",
          "type": "uint256"
        },
        {
          "internalType": "address",
          "name": "uniExchAdd",
          "type": "address"
        }
      ],
      "name": "min_eth",
      "outputs": [
        {
          "internalType": "uint256",
          "name": "",
          "type": "uint256"
        }
      ],
      "payable": false,
      "stateMutability": "view",
      "type": "function"
    },
    {
      "constant": true,
      "inputs": [
        {
          "internalType": "uint256",
          "name": "ethAmt",
          "type": "uint256"
        },
        {
          "internalType": "address",
          "name": "uniExchAdd",
          "type": "address"
        }
      ],
      "name": "min_tokens",
      "outputs": [
        {
          "internalType": "uint256",
          "name": "",
          "type": "uint256"
        }
      ],
      "payable": false,
      "stateMutability": "view",
      "type": "function"
    },
    {
      "constant": false,
      "inputs": [
        {
          "internalType": "address",
          "name": "recipient",
          "type": "address"
        },
        {
          "internalType": "uint256",
          "name": "amount",
          "type": "uint256"
        }
      ],
      "name": "transfer",
      "outputs": [
        {
          "internalType": "bool",
          "name": "",
          "type": "bool"
        }
      ],
      "payable": false,
      "stateMutability": "nonpayable",
      "type": "function"
    },
    {
      "constant": false,
      "inputs": [
        {
          "internalType": "address",
          "name": "spender",
          "type": "address"
        },
        {
          "internalType": "uint256",
          "name": "amount",
          "type": "uint256"
        }
      ],
      "name": "approve",
      "outputs": [
        {
          "internalType": "bool",
          "name": "",
          "type": "bool"
        }
      ],
      "payable": false,
      "stateMutability": "nonpayable",
      "type": "function"
    },
    {
      "constant": false,
      "inputs": [
        {
          "internalType": "address",
          "name": "sender",
          "type": "address"
        },
        {
          "internalType": "address",
          "name": "recipient",
          "type": "address"
        },
        {
          "internalType": "uint256",
          "name": "amount",
          "type": "uint256"
        }
      ],
      "name": "transferFrom",
      "outputs": [
        {
          "internalType": "bool",
          "name": "",
          "type": "bool"
        }
      ],
      "payable": false,
      "stateMutability": "nonpayable",
      "type": "function"
    }
  ],
  "bytecode": "0x60806040523480156200001157600080fd5b50620000256001600160e01b036200002b16565b62000252565b604080517f095ea7b30000000000000000000000000000000000000000000000000000000081527348d7f315fedcad332f68aafa017c7c158bc5476060048201526000196024820152905173e9cf7887b93150d4f2da7dfc6d502b216438f2449163095ea7b39160448083019260209291908290030181600087803b158015620000b457600080fd5b505af1158015620000c9573d6000803e3d6000fd5b505050506040513d6020811015620000e057600080fd5b5050604080517f095ea7b3000000000000000000000000000000000000000000000000000000008152733958b4ec427f8fa24eb60f42821760e88d485f7f60048201526000196024820152905173c011a73ee8576fb46f5e1c5751ca3b9fe0af2a6f9163095ea7b39160448083019260209291908290030181600087803b1580156200016b57600080fd5b505af115801562000180573d6000803e3d6000fd5b505050506040513d60208110156200019757600080fd5b5050604080517f095ea7b300000000000000000000000000000000000000000000000000000000815273e9cf7887b93150d4f2da7dfc6d502b216438f244600482015260001960248201529051735e74c9036fb86bd7ecdcb084a0673efc32ea31cb9163095ea7b39160448083019260209291908290030181600087803b1580156200022257600080fd5b505af115801562000237573d6000803e3d6000fd5b505050506040513d60208110156200024e57600080fd5b5050565b61201580620002626000396000f3fe6080604052600436106101ac5760003560e01c80636c57e575116100ec578063b1adb1901161008a578063e4c7821111610064578063e4c782111461061b578063e5be1a9614610630578063f1171fe114610645578063f70f48931461067e576101ac565b8063b1adb19014610588578063bbaabe04146105cb578063dd62ed3e146105e0576101ac565b8063966eed1f116100c6578063966eed1f146104cd578063a75afc7d146104f9578063a9059cbb14610525578063aca5bbd01461055e576101ac565b80636c57e5751461048557806370a082311461049a57806395d89b41146101fe576101ac565b806323b872dd116101595780634211a595116101335780634211a595146103fe578063522ffa3c1461041357806354fd4d501461043d57806366d7a10f14610452576101ac565b806323b872dd1461037b5780632fd4bc52146103be578063313ce567146103d3576101ac565b8063161e8e821161018a578063161e8e821461030657806318160ddd1461031b5780631f7604b814610342576101ac565b806306fdde03146101fe578063095ea7b31461028857806314d74204146102d5575b60408051346020820152818152600881830152670cedee840c6c2e6d60c31b606082015290517f4f0ebd40ebf17fb5f44478155c0280633653900a58f6e78baa63e9b746fed0519181900360800190a1005b34801561020a57600080fd5b50610213610693565b6040805160208082528351818301528351919283929083019185019080838360005b8381101561024d578181015183820152602001610235565b50505050905090810190601f16801561027a5780820380516001836020036101000a031916815260200191505b509250505060405180910390f35b34801561029457600080fd5b506102c1600480360360408110156102ab57600080fd5b506001600160a01b0381351690602001356106b4565b604080519115158252519081900360200190f35b3480156102e157600080fd5b506102ea6106cb565b604080516001600160a01b039092168252519081900360200190f35b34801561031257600080fd5b506102ea6106e3565b34801561032757600080fd5b506103306106fb565b60408051918252519081900360200190f35b34801561034e57600080fd5b506103306004803603604081101561036557600080fd5b50803590602001356001600160a01b0316610701565b34801561038757600080fd5b506102c16004803603606081101561039e57600080fd5b506001600160a01b0381358116916020810135909116906040013561077a565b3480156103ca57600080fd5b506103306107e9565b3480156103df57600080fd5b506103e8610a2f565b6040805160ff9092168252519081900360200190f35b34801561040a57600080fd5b50610330610a34565b34801561041f57600080fd5b506103306004803603602081101561043657600080fd5b5035610a3a565b34801561044957600080fd5b50610213610fa8565b34801561045e57600080fd5b506103306004803603602081101561047557600080fd5b50356001600160a01b0316610fc5565b34801561049157600080fd5b50610330610fd7565b3480156104a657600080fd5b50610330600480360360208110156104bd57600080fd5b50356001600160a01b031661105d565b3480156104d957600080fd5b506104f7600480360360208110156104f057600080fd5b503561106f565b005b34801561050557600080fd5b506103306004803603602081101561051c57600080fd5b503515156112cf565b34801561053157600080fd5b506102c16004803603604081101561054857600080fd5b506001600160a01b0381351690602001356114ab565b34801561056a57600080fd5b506103306004803603602081101561058157600080fd5b50356114b8565b34801561059457600080fd5b50610330600480360360608110156105ab57600080fd5b506001600160a01b038135811691602081013590911690604001356115f8565b3480156105d757600080fd5b506102ea6116bc565b3480156105ec57600080fd5b506103306004803603604081101561060357600080fd5b506001600160a01b03813581169160200135166116d4565b34801561062757600080fd5b506102ea6116f1565b34801561063c57600080fd5b50610330611709565b34801561065157600080fd5b506103306004803603604081101561066857600080fd5b50803590602001356001600160a01b031661175c565b34801561068a57600080fd5b506102ea6117a2565b60405180604001604052806005815260200164111694d31560da1b81525081565b60006106c13384846117ba565b5060015b92915050565b73e9cf7887b93150d4f2da7dfc6d502b216438f24481565b733958b4ec427f8fa24eb60f42821760e88d485f7f81565b60005481565b6000816001600160a01b03166395b68fe7846040518263ffffffff1660e01b81526004018082815260200191505060206040518083038186803b15801561074757600080fd5b505afa15801561075b573d6000803e3d6000fd5b505050506040513d602081101561077157600080fd5b50519392505050565b60006107878484846118a6565b6107df84336107da85604051806060016040528060288152602001611f4f602891396001600160a01b038a166000908152600360209081526040808320338452909152902054919063ffffffff611a0416565b6117ba565b5060019392505050565b6000805415610a2857604080516246613160e11b815230600482015290516000917348d7f315fedcad332f68aafa017c7c158bc5476091628cc26291602480820192602092909190829003018186803b15801561084557600080fd5b505afa158015610859573d6000803e3d6000fd5b505050506040513d602081101561086f57600080fd5b50511115610a1357604080516246613160e11b81523060048201529051600091610913917348d7f315fedcad332f68aafa017c7c158bc5476091628cc262916024808301926020929190829003018186803b1580156108cd57600080fd5b505afa1580156108e1573d6000803e3d6000fd5b505050506040513d60208110156108f757600080fd5b5051733958b4ec427f8fa24eb60f42821760e88d485f7f610701565b9050600073e9cf7887b93150d4f2da7dfc6d502b216438f2446001600160a01b0316319050600073e9cf7887b93150d4f2da7dfc6d502b216438f2446001600160a01b03166318160ddd6040518163ffffffff1660e01b815260040160206040518083038186803b15801561098757600080fd5b505afa15801561099b573d6000803e3d6000fd5b505050506040513d60208110156109b157600080fd5b5051905060006109e8836109dc846109d088600263ffffffff611a9b16565b9063ffffffff611ae416565b9063ffffffff611a9b16565b9050610a086000546109dc6109fb610fd7565b849063ffffffff611b3d16565b945050505050610a2c565b610a216000546109dc610fd7565b9050610a2c565b5060015b90565b601281565b60015481565b600080610a4f6127106109dc85611379611ae4565b90506000610a5d8483611b97565b90506000733958b4ec427f8fa24eb60f42821760e88d485f7f6395e3c50b84610a926103e86109dc6103e36109d08588610701565b610aa44261012c63ffffffff611b3d16565b6040518463ffffffff1660e01b8152600401808481526020018381526020018281526020019350505050602060405180830381600087803b158015610ae857600080fd5b505af1158015610afc573d6000803e3d6000fd5b505050506040513d6020811015610b1257600080fd5b50519050733958b4ec427f8fa24eb60f42821760e88d485f7f63ddf7e1a783610b64610b4a6103e86109dc6103e36109d08689610701565b73e9cf7887b93150d4f2da7dfc6d502b216438f24461175c565b610b8e6103e86109dc6103e36109d08a733958b4ec427f8fa24eb60f42821760e88d485f7f610701565b610ba04261012c63ffffffff611b3d16565b735e74c9036fb86bd7ecdcb084a0673efc32ea31cb6040518663ffffffff1660e01b815260040180868152602001858152602001848152602001838152602001826001600160a01b03166001600160a01b0316815260200195505050505050602060405180830381600087803b158015610c1957600080fd5b505af1158015610c2d573d6000803e3d6000fd5b505050506040513d6020811015610c4357600080fd5b506000905073e9cf7887b93150d4f2da7dfc6d502b216438f24463422f1043836001610c8484735e74c9036fb86bd7ecdcb084a0673efc32ea31cb846115f8565b610c964261012c63ffffffff611b3d16565b6040518563ffffffff1660e01b81526004018084815260200183815260200182815260200193505050506020604051808303818588803b158015610cd957600080fd5b505af1158015610ced573d6000803e3d6000fd5b50505050506040513d6020811015610d0457600080fd5b5051604080516370a0823160e01b8152306004820152905191925073e9cf7887b93150d4f2da7dfc6d502b216438f2449163ddf7e1a791735e74c9036fb86bd7ecdcb084a0673efc32ea31cb916370a0823191602480820192602092909190829003018186803b158015610d7757600080fd5b505afa158015610d8b573d6000803e3d6000fd5b505050506040513d6020811015610da157600080fd5b5051604080516370a0823160e01b81523060048201529051610e6c91610e52916103e8916109dc916103e3916109d091735e74c9036fb86bd7ecdcb084a0673efc32ea31cb916370a08231916024808301926020929190829003018186803b158015610e0c57600080fd5b505afa158015610e20573d6000803e3d6000fd5b505050506040513d6020811015610e3657600080fd5b505173e9cf7887b93150d4f2da7dfc6d502b216438f244610701565b733958b4ec427f8fa24eb60f42821760e88d485f7f61175c565b610ee56103e86109dc6103e36109d0735e74c9036fb86bd7ecdcb084a0673efc32ea31cb6001600160a01b03166370a08231306040518263ffffffff1660e01b815260040180826001600160a01b03166001600160a01b0316815260200191505060206040518083038186803b158015610e0c57600080fd5b610ef74261012c63ffffffff611b3d16565b73c011a73ee8576fb46f5e1c5751ca3b9fe0af2a6f6040518663ffffffff1660e01b815260040180868152602001858152602001848152602001838152602001826001600160a01b03166001600160a01b0316815260200195505050505050602060405180830381600087803b158015610f7057600080fd5b505af1158015610f84573d6000803e3d6000fd5b505050506040513d6020811015610f9a57600080fd5b50909450505050505b919050565b604051806040016040528060018152602001603160f81b81525081565b60046020526000908152604090205481565b604080516370a0823160e01b815230600482015290516000917348d7f315fedcad332f68aafa017c7c158bc54760916370a0823191602480820192602092909190829003018186803b15801561102c57600080fd5b505afa158015611040573d6000803e3d6000fd5b505050506040513d602081101561105657600080fd5b5051905090565b60026020526000908152604090205481565b336000908152600260205260409020548111156110d3576040805162461bcd60e51b815260206004820152601760248201527f5769746864726177696e672071747920696e76616c6964000000000000000000604482015290519081900360640190fd5b60006110ef6110e26000611bd9565b839063ffffffff611ae416565b604080516370a0823160e01b8152306004820152905191925060009173e9cf7887b93150d4f2da7dfc6d502b216438f244916370a08231916024808301926020929190829003018186803b15801561114657600080fd5b505afa15801561115a573d6000803e3d6000fd5b505050506040513d602081101561117057600080fd5b505190508082111561120457600061118e838363ffffffff611b9716565b90507348d7f315fedcad332f68aafa017c7c158bc547606001600160a01b0316632e1a7d4d826040518263ffffffff1660e01b815260040180828152602001915050600060405180830381600087803b1580156111ea57600080fd5b505af11580156111fe573d6000803e3d6000fd5b50505050505b6040805163a9059cbb60e01b815233600482015260248101849052905173e9cf7887b93150d4f2da7dfc6d502b216438f2449163a9059cbb9160448083019260209291908290030181600087803b15801561125e57600080fd5b505af1158015611272573d6000803e3d6000fd5b505050506040513d602081101561128857600080fd5b5050336000908152600460205260409020546112a49083611b97565b336000818152600460205260409020919091556001805484900390556112ca9084611c24565b505050565b6000806112da610fd7565b90506601c6bf526340006112ec611709565b111561135a577348d7f315fedcad332f68aafa017c7c158bc547606001600160a01b0316633d18b9126040518163ffffffff1660e01b8152600401600060405180830381600087803b15801561134157600080fd5b505af1158015611355573d6000803e3d6000fd5b505050505b604080516370a0823160e01b8152306004820152905160009173c011a73ee8576fb46f5e1c5751ca3b9fe0af2a6f916370a0823191602480820192602092909190829003018186803b1580156113af57600080fd5b505afa1580156113c3573d6000803e3d6000fd5b505050506040513d60208110156113d957600080fd5b505190506601c6bf526340008111156114a45760006113f782610a3a565b90508415611494577348d7f315fedcad332f68aafa017c7c158bc547606001600160a01b031663a694fc3a826040518263ffffffff1660e01b815260040180828152602001915050600060405180830381600087803b15801561145957600080fd5b505af115801561146d573d6000803e3d6000fd5b505060018054840190555061148a9050838263ffffffff611b3d16565b9350505050610fa3565b61148a838263ffffffff611b3d16565b5092915050565b60006106c13384846118a6565b604080516323b872dd60e01b815233600482015230602482015260448101839052905160009173e9cf7887b93150d4f2da7dfc6d502b216438f244916323b872dd9160648082019260209290919082900301818787803b15801561151b57600080fd5b505af115801561152f573d6000803e3d6000fd5b505050506040513d602081101561154557600080fd5b5050336000908152600460205260409020546115619083611b3d565b33600090815260046020819052604080832093909355825163534a7e1d60e11b815290810185905291517348d7f315fedcad332f68aafa017c7c158bc547609263a694fc3a92602480830193919282900301818387803b1580156115c457600080fd5b505af11580156115d8573d6000803e3d6000fd5b5050505060006115e83384611d21565b6001805485019055915050919050565b60006001600160a01b03841631816116108285611b97565b90506000856001600160a01b03166370a08231886040518263ffffffff1660e01b815260040180826001600160a01b03166001600160a01b0316815260200191505060206040518083038186803b15801561166a57600080fd5b505afa15801561167e573d6000803e3d6000fd5b505050506040513d602081101561169457600080fd5b5051905060006116ad6116a78784611ae4565b84611a9b565b60010198975050505050505050565b73c011a73ee8576fb46f5e1c5751ca3b9fe0af2a6f81565b600360209081526000928352604080842090915290825290205481565b7348d7f315fedcad332f68aafa017c7c158bc5476081565b604080516246613160e11b815230600482015290516000917348d7f315fedcad332f68aafa017c7c158bc5476091628cc26291602480820192602092909190829003018186803b15801561102c57600080fd5b6000816001600160a01b031663cd7724c3846040518263ffffffff1660e01b81526004018082815260200191505060206040518083038186803b15801561074757600080fd5b735e74c9036fb86bd7ecdcb084a0673efc32ea31cb81565b6001600160a01b0383166117ff5760405162461bcd60e51b8152600401808060200182810382526024815260200180611fbd6024913960400191505060405180910390fd5b6001600160a01b0382166118445760405162461bcd60e51b8152600401808060200182810382526022815260200180611ee66022913960400191505060405180910390fd5b6001600160a01b03808416600081815260036020908152604080832094871680845294825291829020859055815185815291517f8c5be1e5ebec7d5bd14f71427d1e84f3dd0314c0f7b2291e5b200ac8c7c3b9259281900390910190a3505050565b6001600160a01b0383166118eb5760405162461bcd60e51b8152600401808060200182810382526025815260200180611f986025913960400191505060405180910390fd5b6001600160a01b0382166119305760405162461bcd60e51b8152600401808060200182810382526023815260200180611ea16023913960400191505060405180910390fd5b61197381604051806060016040528060268152602001611f08602691396001600160a01b038616600090815260026020526040902054919063ffffffff611a0416565b6001600160a01b0380851660009081526002602052604080822093909355908416815220546119a8908263ffffffff611b3d16565b6001600160a01b0380841660008181526002602090815260409182902094909455805185815290519193928716927fddf252ad1be2c89b69c2b068fc378daa952ba7f163c4a11628f55a4df523b3ef92918290030190a3505050565b60008184841115611a935760405162461bcd60e51b81526004018080602001828103825283818151815260200191508051906020019080838360005b83811015611a58578181015183820152602001611a40565b50505050905090810190601f168015611a855780820380516001836020036101000a031916815260200191505b509250505060405180910390fd5b505050900390565b6000611add83836040518060400160405280601a81526020017f536166654d6174683a206469766973696f6e206279207a65726f000000000000815250611d4a565b9392505050565b600082611af3575060006106c5565b82820282848281611b0057fe5b0414611add5760405162461bcd60e51b8152600401808060200182810382526021815260200180611f2e6021913960400191505060405180910390fd5b600082820183811015611add576040805162461bcd60e51b815260206004820152601b60248201527f536166654d6174683a206164646974696f6e206f766572666c6f770000000000604482015290519081900360640190fd5b6000611add83836040518060400160405280601e81526020017f536166654d6174683a207375627472616374696f6e206f766572666c6f770000815250611a04565b60006001546000148015611bed5750600054155b15611bfa57506001610fa3565b6000611c05836112cf565b9050611c1c60005482611a9b90919063ffffffff16565b915050610fa3565b6001600160a01b038216611c695760405162461bcd60e51b8152600401808060200182810382526021815260200180611f776021913960400191505060405180910390fd5b611cac81604051806060016040528060228152602001611ec4602291396001600160a01b038516600090815260026020526040902054919063ffffffff611a0416565b6001600160a01b03831660009081526002602052604081209190915554611cd9908263ffffffff611b9716565b60009081556040805183815290516001600160a01b038516917fddf252ad1be2c89b69c2b068fc378daa952ba7f163c4a11628f55a4df523b3ef919081900360200190a35050565b600080611d3e611d316001611bd9565b849063ffffffff611a9b16565b9050611add8482611daf565b60008183611d995760405162461bcd60e51b8152602060048201818152835160248401528351909283926044909101919085019080838360008315611a58578181015183820152602001611a40565b506000838581611da557fe5b0495945050505050565b6001600160a01b038216611e0a576040805162461bcd60e51b815260206004820152601f60248201527f45524332303a206d696e7420746f20746865207a65726f206164647265737300604482015290519081900360640190fd5b600054611e1d908263ffffffff611b3d16565b60009081556001600160a01b038316815260026020526040902054611e48908263ffffffff611b3d16565b6001600160a01b03831660008181526002602090815260408083209490945583518581529351929391927fddf252ad1be2c89b69c2b068fc378daa952ba7f163c4a11628f55a4df523b3ef9281900390910190a3505056fe45524332303a207472616e7366657220746f20746865207a65726f206164647265737345524332303a206275726e20616d6f756e7420657863656564732062616c616e636545524332303a20617070726f766520746f20746865207a65726f206164647265737345524332303a207472616e7366657220616d6f756e7420657863656564732062616c616e6365536166654d6174683a206d756c7469706c69636174696f6e206f766572666c6f7745524332303a207472616e7366657220616d6f756e74206578636565647320616c6c6f77616e636545524332303a206275726e2066726f6d20746865207a65726f206164647265737345524332303a207472616e736665722066726f6d20746865207a65726f206164647265737345524332303a20617070726f76652066726f6d20746865207a65726f2061646472657373a265627a7a723158206d75aa715eae1b988d4aa847b1e57e7f0a362a5d2d5ae7ee3524cf8b1a3b2bf264736f6c634300050d0032",
  "source": "pragma solidity ^0.5.0;\n\nimport \"./Unipool.sol\";\nimport \"./iUniswapExchangeContract.sol\";\n\ncontract iUniPool {\n    using SafeMath for uint256;\n    using SafeERC20 for IERC20;\n\n    // --- ERC20 Data ---\n    string public constant name = \"DZSLT\";\n    string public constant symbol = \"DZSLT\";\n    string public constant version = \"1\";\n    uint8 public constant decimals = 18;\n    uint256 public totalSupply;\n\n    /**\n     - Need to check impact of Uniswap V2,  will we need to deploy a v2 or new version of DZSLT\n     due to changes in sETH_LP_TokenAddress and potentially a new version of SNXUniswapTokenAddress?\n    */\n    address public constant UnipoolAddress = 0x48D7f315feDcaD332F68aafa017c7C158BC54760;\n    IERC20 public constant sETHTokenAddress = IERC20(\n        0x5e74C9036fb86BD7eCdcb084a0673EFc32eA31cb\n    );\n    IERC20 public constant sETH_LP_TokenAddress = IERC20(\n        0xe9Cf7887b93150D4F2Da7dFc6D502B216438F244\n    );\n    IERC20 public constant SNXTokenAddress = IERC20(\n        0xC011a73ee8576Fb46F5E1c5751cA3B9Fe0af2a6F\n    );\n    IERC20 public constant SNXUniSwapTokenAddress = IERC20(\n        0x3958B4eC427F8fa24eB60F42821760e88d485f7F\n    );\n\n    uint256 public totalLPTokensStaked;\n\n    mapping(address => uint256) public balanceOf;\n    mapping(address => mapping(address => uint256)) public allowance;\n    mapping(address => uint256) public LPTokensSupplied;\n\n    // events\n    event LPTokensStaked(address indexed staker, uint256 qtyStaked);\n    event LPTokensWithdrawn(address indexed leaver, uint256 qtyWithdrawn);\n    event Approval(address indexed src, address indexed guy, uint256 wad);\n    event Transfer(address indexed src, address indexed dst, uint256 wad);\n\n    // testing events\n    event internall(string, uint256);\n\n    constructor() public {\n        approve_Addresses();\n    }\n\n    function approve_Addresses() internal {\n        sETH_LP_TokenAddress.approve(UnipoolAddress, ((2**256) - 1));\n        SNXTokenAddress.approve(\n            address(SNXUniSwapTokenAddress),\n            ((2**256) - 1)\n        );\n        IERC20(sETHTokenAddress).approve(\n            address(sETH_LP_TokenAddress),\n            ((2**256) - 1)\n        );\n\n    }\n\n    // reader functions\n\n    function howMuchHasThisContractStaked()\n        public\n        view\n        returns (uint256 LPTokens)\n    {\n        return Unipool(UnipoolAddress).balanceOf(address(this));\n    }\n\n    function howMuchHasThisContractEarned()\n        public\n        view\n        returns (uint256 SNXEarned)\n    {\n        return Unipool(UnipoolAddress).earned(address(this));\n    }\n\n    /**\n     * @dev Returs the amount of LP required to stake / transfer to buy 1 DZLT token\n     */\n    function PriceToStakeNow() external view returns (uint256) {\n        if (totalSupply > 0) {\n            if (Unipool(UnipoolAddress).earned(address(this)) > 0) {\n                uint256 eth4SNX = min_eth(\n                    (Unipool(UnipoolAddress).earned(address(this))),\n                    address(SNXUniSwapTokenAddress)\n                );\n                uint256 eth_reserves = address(sETH_LP_TokenAddress).balance;\n                uint256 LP_total_supply = sETH_LP_TokenAddress.totalSupply();\n                uint256 LP_for_stake = (eth4SNX.div(2).mul(LP_total_supply))\n                    .div(eth_reserves);\n                return\n                    (LP_for_stake).add(howMuchHasThisContractStaked()).div(\n                        totalSupply\n                    );\n            } else {\n                return (howMuchHasThisContractStaked()).div(totalSupply);\n            }\n\n        } else {\n            return (1);\n        }\n\n    }\n\n    // action functions\n    function stakeMyShare(uint256 _LPTokenUints) public returns (uint256) {\n        // transfer to this address\n        sETH_LP_TokenAddress.transferFrom(\n            msg.sender,\n            address(this),\n            _LPTokenUints\n        );\n\n        LPTokensSupplied[msg.sender] = SafeMath.add(\n            LPTokensSupplied[msg.sender],\n            _LPTokenUints\n        );\n\n        Unipool(UnipoolAddress).stake(_LPTokenUints);\n\n        uint256 tokens = issueTokens(msg.sender, _LPTokenUints);\n\n        // updating the in contract varaible for the number of uints staked\n        totalLPTokensStaked += _LPTokenUints; //Consider using SafeMath.add(totalLPTokensStaked, _LPTokenUints);\n        return (tokens);\n    }\n\n    function issueTokens(address toWhom, uint256 howMuchLPStaked)\n        internal\n        returns (uint256 tokensIssued)\n    {\n        uint256 tokens2bIssued = (howMuchLPStaked).div(getPricePerToken(true));\n        mint(toWhom, tokens2bIssued);\n        return tokens2bIssued;\n    }\n\n    function getPricePerToken(bool enter)\n        internal\n        returns (uint256 LP_Per_Token)\n    {\n        if (totalLPTokensStaked == 0 && totalSupply == 0) {\n            return (1);\n        } else {\n            uint256 totalLPs = reBalance(enter);\n            return ((totalLPs).div(totalSupply));\n        }\n    }\n\n    function getMyStakeOut(uint256 _tokenQTY) public {\n        require(balanceOf[msg.sender] >= _tokenQTY, \"Withdrawing qty invalid\");\n\n        uint256 LPs2bRedemeed = _tokenQTY.mul(getPricePerToken(false));\n\n        uint256 LPsInHand = sETH_LP_TokenAddress.balanceOf(address(this));\n\n        if (LPs2bRedemeed > LPsInHand) {\n            uint256 LPsShortOf = LPs2bRedemeed.sub(LPsInHand);\n            Unipool(UnipoolAddress).withdraw(LPsShortOf);\n        }\n        sETH_LP_TokenAddress.transfer(msg.sender, LPs2bRedemeed);\n        // updating the internal mapping to reduce user's qty staked\n        LPTokensSupplied[msg.sender] = SafeMath.sub(\n            LPTokensSupplied[msg.sender],\n            LPs2bRedemeed\n        );\n        totalLPTokensStaked -= LPs2bRedemeed;\n        burn(msg.sender, _tokenQTY);\n    }\n\n    function reBalance(bool enter) public returns (uint256 LPTokenWealth) {\n        // LP TokenHoldings (since everything will always be staked)\n        uint256 LPHoldings_b4Rebalance = howMuchHasThisContractStaked();\n\n        // FIXME:to be discussed\n        // claim reward\n        if (howMuchHasThisContractEarned() > 500000000000000) {\n            Unipool(UnipoolAddress).getReward();\n        }\n\n        // SNX TokenHoldings\n        uint256 SNXInHandHoldings = SNXTokenAddress.balanceOf(address(this));\n\n        /* @dev it is highly likely that SNX smaller than this \n        / will cause the conversion of SNX to LP fail\n        / considering the price of SNX that to ETH and SETH\n        */\n        if (SNXInHandHoldings > 500000000000000) {\n            uint256 LPJustReceived = convertSNXtoLP(SNXInHandHoldings);\n            if (enter) {\n                Unipool(UnipoolAddress).stake(LPJustReceived);\n                totalLPTokensStaked += LPJustReceived;\n                return (LPHoldings_b4Rebalance.add(LPJustReceived));\n            }\n            return (LPHoldings_b4Rebalance.add(LPJustReceived));\n        }\n        return (LPHoldings_b4Rebalance);\n\n    }\n\n    function convertSNXtoLP(uint256 SNXQty)\n        public\n        returns (uint256 LPReceived)\n    {\n        uint256 SNX2BcETH = SafeMath.mul(SNXQty, 4985).div(10000);\n        uint256 SNX2BcSETH = SafeMath.sub(SNXQty, SNX2BcETH);\n\n        uint256 ETHfromSNX = UniswapExchangeInterface(\n            address(SNXUniSwapTokenAddress)\n        )\n            .tokenToEthSwapInput(\n            SNX2BcETH,\n            (\n                (\n                    min_eth(SNX2BcETH, address(SNXUniSwapTokenAddress))\n                        .mul(995)\n                        .div(1000)\n                )\n            ),\n            now.add(300)\n        );\n\n        UniswapExchangeInterface(address(SNXUniSwapTokenAddress))\n            .tokenToTokenSwapInput(\n            SNX2BcSETH,\n            min_tokens(\n                (min_eth(SNX2BcSETH, address(SNXUniSwapTokenAddress)).mul(995))\n                    .div(1000),\n                address(sETH_LP_TokenAddress)\n            ),\n            (\n                min_eth(SNX2BcSETH, address(SNXUniSwapTokenAddress))\n                    .mul(995)\n                    .div(1000)\n            ),\n            now.add(300),\n            address(sETHTokenAddress)\n        );\n\n        uint256 LPU = UniswapExchangeInterface(address(sETH_LP_TokenAddress))\n            .addLiquidity\n            .value(ETHfromSNX)(\n            1,\n            getMaxTokens(\n                address(sETH_LP_TokenAddress),\n                sETHTokenAddress,\n                ETHfromSNX\n            ),\n            now.add(300)\n        );\n\n        UniswapExchangeInterface(address(sETH_LP_TokenAddress))\n            .tokenToTokenSwapInput(\n            (sETHTokenAddress.balanceOf(address(this))),\n            min_tokens(\n                (\n                    min_eth(\n                        (sETHTokenAddress.balanceOf(address(this))),\n                        address(sETH_LP_TokenAddress)\n                    )\n                        .mul(995)\n                        .div(1000)\n                ),\n                address(SNXUniSwapTokenAddress)\n            ),\n            (\n                min_eth(\n                    (sETHTokenAddress.balanceOf(address(this))),\n                    address(sETH_LP_TokenAddress)\n                )\n                    .mul(995)\n                    .div(1000)\n            ),\n            now.add(300),\n            address(SNXTokenAddress)\n        );\n\n        return LPU;\n    }\n\n    function getMaxTokens(address uniExchAdd, IERC20 ERC20Add, uint256 value)\n        public\n        view\n        returns (uint256)\n    {\n        uint256 contractBalance = address(uniExchAdd).balance;\n        uint256 eth_reserve = SafeMath.sub(contractBalance, value);\n        uint256 token_reserve = ERC20Add.balanceOf(uniExchAdd);\n        uint256 token_amount = SafeMath.div(\n            SafeMath.mul(value, token_reserve),\n            eth_reserve\n        ) +\n            1;\n        return token_amount;\n    }\n\n    function min_eth(uint256 tokenQTY, address uniExchAdd)\n        public\n        view\n        returns (uint256)\n    {\n        return\n            UniswapExchangeInterface(uniExchAdd).getTokenToEthInputPrice(\n                tokenQTY\n            );\n    }\n\n    function min_tokens(uint256 ethAmt, address uniExchAdd)\n        public\n        view\n        returns (uint256)\n    {\n        return\n            UniswapExchangeInterface(uniExchAdd).getEthToTokenInputPrice(\n                ethAmt\n            );\n    }\n\n    function mint(address account, uint256 amount) internal {\n        require(account != address(0), \"ERC20: mint to the zero address\");\n        // _beforeTokenTransfer(address(0), account, amount);\n        totalSupply = totalSupply.add(amount);\n        balanceOf[account] = balanceOf[account].add(amount);\n        emit Transfer(address(0), account, amount);\n    }\n\n    function burn(address account, uint256 amount) internal {\n        require(account != address(0), \"ERC20: burn from the zero address\");\n        // _beforeTokenTransfer(account, address(0), amount);\n        balanceOf[account] = balanceOf[account].sub(\n            amount,\n            \"ERC20: burn amount exceeds balance\"\n        );\n        totalSupply = totalSupply.sub(amount);\n        emit Transfer(account, address(0), amount);\n    }\n\n    // function _beforeTokenTransfer(address from, address to, uint256 amount)\n    //     internal\n    // {}\n\n    function transfer(address recipient, uint256 amount) public returns (bool) {\n        _transfer(msg.sender, recipient, amount);\n        return true;\n    }\n\n    function approve(address spender, uint256 amount) public returns (bool) {\n        _approve(msg.sender, spender, amount);\n        return true;\n    }\n\n    function transferFrom(address sender, address recipient, uint256 amount)\n        public\n        returns (bool)\n    {\n        _transfer(sender, recipient, amount);\n        _approve(\n            sender,\n            msg.sender,\n            allowance[sender][msg.sender].sub(\n                amount,\n                \"ERC20: transfer amount exceeds allowance\"\n            )\n        );\n        return true;\n    }\n\n    function _transfer(address sender, address recipient, uint256 amount)\n        internal\n    {\n        require(sender != address(0), \"ERC20: transfer from the zero address\");\n        require(recipient != address(0), \"ERC20: transfer to the zero address\");\n        // _beforeTokenTransfer(sender, recipient, amount);\n        balanceOf[sender] = balanceOf[sender].sub(\n            amount,\n            \"ERC20: transfer amount exceeds balance\"\n        );\n        balanceOf[recipient] = balanceOf[recipient].add(amount);\n        emit Transfer(sender, recipient, amount);\n    }\n\n    function _approve(address owner, address spender, uint256 amount) internal {\n        require(owner != address(0), \"ERC20: approve from the zero address\");\n        require(spender != address(0), \"ERC20: approve to the zero address\");\n        allowance[owner][spender] = amount;\n        emit Approval(owner, spender, amount);\n    }\n\n    function() external payable {\n        emit internall(\"got cash\", msg.value);\n    }\n\n}\n",
  "sourcePath": "contracts/iUniPool.sol",
  "compiler": {
    "name": "solc",
    "version": "0.5.13+commit.5b0b510c.Emscripten.clang"
  },
  "schemaVersion": "3.0.23",
  "updatedAt": "2020-03-02T15:00:37.881Z",
  "devdoc": {
    "methods": {
      "PriceToStakeNow()": {
        "details": "Returs the amount of LP required to stake / transfer to buy 1 DZLT token"
      }
    }
  },
  "userdoc": {
    "methods": {}
  }
}