{
  "fileName": "iUniPool.sol",
  "contractName": "iUniPool",
  "source": "pragma solidity ^0.5.0;\r\n\r\nimport \"./Unipool.sol\";\r\nimport \"./iUniswapExchangeContract.sol\";\r\n\r\ncontract iUniPool {\r\n    using SafeMath for uint256;\r\n    using SafeERC20 for IERC20;\r\n\r\n    // --- ERC20 Data ---\r\n    string public constant name = \"DZSLT\";\r\n    string public constant symbol = \"DZSLT\";\r\n    string public constant version = \"1\";\r\n    uint8 public constant decimals = 18;\r\n    uint256 public totalSupply;\r\n\r\n    /**\r\n     - No setters in this contract, if SNXUniswapToken (i.e. our SNX Zap in)\r\n     requires changes, what happens to this contract's functionality?\r\n     - When Uniswap V2 launches,  will we need to deploy a v2 or new version of DZSLT\r\n     due to changes in sETH_LP_TokenAddress and potentially a new version of SNXUniswapTokenAddress?\r\n    */\r\n    address public constant UnipoolAddress = 0x48D7f315feDcaD332F68aafa017c7C158BC54760;\r\n    IERC20 public constant sETHTokenAddress = IERC20(\r\n        0x5e74C9036fb86BD7eCdcb084a0673EFc32eA31cb\r\n    );\r\n    IERC20 public constant sETH_LP_TokenAddress = IERC20(\r\n        0xe9Cf7887b93150D4F2Da7dFc6D502B216438F244\r\n    );\r\n    IERC20 public constant SNXTokenAddress = IERC20(\r\n        0xC011a73ee8576Fb46F5E1c5751cA3B9Fe0af2a6F\r\n    );\r\n    IERC20 public constant SNXUniSwapTokenAddress = IERC20(\r\n        0x3958B4eC427F8fa24eB60F42821760e88d485f7F\r\n    );\r\n\r\n    uint256 public totalLPTokensStaked;\r\n\r\n    mapping(address => uint256) public balanceOf;\r\n    mapping(address => mapping(address => uint256)) public allowance;\r\n    mapping(address => uint256) public LPTokensSupplied;\r\n\r\n    // events\r\n    event LPTokensStaked(address indexed staker, uint256 qtyStaked);\r\n    event LPTokensWithdrawn(address indexed leaver, uint256 qtyWithdrawn);\r\n    event Approval(address indexed src, address indexed guy, uint256 wad);\r\n    event Transfer(address indexed src, address indexed dst, uint256 wad);\r\n\r\n    constructor() public {\r\n        approve_Addresses();\r\n    }\r\n\r\n    function approve_Addresses() internal {\r\n        IERC20(sETH_LP_TokenAddress).approve(UnipoolAddress, ((2 ** 256) - 1)); // Already IERC20 declared above\r\n        IERC20(SNXTokenAddress).approve( // Already IERC20 declared above\r\n            address(SNXUniSwapTokenAddress),\r\n            ((2 ^ 256) - 1)\r\n        );\r\n        IERC20(sETHTokenAddress).approve( // Already IERC20 declared above\r\n            address(sETH_LP_TokenAddress),\r\n            ((2 ^ 256) - 1)\r\n        );\r\n\r\n    }\r\n\r\n    // reader functions\r\n\r\n    function howMuchHasThisContractStaked()\r\n        external\r\n        view\r\n        returns (uint256 LPTokens)\r\n    {\r\n        return Unipool(UnipoolAddress).balanceOf(address(this));\r\n    }\r\n\r\n    function howMuchHasThisContractEarned()\r\n        external\r\n        view\r\n        returns (uint256 SNXEarned)\r\n    {\r\n        return Unipool(UnipoolAddress).earned(address(this));\r\n    }\r\n\r\n    /**\r\n     * @dev Returns the amount of extra input LP that is required to\r\n     * buy additional units of this contract's tokens. The amount of\r\n     * extra input LP that is required increases or decreases as this \r\n     * contract's stake of SNX changes. E.g 0.06 returned means that\r\n     * 0.06 + supplied LP is required to buy this contract's token.\r\n     */\r\n    function PriceToStakeNow() external returns (uint256) {\r\n        uint256 SNXrewardEarned = Unipool(UnipoolAddress).earned(address(this));\r\n        if(SNXrewardEarned > 0){\r\n            uint256 eth4SNX = min_eth(SNXrewardEarned, address(SNXUniSwapTokenAddress));\r\n            uint256 eth2sETH = min_tokens(((eth4SNX).div(2)), address(sETH_LP_TokenAddress));\r\n            uint256 eth_reserves = address(sETH_LP_TokenAddress).balance;\r\n            uint256 LP_total_supply = sETH_LP_TokenAddress.totalSupply();\r\n            uint256 LP_for_stake = (eth4SNX.div(2).mul(LP_total_supply)).div(eth_reserves);\r\n            return LP_for_stake;\r\n        }\r\n        return 0;\r\n        // FIXME: Suhail to help on this\r\n    }\r\n\r\n    // action functions\r\n    function stakeMyShare(uint256 _LPTokenUints) public returns (uint256) {\r\n        // transfer to this address\r\n        sETH_LP_TokenAddress.transferFrom(\r\n            msg.sender,\r\n            address(this),\r\n            _LPTokenUints\r\n        );\r\n\r\n        LPTokensSupplied[msg.sender] = SafeMath.add(\r\n            LPTokensSupplied[msg.sender],\r\n            _LPTokenUints\r\n        );\r\n\r\n        Unipool(UnipoolAddress).stake(_LPTokenUints);\r\n\r\n        uint256 tokens = issueTokens(msg.sender, _LPTokenUints);\r\n\r\n        // updating the in contract varaible for the number of uints staked\r\n        totalLPTokensStaked += _LPTokenUints; //Consider using SafeMath.add(totalLPTokensStaked, _LPTokenUints);\r\n        return (tokens);\r\n    }\r\n\r\n    function issueTokens(address toWhom, uint256 howMuchLPStaked)\r\n        internal\r\n        returns (uint256 tokensIssued)\r\n    {\r\n        uint256 tokens2bIssued = getPricePerToken(true).mul(howMuchLPStaked);\r\n        mint(toWhom, tokens2bIssued);\r\n        return tokens2bIssued;\r\n    }\r\n\r\n    function getPricePerToken(bool enter)\r\n        internal\r\n        returns (uint256 LP_Per_Token)\r\n    {\r\n        if (totalLPTokensStaked == 0 && totalSupply == 0) {\r\n            return (1);\r\n        } else {\r\n            // FIXME: to write up the function of simulate\r\n            uint256 totalLPs = reBalance(enter);\r\n            return totalSupply.div(totalLPs);\r\n\r\n            // return ((totalLPTokensStaked).div(totalSupply));\r\n\r\n        }\r\n    }\r\n\r\n    function getMyStakeOut(uint256 _tokenQTY) public {\r\n        require(balanceOf[msg.sender] >= _tokenQTY, \"Withdrawing qty invalid\");\r\n        uint256 LPs2bRedemeed = _tokenQTY.div(getPricePerToken(false));\r\n        uint256 LPsInHand = sETH_LP_TokenAddress.balanceOf(address(this));\r\n        if (LPs2bRedemeed > LPsInHand) {\r\n            uint256 LPsShortOf = LPs2bRedemeed.sub(LPsInHand);\r\n            Unipool(UnipoolAddress).withdraw(LPsShortOf);\r\n        }\r\n        sETH_LP_TokenAddress.transfer(msg.sender, LPs2bRedemeed);\r\n        // updating the internal mapping to reduce user's qty staked\r\n        LPTokensSupplied[msg.sender] = SafeMath.sub(\r\n            LPTokensSupplied[msg.sender],\r\n            LPs2bRedemeed\r\n        );\r\n        totalLPTokensStaked -= LPs2bRedemeed;\r\n        burn(msg.sender, _tokenQTY);\r\n    }\r\n\r\n    function reBalance(bool enter) public returns (uint256 LPTokenWealth) {\r\n        // LP TokenHoldings (since everything will always be staked)\r\n        uint256 LPHoldings_b4Rebalance = Unipool(UnipoolAddress).balanceOf(\r\n            address(this)\r\n        );\r\n\r\n        // claim reward\r\n        Unipool(UnipoolAddress).getReward();\r\n\r\n        // SNX TokenHoldings\r\n        uint256 SNXInHandHoldings = SNXTokenAddress.balanceOf(address(this));\r\n\r\n        if (SNXInHandHoldings != 0) {\r\n            uint256 LPJustReceived = convertSNXtoLP(SNXInHandHoldings);\r\n            if (enter) {\r\n                Unipool(UnipoolAddress).stake(LPJustReceived);\r\n                totalLPTokensStaked += LPJustReceived;\r\n\r\n            }\r\n            return (LPHoldings_b4Rebalance.add(LPJustReceived));\r\n        }\r\n\r\n    }\r\n\r\n    function convertSNXtoLP(uint256 SNXQty)\r\n        internal\r\n        returns (uint256 LPReceived)\r\n    {\r\n        uint256 con_po = SafeMath.div(SNXQty, 2).add(1000);\r\n        uint256 non_con_po = SafeMath.sub(SNXQty, con_po);\r\n        uint256 con_po_seth = UniswapExchangeInterface(\r\n            address(SNXUniSwapTokenAddress)\r\n        )\r\n            .tokenToTokenSwapInput(\r\n            con_po,\r\n            min_tokens(\r\n                (min_eth(con_po, address(SNXUniSwapTokenAddress)).mul(99)).div(\r\n                    100\r\n                ),\r\n                address(sETHTokenAddress)\r\n            ),\r\n            (min_eth(con_po, address(SNXUniSwapTokenAddress)).mul(99).div(100)),\r\n            now.add(300),\r\n            address(sETHTokenAddress)\r\n        );\r\n        uint256 non_con_po_eth = UniswapExchangeInterface(\r\n            address(SNXUniSwapTokenAddress)\r\n        )\r\n            .tokenToEthSwapInput(\r\n            non_con_po,\r\n            (\r\n                (\r\n                    min_eth(con_po, address(SNXUniSwapTokenAddress))\r\n                        .mul(99)\r\n                        .div(100)\r\n                )\r\n            ),\r\n            now.add(300)\r\n        );\r\n        return\r\n            UniswapExchangeInterface(address(sETH_LP_TokenAddress))\r\n                .addLiquidity\r\n                .value(non_con_po_eth)(\r\n                1,\r\n                getMaxTokens(\r\n                    address(sETH_LP_TokenAddress),\r\n                    sETHTokenAddress,\r\n                    non_con_po_eth\r\n                ),\r\n                now.add(300)\r\n            );\r\n    }\r\n\r\n    function getMaxTokens(address uniExchAdd, IERC20 ERC20Add, uint256 value)\r\n        internal\r\n        view\r\n        returns (uint256)\r\n    {\r\n        uint256 contractBalance = address(uniExchAdd).balance;\r\n        uint256 eth_reserve = SafeMath.sub(contractBalance, value);\r\n        uint256 token_reserve = ERC20Add.balanceOf(uniExchAdd);\r\n        uint256 token_amount = SafeMath.div(\r\n            SafeMath.mul(value, token_reserve),\r\n            eth_reserve\r\n        ) +\r\n            1;\r\n        return token_amount;\r\n    }\r\n\r\n    function min_eth(uint256 tokenQTY, address uniExchAdd)\r\n        internal\r\n        returns (uint256)\r\n    {\r\n        return\r\n            UniswapExchangeInterface(uniExchAdd).getTokenToEthInputPrice(\r\n                tokenQTY\r\n            );\r\n    }\r\n\r\n    function min_tokens(uint256 ethAmt, address uniExchAdd)\r\n        internal\r\n        returns (uint256)\r\n    {\r\n        return\r\n            UniswapExchangeInterface(uniExchAdd).getEthToTokenInputPrice(\r\n                ethAmt\r\n            );\r\n    }\r\n\r\n    function mint(address account, uint256 amount) internal {\r\n        require(account != address(0), \"ERC20: mint to the zero address\");\r\n        // _beforeTokenTransfer(address(0), account, amount);\r\n        totalSupply = totalSupply.add(amount);\r\n        balanceOf[account] = balanceOf[account].add(amount);\r\n        emit Transfer(address(0), account, amount);\r\n    }\r\n\r\n    function burn(address account, uint256 amount) internal {\r\n        require(account != address(0), \"ERC20: burn from the zero address\");\r\n        // _beforeTokenTransfer(account, address(0), amount);\r\n        balanceOf[account] = balanceOf[account].sub(\r\n            amount,\r\n            \"ERC20: burn amount exceeds balance\"\r\n        );\r\n        totalSupply = totalSupply.sub(amount);\r\n        emit Transfer(account, address(0), amount);\r\n    }\r\n\r\n    // function _beforeTokenTransfer(address from, address to, uint256 amount)\r\n    //     internal\r\n    // {}\r\n\r\n    function transfer(address recipient, uint256 amount) public returns (bool) {\r\n        _transfer(msg.sender, recipient, amount);\r\n        return true;\r\n    }\r\n\r\n    function approve(address spender, uint256 amount) public returns (bool) {\r\n        _approve(msg.sender, spender, amount);\r\n        return true;\r\n    }\r\n\r\n    function transferFrom(address sender, address recipient, uint256 amount)\r\n        public\r\n        returns (bool)\r\n    {\r\n        _transfer(sender, recipient, amount);\r\n        _approve(\r\n            sender,\r\n            msg.sender,\r\n            allowance[sender][msg.sender].sub(\r\n                amount,\r\n                \"ERC20: transfer amount exceeds allowance\"\r\n            )\r\n        );\r\n        return true;\r\n    }\r\n\r\n    function _transfer(address sender, address recipient, uint256 amount)\r\n        internal\r\n    {\r\n        require(sender != address(0), \"ERC20: transfer from the zero address\");\r\n        require(recipient != address(0), \"ERC20: transfer to the zero address\");\r\n        // _beforeTokenTransfer(sender, recipient, amount);\r\n        balanceOf[sender] = balanceOf[sender].sub(\r\n            amount,\r\n            \"ERC20: transfer amount exceeds balance\"\r\n        );\r\n        balanceOf[recipient] = balanceOf[recipient].add(amount);\r\n        emit Transfer(sender, recipient, amount);\r\n    }\r\n\r\n    function _approve(address owner, address spender, uint256 amount) internal {\r\n        require(owner != address(0), \"ERC20: approve from the zero address\");\r\n        require(spender != address(0), \"ERC20: approve to the zero address\");\r\n        allowance[owner][spender] = amount;\r\n        emit Approval(owner, spender, amount);\r\n    }\r\n\r\n}\r\n",
  "sourcePath": "contracts/iUniPool.sol",
  "abi": [
    {
      "inputs": [],
      "payable": false,
      "stateMutability": "nonpayable",
      "type": "constructor"
    },
    {
      "anonymous": false,
      "inputs": [
        {
          "indexed": true,
          "internalType": "address",
          "name": "src",
          "type": "address"
        },
        {
          "indexed": true,
          "internalType": "address",
          "name": "guy",
          "type": "address"
        },
        {
          "indexed": false,
          "internalType": "uint256",
          "name": "wad",
          "type": "uint256"
        }
      ],
      "name": "Approval",
      "type": "event"
    },
    {
      "anonymous": false,
      "inputs": [
        {
          "indexed": true,
          "internalType": "address",
          "name": "staker",
          "type": "address"
        },
        {
          "indexed": false,
          "internalType": "uint256",
          "name": "qtyStaked",
          "type": "uint256"
        }
      ],
      "name": "LPTokensStaked",
      "type": "event"
    },
    {
      "anonymous": false,
      "inputs": [
        {
          "indexed": true,
          "internalType": "address",
          "name": "leaver",
          "type": "address"
        },
        {
          "indexed": false,
          "internalType": "uint256",
          "name": "qtyWithdrawn",
          "type": "uint256"
        }
      ],
      "name": "LPTokensWithdrawn",
      "type": "event"
    },
    {
      "anonymous": false,
      "inputs": [
        {
          "indexed": true,
          "internalType": "address",
          "name": "src",
          "type": "address"
        },
        {
          "indexed": true,
          "internalType": "address",
          "name": "dst",
          "type": "address"
        },
        {
          "indexed": false,
          "internalType": "uint256",
          "name": "wad",
          "type": "uint256"
        }
      ],
      "name": "Transfer",
      "type": "event"
    },
    {
      "constant": true,
      "inputs": [
        {
          "internalType": "address",
          "name": "",
          "type": "address"
        }
      ],
      "name": "LPTokensSupplied",
      "outputs": [
        {
          "internalType": "uint256",
          "name": "",
          "type": "uint256"
        }
      ],
      "payable": false,
      "stateMutability": "view",
      "type": "function"
    },
    {
      "constant": false,
      "inputs": [],
      "name": "PriceToStakeNow",
      "outputs": [
        {
          "internalType": "uint256",
          "name": "",
          "type": "uint256"
        }
      ],
      "payable": false,
      "stateMutability": "nonpayable",
      "type": "function"
    },
    {
      "constant": true,
      "inputs": [],
      "name": "SNXTokenAddress",
      "outputs": [
        {
          "internalType": "contract IERC20",
          "name": "",
          "type": "address"
        }
      ],
      "payable": false,
      "stateMutability": "view",
      "type": "function"
    },
    {
      "constant": true,
      "inputs": [],
      "name": "SNXUniSwapTokenAddress",
      "outputs": [
        {
          "internalType": "contract IERC20",
          "name": "",
          "type": "address"
        }
      ],
      "payable": false,
      "stateMutability": "view",
      "type": "function"
    },
    {
      "constant": true,
      "inputs": [],
      "name": "UnipoolAddress",
      "outputs": [
        {
          "internalType": "address",
          "name": "",
          "type": "address"
        }
      ],
      "payable": false,
      "stateMutability": "view",
      "type": "function"
    },
    {
      "constant": true,
      "inputs": [
        {
          "internalType": "address",
          "name": "",
          "type": "address"
        },
        {
          "internalType": "address",
          "name": "",
          "type": "address"
        }
      ],
      "name": "allowance",
      "outputs": [
        {
          "internalType": "uint256",
          "name": "",
          "type": "uint256"
        }
      ],
      "payable": false,
      "stateMutability": "view",
      "type": "function"
    },
    {
      "constant": false,
      "inputs": [
        {
          "internalType": "address",
          "name": "spender",
          "type": "address"
        },
        {
          "internalType": "uint256",
          "name": "amount",
          "type": "uint256"
        }
      ],
      "name": "approve",
      "outputs": [
        {
          "internalType": "bool",
          "name": "",
          "type": "bool"
        }
      ],
      "payable": false,
      "stateMutability": "nonpayable",
      "type": "function"
    },
    {
      "constant": true,
      "inputs": [
        {
          "internalType": "address",
          "name": "",
          "type": "address"
        }
      ],
      "name": "balanceOf",
      "outputs": [
        {
          "internalType": "uint256",
          "name": "",
          "type": "uint256"
        }
      ],
      "payable": false,
      "stateMutability": "view",
      "type": "function"
    },
    {
      "constant": true,
      "inputs": [],
      "name": "decimals",
      "outputs": [
        {
          "internalType": "uint8",
          "name": "",
          "type": "uint8"
        }
      ],
      "payable": false,
      "stateMutability": "view",
      "type": "function"
    },
    {
      "constant": false,
      "inputs": [
        {
          "internalType": "uint256",
          "name": "_tokenQTY",
          "type": "uint256"
        }
      ],
      "name": "getMyStakeOut",
      "outputs": [],
      "payable": false,
      "stateMutability": "nonpayable",
      "type": "function"
    },
    {
      "constant": true,
      "inputs": [],
      "name": "howMuchHasThisContractEarned",
      "outputs": [
        {
          "internalType": "uint256",
          "name": "SNXEarned",
          "type": "uint256"
        }
      ],
      "payable": false,
      "stateMutability": "view",
      "type": "function"
    },
    {
      "constant": true,
      "inputs": [],
      "name": "howMuchHasThisContractStaked",
      "outputs": [
        {
          "internalType": "uint256",
          "name": "LPTokens",
          "type": "uint256"
        }
      ],
      "payable": false,
      "stateMutability": "view",
      "type": "function"
    },
    {
      "constant": true,
      "inputs": [],
      "name": "name",
      "outputs": [
        {
          "internalType": "string",
          "name": "",
          "type": "string"
        }
      ],
      "payable": false,
      "stateMutability": "view",
      "type": "function"
    },
    {
      "constant": false,
      "inputs": [
        {
          "internalType": "bool",
          "name": "enter",
          "type": "bool"
        }
      ],
      "name": "reBalance",
      "outputs": [
        {
          "internalType": "uint256",
          "name": "LPTokenWealth",
          "type": "uint256"
        }
      ],
      "payable": false,
      "stateMutability": "nonpayable",
      "type": "function"
    },
    {
      "constant": true,
      "inputs": [],
      "name": "sETHTokenAddress",
      "outputs": [
        {
          "internalType": "contract IERC20",
          "name": "",
          "type": "address"
        }
      ],
      "payable": false,
      "stateMutability": "view",
      "type": "function"
    },
    {
      "constant": true,
      "inputs": [],
      "name": "sETH_LP_TokenAddress",
      "outputs": [
        {
          "internalType": "contract IERC20",
          "name": "",
          "type": "address"
        }
      ],
      "payable": false,
      "stateMutability": "view",
      "type": "function"
    },
    {
      "constant": false,
      "inputs": [
        {
          "internalType": "uint256",
          "name": "_LPTokenUints",
          "type": "uint256"
        }
      ],
      "name": "stakeMyShare",
      "outputs": [
        {
          "internalType": "uint256",
          "name": "",
          "type": "uint256"
        }
      ],
      "payable": false,
      "stateMutability": "nonpayable",
      "type": "function"
    },
    {
      "constant": true,
      "inputs": [],
      "name": "symbol",
      "outputs": [
        {
          "internalType": "string",
          "name": "",
          "type": "string"
        }
      ],
      "payable": false,
      "stateMutability": "view",
      "type": "function"
    },
    {
      "constant": true,
      "inputs": [],
      "name": "totalLPTokensStaked",
      "outputs": [
        {
          "internalType": "uint256",
          "name": "",
          "type": "uint256"
        }
      ],
      "payable": false,
      "stateMutability": "view",
      "type": "function"
    },
    {
      "constant": true,
      "inputs": [],
      "name": "totalSupply",
      "outputs": [
        {
          "internalType": "uint256",
          "name": "",
          "type": "uint256"
        }
      ],
      "payable": false,
      "stateMutability": "view",
      "type": "function"
    },
    {
      "constant": false,
      "inputs": [
        {
          "internalType": "address",
          "name": "recipient",
          "type": "address"
        },
        {
          "internalType": "uint256",
          "name": "amount",
          "type": "uint256"
        }
      ],
      "name": "transfer",
      "outputs": [
        {
          "internalType": "bool",
          "name": "",
          "type": "bool"
        }
      ],
      "payable": false,
      "stateMutability": "nonpayable",
      "type": "function"
    },
    {
      "constant": false,
      "inputs": [
        {
          "internalType": "address",
          "name": "sender",
          "type": "address"
        },
        {
          "internalType": "address",
          "name": "recipient",
          "type": "address"
        },
        {
          "internalType": "uint256",
          "name": "amount",
          "type": "uint256"
        }
      ],
      "name": "transferFrom",
      "outputs": [
        {
          "internalType": "bool",
          "name": "",
          "type": "bool"
        }
      ],
      "payable": false,
      "stateMutability": "nonpayable",
      "type": "function"
    },
    {
      "constant": true,
      "inputs": [],
      "name": "version",
      "outputs": [
        {
          "internalType": "string",
          "name": "",
          "type": "string"
        }
      ],
      "payable": false,
      "stateMutability": "view",
      "type": "function"
    }
  ],
  "bytecode": "0x60806040523480156200001157600080fd5b50620000226200002860201b60201c565b62000318565b73e9cf7887b93150d4f2da7dfc6d502b216438f24473ffffffffffffffffffffffffffffffffffffffff1663095ea7b37348d7f315fedcad332f68aafa017c7c158bc547607fffffffffffffffffffffffffffffffffffffffffffffffffffffffffffffffff6040518363ffffffff1660e01b8152600401808373ffffffffffffffffffffffffffffffffffffffff1673ffffffffffffffffffffffffffffffffffffffff16815260200182815260200192505050602060405180830381600087803b158015620000f857600080fd5b505af11580156200010d573d6000803e3d6000fd5b505050506040513d60208110156200012457600080fd5b81019080805190602001909291905050505073c011a73ee8576fb46f5e1c5751ca3b9fe0af2a6f73ffffffffffffffffffffffffffffffffffffffff1663095ea7b3733958b4ec427f8fa24eb60f42821760e88d485f7f6101016040518363ffffffff1660e01b8152600401808373ffffffffffffffffffffffffffffffffffffffff1673ffffffffffffffffffffffffffffffffffffffff16815260200182815260200192505050602060405180830381600087803b158015620001e857600080fd5b505af1158015620001fd573d6000803e3d6000fd5b505050506040513d60208110156200021457600080fd5b810190808051906020019092919050505050735e74c9036fb86bd7ecdcb084a0673efc32ea31cb73ffffffffffffffffffffffffffffffffffffffff1663095ea7b373e9cf7887b93150d4f2da7dfc6d502b216438f2446101016040518363ffffffff1660e01b8152600401808373ffffffffffffffffffffffffffffffffffffffff1673ffffffffffffffffffffffffffffffffffffffff16815260200182815260200192505050602060405180830381600087803b158015620002d857600080fd5b505af1158015620002ed573d6000803e3d6000fd5b505050506040513d60208110156200030457600080fd5b810190808051906020019092919050505050565b612b1680620003286000396000f3fe608060405234801561001057600080fd5b506004361061014d5760003560e01c80636c57e575116100c3578063aca5bbd01161007c578063aca5bbd01461067f578063bbaabe04146106c1578063dd62ed3e1461070b578063e4c7821114610783578063e5be1a96146107cd578063f70f4893146107eb5761014d565b80636c57e575146104ae57806370a08231146104cc57806395d89b4114610524578063966eed1f146105a7578063a75afc7d146105d5578063a9059cbb146106195761014d565b806323b872dd1161011557806323b872dd146102ed5780632fd4bc5214610373578063313ce567146103915780634211a595146103b557806354fd4d50146103d357806366d7a10f146104565761014d565b806306fdde0314610152578063095ea7b3146101d557806314d742041461023b578063161e8e821461028557806318160ddd146102cf575b600080fd5b61015a610835565b6040518080602001828103825283818151815260200191508051906020019080838360005b8381101561019a57808201518184015260208101905061017f565b50505050905090810190601f1680156101c75780820380516001836020036101000a031916815260200191505b509250505060405180910390f35b610221600480360360408110156101eb57600080fd5b81019080803573ffffffffffffffffffffffffffffffffffffffff1690602001909291908035906020019092919050505061086e565b604051808215151515815260200191505060405180910390f35b610243610885565b604051808273ffffffffffffffffffffffffffffffffffffffff1673ffffffffffffffffffffffffffffffffffffffff16815260200191505060405180910390f35b61028d61089d565b604051808273ffffffffffffffffffffffffffffffffffffffff1673ffffffffffffffffffffffffffffffffffffffff16815260200191505060405180910390f35b6102d76108b5565b6040518082815260200191505060405180910390f35b6103596004803603606081101561030357600080fd5b81019080803573ffffffffffffffffffffffffffffffffffffffff169060200190929190803573ffffffffffffffffffffffffffffffffffffffff169060200190929190803590602001909291905050506108bb565b604051808215151515815260200191505060405180910390f35b61037b610986565b6040518082815260200191505060405180910390f35b610399610bd2565b604051808260ff1660ff16815260200191505060405180910390f35b6103bd610bd7565b6040518082815260200191505060405180910390f35b6103db610bdd565b6040518080602001828103825283818151815260200191508051906020019080838360005b8381101561041b578082015181840152602081019050610400565b50505050905090810190601f1680156104485780820380516001836020036101000a031916815260200191505b509250505060405180910390f35b6104986004803603602081101561046c57600080fd5b81019080803573ffffffffffffffffffffffffffffffffffffffff169060200190929190505050610c16565b6040518082815260200191505060405180910390f35b6104b6610c2e565b6040518082815260200191505060405180910390f35b61050e600480360360208110156104e257600080fd5b81019080803573ffffffffffffffffffffffffffffffffffffffff169060200190929190505050610d01565b6040518082815260200191505060405180910390f35b61052c610d19565b6040518080602001828103825283818151815260200191508051906020019080838360005b8381101561056c578082015181840152602081019050610551565b50505050905090810190601f1680156105995780820380516001836020036101000a031916815260200191505b509250505060405180910390f35b6105d3600480360360208110156105bd57600080fd5b8101908080359060200190929190505050610d52565b005b610603600480360360208110156105eb57600080fd5b81019080803515159060200190929190505050611119565b6040518082815260200191505060405180910390f35b6106656004803603604081101561062f57600080fd5b81019080803573ffffffffffffffffffffffffffffffffffffffff169060200190929190803590602001909291905050506113fe565b604051808215151515815260200191505060405180910390f35b6106ab6004803603602081101561069557600080fd5b8101908080359060200190929190505050611415565b6040518082815260200191505060405180910390f35b6106c9611654565b604051808273ffffffffffffffffffffffffffffffffffffffff1673ffffffffffffffffffffffffffffffffffffffff16815260200191505060405180910390f35b61076d6004803603604081101561072157600080fd5b81019080803573ffffffffffffffffffffffffffffffffffffffff169060200190929190803573ffffffffffffffffffffffffffffffffffffffff16906020019092919050505061166c565b6040518082815260200191505060405180910390f35b61078b611691565b604051808273ffffffffffffffffffffffffffffffffffffffff1673ffffffffffffffffffffffffffffffffffffffff16815260200191505060405180910390f35b6107d56116a9565b6040518082815260200191505060405180910390f35b6107f361177b565b604051808273ffffffffffffffffffffffffffffffffffffffff1673ffffffffffffffffffffffffffffffffffffffff16815260200191505060405180910390f35b6040518060400160405280600581526020017f445a534c5400000000000000000000000000000000000000000000000000000081525081565b600061087b338484611793565b6001905092915050565b73e9cf7887b93150d4f2da7dfc6d502b216438f24481565b733958b4ec427f8fa24eb60f42821760e88d485f7f81565b60005481565b60006108c884848461198a565b61097b843361097685604051806060016040528060288152602001612a5060289139600360008b73ffffffffffffffffffffffffffffffffffffffff1673ffffffffffffffffffffffffffffffffffffffff16815260200190815260200160002060003373ffffffffffffffffffffffffffffffffffffffff1673ffffffffffffffffffffffffffffffffffffffff16815260200190815260200160002054611c449092919063ffffffff16565b611793565b600190509392505050565b6000807348d7f315fedcad332f68aafa017c7c158bc5476073ffffffffffffffffffffffffffffffffffffffff16628cc262306040518263ffffffff1660e01b8152600401808273ffffffffffffffffffffffffffffffffffffffff1673ffffffffffffffffffffffffffffffffffffffff16815260200191505060206040518083038186803b158015610a1957600080fd5b505afa158015610a2d573d6000803e3d6000fd5b505050506040513d6020811015610a4357600080fd5b810190808051906020019092919050505090506000811115610bc9576000610a7f82733958b4ec427f8fa24eb60f42821760e88d485f7f611d04565b90506000610ab4610a9a600284611d9a90919063ffffffff16565b73e9cf7887b93150d4f2da7dfc6d502b216438f244611de4565b9050600073e9cf7887b93150d4f2da7dfc6d502b216438f24473ffffffffffffffffffffffffffffffffffffffff16319050600073e9cf7887b93150d4f2da7dfc6d502b216438f24473ffffffffffffffffffffffffffffffffffffffff166318160ddd6040518163ffffffff1660e01b815260040160206040518083038186803b158015610b4257600080fd5b505afa158015610b56573d6000803e3d6000fd5b505050506040513d6020811015610b6c57600080fd5b810190808051906020019092919050505090506000610bb983610bab84610b9d60028a611d9a90919063ffffffff16565b611e7a90919063ffffffff16565b611d9a90919063ffffffff16565b9050809650505050505050610bcf565b60009150505b90565b601281565b60015481565b6040518060400160405280600181526020017f310000000000000000000000000000000000000000000000000000000000000081525081565b60046020528060005260406000206000915090505481565b60007348d7f315fedcad332f68aafa017c7c158bc5476073ffffffffffffffffffffffffffffffffffffffff166370a08231306040518263ffffffff1660e01b8152600401808273ffffffffffffffffffffffffffffffffffffffff1673ffffffffffffffffffffffffffffffffffffffff16815260200191505060206040518083038186803b158015610cc157600080fd5b505afa158015610cd5573d6000803e3d6000fd5b505050506040513d6020811015610ceb57600080fd5b8101908080519060200190929190505050905090565b60026020528060005260406000206000915090505481565b6040518060400160405280600581526020017f445a534c5400000000000000000000000000000000000000000000000000000081525081565b80600260003373ffffffffffffffffffffffffffffffffffffffff1673ffffffffffffffffffffffffffffffffffffffff168152602001908152602001600020541015610e07576040517f08c379a00000000000000000000000000000000000000000000000000000000081526004018080602001828103825260178152602001807f5769746864726177696e672071747920696e76616c696400000000000000000081525060200191505060405180910390fd5b6000610e25610e166000611f00565b83611d9a90919063ffffffff16565b9050600073e9cf7887b93150d4f2da7dfc6d502b216438f24473ffffffffffffffffffffffffffffffffffffffff166370a08231306040518263ffffffff1660e01b8152600401808273ffffffffffffffffffffffffffffffffffffffff1673ffffffffffffffffffffffffffffffffffffffff16815260200191505060206040518083038186803b158015610eba57600080fd5b505afa158015610ece573d6000803e3d6000fd5b505050506040513d6020811015610ee457600080fd5b8101908080519060200190929190505050905080821115610f97576000610f148284611f4d90919063ffffffff16565b90507348d7f315fedcad332f68aafa017c7c158bc5476073ffffffffffffffffffffffffffffffffffffffff16632e1a7d4d826040518263ffffffff1660e01b815260040180828152602001915050600060405180830381600087803b158015610f7d57600080fd5b505af1158015610f91573d6000803e3d6000fd5b50505050505b73e9cf7887b93150d4f2da7dfc6d502b216438f24473ffffffffffffffffffffffffffffffffffffffff1663a9059cbb33846040518363ffffffff1660e01b8152600401808373ffffffffffffffffffffffffffffffffffffffff1673ffffffffffffffffffffffffffffffffffffffff16815260200182815260200192505050602060405180830381600087803b15801561103257600080fd5b505af1158015611046573d6000803e3d6000fd5b505050506040513d602081101561105c57600080fd5b8101908080519060200190929190505050506110b7600460003373ffffffffffffffffffffffffffffffffffffffff1673ffffffffffffffffffffffffffffffffffffffff1681526020019081526020016000205483611f4d565b600460003373ffffffffffffffffffffffffffffffffffffffff1673ffffffffffffffffffffffffffffffffffffffff16815260200190815260200160002081905550816001600082825403925050819055506111143384611f97565b505050565b6000807348d7f315fedcad332f68aafa017c7c158bc5476073ffffffffffffffffffffffffffffffffffffffff166370a08231306040518263ffffffff1660e01b8152600401808273ffffffffffffffffffffffffffffffffffffffff1673ffffffffffffffffffffffffffffffffffffffff16815260200191505060206040518083038186803b1580156111ad57600080fd5b505afa1580156111c1573d6000803e3d6000fd5b505050506040513d60208110156111d757600080fd5b810190808051906020019092919050505090507348d7f315fedcad332f68aafa017c7c158bc5476073ffffffffffffffffffffffffffffffffffffffff16633d18b9126040518163ffffffff1660e01b8152600401600060405180830381600087803b15801561124657600080fd5b505af115801561125a573d6000803e3d6000fd5b50505050600073c011a73ee8576fb46f5e1c5751ca3b9fe0af2a6f73ffffffffffffffffffffffffffffffffffffffff166370a08231306040518263ffffffff1660e01b8152600401808273ffffffffffffffffffffffffffffffffffffffff1673ffffffffffffffffffffffffffffffffffffffff16815260200191505060206040518083038186803b1580156112f157600080fd5b505afa158015611305573d6000803e3d6000fd5b505050506040513d602081101561131b57600080fd5b81019080805190602001909291905050509050600081146113f657600061134182612151565b905084156113d9577348d7f315fedcad332f68aafa017c7c158bc5476073ffffffffffffffffffffffffffffffffffffffff1663a694fc3a826040518263ffffffff1660e01b815260040180828152602001915050600060405180830381600087803b1580156113b057600080fd5b505af11580156113c4573d6000803e3d6000fd5b50505050806001600082825401925050819055505b6113ec818461255290919063ffffffff16565b93505050506113f9565b50505b919050565b600061140b33848461198a565b6001905092915050565b600073e9cf7887b93150d4f2da7dfc6d502b216438f24473ffffffffffffffffffffffffffffffffffffffff166323b872dd3330856040518463ffffffff1660e01b8152600401808473ffffffffffffffffffffffffffffffffffffffff1673ffffffffffffffffffffffffffffffffffffffff1681526020018373ffffffffffffffffffffffffffffffffffffffff1673ffffffffffffffffffffffffffffffffffffffff1681526020018281526020019350505050602060405180830381600087803b1580156114e657600080fd5b505af11580156114fa573d6000803e3d6000fd5b505050506040513d602081101561151057600080fd5b81019080805190602001909291905050505061156b600460003373ffffffffffffffffffffffffffffffffffffffff1673ffffffffffffffffffffffffffffffffffffffff1681526020019081526020016000205483612552565b600460003373ffffffffffffffffffffffffffffffffffffffff1673ffffffffffffffffffffffffffffffffffffffff168152602001908152602001600020819055507348d7f315fedcad332f68aafa017c7c158bc5476073ffffffffffffffffffffffffffffffffffffffff1663a694fc3a836040518263ffffffff1660e01b815260040180828152602001915050600060405180830381600087803b15801561161557600080fd5b505af1158015611629573d6000803e3d6000fd5b50505050600061163933846125da565b90508260016000828254019250508190555080915050919050565b73c011a73ee8576fb46f5e1c5751ca3b9fe0af2a6f81565b6003602052816000526040600020602052806000526040600020600091509150505481565b7348d7f315fedcad332f68aafa017c7c158bc5476081565b60007348d7f315fedcad332f68aafa017c7c158bc5476073ffffffffffffffffffffffffffffffffffffffff16628cc262306040518263ffffffff1660e01b8152600401808273ffffffffffffffffffffffffffffffffffffffff1673ffffffffffffffffffffffffffffffffffffffff16815260200191505060206040518083038186803b15801561173b57600080fd5b505afa15801561174f573d6000803e3d6000fd5b505050506040513d602081101561176557600080fd5b8101908080519060200190929190505050905090565b735e74c9036fb86bd7ecdcb084a0673efc32ea31cb81565b600073ffffffffffffffffffffffffffffffffffffffff168373ffffffffffffffffffffffffffffffffffffffff161415611819576040517f08c379a0000000000000000000000000000000000000000000000000000000008152600401808060200182810382526024815260200180612abe6024913960400191505060405180910390fd5b600073ffffffffffffffffffffffffffffffffffffffff168273ffffffffffffffffffffffffffffffffffffffff16141561189f576040517f08c379a00000000000000000000000000000000000000000000000000000000081526004018080602001828103825260228152602001806129e76022913960400191505060405180910390fd5b80600360008573ffffffffffffffffffffffffffffffffffffffff1673ffffffffffffffffffffffffffffffffffffffff16815260200190815260200160002060008473ffffffffffffffffffffffffffffffffffffffff1673ffffffffffffffffffffffffffffffffffffffff168152602001908152602001600020819055508173ffffffffffffffffffffffffffffffffffffffff168373ffffffffffffffffffffffffffffffffffffffff167f8c5be1e5ebec7d5bd14f71427d1e84f3dd0314c0f7b2291e5b200ac8c7c3b925836040518082815260200191505060405180910390a3505050565b600073ffffffffffffffffffffffffffffffffffffffff168373ffffffffffffffffffffffffffffffffffffffff161415611a10576040517f08c379a0000000000000000000000000000000000000000000000000000000008152600401808060200182810382526025815260200180612a996025913960400191505060405180910390fd5b600073ffffffffffffffffffffffffffffffffffffffff168273ffffffffffffffffffffffffffffffffffffffff161415611a96576040517f08c379a00000000000000000000000000000000000000000000000000000000081526004018080602001828103825260238152602001806129a26023913960400191505060405180910390fd5b611b0281604051806060016040528060268152602001612a0960269139600260008773ffffffffffffffffffffffffffffffffffffffff1673ffffffffffffffffffffffffffffffffffffffff16815260200190815260200160002054611c449092919063ffffffff16565b600260008573ffffffffffffffffffffffffffffffffffffffff1673ffffffffffffffffffffffffffffffffffffffff16815260200190815260200160002081905550611b9781600260008573ffffffffffffffffffffffffffffffffffffffff1673ffffffffffffffffffffffffffffffffffffffff1681526020019081526020016000205461255290919063ffffffff16565b600260008473ffffffffffffffffffffffffffffffffffffffff1673ffffffffffffffffffffffffffffffffffffffff168152602001908152602001600020819055508173ffffffffffffffffffffffffffffffffffffffff168373ffffffffffffffffffffffffffffffffffffffff167fddf252ad1be2c89b69c2b068fc378daa952ba7f163c4a11628f55a4df523b3ef836040518082815260200191505060405180910390a3505050565b6000838311158290611cf1576040517f08c379a00000000000000000000000000000000000000000000000000000000081526004018080602001828103825283818151815260200191508051906020019080838360005b83811015611cb6578082015181840152602081019050611c9b565b50505050905090810190601f168015611ce35780820380516001836020036101000a031916815260200191505b509250505060405180910390fd5b5060008385039050809150509392505050565b60008173ffffffffffffffffffffffffffffffffffffffff166395b68fe7846040518263ffffffff1660e01b81526004018082815260200191505060206040518083038186803b158015611d5757600080fd5b505afa158015611d6b573d6000803e3d6000fd5b505050506040513d6020811015611d8157600080fd5b8101908080519060200190929190505050905092915050565b6000611ddc83836040518060400160405280601a81526020017f536166654d6174683a206469766973696f6e206279207a65726f00000000000081525061260f565b905092915050565b60008173ffffffffffffffffffffffffffffffffffffffff1663cd7724c3846040518263ffffffff1660e01b81526004018082815260200191505060206040518083038186803b158015611e3757600080fd5b505afa158015611e4b573d6000803e3d6000fd5b505050506040513d6020811015611e6157600080fd5b8101908080519060200190929190505050905092915050565b600080831415611e8d5760009050611efa565b6000828402905082848281611e9e57fe5b0414611ef5576040517f08c379a0000000000000000000000000000000000000000000000000000000008152600401808060200182810382526021815260200180612a2f6021913960400191505060405180910390fd5b809150505b92915050565b600080600154148015611f14575060008054145b15611f225760019050611f48565b6000611f2d83611119565b9050611f4481600054611d9a90919063ffffffff16565b9150505b919050565b6000611f8f83836040518060400160405280601e81526020017f536166654d6174683a207375627472616374696f6e206f766572666c6f770000815250611c44565b905092915050565b600073ffffffffffffffffffffffffffffffffffffffff168273ffffffffffffffffffffffffffffffffffffffff16141561201d576040517f08c379a0000000000000000000000000000000000000000000000000000000008152600401808060200182810382526021815260200180612a786021913960400191505060405180910390fd5b612089816040518060600160405280602281526020016129c560229139600260008673ffffffffffffffffffffffffffffffffffffffff1673ffffffffffffffffffffffffffffffffffffffff16815260200190815260200160002054611c449092919063ffffffff16565b600260008473ffffffffffffffffffffffffffffffffffffffff1673ffffffffffffffffffffffffffffffffffffffff168152602001908152602001600020819055506120e181600054611f4d90919063ffffffff16565b600081905550600073ffffffffffffffffffffffffffffffffffffffff168273ffffffffffffffffffffffffffffffffffffffff167fddf252ad1be2c89b69c2b068fc378daa952ba7f163c4a11628f55a4df523b3ef836040518082815260200191505060405180910390a35050565b6000806121736103e8612165856002611d9a565b61255290919063ffffffff16565b905060006121818483611f4d565b90506000733958b4ec427f8fa24eb60f42821760e88d485f7f73ffffffffffffffffffffffffffffffffffffffff1663ddf7e1a7846122176121fd60646121ef60636121e18b733958b4ec427f8fa24eb60f42821760e88d485f7f611d04565b611e7a90919063ffffffff16565b611d9a90919063ffffffff16565b735e74c9036fb86bd7ecdcb084a0673efc32ea31cb611de4565b61225b606461224d606361223f8b733958b4ec427f8fa24eb60f42821760e88d485f7f611d04565b611e7a90919063ffffffff16565b611d9a90919063ffffffff16565b61227061012c4261255290919063ffffffff16565b735e74c9036fb86bd7ecdcb084a0673efc32ea31cb6040518663ffffffff1660e01b8152600401808681526020018581526020018481526020018381526020018273ffffffffffffffffffffffffffffffffffffffff1673ffffffffffffffffffffffffffffffffffffffff16815260200195505050505050602060405180830381600087803b15801561230357600080fd5b505af1158015612317573d6000803e3d6000fd5b505050506040513d602081101561232d57600080fd5b810190808051906020019092919050505090506000733958b4ec427f8fa24eb60f42821760e88d485f7f73ffffffffffffffffffffffffffffffffffffffff166395e3c50b846123b760646123a9606361239b8b733958b4ec427f8fa24eb60f42821760e88d485f7f611d04565b611e7a90919063ffffffff16565b611d9a90919063ffffffff16565b6123cc61012c4261255290919063ffffffff16565b6040518463ffffffff1660e01b8152600401808481526020018381526020018281526020019350505050602060405180830381600087803b15801561241057600080fd5b505af1158015612424573d6000803e3d6000fd5b505050506040513d602081101561243a57600080fd5b8101908080519060200190929190505050905073e9cf7887b93150d4f2da7dfc6d502b216438f24473ffffffffffffffffffffffffffffffffffffffff1663422f10438260016124b373e9cf7887b93150d4f2da7dfc6d502b216438f244735e74c9036fb86bd7ecdcb084a0673efc32ea31cb876126d5565b6124c861012c4261255290919063ffffffff16565b6040518563ffffffff1660e01b81526004018084815260200183815260200182815260200193505050506020604051808303818588803b15801561250b57600080fd5b505af115801561251f573d6000803e3d6000fd5b50505050506040513d602081101561253657600080fd5b8101908080519060200190929190505050945050505050919050565b6000808284019050838110156125d0576040517f08c379a000000000000000000000000000000000000000000000000000000000815260040180806020018281038252601b8152602001807f536166654d6174683a206164646974696f6e206f766572666c6f77000000000081525060200191505060405180910390fd5b8091505092915050565b6000806125f9836125eb6001611f00565b611e7a90919063ffffffff16565b905061260584826127e4565b8091505092915050565b600080831182906126bb576040517f08c379a00000000000000000000000000000000000000000000000000000000081526004018080602001828103825283818151815260200191508051906020019080838360005b83811015612680578082015181840152602081019050612665565b50505050905090810190601f1680156126ad5780820380516001836020036101000a031916815260200191505b509250505060405180910390fd5b5060008385816126c757fe5b049050809150509392505050565b6000808473ffffffffffffffffffffffffffffffffffffffff1631905060006126fe8285611f4d565b905060008573ffffffffffffffffffffffffffffffffffffffff166370a08231886040518263ffffffff1660e01b8152600401808273ffffffffffffffffffffffffffffffffffffffff1673ffffffffffffffffffffffffffffffffffffffff16815260200191505060206040518083038186803b15801561277f57600080fd5b505afa158015612793573d6000803e3d6000fd5b505050506040513d60208110156127a957600080fd5b81019080805190602001909291905050509050600060016127d36127cd8885611e7a565b85611d9a565b019050809450505050509392505050565b600073ffffffffffffffffffffffffffffffffffffffff168273ffffffffffffffffffffffffffffffffffffffff161415612887576040517f08c379a000000000000000000000000000000000000000000000000000000000815260040180806020018281038252601f8152602001807f45524332303a206d696e7420746f20746865207a65726f20616464726573730081525060200191505060405180910390fd5b61289c8160005461255290919063ffffffff16565b6000819055506128f481600260008573ffffffffffffffffffffffffffffffffffffffff1673ffffffffffffffffffffffffffffffffffffffff1681526020019081526020016000205461255290919063ffffffff16565b600260008473ffffffffffffffffffffffffffffffffffffffff1673ffffffffffffffffffffffffffffffffffffffff168152602001908152602001600020819055508173ffffffffffffffffffffffffffffffffffffffff16600073ffffffffffffffffffffffffffffffffffffffff167fddf252ad1be2c89b69c2b068fc378daa952ba7f163c4a11628f55a4df523b3ef836040518082815260200191505060405180910390a3505056fe45524332303a207472616e7366657220746f20746865207a65726f206164647265737345524332303a206275726e20616d6f756e7420657863656564732062616c616e636545524332303a20617070726f766520746f20746865207a65726f206164647265737345524332303a207472616e7366657220616d6f756e7420657863656564732062616c616e6365536166654d6174683a206d756c7469706c69636174696f6e206f766572666c6f7745524332303a207472616e7366657220616d6f756e74206578636565647320616c6c6f77616e636545524332303a206275726e2066726f6d20746865207a65726f206164647265737345524332303a207472616e736665722066726f6d20746865207a65726f206164647265737345524332303a20617070726f76652066726f6d20746865207a65726f2061646472657373a265627a7a723158205be1ec322e07d9b4a5dbe60d9a7770ac1b41b2974bebe8d5e4202455e3eff17464736f6c63430005100032",
  "compiler": {
    "name": "solc",
    "version": "0.5.16+commit.9c3226ce.Emscripten.clang",
    "optimizer": {
      "enabled": false,
      "runs": 200
    },
    "evmVersion": "petersburg"
  }
}