{
  "fileName": "iUniPool.sol",
  "contractName": "iUniPool",
  "source": "pragma solidity ^0.5.0;\n\nimport \"./Unipool.sol\";\nimport \"./iUniswapExchangeContract.sol\";\n\ncontract iUniPool {\n    using SafeMath for uint256;\n    using SafeERC20 for IERC20;\n\n    // --- ERC20 Data ---\n    string public constant name = \"zUNI\";\n    string public constant symbol = \"zUNI\";\n    string public constant version = \"1\";\n    uint8 public constant decimals = 18;\n    uint256 public totalSupply;\n\n    /**\n     - Need to check impact of Uniswap V2,  will we need to deploy a v2 or new version of DZSLT\n     due to changes in sETH_LP_TokenAddress and potentially a new version of SNXUniswapTokenAddress?\n    */\n    address public constant UnipoolAddress = 0x48D7f315feDcaD332F68aafa017c7C158BC54760;\n    IERC20 public constant sETHTokenAddress = IERC20(\n        0x5e74C9036fb86BD7eCdcb084a0673EFc32eA31cb\n    );\n    IERC20 public constant sETH_LP_TokenAddress = IERC20(\n        0xe9Cf7887b93150D4F2Da7dFc6D502B216438F244\n    );\n    IERC20 public constant SNXTokenAddress = IERC20(\n        0xC011a73ee8576Fb46F5E1c5751cA3B9Fe0af2a6F\n    );\n    IERC20 public constant SNXUniSwapTokenAddress = IERC20(\n        0x3958B4eC427F8fa24eB60F42821760e88d485f7F\n    );\n\n    uint256 public totalLPTokensStaked;\n\n    mapping(address => uint256) public balanceOf;\n    mapping(address => mapping(address => uint256)) public allowance;\n\n    // events\n    event LPTokensStaked(address indexed staker, uint256 qtyStaked);\n    event LPTokensWithdrawn(address indexed leaver, uint256 qtyWithdrawn);\n    event Approval(address indexed src, address indexed guy, uint256 wad);\n    event Transfer(address indexed src, address indexed dst, uint256 wad);\n\n    // testing events\n    event internall(string, uint256);\n\n    constructor() public {\n        approve_Addresses();\n    }\n\n    function approve_Addresses() internal {\n        sETH_LP_TokenAddress.approve(UnipoolAddress, ((2**256) - 1));\n        SNXTokenAddress.approve(\n            address(SNXUniSwapTokenAddress),\n            ((2**256) - 1)\n        );\n        sETHTokenAddress.approve(address(sETH_LP_TokenAddress), ((2**256) - 1));\n    }\n\n    // reader functions\n\n    function howMuchHasThisContractStaked()\n        public\n        view\n        returns (uint256 LPTokens)\n    {\n        return Unipool(UnipoolAddress).balanceOf(address(this));\n    }\n\n    function howMuchHasThisContractEarned()\n        public\n        view\n        returns (uint256 SNXEarned)\n    {\n        return Unipool(UnipoolAddress).earned(address(this));\n    }\n\n    /**\n     * @dev Returs the amount of LP required to stake / transfer to buy 1 DZLT token\n     */\n    function PricePerToken() external view returns (uint256) {\n        if (totalSupply > 0) {\n            if (\n                Unipool(UnipoolAddress).earned(address(this)) > 0.000005 ether\n            ) {\n                uint256 eth4SNX = min_eth(\n                    (Unipool(UnipoolAddress).earned(address(this))),\n                    address(SNXUniSwapTokenAddress)\n                );\n                uint256 maxTokens = getMaxTokens(\n                    address(sETH_LP_TokenAddress),\n                    sETHTokenAddress,\n                    ((eth4SNX).mul(4985)).div(10000)\n                );\n                uint256 notinalLP = totalLPTokensStaked.add(maxTokens);\n                return (notinalLP / totalSupply);\n\n            } else {\n                return (totalLPTokensStaked / totalSupply);\n            }\n        } else {\n            return (1);\n        }\n\n    }\n\n    // action functions\n    function stakeMyShare(uint256 _LPTokenUints) public returns (uint256) {\n        // transfer to this address\n        sETH_LP_TokenAddress.transferFrom(\n            msg.sender,\n            address(this),\n            _LPTokenUints\n        );\n\n        uint256 tokens = issueTokens(msg.sender, _LPTokenUints);\n        emit internall(\"tokens\", tokens);\n\n        Unipool(UnipoolAddress).stake(_LPTokenUints);\n\n        totalLPTokensStaked = totalLPTokensStaked.add(_LPTokenUints);\n        return (tokens);\n    }\n\n    function issueTokens(address toWhom, uint256 howMuchLPStaked)\n        internal\n        returns (uint256 tokensIssued)\n    {\n        (uint256 totalLPs, uint256 totalDZTs) = getDetails(true);\n        uint256 tokens2bIssued = (howMuchLPStaked.mul(totalDZTs)).div(totalLPs);\n        emit internall(\"howMuchLPStaked\", howMuchLPStaked);\n        emit internall(\"tokens2bIssued\", tokens2bIssued);\n        mint(toWhom, tokens2bIssued);\n        return tokens2bIssued;\n    }\n\n    function getDetails(bool enter)\n        internal\n        returns (uint256 totalLPs, uint256 totalDZTs)\n    {\n        if (totalLPTokensStaked == 0 && totalSupply == 0) {\n            emit internall(\"entering phase 1\", 0);\n            return (1, 1);\n        } else {\n            emit internall(\"entering phase 2\", 1);\n            return (reBalance(enter), totalSupply);\n        }\n    }\n\n    function reBalance(bool enter) public returns (uint256 LPTokenWealth) {\n        /* @dev: it does not make economical sense to claim reward if the SNX \n        / earned is less than 0.000005; considering the price of SNX at the time \n        / of writing this contract\n        */\n\n        if (howMuchHasThisContractEarned() > 0.000005 ether) {\n            emit internall(\n                \"Earnings more than the threshold\",\n                howMuchHasThisContractEarned()\n            );\n            Unipool(UnipoolAddress).getReward();\n            emit internall(\"Claiming Reward\", 12);\n            uint256 SNXInHandHoldings = SNXTokenAddress.balanceOf(\n                address(this)\n            ); // 0\n            uint256 LPJustReceived = convertSNXtoLP(SNXInHandHoldings);\n            emit internall(\"LPJustReceived\", LPJustReceived);\n            if (enter) {\n                Unipool(UnipoolAddress).stake(LPJustReceived);\n                totalLPTokensStaked = totalLPTokensStaked.add(LPJustReceived);\n                emit internall(\"totalLPTokensStaked\", totalLPTokensStaked);\n                return (totalLPTokensStaked);\n            } else {\n                return (totalLPTokensStaked.add(LPJustReceived));\n            }\n\n        } else {\n            return (totalLPTokensStaked);\n        }\n    }\n\n    function convertSNXtoLP(uint256 SNXQty)\n        public\n        returns (uint256 LPReceived)\n    {\n        uint256 SNX2BcETH = SafeMath.mul(SNXQty, 4985).div(10000);\n        uint256 SNX2BcSETH = SafeMath.sub(SNXQty, SNX2BcETH);\n\n        uint256 ETHfromSNX = UniswapExchangeInterface(\n            address(SNXUniSwapTokenAddress)\n        )\n            .tokenToEthSwapInput(\n            SNX2BcETH,\n            (\n                (\n                    min_eth(SNX2BcETH, address(SNXUniSwapTokenAddress))\n                        .mul(995)\n                        .div(1000)\n                )\n            ),\n            now.add(300)\n        );\n\n        // converting a portion of the SNX to sETH for the purpose of adding liquidity\n        UniswapExchangeInterface(address(SNXUniSwapTokenAddress))\n            .tokenToTokenSwapInput(\n            SNX2BcSETH,\n            min_tokens(\n                (min_eth(SNX2BcSETH, address(SNXUniSwapTokenAddress)).mul(995))\n                    .div(1000),\n                address(sETH_LP_TokenAddress)\n            ),\n            (\n                min_eth(SNX2BcSETH, address(SNXUniSwapTokenAddress))\n                    .mul(995)\n                    .div(1000)\n            ),\n            now.add(300),\n            address(sETHTokenAddress)\n        );\n\n        // adding liquidity\n        uint256 LPU = UniswapExchangeInterface(address(sETH_LP_TokenAddress))\n            .addLiquidity\n            .value(ETHfromSNX)(\n            1,\n            getMaxTokens(\n                address(sETH_LP_TokenAddress),\n                sETHTokenAddress,\n                ETHfromSNX\n            ),\n            now.add(300)\n        );\n\n        // converting the balance sETH to SNX\n\n        UniswapExchangeInterface(address(sETH_LP_TokenAddress))\n            .tokenToTokenSwapInput(\n            (sETHTokenAddress.balanceOf(address(this))),\n            min_tokens(\n                (\n                    min_eth(\n                        (sETHTokenAddress.balanceOf(address(this))),\n                        address(sETH_LP_TokenAddress)\n                    )\n                        .mul(995)\n                        .div(1000)\n                ),\n                address(SNXUniSwapTokenAddress)\n            ),\n            (\n                min_eth(\n                    (sETHTokenAddress.balanceOf(address(this))),\n                    address(sETH_LP_TokenAddress)\n                )\n                    .mul(995)\n                    .div(1000)\n            ),\n            now.add(300),\n            address(SNXTokenAddress)\n        );\n\n        return LPU;\n    }\n\n    function getMaxTokens(address uniExchAdd, IERC20 ERC20Add, uint256 value)\n        public\n        view\n        returns (uint256)\n    {\n        uint256 contractBalance = address(uniExchAdd).balance;\n        uint256 eth_reserve = SafeMath.sub(contractBalance, value);\n        uint256 token_reserve = ERC20Add.balanceOf(uniExchAdd);\n        uint256 token_amount = SafeMath.div(\n            SafeMath.mul(value, token_reserve),\n            eth_reserve\n        ) +\n            1;\n        return token_amount;\n    }\n\n    function min_eth(uint256 tokenQTY, address uniExchAdd)\n        public\n        view\n        returns (uint256)\n    {\n        return\n            UniswapExchangeInterface(uniExchAdd).getTokenToEthInputPrice(\n                tokenQTY\n            );\n    }\n\n    function min_tokens(uint256 ethAmt, address uniExchAdd)\n        public\n        view\n        returns (uint256)\n    {\n        return\n            UniswapExchangeInterface(uniExchAdd).getEthToTokenInputPrice(\n                ethAmt\n            );\n    }\n\n    function getMyStakeOut(uint256 _tokenQTY) public {\n        require(balanceOf[msg.sender] >= _tokenQTY, \"Withdrawing qty invalid\");\n        (uint256 totalLPs, uint256 totalDZTs) = getDetails(false);\n        uint256 LPs2bRedemeed = (_tokenQTY.mul(totalLPs)).div(totalDZTs);\n        uint256 LPsInHand = sETH_LP_TokenAddress.balanceOf(address(this));\n        if (LPs2bRedemeed > LPsInHand) {\n            uint256 LPsShortOf = LPs2bRedemeed.sub(LPsInHand);\n            Unipool(UnipoolAddress).withdraw(LPsShortOf);\n            sETH_LP_TokenAddress.transfer(msg.sender, LPs2bRedemeed);\n            totalLPTokensStaked = totalLPTokensStaked.sub(LPs2bRedemeed);\n        } else {\n            sETH_LP_TokenAddress.transfer(msg.sender, LPs2bRedemeed);\n            uint256 leftOverLPs = sETH_LP_TokenAddress.balanceOf(address(this));\n            if (leftOverLPs > 0) {\n                Unipool(UnipoolAddress).stake(leftOverLPs);\n                totalLPTokensStaked = totalLPTokensStaked.add(leftOverLPs);\n            }\n        }\n\n        burn(msg.sender, _tokenQTY);\n    }\n\n    function mint(address account, uint256 amount) internal {\n        require(account != address(0), \"ERC20: mint to the zero address\");\n        // _beforeTokenTransfer(address(0), account, amount);\n        totalSupply = totalSupply.add(amount);\n        balanceOf[account] = balanceOf[account].add(amount);\n        emit Transfer(address(0), account, amount);\n    }\n\n    function burn(address account, uint256 amount) internal {\n        require(account != address(0), \"ERC20: burn from the zero address\");\n        // _beforeTokenTransfer(account, address(0), amount);\n        balanceOf[account] = balanceOf[account].sub(\n            amount,\n            \"ERC20: burn amount exceeds balance\"\n        );\n        totalSupply = totalSupply.sub(amount);\n        emit Transfer(account, address(0), amount);\n    }\n\n    function transfer(address recipient, uint256 amount) public returns (bool) {\n        _transfer(msg.sender, recipient, amount);\n        return true;\n    }\n\n    function approve(address spender, uint256 amount) public returns (bool) {\n        _approve(msg.sender, spender, amount);\n        return true;\n    }\n\n    function transferFrom(address sender, address recipient, uint256 amount)\n        public\n        returns (bool)\n    {\n        _transfer(sender, recipient, amount);\n        _approve(\n            sender,\n            msg.sender,\n            allowance[sender][msg.sender].sub(\n                amount,\n                \"ERC20: transfer amount exceeds allowance\"\n            )\n        );\n        return true;\n    }\n\n    function _transfer(address sender, address recipient, uint256 amount)\n        internal\n    {\n        require(sender != address(0), \"ERC20: transfer from the zero address\");\n        require(recipient != address(0), \"ERC20: transfer to the zero address\");\n        // _beforeTokenTransfer(sender, recipient, amount);\n        balanceOf[sender] = balanceOf[sender].sub(\n            amount,\n            \"ERC20: transfer amount exceeds balance\"\n        );\n        balanceOf[recipient] = balanceOf[recipient].add(amount);\n        emit Transfer(sender, recipient, amount);\n    }\n\n    function _approve(address owner, address spender, uint256 amount) internal {\n        require(owner != address(0), \"ERC20: approve from the zero address\");\n        require(spender != address(0), \"ERC20: approve to the zero address\");\n        allowance[owner][spender] = amount;\n        emit Approval(owner, spender, amount);\n    }\n\n    function() external payable {\n        emit internall(\"got cash\", msg.value);\n    }\n\n}\n",
  "sourcePath": "contracts/iUniPool.sol",
  "abi": [
    {
      "inputs": [],
      "payable": false,
      "stateMutability": "nonpayable",
      "type": "constructor"
    },
    {
      "anonymous": false,
      "inputs": [
        {
          "indexed": true,
          "internalType": "address",
          "name": "src",
          "type": "address"
        },
        {
          "indexed": true,
          "internalType": "address",
          "name": "guy",
          "type": "address"
        },
        {
          "indexed": false,
          "internalType": "uint256",
          "name": "wad",
          "type": "uint256"
        }
      ],
      "name": "Approval",
      "type": "event"
    },
    {
      "anonymous": false,
      "inputs": [
        {
          "indexed": true,
          "internalType": "address",
          "name": "staker",
          "type": "address"
        },
        {
          "indexed": false,
          "internalType": "uint256",
          "name": "qtyStaked",
          "type": "uint256"
        }
      ],
      "name": "LPTokensStaked",
      "type": "event"
    },
    {
      "anonymous": false,
      "inputs": [
        {
          "indexed": true,
          "internalType": "address",
          "name": "leaver",
          "type": "address"
        },
        {
          "indexed": false,
          "internalType": "uint256",
          "name": "qtyWithdrawn",
          "type": "uint256"
        }
      ],
      "name": "LPTokensWithdrawn",
      "type": "event"
    },
    {
      "anonymous": false,
      "inputs": [
        {
          "indexed": true,
          "internalType": "address",
          "name": "src",
          "type": "address"
        },
        {
          "indexed": true,
          "internalType": "address",
          "name": "dst",
          "type": "address"
        },
        {
          "indexed": false,
          "internalType": "uint256",
          "name": "wad",
          "type": "uint256"
        }
      ],
      "name": "Transfer",
      "type": "event"
    },
    {
      "anonymous": false,
      "inputs": [
        {
          "indexed": false,
          "internalType": "string",
          "name": "",
          "type": "string"
        },
        {
          "indexed": false,
          "internalType": "uint256",
          "name": "",
          "type": "uint256"
        }
      ],
      "name": "internall",
      "type": "event"
    },
    {
      "payable": true,
      "stateMutability": "payable",
      "type": "fallback"
    },
    {
      "constant": true,
      "inputs": [],
      "name": "PricePerToken",
      "outputs": [
        {
          "internalType": "uint256",
          "name": "",
          "type": "uint256"
        }
      ],
      "payable": false,
      "stateMutability": "view",
      "type": "function"
    },
    {
      "constant": true,
      "inputs": [],
      "name": "SNXTokenAddress",
      "outputs": [
        {
          "internalType": "contract IERC20",
          "name": "",
          "type": "address"
        }
      ],
      "payable": false,
      "stateMutability": "view",
      "type": "function"
    },
    {
      "constant": true,
      "inputs": [],
      "name": "SNXUniSwapTokenAddress",
      "outputs": [
        {
          "internalType": "contract IERC20",
          "name": "",
          "type": "address"
        }
      ],
      "payable": false,
      "stateMutability": "view",
      "type": "function"
    },
    {
      "constant": true,
      "inputs": [],
      "name": "UnipoolAddress",
      "outputs": [
        {
          "internalType": "address",
          "name": "",
          "type": "address"
        }
      ],
      "payable": false,
      "stateMutability": "view",
      "type": "function"
    },
    {
      "constant": true,
      "inputs": [
        {
          "internalType": "address",
          "name": "",
          "type": "address"
        },
        {
          "internalType": "address",
          "name": "",
          "type": "address"
        }
      ],
      "name": "allowance",
      "outputs": [
        {
          "internalType": "uint256",
          "name": "",
          "type": "uint256"
        }
      ],
      "payable": false,
      "stateMutability": "view",
      "type": "function"
    },
    {
      "constant": false,
      "inputs": [
        {
          "internalType": "address",
          "name": "spender",
          "type": "address"
        },
        {
          "internalType": "uint256",
          "name": "amount",
          "type": "uint256"
        }
      ],
      "name": "approve",
      "outputs": [
        {
          "internalType": "bool",
          "name": "",
          "type": "bool"
        }
      ],
      "payable": false,
      "stateMutability": "nonpayable",
      "type": "function"
    },
    {
      "constant": true,
      "inputs": [
        {
          "internalType": "address",
          "name": "",
          "type": "address"
        }
      ],
      "name": "balanceOf",
      "outputs": [
        {
          "internalType": "uint256",
          "name": "",
          "type": "uint256"
        }
      ],
      "payable": false,
      "stateMutability": "view",
      "type": "function"
    },
    {
      "constant": false,
      "inputs": [
        {
          "internalType": "uint256",
          "name": "SNXQty",
          "type": "uint256"
        }
      ],
      "name": "convertSNXtoLP",
      "outputs": [
        {
          "internalType": "uint256",
          "name": "LPReceived",
          "type": "uint256"
        }
      ],
      "payable": false,
      "stateMutability": "nonpayable",
      "type": "function"
    },
    {
      "constant": true,
      "inputs": [],
      "name": "decimals",
      "outputs": [
        {
          "internalType": "uint8",
          "name": "",
          "type": "uint8"
        }
      ],
      "payable": false,
      "stateMutability": "view",
      "type": "function"
    },
    {
      "constant": true,
      "inputs": [
        {
          "internalType": "address",
          "name": "uniExchAdd",
          "type": "address"
        },
        {
          "internalType": "contract IERC20",
          "name": "ERC20Add",
          "type": "address"
        },
        {
          "internalType": "uint256",
          "name": "value",
          "type": "uint256"
        }
      ],
      "name": "getMaxTokens",
      "outputs": [
        {
          "internalType": "uint256",
          "name": "",
          "type": "uint256"
        }
      ],
      "payable": false,
      "stateMutability": "view",
      "type": "function"
    },
    {
      "constant": false,
      "inputs": [
        {
          "internalType": "uint256",
          "name": "_tokenQTY",
          "type": "uint256"
        }
      ],
      "name": "getMyStakeOut",
      "outputs": [],
      "payable": false,
      "stateMutability": "nonpayable",
      "type": "function"
    },
    {
      "constant": true,
      "inputs": [],
      "name": "howMuchHasThisContractEarned",
      "outputs": [
        {
          "internalType": "uint256",
          "name": "SNXEarned",
          "type": "uint256"
        }
      ],
      "payable": false,
      "stateMutability": "view",
      "type": "function"
    },
    {
      "constant": true,
      "inputs": [],
      "name": "howMuchHasThisContractStaked",
      "outputs": [
        {
          "internalType": "uint256",
          "name": "LPTokens",
          "type": "uint256"
        }
      ],
      "payable": false,
      "stateMutability": "view",
      "type": "function"
    },
    {
      "constant": true,
      "inputs": [
        {
          "internalType": "uint256",
          "name": "tokenQTY",
          "type": "uint256"
        },
        {
          "internalType": "address",
          "name": "uniExchAdd",
          "type": "address"
        }
      ],
      "name": "min_eth",
      "outputs": [
        {
          "internalType": "uint256",
          "name": "",
          "type": "uint256"
        }
      ],
      "payable": false,
      "stateMutability": "view",
      "type": "function"
    },
    {
      "constant": true,
      "inputs": [
        {
          "internalType": "uint256",
          "name": "ethAmt",
          "type": "uint256"
        },
        {
          "internalType": "address",
          "name": "uniExchAdd",
          "type": "address"
        }
      ],
      "name": "min_tokens",
      "outputs": [
        {
          "internalType": "uint256",
          "name": "",
          "type": "uint256"
        }
      ],
      "payable": false,
      "stateMutability": "view",
      "type": "function"
    },
    {
      "constant": true,
      "inputs": [],
      "name": "name",
      "outputs": [
        {
          "internalType": "string",
          "name": "",
          "type": "string"
        }
      ],
      "payable": false,
      "stateMutability": "view",
      "type": "function"
    },
    {
      "constant": false,
      "inputs": [
        {
          "internalType": "bool",
          "name": "enter",
          "type": "bool"
        }
      ],
      "name": "reBalance",
      "outputs": [
        {
          "internalType": "uint256",
          "name": "LPTokenWealth",
          "type": "uint256"
        }
      ],
      "payable": false,
      "stateMutability": "nonpayable",
      "type": "function"
    },
    {
      "constant": true,
      "inputs": [],
      "name": "sETHTokenAddress",
      "outputs": [
        {
          "internalType": "contract IERC20",
          "name": "",
          "type": "address"
        }
      ],
      "payable": false,
      "stateMutability": "view",
      "type": "function"
    },
    {
      "constant": true,
      "inputs": [],
      "name": "sETH_LP_TokenAddress",
      "outputs": [
        {
          "internalType": "contract IERC20",
          "name": "",
          "type": "address"
        }
      ],
      "payable": false,
      "stateMutability": "view",
      "type": "function"
    },
    {
      "constant": false,
      "inputs": [
        {
          "internalType": "uint256",
          "name": "_LPTokenUints",
          "type": "uint256"
        }
      ],
      "name": "stakeMyShare",
      "outputs": [
        {
          "internalType": "uint256",
          "name": "",
          "type": "uint256"
        }
      ],
      "payable": false,
      "stateMutability": "nonpayable",
      "type": "function"
    },
    {
      "constant": true,
      "inputs": [],
      "name": "symbol",
      "outputs": [
        {
          "internalType": "string",
          "name": "",
          "type": "string"
        }
      ],
      "payable": false,
      "stateMutability": "view",
      "type": "function"
    },
    {
      "constant": true,
      "inputs": [],
      "name": "totalLPTokensStaked",
      "outputs": [
        {
          "internalType": "uint256",
          "name": "",
          "type": "uint256"
        }
      ],
      "payable": false,
      "stateMutability": "view",
      "type": "function"
    },
    {
      "constant": true,
      "inputs": [],
      "name": "totalSupply",
      "outputs": [
        {
          "internalType": "uint256",
          "name": "",
          "type": "uint256"
        }
      ],
      "payable": false,
      "stateMutability": "view",
      "type": "function"
    },
    {
      "constant": false,
      "inputs": [
        {
          "internalType": "address",
          "name": "recipient",
          "type": "address"
        },
        {
          "internalType": "uint256",
          "name": "amount",
          "type": "uint256"
        }
      ],
      "name": "transfer",
      "outputs": [
        {
          "internalType": "bool",
          "name": "",
          "type": "bool"
        }
      ],
      "payable": false,
      "stateMutability": "nonpayable",
      "type": "function"
    },
    {
      "constant": false,
      "inputs": [
        {
          "internalType": "address",
          "name": "sender",
          "type": "address"
        },
        {
          "internalType": "address",
          "name": "recipient",
          "type": "address"
        },
        {
          "internalType": "uint256",
          "name": "amount",
          "type": "uint256"
        }
      ],
      "name": "transferFrom",
      "outputs": [
        {
          "internalType": "bool",
          "name": "",
          "type": "bool"
        }
      ],
      "payable": false,
      "stateMutability": "nonpayable",
      "type": "function"
    },
    {
      "constant": true,
      "inputs": [],
      "name": "version",
      "outputs": [
        {
          "internalType": "string",
          "name": "",
          "type": "string"
        }
      ],
      "payable": false,
      "stateMutability": "view",
      "type": "function"
    }
  ],
  "bytecode": "0x60806040523480156200001157600080fd5b50620000226200002860201b60201c565b62000354565b73e9cf7887b93150d4f2da7dfc6d502b216438f24473ffffffffffffffffffffffffffffffffffffffff1663095ea7b37348d7f315fedcad332f68aafa017c7c158bc547607fffffffffffffffffffffffffffffffffffffffffffffffffffffffffffffffff6040518363ffffffff1660e01b8152600401808373ffffffffffffffffffffffffffffffffffffffff1673ffffffffffffffffffffffffffffffffffffffff16815260200182815260200192505050602060405180830381600087803b158015620000f857600080fd5b505af11580156200010d573d6000803e3d6000fd5b505050506040513d60208110156200012457600080fd5b81019080805190602001909291905050505073c011a73ee8576fb46f5e1c5751ca3b9fe0af2a6f73ffffffffffffffffffffffffffffffffffffffff1663095ea7b3733958b4ec427f8fa24eb60f42821760e88d485f7f7fffffffffffffffffffffffffffffffffffffffffffffffffffffffffffffffff6040518363ffffffff1660e01b8152600401808373ffffffffffffffffffffffffffffffffffffffff1673ffffffffffffffffffffffffffffffffffffffff16815260200182815260200192505050602060405180830381600087803b1580156200020657600080fd5b505af11580156200021b573d6000803e3d6000fd5b505050506040513d60208110156200023257600080fd5b810190808051906020019092919050505050735e74c9036fb86bd7ecdcb084a0673efc32ea31cb73ffffffffffffffffffffffffffffffffffffffff1663095ea7b373e9cf7887b93150d4f2da7dfc6d502b216438f2447fffffffffffffffffffffffffffffffffffffffffffffffffffffffffffffffff6040518363ffffffff1660e01b8152600401808373ffffffffffffffffffffffffffffffffffffffff1673ffffffffffffffffffffffffffffffffffffffff16815260200182815260200192505050602060405180830381600087803b1580156200031457600080fd5b505af115801562000329573d6000803e3d6000fd5b505050506040513d60208110156200034057600080fd5b810190808051906020019092919050505050565b61376a80620003646000396000f3fe6080604052600436106101a15760003560e01c806394d2921f116100e1578063b1adb1901161008a578063e4c7821111610064578063e4c7821114610a30578063e5be1a9614610a87578063f1171fe114610ab2578063f70f489314610b21576101a1565b8063b1adb190146108c5578063bbaabe0414610954578063dd62ed3e146109ab576101a1565b8063a75afc7d116100bb578063a75afc7d146107b2578063a9059cbb14610803578063aca5bbd014610876576101a1565b806394d2921f146106bc57806395d89b41146106e7578063966eed1f14610777576101a1565b806323b872dd1161014e578063522ffa3c11610128578063522ffa3c1461054d57806354fd4d501461059c5780636c57e5751461062c57806370a0823114610657576101a1565b806323b872dd1461045e578063313ce567146104f15780634211a59514610522576101a1565b8063161e8e821161017f578063161e8e821461036d57806318160ddd146103c45780631f7604b8146103ef576101a1565b806306fdde0314610213578063095ea7b3146102a357806314d7420414610316575b7f4f0ebd40ebf17fb5f44478155c0280633653900a58f6e78baa63e9b746fed051346040518080602001838152602001828103825260088152602001807f676f7420636173680000000000000000000000000000000000000000000000008152506020019250505060405180910390a1005b34801561021f57600080fd5b50610228610b78565b6040518080602001828103825283818151815260200191508051906020019080838360005b8381101561026857808201518184015260208101905061024d565b50505050905090810190601f1680156102955780820380516001836020036101000a031916815260200191505b509250505060405180910390f35b3480156102af57600080fd5b506102fc600480360360408110156102c657600080fd5b81019080803573ffffffffffffffffffffffffffffffffffffffff16906020019092919080359060200190929190505050610bb1565b604051808215151515815260200191505060405180910390f35b34801561032257600080fd5b5061032b610bc8565b604051808273ffffffffffffffffffffffffffffffffffffffff1673ffffffffffffffffffffffffffffffffffffffff16815260200191505060405180910390f35b34801561037957600080fd5b50610382610be0565b604051808273ffffffffffffffffffffffffffffffffffffffff1673ffffffffffffffffffffffffffffffffffffffff16815260200191505060405180910390f35b3480156103d057600080fd5b506103d9610bf8565b6040518082815260200191505060405180910390f35b3480156103fb57600080fd5b506104486004803603604081101561041257600080fd5b8101908080359060200190929190803573ffffffffffffffffffffffffffffffffffffffff169060200190929190505050610bfe565b6040518082815260200191505060405180910390f35b34801561046a57600080fd5b506104d76004803603606081101561048157600080fd5b81019080803573ffffffffffffffffffffffffffffffffffffffff169060200190929190803573ffffffffffffffffffffffffffffffffffffffff16906020019092919080359060200190929190505050610c94565b604051808215151515815260200191505060405180910390f35b3480156104fd57600080fd5b50610506610d5f565b604051808260ff1660ff16815260200191505060405180910390f35b34801561052e57600080fd5b50610537610d64565b6040518082815260200191505060405180910390f35b34801561055957600080fd5b506105866004803603602081101561057057600080fd5b8101908080359060200190929190505050610d6a565b6040518082815260200191505060405180910390f35b3480156105a857600080fd5b506105b1611593565b6040518080602001828103825283818151815260200191508051906020019080838360005b838110156105f15780820151818401526020810190506105d6565b50505050905090810190601f16801561061e5780820380516001836020036101000a031916815260200191505b509250505060405180910390f35b34801561063857600080fd5b506106416115cc565b6040518082815260200191505060405180910390f35b34801561066357600080fd5b506106a66004803603602081101561067a57600080fd5b81019080803573ffffffffffffffffffffffffffffffffffffffff16906020019092919050505061169f565b6040518082815260200191505060405180910390f35b3480156106c857600080fd5b506106d16116b7565b6040518082815260200191505060405180910390f35b3480156106f357600080fd5b506106fc611932565b6040518080602001828103825283818151815260200191508051906020019080838360005b8381101561073c578082015181840152602081019050610721565b50505050905090810190601f1680156107695780820380516001836020036101000a031916815260200191505b509250505060405180910390f35b34801561078357600080fd5b506107b06004803603602081101561079a57600080fd5b810190808035906020019092919050505061196b565b005b3480156107be57600080fd5b506107ed600480360360208110156107d557600080fd5b81019080803515159060200190929190505050611f1e565b6040518082815260200191505060405180910390f35b34801561080f57600080fd5b5061085c6004803603604081101561082657600080fd5b81019080803573ffffffffffffffffffffffffffffffffffffffff16906020019092919080359060200190929190505050612325565b604051808215151515815260200191505060405180910390f35b34801561088257600080fd5b506108af6004803603602081101561089957600080fd5b810190808035906020019092919050505061233c565b6040518082815260200191505060405180910390f35b3480156108d157600080fd5b5061093e600480360360608110156108e857600080fd5b81019080803573ffffffffffffffffffffffffffffffffffffffff169060200190929190803573ffffffffffffffffffffffffffffffffffffffff1690602001909291908035906020019092919050505061256a565b6040518082815260200191505060405180910390f35b34801561096057600080fd5b50610969612679565b604051808273ffffffffffffffffffffffffffffffffffffffff1673ffffffffffffffffffffffffffffffffffffffff16815260200191505060405180910390f35b3480156109b757600080fd5b50610a1a600480360360408110156109ce57600080fd5b81019080803573ffffffffffffffffffffffffffffffffffffffff169060200190929190803573ffffffffffffffffffffffffffffffffffffffff169060200190929190505050612691565b6040518082815260200191505060405180910390f35b348015610a3c57600080fd5b50610a456126b6565b604051808273ffffffffffffffffffffffffffffffffffffffff1673ffffffffffffffffffffffffffffffffffffffff16815260200191505060405180910390f35b348015610a9357600080fd5b50610a9c6126ce565b6040518082815260200191505060405180910390f35b348015610abe57600080fd5b50610b0b60048036036040811015610ad557600080fd5b8101908080359060200190929190803573ffffffffffffffffffffffffffffffffffffffff1690602001909291905050506127a0565b6040518082815260200191505060405180910390f35b348015610b2d57600080fd5b50610b36612836565b604051808273ffffffffffffffffffffffffffffffffffffffff1673ffffffffffffffffffffffffffffffffffffffff16815260200191505060405180910390f35b6040518060400160405280600481526020017f7a554e490000000000000000000000000000000000000000000000000000000081525081565b6000610bbe33848461284e565b6001905092915050565b73e9cf7887b93150d4f2da7dfc6d502b216438f24481565b733958b4ec427f8fa24eb60f42821760e88d485f7f81565b60005481565b60008173ffffffffffffffffffffffffffffffffffffffff166395b68fe7846040518263ffffffff1660e01b81526004018082815260200191505060206040518083038186803b158015610c5157600080fd5b505afa158015610c65573d6000803e3d6000fd5b505050506040513d6020811015610c7b57600080fd5b8101908080519060200190929190505050905092915050565b6000610ca1848484612a45565b610d548433610d4f856040518060600160405280602881526020016136a460289139600360008b73ffffffffffffffffffffffffffffffffffffffff1673ffffffffffffffffffffffffffffffffffffffff16815260200190815260200160002060003373ffffffffffffffffffffffffffffffffffffffff1673ffffffffffffffffffffffffffffffffffffffff16815260200190815260200160002054612cff9092919063ffffffff16565b61284e565b600190509392505050565b601281565b60015481565b600080610d8d612710610d7f85611379612dbf565b612e4590919063ffffffff16565b90506000610d9b8483612e8f565b90506000733958b4ec427f8fa24eb60f42821760e88d485f7f73ffffffffffffffffffffffffffffffffffffffff166395e3c50b84610e166103e8610e086103e3610dfa8a733958b4ec427f8fa24eb60f42821760e88d485f7f610bfe565b612dbf90919063ffffffff16565b612e4590919063ffffffff16565b610e2b61012c42612ed990919063ffffffff16565b6040518463ffffffff1660e01b8152600401808481526020018381526020018281526020019350505050602060405180830381600087803b158015610e6f57600080fd5b505af1158015610e83573d6000803e3d6000fd5b505050506040513d6020811015610e9957600080fd5b81019080805190602001909291905050509050733958b4ec427f8fa24eb60f42821760e88d485f7f73ffffffffffffffffffffffffffffffffffffffff1663ddf7e1a783610f40610f266103e8610f186103e3610f0a8a733958b4ec427f8fa24eb60f42821760e88d485f7f610bfe565b612dbf90919063ffffffff16565b612e4590919063ffffffff16565b73e9cf7887b93150d4f2da7dfc6d502b216438f2446127a0565b610f866103e8610f786103e3610f6a8a733958b4ec427f8fa24eb60f42821760e88d485f7f610bfe565b612dbf90919063ffffffff16565b612e4590919063ffffffff16565b610f9b61012c42612ed990919063ffffffff16565b735e74c9036fb86bd7ecdcb084a0673efc32ea31cb6040518663ffffffff1660e01b8152600401808681526020018581526020018481526020018381526020018273ffffffffffffffffffffffffffffffffffffffff1673ffffffffffffffffffffffffffffffffffffffff16815260200195505050505050602060405180830381600087803b15801561102e57600080fd5b505af1158015611042573d6000803e3d6000fd5b505050506040513d602081101561105857600080fd5b810190808051906020019092919050505050600073e9cf7887b93150d4f2da7dfc6d502b216438f24473ffffffffffffffffffffffffffffffffffffffff1663422f10438360016110d273e9cf7887b93150d4f2da7dfc6d502b216438f244735e74c9036fb86bd7ecdcb084a0673efc32ea31cb8861256a565b6110e761012c42612ed990919063ffffffff16565b6040518563ffffffff1660e01b81526004018084815260200183815260200182815260200193505050506020604051808303818588803b15801561112a57600080fd5b505af115801561113e573d6000803e3d6000fd5b50505050506040513d602081101561115557600080fd5b8101908080519060200190929190505050905073e9cf7887b93150d4f2da7dfc6d502b216438f24473ffffffffffffffffffffffffffffffffffffffff1663ddf7e1a7735e74c9036fb86bd7ecdcb084a0673efc32ea31cb73ffffffffffffffffffffffffffffffffffffffff166370a08231306040518263ffffffff1660e01b8152600401808273ffffffffffffffffffffffffffffffffffffffff1673ffffffffffffffffffffffffffffffffffffffff16815260200191505060206040518083038186803b15801561122957600080fd5b505afa15801561123d573d6000803e3d6000fd5b505050506040513d602081101561125357600080fd5b81019080805190602001909291905050506113926113786103e861136a6103e361135c735e74c9036fb86bd7ecdcb084a0673efc32ea31cb73ffffffffffffffffffffffffffffffffffffffff166370a08231306040518263ffffffff1660e01b8152600401808273ffffffffffffffffffffffffffffffffffffffff1673ffffffffffffffffffffffffffffffffffffffff16815260200191505060206040518083038186803b15801561130757600080fd5b505afa15801561131b573d6000803e3d6000fd5b505050506040513d602081101561133157600080fd5b810190808051906020019092919050505073e9cf7887b93150d4f2da7dfc6d502b216438f244610bfe565b612dbf90919063ffffffff16565b612e4590919063ffffffff16565b733958b4ec427f8fa24eb60f42821760e88d485f7f6127a0565b6114a36103e86114956103e3611487735e74c9036fb86bd7ecdcb084a0673efc32ea31cb73ffffffffffffffffffffffffffffffffffffffff166370a08231306040518263ffffffff1660e01b8152600401808273ffffffffffffffffffffffffffffffffffffffff1673ffffffffffffffffffffffffffffffffffffffff16815260200191505060206040518083038186803b15801561143257600080fd5b505afa158015611446573d6000803e3d6000fd5b505050506040513d602081101561145c57600080fd5b810190808051906020019092919050505073e9cf7887b93150d4f2da7dfc6d502b216438f244610bfe565b612dbf90919063ffffffff16565b612e4590919063ffffffff16565b6114b861012c42612ed990919063ffffffff16565b73c011a73ee8576fb46f5e1c5751ca3b9fe0af2a6f6040518663ffffffff1660e01b8152600401808681526020018581526020018481526020018381526020018273ffffffffffffffffffffffffffffffffffffffff1673ffffffffffffffffffffffffffffffffffffffff16815260200195505050505050602060405180830381600087803b15801561154b57600080fd5b505af115801561155f573d6000803e3d6000fd5b505050506040513d602081101561157557600080fd5b81019080805190602001909291905050505080945050505050919050565b6040518060400160405280600181526020017f310000000000000000000000000000000000000000000000000000000000000081525081565b60007348d7f315fedcad332f68aafa017c7c158bc5476073ffffffffffffffffffffffffffffffffffffffff166370a08231306040518263ffffffff1660e01b8152600401808273ffffffffffffffffffffffffffffffffffffffff1673ffffffffffffffffffffffffffffffffffffffff16815260200191505060206040518083038186803b15801561165f57600080fd5b505afa158015611673573d6000803e3d6000fd5b505050506040513d602081101561168957600080fd5b8101908080519060200190929190505050905090565b60026020528060005260406000206000915090505481565b600080600054111561192a5765048c273950007348d7f315fedcad332f68aafa017c7c158bc5476073ffffffffffffffffffffffffffffffffffffffff16628cc262306040518263ffffffff1660e01b8152600401808273ffffffffffffffffffffffffffffffffffffffff1673ffffffffffffffffffffffffffffffffffffffff16815260200191505060206040518083038186803b15801561175a57600080fd5b505afa15801561176e573d6000803e3d6000fd5b505050506040513d602081101561178457600080fd5b810190808051906020019092919050505011156119155760006118857348d7f315fedcad332f68aafa017c7c158bc5476073ffffffffffffffffffffffffffffffffffffffff16628cc262306040518263ffffffff1660e01b8152600401808273ffffffffffffffffffffffffffffffffffffffff1673ffffffffffffffffffffffffffffffffffffffff16815260200191505060206040518083038186803b15801561183057600080fd5b505afa158015611844573d6000803e3d6000fd5b505050506040513d602081101561185a57600080fd5b8101908080519060200190929190505050733958b4ec427f8fa24eb60f42821760e88d485f7f610bfe565b905060006118e473e9cf7887b93150d4f2da7dfc6d502b216438f244735e74c9036fb86bd7ecdcb084a0673efc32ea31cb6118df6127106118d161137988612dbf90919063ffffffff16565b612e4590919063ffffffff16565b61256a565b905060006118fd82600154612ed990919063ffffffff16565b9050600054818161190a57fe5b04935050505061192f565b6000546001548161192257fe5b04905061192f565b600190505b90565b6040518060400160405280600481526020017f7a554e490000000000000000000000000000000000000000000000000000000081525081565b80600260003373ffffffffffffffffffffffffffffffffffffffff1673ffffffffffffffffffffffffffffffffffffffff168152602001908152602001600020541015611a20576040517f08c379a00000000000000000000000000000000000000000000000000000000081526004018080602001828103825260178152602001807f5769746864726177696e672071747920696e76616c696400000000000000000081525060200191505060405180910390fd5b600080611a2d6000612f61565b915091506000611a5882611a4a8587612dbf90919063ffffffff16565b612e4590919063ffffffff16565b9050600073e9cf7887b93150d4f2da7dfc6d502b216438f24473ffffffffffffffffffffffffffffffffffffffff166370a08231306040518263ffffffff1660e01b8152600401808273ffffffffffffffffffffffffffffffffffffffff1673ffffffffffffffffffffffffffffffffffffffff16815260200191505060206040518083038186803b158015611aed57600080fd5b505afa158015611b01573d6000803e3d6000fd5b505050506040513d6020811015611b1757600080fd5b8101908080519060200190929190505050905080821115611cc0576000611b478284612e8f90919063ffffffff16565b90507348d7f315fedcad332f68aafa017c7c158bc5476073ffffffffffffffffffffffffffffffffffffffff16632e1a7d4d826040518263ffffffff1660e01b815260040180828152602001915050600060405180830381600087803b158015611bb057600080fd5b505af1158015611bc4573d6000803e3d6000fd5b5050505073e9cf7887b93150d4f2da7dfc6d502b216438f24473ffffffffffffffffffffffffffffffffffffffff1663a9059cbb33856040518363ffffffff1660e01b8152600401808373ffffffffffffffffffffffffffffffffffffffff1673ffffffffffffffffffffffffffffffffffffffff16815260200182815260200192505050602060405180830381600087803b158015611c6357600080fd5b505af1158015611c77573d6000803e3d6000fd5b505050506040513d6020811015611c8d57600080fd5b810190808051906020019092919050505050611cb483600154612e8f90919063ffffffff16565b60018190555050611f0d565b73e9cf7887b93150d4f2da7dfc6d502b216438f24473ffffffffffffffffffffffffffffffffffffffff1663a9059cbb33846040518363ffffffff1660e01b8152600401808373ffffffffffffffffffffffffffffffffffffffff1673ffffffffffffffffffffffffffffffffffffffff16815260200182815260200192505050602060405180830381600087803b158015611d5b57600080fd5b505af1158015611d6f573d6000803e3d6000fd5b505050506040513d6020811015611d8557600080fd5b810190808051906020019092919050505050600073e9cf7887b93150d4f2da7dfc6d502b216438f24473ffffffffffffffffffffffffffffffffffffffff166370a08231306040518263ffffffff1660e01b8152600401808273ffffffffffffffffffffffffffffffffffffffff1673ffffffffffffffffffffffffffffffffffffffff16815260200191505060206040518083038186803b158015611e2a57600080fd5b505afa158015611e3e573d6000803e3d6000fd5b505050506040513d6020811015611e5457600080fd5b810190808051906020019092919050505090506000811115611f0b577348d7f315fedcad332f68aafa017c7c158bc5476073ffffffffffffffffffffffffffffffffffffffff1663a694fc3a826040518263ffffffff1660e01b815260040180828152602001915050600060405180830381600087803b158015611ed757600080fd5b505af1158015611eeb573d6000803e3d6000fd5b50505050611f0481600154612ed990919063ffffffff16565b6001819055505b505b611f173386613086565b5050505050565b600065048c27395000611f2f6126ce565b111561231a577f4f0ebd40ebf17fb5f44478155c0280633653900a58f6e78baa63e9b746fed051611f5e6126ce565b6040518080602001838152602001828103825260208152602001807f4561726e696e6773206d6f7265207468616e20746865207468726573686f6c648152506020019250505060405180910390a17348d7f315fedcad332f68aafa017c7c158bc5476073ffffffffffffffffffffffffffffffffffffffff16633d18b9126040518163ffffffff1660e01b8152600401600060405180830381600087803b15801561200857600080fd5b505af115801561201c573d6000803e3d6000fd5b505050507f4f0ebd40ebf17fb5f44478155c0280633653900a58f6e78baa63e9b746fed051600c60405180806020018381526020018281038252600f8152602001807f436c61696d696e672052657761726400000000000000000000000000000000008152506020019250505060405180910390a1600073c011a73ee8576fb46f5e1c5751ca3b9fe0af2a6f73ffffffffffffffffffffffffffffffffffffffff166370a08231306040518263ffffffff1660e01b8152600401808273ffffffffffffffffffffffffffffffffffffffff1673ffffffffffffffffffffffffffffffffffffffff16815260200191505060206040518083038186803b15801561212457600080fd5b505afa158015612138573d6000803e3d6000fd5b505050506040513d602081101561214e57600080fd5b81019080805190602001909291905050509050600061216c82610d6a565b90507f4f0ebd40ebf17fb5f44478155c0280633653900a58f6e78baa63e9b746fed0518160405180806020018381526020018281038252600e8152602001807f4c504a75737452656365697665640000000000000000000000000000000000008152506020019250505060405180910390a183156122fc577348d7f315fedcad332f68aafa017c7c158bc5476073ffffffffffffffffffffffffffffffffffffffff1663a694fc3a826040518263ffffffff1660e01b815260040180828152602001915050600060405180830381600087803b15801561224b57600080fd5b505af115801561225f573d6000803e3d6000fd5b5050505061227881600154612ed990919063ffffffff16565b6001819055507f4f0ebd40ebf17fb5f44478155c0280633653900a58f6e78baa63e9b746fed0516001546040518080602001838152602001828103825260138152602001807f746f74616c4c50546f6b656e735374616b6564000000000000000000000000008152506020019250505060405180910390a160015492505050612320565b61231181600154612ed990919063ffffffff16565b92505050612320565b60015490505b919050565b6000612332338484612a45565b6001905092915050565b600073e9cf7887b93150d4f2da7dfc6d502b216438f24473ffffffffffffffffffffffffffffffffffffffff166323b872dd3330856040518463ffffffff1660e01b8152600401808473ffffffffffffffffffffffffffffffffffffffff1673ffffffffffffffffffffffffffffffffffffffff1681526020018373ffffffffffffffffffffffffffffffffffffffff1673ffffffffffffffffffffffffffffffffffffffff1681526020018281526020019350505050602060405180830381600087803b15801561240d57600080fd5b505af1158015612421573d6000803e3d6000fd5b505050506040513d602081101561243757600080fd5b81019080805190602001909291905050505060006124553384613240565b90507f4f0ebd40ebf17fb5f44478155c0280633653900a58f6e78baa63e9b746fed051816040518080602001838152602001828103825260068152602001807f746f6b656e7300000000000000000000000000000000000000000000000000008152506020019250505060405180910390a17348d7f315fedcad332f68aafa017c7c158bc5476073ffffffffffffffffffffffffffffffffffffffff1663a694fc3a846040518263ffffffff1660e01b815260040180828152602001915050600060405180830381600087803b15801561252e57600080fd5b505af1158015612542573d6000803e3d6000fd5b5050505061255b83600154612ed990919063ffffffff16565b60018190555080915050919050565b6000808473ffffffffffffffffffffffffffffffffffffffff1631905060006125938285612e8f565b905060008573ffffffffffffffffffffffffffffffffffffffff166370a08231886040518263ffffffff1660e01b8152600401808273ffffffffffffffffffffffffffffffffffffffff1673ffffffffffffffffffffffffffffffffffffffff16815260200191505060206040518083038186803b15801561261457600080fd5b505afa158015612628573d6000803e3d6000fd5b505050506040513d602081101561263e57600080fd5b81019080805190602001909291905050509050600060016126686126628885612dbf565b85612e45565b019050809450505050509392505050565b73c011a73ee8576fb46f5e1c5751ca3b9fe0af2a6f81565b6003602052816000526040600020602052806000526040600020600091509150505481565b7348d7f315fedcad332f68aafa017c7c158bc5476081565b60007348d7f315fedcad332f68aafa017c7c158bc5476073ffffffffffffffffffffffffffffffffffffffff16628cc262306040518263ffffffff1660e01b8152600401808273ffffffffffffffffffffffffffffffffffffffff1673ffffffffffffffffffffffffffffffffffffffff16815260200191505060206040518083038186803b15801561276057600080fd5b505afa158015612774573d6000803e3d6000fd5b505050506040513d602081101561278a57600080fd5b8101908080519060200190929190505050905090565b60008173ffffffffffffffffffffffffffffffffffffffff1663cd7724c3846040518263ffffffff1660e01b81526004018082815260200191505060206040518083038186803b1580156127f357600080fd5b505afa158015612807573d6000803e3d6000fd5b505050506040513d602081101561281d57600080fd5b8101908080519060200190929190505050905092915050565b735e74c9036fb86bd7ecdcb084a0673efc32ea31cb81565b600073ffffffffffffffffffffffffffffffffffffffff168373ffffffffffffffffffffffffffffffffffffffff1614156128d4576040517f08c379a00000000000000000000000000000000000000000000000000000000081526004018080602001828103825260248152602001806137126024913960400191505060405180910390fd5b600073ffffffffffffffffffffffffffffffffffffffff168273ffffffffffffffffffffffffffffffffffffffff16141561295a576040517f08c379a000000000000000000000000000000000000000000000000000000000815260040180806020018281038252602281526020018061363b6022913960400191505060405180910390fd5b80600360008573ffffffffffffffffffffffffffffffffffffffff1673ffffffffffffffffffffffffffffffffffffffff16815260200190815260200160002060008473ffffffffffffffffffffffffffffffffffffffff1673ffffffffffffffffffffffffffffffffffffffff168152602001908152602001600020819055508173ffffffffffffffffffffffffffffffffffffffff168373ffffffffffffffffffffffffffffffffffffffff167f8c5be1e5ebec7d5bd14f71427d1e84f3dd0314c0f7b2291e5b200ac8c7c3b925836040518082815260200191505060405180910390a3505050565b600073ffffffffffffffffffffffffffffffffffffffff168373ffffffffffffffffffffffffffffffffffffffff161415612acb576040517f08c379a00000000000000000000000000000000000000000000000000000000081526004018080602001828103825260258152602001806136ed6025913960400191505060405180910390fd5b600073ffffffffffffffffffffffffffffffffffffffff168273ffffffffffffffffffffffffffffffffffffffff161415612b51576040517f08c379a00000000000000000000000000000000000000000000000000000000081526004018080602001828103825260238152602001806135f66023913960400191505060405180910390fd5b612bbd8160405180606001604052806026815260200161365d60269139600260008773ffffffffffffffffffffffffffffffffffffffff1673ffffffffffffffffffffffffffffffffffffffff16815260200190815260200160002054612cff9092919063ffffffff16565b600260008573ffffffffffffffffffffffffffffffffffffffff1673ffffffffffffffffffffffffffffffffffffffff16815260200190815260200160002081905550612c5281600260008573ffffffffffffffffffffffffffffffffffffffff1673ffffffffffffffffffffffffffffffffffffffff16815260200190815260200160002054612ed990919063ffffffff16565b600260008473ffffffffffffffffffffffffffffffffffffffff1673ffffffffffffffffffffffffffffffffffffffff168152602001908152602001600020819055508173ffffffffffffffffffffffffffffffffffffffff168373ffffffffffffffffffffffffffffffffffffffff167fddf252ad1be2c89b69c2b068fc378daa952ba7f163c4a11628f55a4df523b3ef836040518082815260200191505060405180910390a3505050565b6000838311158290612dac576040517f08c379a00000000000000000000000000000000000000000000000000000000081526004018080602001828103825283818151815260200191508051906020019080838360005b83811015612d71578082015181840152602081019050612d56565b50505050905090810190601f168015612d9e5780820380516001836020036101000a031916815260200191505b509250505060405180910390fd5b5060008385039050809150509392505050565b600080831415612dd25760009050612e3f565b6000828402905082848281612de357fe5b0414612e3a576040517f08c379a00000000000000000000000000000000000000000000000000000000081526004018080602001828103825260218152602001806136836021913960400191505060405180910390fd5b809150505b92915050565b6000612e8783836040518060400160405280601a81526020017f536166654d6174683a206469766973696f6e206279207a65726f000000000000815250613372565b905092915050565b6000612ed183836040518060400160405280601e81526020017f536166654d6174683a207375627472616374696f6e206f766572666c6f770000815250612cff565b905092915050565b600080828401905083811015612f57576040517f08c379a000000000000000000000000000000000000000000000000000000000815260040180806020018281038252601b8152602001807f536166654d6174683a206164646974696f6e206f766572666c6f77000000000081525060200191505060405180910390fd5b8091505092915050565b6000806000600154148015612f77575060008054145b15612fff577f4f0ebd40ebf17fb5f44478155c0280633653900a58f6e78baa63e9b746fed05160006040518080602001838152602001828103825260108152602001807f656e746572696e672070686173652031000000000000000000000000000000008152506020019250505060405180910390a160018081915080905091509150613081565b7f4f0ebd40ebf17fb5f44478155c0280633653900a58f6e78baa63e9b746fed05160016040518080602001838152602001828103825260108152602001807f656e746572696e672070686173652032000000000000000000000000000000008152506020019250505060405180910390a161307983611f1e565b600054915091505b915091565b600073ffffffffffffffffffffffffffffffffffffffff168273ffffffffffffffffffffffffffffffffffffffff16141561310c576040517f08c379a00000000000000000000000000000000000000000000000000000000081526004018080602001828103825260218152602001806136cc6021913960400191505060405180910390fd5b6131788160405180606001604052806022815260200161361960229139600260008673ffffffffffffffffffffffffffffffffffffffff1673ffffffffffffffffffffffffffffffffffffffff16815260200190815260200160002054612cff9092919063ffffffff16565b600260008473ffffffffffffffffffffffffffffffffffffffff1673ffffffffffffffffffffffffffffffffffffffff168152602001908152602001600020819055506131d081600054612e8f90919063ffffffff16565b600081905550600073ffffffffffffffffffffffffffffffffffffffff168273ffffffffffffffffffffffffffffffffffffffff167fddf252ad1be2c89b69c2b068fc378daa952ba7f163c4a11628f55a4df523b3ef836040518082815260200191505060405180910390a35050565b600080600061324f6001612f61565b91509150600061327a8361326c8488612dbf90919063ffffffff16565b612e4590919063ffffffff16565b90507f4f0ebd40ebf17fb5f44478155c0280633653900a58f6e78baa63e9b746fed0518560405180806020018381526020018281038252600f8152602001807f686f774d7563684c505374616b656400000000000000000000000000000000008152506020019250505060405180910390a17f4f0ebd40ebf17fb5f44478155c0280633653900a58f6e78baa63e9b746fed0518160405180806020018381526020018281038252600e8152602001807f746f6b656e7332624973737565640000000000000000000000000000000000008152506020019250505060405180910390a16133668682613438565b80935050505092915050565b6000808311829061341e576040517f08c379a00000000000000000000000000000000000000000000000000000000081526004018080602001828103825283818151815260200191508051906020019080838360005b838110156133e35780820151818401526020810190506133c8565b50505050905090810190601f1680156134105780820380516001836020036101000a031916815260200191505b509250505060405180910390fd5b50600083858161342a57fe5b049050809150509392505050565b600073ffffffffffffffffffffffffffffffffffffffff168273ffffffffffffffffffffffffffffffffffffffff1614156134db576040517f08c379a000000000000000000000000000000000000000000000000000000000815260040180806020018281038252601f8152602001807f45524332303a206d696e7420746f20746865207a65726f20616464726573730081525060200191505060405180910390fd5b6134f081600054612ed990919063ffffffff16565b60008190555061354881600260008573ffffffffffffffffffffffffffffffffffffffff1673ffffffffffffffffffffffffffffffffffffffff16815260200190815260200160002054612ed990919063ffffffff16565b600260008473ffffffffffffffffffffffffffffffffffffffff1673ffffffffffffffffffffffffffffffffffffffff168152602001908152602001600020819055508173ffffffffffffffffffffffffffffffffffffffff16600073ffffffffffffffffffffffffffffffffffffffff167fddf252ad1be2c89b69c2b068fc378daa952ba7f163c4a11628f55a4df523b3ef836040518082815260200191505060405180910390a3505056fe45524332303a207472616e7366657220746f20746865207a65726f206164647265737345524332303a206275726e20616d6f756e7420657863656564732062616c616e636545524332303a20617070726f766520746f20746865207a65726f206164647265737345524332303a207472616e7366657220616d6f756e7420657863656564732062616c616e6365536166654d6174683a206d756c7469706c69636174696f6e206f766572666c6f7745524332303a207472616e7366657220616d6f756e74206578636565647320616c6c6f77616e636545524332303a206275726e2066726f6d20746865207a65726f206164647265737345524332303a207472616e736665722066726f6d20746865207a65726f206164647265737345524332303a20617070726f76652066726f6d20746865207a65726f2061646472657373a265627a7a723158209676119f9e964562f81711c205c33861510948bbd3d364d7ab548d71921acfb064736f6c634300050d0032",
  "compiler": {
    "name": "solc",
    "version": "0.5.13+commit.5b0b510c.Emscripten.clang",
    "optimizer": {
      "enabled": false,
      "runs": 500
    },
    "evmVersion": "petersburg"
  }
}