{
  "contractName": "LPTokenWrapper",
  "abi": [
    {
      "constant": true,
      "inputs": [],
      "name": "uni",
      "outputs": [
        {
          "internalType": "contract IERC20",
          "name": "",
          "type": "address"
        }
      ],
      "payable": false,
      "stateMutability": "view",
      "type": "function"
    },
    {
      "constant": true,
      "inputs": [],
      "name": "totalSupply",
      "outputs": [
        {
          "internalType": "uint256",
          "name": "",
          "type": "uint256"
        }
      ],
      "payable": false,
      "stateMutability": "view",
      "type": "function"
    },
    {
      "constant": true,
      "inputs": [
        {
          "internalType": "address",
          "name": "account",
          "type": "address"
        }
      ],
      "name": "balanceOf",
      "outputs": [
        {
          "internalType": "uint256",
          "name": "",
          "type": "uint256"
        }
      ],
      "payable": false,
      "stateMutability": "view",
      "type": "function"
    },
    {
      "constant": false,
      "inputs": [
        {
          "internalType": "uint256",
          "name": "amount",
          "type": "uint256"
        }
      ],
      "name": "stake",
      "outputs": [],
      "payable": false,
      "stateMutability": "nonpayable",
      "type": "function"
    },
    {
      "constant": false,
      "inputs": [
        {
          "internalType": "uint256",
          "name": "amount",
          "type": "uint256"
        }
      ],
      "name": "withdraw",
      "outputs": [],
      "payable": false,
      "stateMutability": "nonpayable",
      "type": "function"
    }
  ],
  "bytecode": "0x6080604052600080546001600160a01b03191673e9cf7887b93150d4f2da7dfc6d502b216438f24417905534801561003657600080fd5b50610404806100466000396000f3fe608060405234801561001057600080fd5b50600436106100575760003560e01c806318160ddd1461005c5780632e1a7d4d1461007657806370a0823114610095578063a694fc3a146100bb578063edc9af95146100d8575b600080fd5b6100646100fc565b60408051918252519081900360200190f35b6100936004803603602081101561008c57600080fd5b5035610102565b005b610064600480360360208110156100ab57600080fd5b50356001600160a01b03166101cb565b610093600480360360208110156100d157600080fd5b50356101e6565b6100e0610286565b604080516001600160a01b039092168252519081900360200190f35b60015490565b600154610115908263ffffffff61029516565b60015533600090815260026020526040902054610138908263ffffffff61029516565b336000818152600260209081526040808320949094558154845163a9059cbb60e01b815260048101949094526024840186905293516001600160a01b039094169363a9059cbb93604480820194918390030190829087803b15801561019c57600080fd5b505af11580156101b0573d6000803e3d6000fd5b505050506040513d60208110156101c657600080fd5b505050565b6001600160a01b031660009081526002602052604090205490565b6001546101f9908263ffffffff6102de16565b6001553360009081526002602052604090205461021c908263ffffffff6102de16565b33600081815260026020908152604080832094909455815484516323b872dd60e01b815260048101949094523060248501526044840186905293516001600160a01b03909416936323b872dd93606480820194918390030190829087803b15801561019c57600080fd5b6000546001600160a01b031681565b60006102d783836040518060400160405280601e81526020017f536166654d6174683a207375627472616374696f6e206f766572666c6f770000815250610338565b9392505050565b6000828201838110156102d7576040805162461bcd60e51b815260206004820152601b60248201527f536166654d6174683a206164646974696f6e206f766572666c6f770000000000604482015290519081900360640190fd5b600081848411156103c75760405162461bcd60e51b81526004018080602001828103825283818151815260200191508051906020019080838360005b8381101561038c578181015183820152602001610374565b50505050905090810190601f1680156103b95780820380516001836020036101000a031916815260200191505b509250505060405180910390fd5b50505090039056fea265627a7a72315820c587ab13b691ad7985219837ffa659fe5091618c036733dc6f280c1a096b68df64736f6c634300050d0032",
  "source": "pragma solidity ^0.5.0;\r\n\r\nimport \"@openzeppelin/contracts/math/Math.sol\";\r\nimport \"@openzeppelin/contracts/math/SafeMath.sol\";\r\nimport \"@openzeppelin/contracts/ownership/Ownable.sol\";\r\nimport \"@openzeppelin/contracts/token/ERC20/SafeERC20.sol\";\r\nimport \"./IRewardDistributionRecipient.sol\";\r\n\r\ncontract LPTokenWrapper {\r\n    using SafeMath for uint256;\r\n\r\n    IERC20 public uni = IERC20(0xe9Cf7887b93150D4F2Da7dFc6D502B216438F244);\r\n\r\n    uint256 private _totalSupply;\r\n    mapping(address => uint256) private _balances;\r\n\r\n    function totalSupply() public view returns (uint256) {\r\n        return _totalSupply;\r\n    }\r\n\r\n    function balanceOf(address account) public view returns (uint256) {\r\n        return _balances[account];\r\n    }\r\n\r\n    function stake(uint256 amount) public {\r\n        _totalSupply = _totalSupply.add(amount);\r\n        _balances[msg.sender] = _balances[msg.sender].add(amount);\r\n        uni.transferFrom(msg.sender, address(this), amount);\r\n    }\r\n\r\n    function withdraw(uint256 amount) public {\r\n        _totalSupply = _totalSupply.sub(amount);\r\n        _balances[msg.sender] = _balances[msg.sender].sub(amount);\r\n        uni.transfer(msg.sender, amount);\r\n    }\r\n}\r\n\r\ncontract Unipool is LPTokenWrapper, IRewardDistributionRecipient {\r\n    IERC20 public snx = IERC20(0xC011a73ee8576Fb46F5E1c5751cA3B9Fe0af2a6F);\r\n\r\n    uint256 public periodFinish = 0;\r\n    uint256 public rewardRate = 0;\r\n    uint256 public lastUpdateTime;\r\n    uint256 public rewardPerTokenStored;\r\n    mapping(address => uint256) public userRewardPerTokenPaid;\r\n    mapping(address => uint256) public rewards;\r\n\r\n    event RewardAdded(uint256 reward, uint256 duration);\r\n    event Staked(address indexed user, uint256 amount);\r\n    event Withdrawn(address indexed user, uint256 amount);\r\n    event RewardPaid(address indexed user, uint256 reward);\r\n\r\n    modifier updateReward(address account) {\r\n        rewardPerTokenStored = rewardPerToken();\r\n        lastUpdateTime = lastTimeRewardApplicable();\r\n        if (account != address(0)) {\r\n            rewards[account] = earned(account);\r\n            userRewardPerTokenPaid[account] = rewardPerTokenStored;\r\n        }\r\n        _;\r\n    }\r\n\r\n    function lastTimeRewardApplicable() public view returns (uint256) {\r\n        return Math.min(block.timestamp, periodFinish);\r\n    }\r\n\r\n    function rewardPerToken() public view returns (uint256) {\r\n        if (totalSupply() == 0) {\r\n            return rewardPerTokenStored;\r\n        }\r\n        return\r\n            rewardPerTokenStored\r\n                .add(lastTimeRewardApplicable().sub(lastUpdateTime))\r\n                .mul(rewardRate)\r\n                .mul(1e18)\r\n                .div(totalSupply());\r\n    }\r\n\r\n    function earned(address account) public view returns (uint256) {\r\n        return\r\n            balanceOf(account)\r\n                .mul(rewardPerToken().sub(userRewardPerTokenPaid[account]))\r\n                .div(1e18)\r\n                .add(rewards[account]);\r\n    }\r\n\r\n    function stake(uint256 amount) public updateReward(msg.sender) {\r\n        super.stake(amount);\r\n        emit Staked(msg.sender, amount);\r\n    }\r\n\r\n    function withdraw(uint256 amount) public updateReward(msg.sender) {\r\n        super.withdraw(amount);\r\n        emit Withdrawn(msg.sender, amount);\r\n    }\r\n\r\n    function exit() public {\r\n        withdraw(balanceOf(msg.sender));\r\n        getReward();\r\n    }\r\n\r\n    function getReward() public updateReward(msg.sender) {\r\n        uint256 reward = earned(msg.sender);\r\n        if (reward > 0) {\r\n            rewards[msg.sender] = 0;\r\n            snx.transfer(msg.sender, reward);\r\n            emit RewardPaid(msg.sender, reward);\r\n        }\r\n    }\r\n\r\n    // Duration is the time diff from (now  - when snx rewards will be mintable again) to handle slippage in minting\r\n    function notifyRewardAmount(uint256 reward, uint256 duration)\r\n        external\r\n        onlyRewardDistribution\r\n        updateReward(address(0))\r\n    {\r\n        if (block.timestamp >= periodFinish) {\r\n            periodFinish = block.timestamp.add(duration);\r\n            rewardRate = reward.div(duration);\r\n            emit RewardAdded(reward, duration);\r\n        } else {\r\n            uint256 remaining = periodFinish.sub(block.timestamp);\r\n            uint256 leftover = remaining.mul(rewardRate);\r\n            periodFinish = block.timestamp.add(duration);\r\n            rewardRate = reward.add(leftover).div(duration);\r\n            emit RewardAdded(reward, duration);\r\n        }\r\n    }\r\n}\r\n",
  "sourcePath": "C:\\Users\\zonyc\\Dropbox\\GitHub\\Unipool\\contracts\\Unipool.sol",
  "compiler": {
    "name": "solc",
    "version": "0.5.13+commit.5b0b510c.Emscripten.clang"
  },
  "schemaVersion": "3.0.23",
  "updatedAt": "2020-03-11T04:06:22.548Z",
  "devdoc": {
    "methods": {}
  },
  "userdoc": {
    "methods": {}
  }
}