{
  "contractName": "Unipool",
  "abi": [
    {
      "anonymous": false,
      "inputs": [
        {
          "indexed": true,
          "internalType": "address",
          "name": "previousOwner",
          "type": "address"
        },
        {
          "indexed": true,
          "internalType": "address",
          "name": "newOwner",
          "type": "address"
        }
      ],
      "name": "OwnershipTransferred",
      "type": "event"
    },
    {
      "anonymous": false,
      "inputs": [
        {
          "indexed": false,
          "internalType": "uint256",
          "name": "reward",
          "type": "uint256"
        },
        {
          "indexed": false,
          "internalType": "uint256",
          "name": "duration",
          "type": "uint256"
        }
      ],
      "name": "RewardAdded",
      "type": "event"
    },
    {
      "anonymous": false,
      "inputs": [
        {
          "indexed": true,
          "internalType": "address",
          "name": "user",
          "type": "address"
        },
        {
          "indexed": false,
          "internalType": "uint256",
          "name": "reward",
          "type": "uint256"
        }
      ],
      "name": "RewardPaid",
      "type": "event"
    },
    {
      "anonymous": false,
      "inputs": [
        {
          "indexed": true,
          "internalType": "address",
          "name": "user",
          "type": "address"
        },
        {
          "indexed": false,
          "internalType": "uint256",
          "name": "amount",
          "type": "uint256"
        }
      ],
      "name": "Staked",
      "type": "event"
    },
    {
      "anonymous": false,
      "inputs": [
        {
          "indexed": true,
          "internalType": "address",
          "name": "user",
          "type": "address"
        },
        {
          "indexed": false,
          "internalType": "uint256",
          "name": "amount",
          "type": "uint256"
        }
      ],
      "name": "Withdrawn",
      "type": "event"
    },
    {
      "constant": true,
      "inputs": [
        {
          "internalType": "address",
          "name": "account",
          "type": "address"
        }
      ],
      "name": "balanceOf",
      "outputs": [
        {
          "internalType": "uint256",
          "name": "",
          "type": "uint256"
        }
      ],
      "payable": false,
      "stateMutability": "view",
      "type": "function"
    },
    {
      "constant": true,
      "inputs": [],
      "name": "isOwner",
      "outputs": [
        {
          "internalType": "bool",
          "name": "",
          "type": "bool"
        }
      ],
      "payable": false,
      "stateMutability": "view",
      "type": "function"
    },
    {
      "constant": true,
      "inputs": [],
      "name": "lastUpdateTime",
      "outputs": [
        {
          "internalType": "uint256",
          "name": "",
          "type": "uint256"
        }
      ],
      "payable": false,
      "stateMutability": "view",
      "type": "function"
    },
    {
      "constant": true,
      "inputs": [],
      "name": "owner",
      "outputs": [
        {
          "internalType": "address",
          "name": "",
          "type": "address"
        }
      ],
      "payable": false,
      "stateMutability": "view",
      "type": "function"
    },
    {
      "constant": true,
      "inputs": [],
      "name": "periodFinish",
      "outputs": [
        {
          "internalType": "uint256",
          "name": "",
          "type": "uint256"
        }
      ],
      "payable": false,
      "stateMutability": "view",
      "type": "function"
    },
    {
      "constant": false,
      "inputs": [],
      "name": "renounceOwnership",
      "outputs": [],
      "payable": false,
      "stateMutability": "nonpayable",
      "type": "function"
    },
    {
      "constant": true,
      "inputs": [],
      "name": "rewardPerTokenStored",
      "outputs": [
        {
          "internalType": "uint256",
          "name": "",
          "type": "uint256"
        }
      ],
      "payable": false,
      "stateMutability": "view",
      "type": "function"
    },
    {
      "constant": true,
      "inputs": [],
      "name": "rewardRate",
      "outputs": [
        {
          "internalType": "uint256",
          "name": "",
          "type": "uint256"
        }
      ],
      "payable": false,
      "stateMutability": "view",
      "type": "function"
    },
    {
      "constant": true,
      "inputs": [
        {
          "internalType": "address",
          "name": "",
          "type": "address"
        }
      ],
      "name": "rewards",
      "outputs": [
        {
          "internalType": "uint256",
          "name": "",
          "type": "uint256"
        }
      ],
      "payable": false,
      "stateMutability": "view",
      "type": "function"
    },
    {
      "constant": false,
      "inputs": [
        {
          "internalType": "address",
          "name": "_rewardDistribution",
          "type": "address"
        }
      ],
      "name": "setRewardDistribution",
      "outputs": [],
      "payable": false,
      "stateMutability": "nonpayable",
      "type": "function"
    },
    {
      "constant": true,
      "inputs": [],
      "name": "snx",
      "outputs": [
        {
          "internalType": "contract IERC20",
          "name": "",
          "type": "address"
        }
      ],
      "payable": false,
      "stateMutability": "view",
      "type": "function"
    },
    {
      "constant": true,
      "inputs": [],
      "name": "totalSupply",
      "outputs": [
        {
          "internalType": "uint256",
          "name": "",
          "type": "uint256"
        }
      ],
      "payable": false,
      "stateMutability": "view",
      "type": "function"
    },
    {
      "constant": false,
      "inputs": [
        {
          "internalType": "address",
          "name": "newOwner",
          "type": "address"
        }
      ],
      "name": "transferOwnership",
      "outputs": [],
      "payable": false,
      "stateMutability": "nonpayable",
      "type": "function"
    },
    {
      "constant": true,
      "inputs": [],
      "name": "uni",
      "outputs": [
        {
          "internalType": "contract IERC20",
          "name": "",
          "type": "address"
        }
      ],
      "payable": false,
      "stateMutability": "view",
      "type": "function"
    },
    {
      "constant": true,
      "inputs": [
        {
          "internalType": "address",
          "name": "",
          "type": "address"
        }
      ],
      "name": "userRewardPerTokenPaid",
      "outputs": [
        {
          "internalType": "uint256",
          "name": "",
          "type": "uint256"
        }
      ],
      "payable": false,
      "stateMutability": "view",
      "type": "function"
    },
    {
      "constant": true,
      "inputs": [],
      "name": "lastTimeRewardApplicable",
      "outputs": [
        {
          "internalType": "uint256",
          "name": "",
          "type": "uint256"
        }
      ],
      "payable": false,
      "stateMutability": "view",
      "type": "function"
    },
    {
      "constant": true,
      "inputs": [],
      "name": "rewardPerToken",
      "outputs": [
        {
          "internalType": "uint256",
          "name": "",
          "type": "uint256"
        }
      ],
      "payable": false,
      "stateMutability": "view",
      "type": "function"
    },
    {
      "constant": true,
      "inputs": [
        {
          "internalType": "address",
          "name": "account",
          "type": "address"
        }
      ],
      "name": "earned",
      "outputs": [
        {
          "internalType": "uint256",
          "name": "",
          "type": "uint256"
        }
      ],
      "payable": false,
      "stateMutability": "view",
      "type": "function"
    },
    {
      "constant": false,
      "inputs": [
        {
          "internalType": "uint256",
          "name": "amount",
          "type": "uint256"
        }
      ],
      "name": "stake",
      "outputs": [],
      "payable": false,
      "stateMutability": "nonpayable",
      "type": "function"
    },
    {
      "constant": false,
      "inputs": [
        {
          "internalType": "uint256",
          "name": "amount",
          "type": "uint256"
        }
      ],
      "name": "withdraw",
      "outputs": [],
      "payable": false,
      "stateMutability": "nonpayable",
      "type": "function"
    },
    {
      "constant": false,
      "inputs": [],
      "name": "exit",
      "outputs": [],
      "payable": false,
      "stateMutability": "nonpayable",
      "type": "function"
    },
    {
      "constant": false,
      "inputs": [],
      "name": "getReward",
      "outputs": [],
      "payable": false,
      "stateMutability": "nonpayable",
      "type": "function"
    },
    {
      "constant": false,
      "inputs": [
        {
          "internalType": "uint256",
          "name": "reward",
          "type": "uint256"
        },
        {
          "internalType": "uint256",
          "name": "duration",
          "type": "uint256"
        }
      ],
      "name": "notifyRewardAmount",
      "outputs": [],
      "payable": false,
      "stateMutability": "nonpayable",
      "type": "function"
    }
  ],
  "bytecode": "0x6080604052600080546001600160a01b031990811673e9cf7887b93150d4f2da7dfc6d502b216438f2441782556005805490911673c011a73ee8576fb46f5e1c5751ca3b9fe0af2a6f179055600681905560078190556100666001600160e01b036100b916565b600380546001600160a01b0319166001600160a01b038316908117909155604051919250906000907f8be0079c531659141344cd1fd0a4f28419497f9722a3daafe3b4186f6b6457e0908290a3506100bd565b3390565b6111a3806100cc6000396000f3fe608060405234801561001057600080fd5b506004361061017c5760003560e01c80638b876347116100e3578063df136d651161008c578063ebe2b12b11610066578063ebe2b12b14610340578063edc9af9514610348578063f2fde38b146103505761017c565b8063df136d6514610328578063e7d2799814610330578063e9fad8ee146103385761017c565b8063a694fc3a116100bd578063a694fc3a146102fb578063c8f33c9114610318578063cd3daf9d146103205761017c565b80638b876347146102955780638da5cb5b146102bb5780638f32d59b146102df5761017c565b80632e1a7d4d11610145578063715018a61161011f578063715018a61461027d5780637b0a47ee1461028557806380faa57d1461028d5761017c565b80632e1a7d4d146102325780633d18b9121461024f57806370a08231146102575761017c565b80628cc262146101815780630700037d146101b95780630d68b761146101df57806318160ddd14610207578063246132f91461020f575b600080fd5b6101a76004803603602081101561019757600080fd5b50356001600160a01b0316610376565b60408051918252519081900360200190f35b6101a7600480360360208110156101cf57600080fd5b50356001600160a01b03166103fc565b610205600480360360208110156101f557600080fd5b50356001600160a01b031661040e565b005b6101a7610489565b6102056004803603604081101561022557600080fd5b5080359060200135610490565b6102056004803603602081101561024857600080fd5b5035610652565b6102056106f0565b6101a76004803603602081101561026d57600080fd5b50356001600160a01b03166107c2565b6102056107dd565b6101a7610880565b6101a7610886565b6101a7600480360360208110156102ab57600080fd5b50356001600160a01b0316610899565b6102c36108ab565b604080516001600160a01b039092168252519081900360200190f35b6102e76108ba565b604080519115158252519081900360200190f35b6102056004803603602081101561031157600080fd5b50356108e0565b6101a761097e565b6101a7610984565b6101a76109d8565b6102c36109de565b6102056109ed565b6101a7610a08565b6102c3610a0e565b6102056004803603602081101561036657600080fd5b50356001600160a01b0316610a1d565b6001600160a01b0381166000908152600b6020908152604080832054600a9092528220546103f691906103ea90670de0b6b3a7640000906103de906103c9906103bd610984565b9063ffffffff610a8216565b6103d2886107c2565b9063ffffffff610acb16565b9063ffffffff610b2416565b9063ffffffff610b6616565b92915050565b600b6020526000908152604090205481565b6104166108ba565b610467576040805162461bcd60e51b815260206004820181905260248201527f4f776e61626c653a2063616c6c6572206973206e6f7420746865206f776e6572604482015290519081900360640190fd5b600480546001600160a01b0319166001600160a01b0392909216919091179055565b6001545b90565b6004546001600160a01b03166104a4610bc0565b6001600160a01b0316146104e95760405162461bcd60e51b81526004018080602001828103825260218152602001806111246021913960400191505060405180910390fd5b60006104f3610984565b6009556104fe610886565b6008556001600160a01b038116156105455761051981610376565b6001600160a01b0382166000908152600b6020908152604080832093909355600954600a909152919020555b60065442106105b45761055e428363ffffffff610b6616565b600655610571838363ffffffff610b2416565b600755604080518481526020810184905281517f6c07ee05dcf262f13abf9d87b846ee789d2f90fe991d495acd7d7fc109ee1f55929181900390910190a161064d565b6006546000906105ca904263ffffffff610a8216565b905060006105e360075483610acb90919063ffffffff16565b90506105f5428563ffffffff610b6616565b60065561060c846103de878463ffffffff610b6616565b600755604080518681526020810186905281517f6c07ee05dcf262f13abf9d87b846ee789d2f90fe991d495acd7d7fc109ee1f55929181900390910190a150505b505050565b3361065b610984565b600955610666610886565b6008556001600160a01b038116156106ad5761068181610376565b6001600160a01b0382166000908152600b6020908152604080832093909355600954600a909152919020555b6106b682610bc4565b60408051838152905133917f7084f5476618d8e60b11ef0d7d3f06914655adb8793e28ff7f018d4c76d505d5919081900360200190a25050565b336106f9610984565b600955610704610886565b6008556001600160a01b0381161561074b5761071f81610376565b6001600160a01b0382166000908152600b6020908152604080832093909355600954600a909152919020555b600061075633610376565b905080156107be57336000818152600b6020526040812055600554610787916001600160a01b039091169083610c21565b60408051828152905133917fe2403640ba68fed3a2f88b7557551d1993f84b99bb10ff833f0cf8db0c5e0486919081900360200190a25b5050565b6001600160a01b031660009081526002602052604090205490565b6107e56108ba565b610836576040805162461bcd60e51b815260206004820181905260248201527f4f776e61626c653a2063616c6c6572206973206e6f7420746865206f776e6572604482015290519081900360640190fd5b6003546040516000916001600160a01b0316907f8be0079c531659141344cd1fd0a4f28419497f9722a3daafe3b4186f6b6457e0908390a3600380546001600160a01b0319169055565b60075481565b600061089442600654610c73565b905090565b600a6020526000908152604090205481565b6003546001600160a01b031690565b6003546000906001600160a01b03166108d1610bc0565b6001600160a01b031614905090565b336108e9610984565b6009556108f4610886565b6008556001600160a01b0381161561093b5761090f81610376565b6001600160a01b0382166000908152600b6020908152604080832093909355600954600a909152919020555b61094482610c89565b60408051838152905133917f9e71bc8eea02a63969f509818f2dafb9254532904319f9dbda79b67bd34a5f3d919081900360200190a25050565b60085481565b600061098e610489565b61099b575060095461048d565b6108946109a6610489565b6103de670de0b6b3a76400006103d26007546103d26109c96008546103bd610886565b6009549063ffffffff610b6616565b60095481565b6005546001600160a01b031681565b6109fe6109f9336107c2565b610652565b610a066106f0565b565b60065481565b6000546001600160a01b031681565b610a256108ba565b610a76576040805162461bcd60e51b815260206004820181905260248201527f4f776e61626c653a2063616c6c6572206973206e6f7420746865206f776e6572604482015290519081900360640190fd5b610a7f81610ceb565b50565b6000610ac483836040518060400160405280601e81526020017f536166654d6174683a207375627472616374696f6e206f766572666c6f770000815250610d8c565b9392505050565b600082610ada575060006103f6565b82820282848281610ae757fe5b0414610ac45760405162461bcd60e51b81526004018080602001828103825260218152602001806111036021913960400191505060405180910390fd5b6000610ac483836040518060400160405280601a81526020017f536166654d6174683a206469766973696f6e206279207a65726f000000000000815250610e23565b600082820183811015610ac4576040805162461bcd60e51b815260206004820152601b60248201527f536166654d6174683a206164646974696f6e206f766572666c6f770000000000604482015290519081900360640190fd5b3390565b600154610bd7908263ffffffff610a8216565b60015533600090815260026020526040902054610bfa908263ffffffff610a8216565b336000818152600260205260408120929092559054610a7f916001600160a01b0390911690835b604080516001600160a01b038416602482015260448082018490528251808303909101815260649091019091526020810180516001600160e01b031663a9059cbb60e01b17905261064d908490610e88565b6000818310610c825781610ac4565b5090919050565b600154610c9c908263ffffffff610b6616565b60015533600090815260026020526040902054610cbf908263ffffffff610b6616565b336000818152600260205260408120929092559054610a7f916001600160a01b03909116903084611046565b6001600160a01b038116610d305760405162461bcd60e51b81526004018080602001828103825260268152602001806110dd6026913960400191505060405180910390fd5b6003546040516001600160a01b038084169216907f8be0079c531659141344cd1fd0a4f28419497f9722a3daafe3b4186f6b6457e090600090a3600380546001600160a01b0319166001600160a01b0392909216919091179055565b60008184841115610e1b5760405162461bcd60e51b81526004018080602001828103825283818151815260200191508051906020019080838360005b83811015610de0578181015183820152602001610dc8565b50505050905090810190601f168015610e0d5780820380516001836020036101000a031916815260200191505b509250505060405180910390fd5b505050900390565b60008183610e725760405162461bcd60e51b8152602060048201818152835160248401528351909283926044909101919085019080838360008315610de0578181015183820152602001610dc8565b506000838581610e7e57fe5b0495945050505050565b610e9a826001600160a01b03166110a0565b610eeb576040805162461bcd60e51b815260206004820152601f60248201527f5361666545524332303a2063616c6c20746f206e6f6e2d636f6e747261637400604482015290519081900360640190fd5b60006060836001600160a01b0316836040518082805190602001908083835b60208310610f295780518252601f199092019160209182019101610f0a565b6001836020036101000a0380198251168184511680821785525050505050509050019150506000604051808303816000865af19150503d8060008114610f8b576040519150601f19603f3d011682016040523d82523d6000602084013e610f90565b606091505b509150915081610fe7576040805162461bcd60e51b815260206004820181905260248201527f5361666545524332303a206c6f772d6c6576656c2063616c6c206661696c6564604482015290519081900360640190fd5b8051156110405780806020019051602081101561100357600080fd5b50516110405760405162461bcd60e51b815260040180806020018281038252602a815260200180611145602a913960400191505060405180910390fd5b50505050565b604080516001600160a01b0385811660248301528416604482015260648082018490528251808303909101815260849091019091526020810180516001600160e01b03166323b872dd60e01b179052611040908590610e88565b6000813f7fc5d2460186f7233c927e7db2dcc703c0e500b653ca82273b7bfad8045d85a4708181148015906110d457508115155b94935050505056fe4f776e61626c653a206e6577206f776e657220697320746865207a65726f2061646472657373536166654d6174683a206d756c7469706c69636174696f6e206f766572666c6f7743616c6c6572206973206e6f742072657761726420646973747269627574696f6e5361666545524332303a204552433230206f7065726174696f6e20646964206e6f742073756363656564a265627a7a723158209020e20fb36ee624d3ff5bd5d89e73cb3e72d50d2dfd6072bdf56d8c76e9a32064736f6c634300050d0032",
  "source": "pragma solidity ^0.5.0;\n\nimport \"@openzeppelin/contracts/math/Math.sol\";\nimport \"@openzeppelin/contracts/math/SafeMath.sol\";\n// import \"@openzeppelin/contracts/ownership/Ownable.sol\";\nimport \"@openzeppelin/contracts/token/ERC20/SafeERC20.sol\";\nimport \"./IRewardDistributionRecipient.sol\";\n\ncontract LPTokenWrapper {\n    using SafeMath for uint256;\n    using SafeERC20 for IERC20;\n\n    IERC20 public uni = IERC20(0xe9Cf7887b93150D4F2Da7dFc6D502B216438F244);\n\n    uint256 private _totalSupply;\n    mapping(address => uint256) private _balances;\n\n    function totalSupply() public view returns (uint256) {\n        return _totalSupply;\n    }\n\n    function balanceOf(address account) public view returns (uint256) {\n        return _balances[account];\n    }\n\n    function stake(uint256 amount) public {\n        _totalSupply = _totalSupply.add(amount);\n        _balances[msg.sender] = _balances[msg.sender].add(amount);\n        uni.safeTransferFrom(msg.sender, address(this), amount);\n    }\n\n    function withdraw(uint256 amount) public {\n        _totalSupply = _totalSupply.sub(amount);\n        _balances[msg.sender] = _balances[msg.sender].sub(amount);\n        uni.safeTransfer(msg.sender, amount);\n    }\n}\n\ncontract Unipool is LPTokenWrapper, IRewardDistributionRecipient {\n    IERC20 public snx = IERC20(0xC011a73ee8576Fb46F5E1c5751cA3B9Fe0af2a6F);\n\n    uint256 public periodFinish = 0;\n    uint256 public rewardRate = 0;\n    uint256 public lastUpdateTime;\n    uint256 public rewardPerTokenStored;\n    mapping(address => uint256) public userRewardPerTokenPaid;\n    mapping(address => uint256) public rewards;\n\n    event RewardAdded(uint256 reward, uint256 duration);\n    event Staked(address indexed user, uint256 amount);\n    event Withdrawn(address indexed user, uint256 amount);\n    event RewardPaid(address indexed user, uint256 reward);\n\n    modifier updateReward(address account) {\n        rewardPerTokenStored = rewardPerToken();\n        lastUpdateTime = lastTimeRewardApplicable();\n        if (account != address(0)) {\n            rewards[account] = earned(account);\n            userRewardPerTokenPaid[account] = rewardPerTokenStored;\n        }\n        _;\n    }\n\n    function lastTimeRewardApplicable() public view returns (uint256) {\n        return Math.min(block.timestamp, periodFinish);\n    }\n\n    function rewardPerToken() public view returns (uint256) {\n        if (totalSupply() == 0) {\n            return rewardPerTokenStored;\n        }\n        return\n            rewardPerTokenStored\n                .add(lastTimeRewardApplicable().sub(lastUpdateTime))\n                .mul(rewardRate)\n                .mul(1e18)\n                .div(totalSupply());\n    }\n\n    function earned(address account) public view returns (uint256) {\n        return\n            balanceOf(account)\n                .mul(rewardPerToken().sub(userRewardPerTokenPaid[account]))\n                .div(1e18)\n                .add(rewards[account]);\n    }\n\n    function stake(uint256 amount) public updateReward(msg.sender) {\n        super.stake(amount);\n        emit Staked(msg.sender, amount);\n    }\n\n    function withdraw(uint256 amount) public updateReward(msg.sender) {\n        super.withdraw(amount);\n        emit Withdrawn(msg.sender, amount);\n    }\n\n    function exit() public {\n        withdraw(balanceOf(msg.sender));\n        getReward();\n    }\n\n    function getReward() public updateReward(msg.sender) {\n        uint256 reward = earned(msg.sender);\n        if (reward > 0) {\n            rewards[msg.sender] = 0;\n            snx.safeTransfer(msg.sender, reward);\n            emit RewardPaid(msg.sender, reward);\n        }\n    }\n\n    // Duration is the time diff from (now  - when snx rewards will be mintable again) to handle slippage in minting\n    function notifyRewardAmount(uint256 reward, uint256 duration)\n        external\n        onlyRewardDistribution\n        updateReward(address(0))\n    {\n        if (block.timestamp >= periodFinish) {\n            periodFinish = block.timestamp.add(duration);\n            rewardRate = reward.div(duration);\n            emit RewardAdded(reward, duration);\n        } else {\n            uint256 remaining = periodFinish.sub(block.timestamp);\n            uint256 leftover = remaining.mul(rewardRate);\n            periodFinish = block.timestamp.add(duration);\n            rewardRate = reward.add(leftover).div(duration);\n            emit RewardAdded(reward, duration);\n        }\n    }\n}\n",
  "sourcePath": "contracts/Unipool.sol",
  "compiler": {
    "name": "solc",
    "version": "0.5.13+commit.5b0b510c.Emscripten.clang"
  },
  "schemaVersion": "3.0.23",
  "updatedAt": "2020-03-02T15:00:37.861Z",
  "devdoc": {
    "methods": {
      "isOwner()": {
        "details": "Returns true if the caller is the current owner."
      },
      "owner()": {
        "details": "Returns the address of the current owner."
      },
      "renounceOwnership()": {
        "details": "Leaves the contract without owner. It will not be possible to call `onlyOwner` functions anymore. Can only be called by the current owner.     * NOTE: Renouncing ownership will leave the contract without an owner, thereby removing any functionality that is only available to the owner."
      },
      "transferOwnership(address)": {
        "details": "Transfers ownership of the contract to a new account (`newOwner`). Can only be called by the current owner."
      }
    }
  },
  "userdoc": {
    "methods": {}
  }
}