{
  "fileName": "zUniPool.sol",
  "contractName": "zUniPool",
  "source": "pragma solidity ^0.5.0;\n\nimport \"./Unipool.sol\";\nimport \"./iUniswapExchangeContract.sol\";\n\ncontract zUniPool is Ownable {\n    using SafeMath for uint256;\n    using SafeERC20 for IERC20;\n\n    // --- ERC20 Data ---\n    string public constant name = \"zUNIT\";\n    string public constant symbol = \"zUNIT\";\n    string public constant version = \"1\";\n    uint8 public constant decimals = 18;\n    uint256 public totalSupply;\n\n    /**\n     - Need to check impact of Uniswap V2,  will we need to deploy a v2 or new version of DZSLT\n     due to changes in sETH_LP_TokenAddress and potentially a new version of SNXUniswapTokenAddress?\n    */\n    address public constant UnipoolAddress = 0x48D7f315feDcaD332F68aafa017c7C158BC54760;\n    IERC20 public constant sETHTokenAddress = IERC20(\n        0x5e74C9036fb86BD7eCdcb084a0673EFc32eA31cb\n    );\n    IERC20 public constant sETH_LP_TokenAddress = IERC20(\n        0xe9Cf7887b93150D4F2Da7dFc6D502B216438F244\n    );\n    IERC20 public constant SNXTokenAddress = IERC20(\n        0xC011a73ee8576Fb46F5E1c5751cA3B9Fe0af2a6F\n    );\n    IERC20 public constant SNXUniSwapTokenAddress = IERC20(\n        0x3958B4eC427F8fa24eB60F42821760e88d485f7F\n    );\n\n    uint256 public totalLPTokensStaked;\n\n    bool public stopped;\n\n    mapping(address => uint256) public balanceOf;\n    mapping(address => mapping(address => uint256)) public allowance;\n    mapping(address => bool) public allowedAddress;\n\n    // events\n    event LPTokensStaked(address indexed staker, uint256 qtyStaked);\n    event LPTokensWithdrawn(address indexed leaver, uint256 qtyWithdrawn);\n    event Approval(address indexed src, address indexed guy, uint256 wad);\n    event Transfer(address indexed src, address indexed dst, uint256 wad);\n \n    // testing events\n    event internall(string, uint256);\n\n    modifier stopInEmergency {\n        if (stopped) {\n            revert(\"Temporarily Paused\");\n        } else {\n            _;\n        }\n    }\n\n    modifier allowedToStake {\n        require(allowedAddress[msg.sender], \"you are not allowed to stake through this contract\");\n        _;\n    }\n\n    function allowTheAddress(address _permittedAccount) public onlyOwner {\n        allowedAddress[_permittedAccount] = true;\n    }\n\n    function removeTheAddress(address _removalAccount) public onlyOwner {\n        require(balanceOf[_removalAccount] == 0, \"this address still holds some tokens and cannot be removed\");\n        allowedAddress[_removalAccount] = false;\n    }\n\n    constructor() public {\n        approve_Addresses();\n        stopped = false;\n    }\n\n    function approve_Addresses() public {\n        sETH_LP_TokenAddress.approve(UnipoolAddress, ((2**256) - 1));\n        SNXTokenAddress.approve(\n            address(SNXUniSwapTokenAddress),\n            ((2**256) - 1)\n        );\n        sETHTokenAddress.approve(address(sETH_LP_TokenAddress), ((2**256) - 1));\n    }\n\n    // reader functions\n\n    function howMuchHasThisContractStaked()\n        public\n        view\n        returns (uint256 LPTokens)\n    {\n        return Unipool(UnipoolAddress).balanceOf(address(this));\n    }\n\n    function howMuchHasThisContractEarned()\n        public\n        view\n        returns (uint256 SNXEarned)\n    {\n        return Unipool(UnipoolAddress).earned(address(this));\n    }\n\n    /**\n     * @dev Returs the amount of LP redemeemable / to be staked for a given quantity of zUNI\n     */\n    function howMuchIszUNIWorth(uint256 _zUNIinWEI)\n        external\n        view\n        returns (uint256)\n    {\n        if (totalSupply > 0) {\n            if (\n                Unipool(UnipoolAddress).earned(address(this)) > 0.000005 ether\n            ) {\n                uint256 eth4SNX = min_eth(\n                    (Unipool(UnipoolAddress).earned(address(this))),\n                    address(SNXUniSwapTokenAddress)\n                );\n                uint256 maxTokens = getMaxTokens(\n                    address(sETH_LP_TokenAddress),\n                    sETHTokenAddress,\n                    ((eth4SNX).mul(4985)).div(10000)\n                );\n                uint256 notinalLP = totalLPTokensStaked.add(maxTokens);\n                return (((_zUNIinWEI).mul(notinalLP)).div(totalSupply));\n            } else {\n                return (\n                    ((_zUNIinWEI).mul(totalLPTokensStaked)).div(totalSupply)\n                );\n            }\n        } else {\n            return (1);\n        }\n\n    }\n\n    // action functions\n    function stakeMyShare(uint256 _LPTokenUints) public allowedToStake stopInEmergency returns (uint256) {\n        // transfer to this address\n        sETH_LP_TokenAddress.transferFrom(\n            msg.sender,\n            address(this),\n            _LPTokenUints\n        );\n\n        uint256 tokens = issueTokens(msg.sender, _LPTokenUints);\n        emit internall(\"tokens\", tokens);\n\n        Unipool(UnipoolAddress).stake(_LPTokenUints);\n\n        totalLPTokensStaked = totalLPTokensStaked.add(_LPTokenUints);\n        return (tokens);\n    }\n\n    function issueTokens(address toWhom, uint256 howMuchLPStaked)\n        internal\n        returns (uint256 tokensIssued)\n    {\n        (uint256 totalLPs, uint256 totalzUNIs) = getDetails(true);\n        uint256 tokens2bIssued = (howMuchLPStaked.mul(totalzUNIs)).div(\n            totalLPs\n        );\n        emit internall(\"howMuchLPStaked\", howMuchLPStaked);\n        emit internall(\"tokens2bIssued\", tokens2bIssued);\n        mint(toWhom, tokens2bIssued);\n        return tokens2bIssued;\n    }\n\n    function getDetails(bool enter)\n        internal\n        returns (uint256 totalLPs, uint256 totalzUNIs)\n    {\n        if (totalSupply == 0) {\n            emit internall(\"entering phase 1\", 0);\n            return (1, 1);\n        } else {\n            emit internall(\"entering phase 2\", 1);\n            return (reBalance(enter), totalSupply);\n        }\n    }\n\n    function reBalance(bool enter) public returns (uint256 LPTokenWealth) {\n        /* @dev: it does not make economical sense to claim reward if the SNX \n        / earned is less than 0.000005; considering the price of SNX at the time \n        / of writing this contract\n        */\n\n        if (howMuchHasThisContractEarned() > 0.000005 ether) {\n            emit internall(\n                \"Earnings more than the threshold\",\n                howMuchHasThisContractEarned()\n            );\n            Unipool(UnipoolAddress).getReward();\n            uint256 SNXInHandHoldings = SNXTokenAddress.balanceOf(\n                address(this)\n            );\n            emit internall(\"Claiming Reward\", SNXInHandHoldings);\n            uint256 LPJustReceived = convertSNXtoLP(SNXInHandHoldings);\n            emit internall(\"LPJustReceived\", LPJustReceived);\n            if (enter) {\n                Unipool(UnipoolAddress).stake(LPJustReceived);\n                totalLPTokensStaked = totalLPTokensStaked.add(LPJustReceived);\n                emit internall(\"totalLPTokensStaked\", totalLPTokensStaked);\n                return (totalLPTokensStaked);\n            } else {\n                return (totalLPTokensStaked.add(LPJustReceived));\n            }\n\n        } else {\n            return (totalLPTokensStaked);\n        }\n    }\n\n    function convertSNXtoLP(uint256 SNXQty)\n        internal\n        returns (uint256 LPReceived)\n    {\n        uint256 SNX2BcETH = SafeMath.mul(SNXQty, 4985).div(10000);\n        uint256 SNX2BcSETH = SafeMath.sub(SNXQty, SNX2BcETH);\n\n        uint256 ETHfromSNX = UniswapExchangeInterface(\n            address(SNXUniSwapTokenAddress)\n        )\n            .tokenToEthSwapInput(\n            SNX2BcETH,\n            (\n                (\n                    min_eth(SNX2BcETH, address(SNXUniSwapTokenAddress))\n                        .mul(995)\n                        .div(1000)\n                )\n            ),\n            now.add(300)\n        );\n\n        // converting a portion of the SNX to sETH for the purpose of adding liquidity\n        UniswapExchangeInterface(address(SNXUniSwapTokenAddress))\n            .tokenToTokenSwapInput(\n            SNX2BcSETH,\n            min_tokens(\n                (min_eth(SNX2BcSETH, address(SNXUniSwapTokenAddress)).mul(995))\n                    .div(1000),\n                address(sETH_LP_TokenAddress)\n            ),\n            (\n                min_eth(SNX2BcSETH, address(SNXUniSwapTokenAddress))\n                    .mul(995)\n                    .div(1000)\n            ),\n            now.add(300),\n            address(sETHTokenAddress)\n        );\n\n        // adding liquidity\n        uint256 LPU = UniswapExchangeInterface(address(sETH_LP_TokenAddress))\n            .addLiquidity\n            .value(ETHfromSNX)(\n            1,\n            getMaxTokens(\n                address(sETH_LP_TokenAddress),\n                sETHTokenAddress,\n                ETHfromSNX\n            ),\n            now.add(300)\n        );\n\n        // converting the balance sETH to SNX\n\n        UniswapExchangeInterface(address(sETH_LP_TokenAddress))\n            .tokenToTokenSwapInput(\n            (sETHTokenAddress.balanceOf(address(this))),\n            min_tokens(\n                (\n                    min_eth(\n                        (sETHTokenAddress.balanceOf(address(this))),\n                        address(sETH_LP_TokenAddress)\n                    )\n                        .mul(995)\n                        .div(1000)\n                ),\n                address(SNXUniSwapTokenAddress)\n            ),\n            (\n                min_eth(\n                    (sETHTokenAddress.balanceOf(address(this))),\n                    address(sETH_LP_TokenAddress)\n                )\n                    .mul(995)\n                    .div(1000)\n            ),\n            now.add(300),\n            address(SNXTokenAddress)\n        );\n\n        return LPU;\n    }\n\n    function getMaxTokens(address uniExchAdd, IERC20 ERC20Add, uint256 value)\n        internal\n        view\n        returns (uint256)\n    {\n        uint256 contractBalance = address(uniExchAdd).balance;\n        uint256 eth_reserve = SafeMath.sub(contractBalance, value);\n        uint256 token_reserve = ERC20Add.balanceOf(uniExchAdd);\n        uint256 token_amount = SafeMath.div(\n            SafeMath.mul(value, token_reserve),\n            eth_reserve\n        ) +\n            1;\n        return token_amount;\n    }\n\n    function min_eth(uint256 tokenQTY, address uniExchAdd)\n        internal\n        view\n        returns (uint256)\n    {\n        return\n            UniswapExchangeInterface(uniExchAdd).getTokenToEthInputPrice(\n                tokenQTY\n            );\n    }\n\n    function min_tokens(uint256 ethAmt, address uniExchAdd)\n        internal\n        view\n        returns (uint256)\n    {\n        return\n            UniswapExchangeInterface(uniExchAdd).getEthToTokenInputPrice(\n                ethAmt\n            );\n    }\n\n    function getMyStakeOut(uint256 _tokenQTY)\n        public stopInEmergency\n        returns (uint256 LPTokensReleased)\n    {\n        require(balanceOf[msg.sender] >= _tokenQTY, \"Withdrawing qty invalid\");\n        (uint256 totalLPs, uint256 totalzUNIs) = getDetails(false);\n        uint256 LPs2bRedemeed = (_tokenQTY.mul(totalLPs)).div(totalzUNIs);\n        uint256 LPsInHand = sETH_LP_TokenAddress.balanceOf(address(this));\n        if (LPs2bRedemeed > LPsInHand) {\n            uint256 LPsShortOf = LPs2bRedemeed.sub(LPsInHand);\n            Unipool(UnipoolAddress).withdraw(LPsShortOf);\n            sETH_LP_TokenAddress.transfer(msg.sender, LPs2bRedemeed);\n            totalLPTokensStaked = totalLPTokensStaked.sub(LPs2bRedemeed);\n        } else {\n            sETH_LP_TokenAddress.transfer(msg.sender, LPs2bRedemeed);\n            uint256 leftOverLPs = sETH_LP_TokenAddress.balanceOf(address(this));\n            if (leftOverLPs > 0) {\n                Unipool(UnipoolAddress).stake(leftOverLPs);\n                totalLPTokensStaked = totalLPTokensStaked.add(leftOverLPs);\n            }\n        }\n        burn(msg.sender, _tokenQTY);\n        return (LPs2bRedemeed);\n    }\n\n    function mint(address account, uint256 amount) internal {\n        require(account != address(0), \"ERC20: mint to the zero address\");\n        // _beforeTokenTransfer(address(0), account, amount);\n        totalSupply = totalSupply.add(amount);\n        balanceOf[account] = balanceOf[account].add(amount);\n        emit Transfer(address(0), account, amount);\n    }\n\n    function burn(address account, uint256 amount) internal {\n        require(account != address(0), \"ERC20: burn from the zero address\");\n        // _beforeTokenTransfer(account, address(0), amount);\n        balanceOf[account] = balanceOf[account].sub(\n            amount,\n            \"ERC20: burn amount exceeds balance\"\n        );\n        totalSupply = totalSupply.sub(amount);\n        emit Transfer(account, address(0), amount);\n    }\n\n    function transfer(address recipient, uint256 amount) public returns (bool) {\n        _transfer(msg.sender, recipient, amount);\n        return true;\n    }\n\n    function approve(address spender, uint256 amount) public returns (bool) {\n        _approve(msg.sender, spender, amount);\n        return true;\n    }\n\n    function transferFrom(address sender, address recipient, uint256 amount)\n        public\n        returns (bool)\n    {\n        _transfer(sender, recipient, amount);\n        _approve(\n            sender,\n            msg.sender,\n            allowance[sender][msg.sender].sub(\n                amount,\n                \"ERC20: transfer amount exceeds allowance\"\n            )\n        );\n        return true;\n    }\n\n    function _transfer(address sender, address recipient, uint256 amount)\n        internal\n    {\n        require(sender != address(0), \"ERC20: transfer from the zero address\");\n        require(recipient != address(0), \"ERC20: transfer to the zero address\");\n        // _beforeTokenTransfer(sender, recipient, amount);\n        balanceOf[sender] = balanceOf[sender].sub(\n            amount,\n            \"ERC20: transfer amount exceeds balance\"\n        );\n        balanceOf[recipient] = balanceOf[recipient].add(amount);\n        emit Transfer(sender, recipient, amount);\n    }\n\n    function _approve(address owner, address spender, uint256 amount) internal {\n        require(owner != address(0), \"ERC20: approve from the zero address\");\n        require(spender != address(0), \"ERC20: approve to the zero address\");\n        allowance[owner][spender] = amount;\n        emit Approval(owner, spender, amount);\n    }\n\n    function() external payable {\n        emit internall(\"got cash\", msg.value);\n    }\n\n    // governance functions\n\n    function getRewardOut() public onlyOwner returns (uint totalSNXReward) {\n        require(stopped, \"first pause the contract\");\n        Unipool(UnipoolAddress).getReward();\n        emit internall(\"Owner Took out reward\", SNXTokenAddress.balanceOf(\n                address(this)\n            ));\n        inCaseTokengetsStuck(SNXTokenAddress);\n        return (SNXTokenAddress.balanceOf(address(this)));\n    }\n\n    function withdrawAllStaked() public onlyOwner returns (uint totalStakedUintsWithdrawn) {\n        uint stakedUints = Unipool(UnipoolAddress).balanceOf(address(this));\n        Unipool(UnipoolAddress).withdraw(stakedUints);\n        inCaseTokengetsStuck(IERC20(stakedUints));\n        emit internall(\"total staked uints taken out\", stakedUints);\n        return (stakedUints);\n    }\n\n    // - to kill the contract\n    function destruct() public onlyOwner {\n        address owner_ = owner();\n        selfdestruct(address(uint160(owner_)));\n    }\n\n    // - to withdraw any ETH balance sitting in the contract\n    function withdraw() public onlyOwner {\n        address owner_ = owner();\n        address(uint160(owner_)).transfer(address(this).balance);\n    }\n\n    // - to Pause the contract\n    function toggleContractActive() public onlyOwner {\n        stopped = !stopped;\n    }\n\n    function inCaseTokengetsStuck(IERC20 _TokenAddress) public onlyOwner {\n        address owner_ = owner();\n        uint256 qty = _TokenAddress.balanceOf(address(this));\n        _TokenAddress.transfer(owner_, qty);\n    }\n\n}",
  "sourcePath": "contracts/zUniPool.sol",
  "abi": [
    {
      "inputs": [],
      "payable": false,
      "stateMutability": "nonpayable",
      "type": "constructor"
    },
    {
      "anonymous": false,
      "inputs": [
        {
          "indexed": true,
          "internalType": "address",
          "name": "src",
          "type": "address"
        },
        {
          "indexed": true,
          "internalType": "address",
          "name": "guy",
          "type": "address"
        },
        {
          "indexed": false,
          "internalType": "uint256",
          "name": "wad",
          "type": "uint256"
        }
      ],
      "name": "Approval",
      "type": "event"
    },
    {
      "anonymous": false,
      "inputs": [
        {
          "indexed": true,
          "internalType": "address",
          "name": "staker",
          "type": "address"
        },
        {
          "indexed": false,
          "internalType": "uint256",
          "name": "qtyStaked",
          "type": "uint256"
        }
      ],
      "name": "LPTokensStaked",
      "type": "event"
    },
    {
      "anonymous": false,
      "inputs": [
        {
          "indexed": true,
          "internalType": "address",
          "name": "leaver",
          "type": "address"
        },
        {
          "indexed": false,
          "internalType": "uint256",
          "name": "qtyWithdrawn",
          "type": "uint256"
        }
      ],
      "name": "LPTokensWithdrawn",
      "type": "event"
    },
    {
      "anonymous": false,
      "inputs": [
        {
          "indexed": true,
          "internalType": "address",
          "name": "previousOwner",
          "type": "address"
        },
        {
          "indexed": true,
          "internalType": "address",
          "name": "newOwner",
          "type": "address"
        }
      ],
      "name": "OwnershipTransferred",
      "type": "event"
    },
    {
      "anonymous": false,
      "inputs": [
        {
          "indexed": true,
          "internalType": "address",
          "name": "src",
          "type": "address"
        },
        {
          "indexed": true,
          "internalType": "address",
          "name": "dst",
          "type": "address"
        },
        {
          "indexed": false,
          "internalType": "uint256",
          "name": "wad",
          "type": "uint256"
        }
      ],
      "name": "Transfer",
      "type": "event"
    },
    {
      "anonymous": false,
      "inputs": [
        {
          "indexed": false,
          "internalType": "string",
          "name": "",
          "type": "string"
        },
        {
          "indexed": false,
          "internalType": "uint256",
          "name": "",
          "type": "uint256"
        }
      ],
      "name": "internall",
      "type": "event"
    },
    {
      "payable": true,
      "stateMutability": "payable",
      "type": "fallback"
    },
    {
      "constant": true,
      "inputs": [],
      "name": "SNXTokenAddress",
      "outputs": [
        {
          "internalType": "contract IERC20",
          "name": "",
          "type": "address"
        }
      ],
      "payable": false,
      "stateMutability": "view",
      "type": "function"
    },
    {
      "constant": true,
      "inputs": [],
      "name": "SNXUniSwapTokenAddress",
      "outputs": [
        {
          "internalType": "contract IERC20",
          "name": "",
          "type": "address"
        }
      ],
      "payable": false,
      "stateMutability": "view",
      "type": "function"
    },
    {
      "constant": true,
      "inputs": [],
      "name": "UnipoolAddress",
      "outputs": [
        {
          "internalType": "address",
          "name": "",
          "type": "address"
        }
      ],
      "payable": false,
      "stateMutability": "view",
      "type": "function"
    },
    {
      "constant": false,
      "inputs": [
        {
          "internalType": "address",
          "name": "_permittedAccount",
          "type": "address"
        }
      ],
      "name": "allowTheAddress",
      "outputs": [],
      "payable": false,
      "stateMutability": "nonpayable",
      "type": "function"
    },
    {
      "constant": true,
      "inputs": [
        {
          "internalType": "address",
          "name": "",
          "type": "address"
        },
        {
          "internalType": "address",
          "name": "",
          "type": "address"
        }
      ],
      "name": "allowance",
      "outputs": [
        {
          "internalType": "uint256",
          "name": "",
          "type": "uint256"
        }
      ],
      "payable": false,
      "stateMutability": "view",
      "type": "function"
    },
    {
      "constant": true,
      "inputs": [
        {
          "internalType": "address",
          "name": "",
          "type": "address"
        }
      ],
      "name": "allowedAddress",
      "outputs": [
        {
          "internalType": "bool",
          "name": "",
          "type": "bool"
        }
      ],
      "payable": false,
      "stateMutability": "view",
      "type": "function"
    },
    {
      "constant": false,
      "inputs": [
        {
          "internalType": "address",
          "name": "spender",
          "type": "address"
        },
        {
          "internalType": "uint256",
          "name": "amount",
          "type": "uint256"
        }
      ],
      "name": "approve",
      "outputs": [
        {
          "internalType": "bool",
          "name": "",
          "type": "bool"
        }
      ],
      "payable": false,
      "stateMutability": "nonpayable",
      "type": "function"
    },
    {
      "constant": false,
      "inputs": [],
      "name": "approve_Addresses",
      "outputs": [],
      "payable": false,
      "stateMutability": "nonpayable",
      "type": "function"
    },
    {
      "constant": true,
      "inputs": [
        {
          "internalType": "address",
          "name": "",
          "type": "address"
        }
      ],
      "name": "balanceOf",
      "outputs": [
        {
          "internalType": "uint256",
          "name": "",
          "type": "uint256"
        }
      ],
      "payable": false,
      "stateMutability": "view",
      "type": "function"
    },
    {
      "constant": true,
      "inputs": [],
      "name": "decimals",
      "outputs": [
        {
          "internalType": "uint8",
          "name": "",
          "type": "uint8"
        }
      ],
      "payable": false,
      "stateMutability": "view",
      "type": "function"
    },
    {
      "constant": false,
      "inputs": [],
      "name": "destruct",
      "outputs": [],
      "payable": false,
      "stateMutability": "nonpayable",
      "type": "function"
    },
    {
      "constant": false,
      "inputs": [
        {
          "internalType": "uint256",
          "name": "_tokenQTY",
          "type": "uint256"
        }
      ],
      "name": "getMyStakeOut",
      "outputs": [
        {
          "internalType": "uint256",
          "name": "LPTokensReleased",
          "type": "uint256"
        }
      ],
      "payable": false,
      "stateMutability": "nonpayable",
      "type": "function"
    },
    {
      "constant": false,
      "inputs": [],
      "name": "getRewardOut",
      "outputs": [
        {
          "internalType": "uint256",
          "name": "totalSNXReward",
          "type": "uint256"
        }
      ],
      "payable": false,
      "stateMutability": "nonpayable",
      "type": "function"
    },
    {
      "constant": true,
      "inputs": [],
      "name": "howMuchHasThisContractEarned",
      "outputs": [
        {
          "internalType": "uint256",
          "name": "SNXEarned",
          "type": "uint256"
        }
      ],
      "payable": false,
      "stateMutability": "view",
      "type": "function"
    },
    {
      "constant": true,
      "inputs": [],
      "name": "howMuchHasThisContractStaked",
      "outputs": [
        {
          "internalType": "uint256",
          "name": "LPTokens",
          "type": "uint256"
        }
      ],
      "payable": false,
      "stateMutability": "view",
      "type": "function"
    },
    {
      "constant": true,
      "inputs": [
        {
          "internalType": "uint256",
          "name": "_zUNIinWEI",
          "type": "uint256"
        }
      ],
      "name": "howMuchIszUNIWorth",
      "outputs": [
        {
          "internalType": "uint256",
          "name": "",
          "type": "uint256"
        }
      ],
      "payable": false,
      "stateMutability": "view",
      "type": "function"
    },
    {
      "constant": false,
      "inputs": [
        {
          "internalType": "contract IERC20",
          "name": "_TokenAddress",
          "type": "address"
        }
      ],
      "name": "inCaseTokengetsStuck",
      "outputs": [],
      "payable": false,
      "stateMutability": "nonpayable",
      "type": "function"
    },
    {
      "constant": true,
      "inputs": [],
      "name": "isOwner",
      "outputs": [
        {
          "internalType": "bool",
          "name": "",
          "type": "bool"
        }
      ],
      "payable": false,
      "stateMutability": "view",
      "type": "function"
    },
    {
      "constant": true,
      "inputs": [],
      "name": "name",
      "outputs": [
        {
          "internalType": "string",
          "name": "",
          "type": "string"
        }
      ],
      "payable": false,
      "stateMutability": "view",
      "type": "function"
    },
    {
      "constant": true,
      "inputs": [],
      "name": "owner",
      "outputs": [
        {
          "internalType": "address",
          "name": "",
          "type": "address"
        }
      ],
      "payable": false,
      "stateMutability": "view",
      "type": "function"
    },
    {
      "constant": false,
      "inputs": [
        {
          "internalType": "bool",
          "name": "enter",
          "type": "bool"
        }
      ],
      "name": "reBalance",
      "outputs": [
        {
          "internalType": "uint256",
          "name": "LPTokenWealth",
          "type": "uint256"
        }
      ],
      "payable": false,
      "stateMutability": "nonpayable",
      "type": "function"
    },
    {
      "constant": false,
      "inputs": [
        {
          "internalType": "address",
          "name": "_removalAccount",
          "type": "address"
        }
      ],
      "name": "removeTheAddress",
      "outputs": [],
      "payable": false,
      "stateMutability": "nonpayable",
      "type": "function"
    },
    {
      "constant": false,
      "inputs": [],
      "name": "renounceOwnership",
      "outputs": [],
      "payable": false,
      "stateMutability": "nonpayable",
      "type": "function"
    },
    {
      "constant": true,
      "inputs": [],
      "name": "sETHTokenAddress",
      "outputs": [
        {
          "internalType": "contract IERC20",
          "name": "",
          "type": "address"
        }
      ],
      "payable": false,
      "stateMutability": "view",
      "type": "function"
    },
    {
      "constant": true,
      "inputs": [],
      "name": "sETH_LP_TokenAddress",
      "outputs": [
        {
          "internalType": "contract IERC20",
          "name": "",
          "type": "address"
        }
      ],
      "payable": false,
      "stateMutability": "view",
      "type": "function"
    },
    {
      "constant": false,
      "inputs": [
        {
          "internalType": "uint256",
          "name": "_LPTokenUints",
          "type": "uint256"
        }
      ],
      "name": "stakeMyShare",
      "outputs": [
        {
          "internalType": "uint256",
          "name": "",
          "type": "uint256"
        }
      ],
      "payable": false,
      "stateMutability": "nonpayable",
      "type": "function"
    },
    {
      "constant": true,
      "inputs": [],
      "name": "stopped",
      "outputs": [
        {
          "internalType": "bool",
          "name": "",
          "type": "bool"
        }
      ],
      "payable": false,
      "stateMutability": "view",
      "type": "function"
    },
    {
      "constant": true,
      "inputs": [],
      "name": "symbol",
      "outputs": [
        {
          "internalType": "string",
          "name": "",
          "type": "string"
        }
      ],
      "payable": false,
      "stateMutability": "view",
      "type": "function"
    },
    {
      "constant": false,
      "inputs": [],
      "name": "toggleContractActive",
      "outputs": [],
      "payable": false,
      "stateMutability": "nonpayable",
      "type": "function"
    },
    {
      "constant": true,
      "inputs": [],
      "name": "totalLPTokensStaked",
      "outputs": [
        {
          "internalType": "uint256",
          "name": "",
          "type": "uint256"
        }
      ],
      "payable": false,
      "stateMutability": "view",
      "type": "function"
    },
    {
      "constant": true,
      "inputs": [],
      "name": "totalSupply",
      "outputs": [
        {
          "internalType": "uint256",
          "name": "",
          "type": "uint256"
        }
      ],
      "payable": false,
      "stateMutability": "view",
      "type": "function"
    },
    {
      "constant": false,
      "inputs": [
        {
          "internalType": "address",
          "name": "recipient",
          "type": "address"
        },
        {
          "internalType": "uint256",
          "name": "amount",
          "type": "uint256"
        }
      ],
      "name": "transfer",
      "outputs": [
        {
          "internalType": "bool",
          "name": "",
          "type": "bool"
        }
      ],
      "payable": false,
      "stateMutability": "nonpayable",
      "type": "function"
    },
    {
      "constant": false,
      "inputs": [
        {
          "internalType": "address",
          "name": "sender",
          "type": "address"
        },
        {
          "internalType": "address",
          "name": "recipient",
          "type": "address"
        },
        {
          "internalType": "uint256",
          "name": "amount",
          "type": "uint256"
        }
      ],
      "name": "transferFrom",
      "outputs": [
        {
          "internalType": "bool",
          "name": "",
          "type": "bool"
        }
      ],
      "payable": false,
      "stateMutability": "nonpayable",
      "type": "function"
    },
    {
      "constant": false,
      "inputs": [
        {
          "internalType": "address",
          "name": "newOwner",
          "type": "address"
        }
      ],
      "name": "transferOwnership",
      "outputs": [],
      "payable": false,
      "stateMutability": "nonpayable",
      "type": "function"
    },
    {
      "constant": true,
      "inputs": [],
      "name": "version",
      "outputs": [
        {
          "internalType": "string",
          "name": "",
          "type": "string"
        }
      ],
      "payable": false,
      "stateMutability": "view",
      "type": "function"
    },
    {
      "constant": false,
      "inputs": [],
      "name": "withdraw",
      "outputs": [],
      "payable": false,
      "stateMutability": "nonpayable",
      "type": "function"
    },
    {
      "constant": false,
      "inputs": [],
      "name": "withdrawAllStaked",
      "outputs": [
        {
          "internalType": "uint256",
          "name": "totalStakedUintsWithdrawn",
          "type": "uint256"
        }
      ],
      "payable": false,
      "stateMutability": "nonpayable",
      "type": "function"
    }
  ],
  "bytecode": "0x60806040523480156200001157600080fd5b50600062000024620000f360201b60201c565b9050806000806101000a81548173ffffffffffffffffffffffffffffffffffffffff021916908373ffffffffffffffffffffffffffffffffffffffff1602179055508073ffffffffffffffffffffffffffffffffffffffff16600073ffffffffffffffffffffffffffffffffffffffff167f8be0079c531659141344cd1fd0a4f28419497f9722a3daafe3b4186f6b6457e060405160405180910390a350620000d2620000fb60201b60201c565b6000600360006101000a81548160ff02191690831515021790555062000427565b600033905090565b73e9cf7887b93150d4f2da7dfc6d502b216438f24473ffffffffffffffffffffffffffffffffffffffff1663095ea7b37348d7f315fedcad332f68aafa017c7c158bc547607fffffffffffffffffffffffffffffffffffffffffffffffffffffffffffffffff6040518363ffffffff1660e01b8152600401808373ffffffffffffffffffffffffffffffffffffffff1673ffffffffffffffffffffffffffffffffffffffff16815260200182815260200192505050602060405180830381600087803b158015620001cb57600080fd5b505af1158015620001e0573d6000803e3d6000fd5b505050506040513d6020811015620001f757600080fd5b81019080805190602001909291905050505073c011a73ee8576fb46f5e1c5751ca3b9fe0af2a6f73ffffffffffffffffffffffffffffffffffffffff1663095ea7b3733958b4ec427f8fa24eb60f42821760e88d485f7f7fffffffffffffffffffffffffffffffffffffffffffffffffffffffffffffffff6040518363ffffffff1660e01b8152600401808373ffffffffffffffffffffffffffffffffffffffff1673ffffffffffffffffffffffffffffffffffffffff16815260200182815260200192505050602060405180830381600087803b158015620002d957600080fd5b505af1158015620002ee573d6000803e3d6000fd5b505050506040513d60208110156200030557600080fd5b810190808051906020019092919050505050735e74c9036fb86bd7ecdcb084a0673efc32ea31cb73ffffffffffffffffffffffffffffffffffffffff1663095ea7b373e9cf7887b93150d4f2da7dfc6d502b216438f2447fffffffffffffffffffffffffffffffffffffffffffffffffffffffffffffffff6040518363ffffffff1660e01b8152600401808373ffffffffffffffffffffffffffffffffffffffff1673ffffffffffffffffffffffffffffffffffffffff16815260200182815260200192505050602060405180830381600087803b158015620003e757600080fd5b505af1158015620003fc573d6000803e3d6000fd5b505050506040513d60208110156200041357600080fd5b810190808051906020019092919050505050565b614f3b80620004376000396000f3fe60806040526004361061021a5760003560e01c8063715018a611610123578063a9059cbb116100ab578063e4c782111161006f578063e4c7821114610c1f578063e5be1a9614610c76578063e7be53a414610ca1578063f2fde38b14610cf0578063f70f489314610d415761021a565b8063a9059cbb14610a30578063aca5bbd014610aa3578063bbaabe0414610af2578063d5ec826c14610b49578063dd62ed3e14610b9a5761021a565b80638da5cb5b116100f25780638da5cb5b1461087a5780638f32d59b146108d157806395d89b4114610900578063966eed1f14610990578063a75afc7d146109df5761021a565b8063715018a6146107f257806375f12b21146108095780637c50e0761461083857806381c9c2b91461084f5761021a565b80633ccfd60b116101a6578063551196d511610175578063551196d51461069557806359ca1680146106e65780635b1651f5146107115780636c57e5751461076257806370a082311461078d5761021a565b80633ccfd60b1461055a57806340908298146105715780634211a595146105da57806354fd4d50146106055761021a565b8063161e8e82116101ed578063161e8e82146103fd57806318160ddd1461045457806323b872dd1461047f5780632b68b9c614610512578063313ce567146105295761021a565b806306fdde031461028c578063095ea7b31461031c5780631385d24c1461038f57806314d74204146103a6575b7f4f0ebd40ebf17fb5f44478155c0280633653900a58f6e78baa63e9b746fed051346040518080602001838152602001828103825260088152602001807f676f7420636173680000000000000000000000000000000000000000000000008152506020019250505060405180910390a1005b34801561029857600080fd5b506102a1610d98565b6040518080602001828103825283818151815260200191508051906020019080838360005b838110156102e15780820151818401526020810190506102c6565b50505050905090810190601f16801561030e5780820380516001836020036101000a031916815260200191505b509250505060405180910390f35b34801561032857600080fd5b506103756004803603604081101561033f57600080fd5b81019080803573ffffffffffffffffffffffffffffffffffffffff16906020019092919080359060200190929190505050610dd1565b604051808215151515815260200191505060405180910390f35b34801561039b57600080fd5b506103a4610de8565b005b3480156103b257600080fd5b506103bb610e8e565b604051808273ffffffffffffffffffffffffffffffffffffffff1673ffffffffffffffffffffffffffffffffffffffff16815260200191505060405180910390f35b34801561040957600080fd5b50610412610ea6565b604051808273ffffffffffffffffffffffffffffffffffffffff1673ffffffffffffffffffffffffffffffffffffffff16815260200191505060405180910390f35b34801561046057600080fd5b50610469610ebe565b6040518082815260200191505060405180910390f35b34801561048b57600080fd5b506104f8600480360360608110156104a257600080fd5b81019080803573ffffffffffffffffffffffffffffffffffffffff169060200190929190803573ffffffffffffffffffffffffffffffffffffffff16906020019092919080359060200190929190505050610ec4565b604051808215151515815260200191505060405180910390f35b34801561051e57600080fd5b50610527610f8f565b005b34801561053557600080fd5b5061053e61102e565b604051808260ff1660ff16815260200191505060405180910390f35b34801561056657600080fd5b5061056f611033565b005b34801561057d57600080fd5b506105c06004803603602081101561059457600080fd5b81019080803573ffffffffffffffffffffffffffffffffffffffff16906020019092919050505061111a565b604051808215151515815260200191505060405180910390f35b3480156105e657600080fd5b506105ef61113a565b6040518082815260200191505060405180910390f35b34801561061157600080fd5b5061061a611140565b6040518080602001828103825283818151815260200191508051906020019080838360005b8381101561065a57808201518184015260208101905061063f565b50505050905090810190601f1680156106875780820380516001836020036101000a031916815260200191505b509250505060405180910390f35b3480156106a157600080fd5b506106e4600480360360208110156106b857600080fd5b81019080803573ffffffffffffffffffffffffffffffffffffffff169060200190929190505050611179565b005b3480156106f257600080fd5b506106fb611383565b6040518082815260200191505060405180910390f35b34801561071d57600080fd5b506107606004803603602081101561073457600080fd5b81019080803573ffffffffffffffffffffffffffffffffffffffff16906020019092919050505061171e565b005b34801561076e57600080fd5b506107776117f3565b6040518082815260200191505060405180910390f35b34801561079957600080fd5b506107dc600480360360208110156107b057600080fd5b81019080803573ffffffffffffffffffffffffffffffffffffffff1690602001909291905050506118c6565b6040518082815260200191505060405180910390f35b3480156107fe57600080fd5b506108076118de565b005b34801561081557600080fd5b5061081e611a17565b604051808215151515815260200191505060405180910390f35b34801561084457600080fd5b5061084d611a2a565b005b34801561085b57600080fd5b50610864611d4d565b6040518082815260200191505060405180910390f35b34801561088657600080fd5b5061088f611f98565b604051808273ffffffffffffffffffffffffffffffffffffffff1673ffffffffffffffffffffffffffffffffffffffff16815260200191505060405180910390f35b3480156108dd57600080fd5b506108e6611fc1565b604051808215151515815260200191505060405180910390f35b34801561090c57600080fd5b5061091561201f565b6040518080602001828103825283818151815260200191508051906020019080838360005b8381101561095557808201518184015260208101905061093a565b50505050905090810190601f1680156109825780820380516001836020036101000a031916815260200191505b509250505060405180910390f35b34801561099c57600080fd5b506109c9600480360360208110156109b357600080fd5b8101908080359060200190929190505050612058565b6040518082815260200191505060405180910390f35b3480156109eb57600080fd5b50610a1a60048036036020811015610a0257600080fd5b81019080803515159060200190929190505050612695565b6040518082815260200191505060405180910390f35b348015610a3c57600080fd5b50610a8960048036036040811015610a5357600080fd5b81019080803573ffffffffffffffffffffffffffffffffffffffff16906020019092919080359060200190929190505050612a9b565b604051808215151515815260200191505060405180910390f35b348015610aaf57600080fd5b50610adc60048036036020811015610ac657600080fd5b8101908080359060200190929190505050612ab2565b6040518082815260200191505060405180910390f35b348015610afe57600080fd5b50610b07612e05565b604051808273ffffffffffffffffffffffffffffffffffffffff1673ffffffffffffffffffffffffffffffffffffffff16815260200191505060405180910390f35b348015610b5557600080fd5b50610b9860048036036020811015610b6c57600080fd5b81019080803573ffffffffffffffffffffffffffffffffffffffff169060200190929190505050612e1d565b005b348015610ba657600080fd5b50610c0960048036036040811015610bbd57600080fd5b81019080803573ffffffffffffffffffffffffffffffffffffffff169060200190929190803573ffffffffffffffffffffffffffffffffffffffff169060200190929190505050612f8a565b6040518082815260200191505060405180910390f35b348015610c2b57600080fd5b50610c34612faf565b604051808273ffffffffffffffffffffffffffffffffffffffff1673ffffffffffffffffffffffffffffffffffffffff16815260200191505060405180910390f35b348015610c8257600080fd5b50610c8b612fc7565b6040518082815260200191505060405180910390f35b348015610cad57600080fd5b50610cda60048036036020811015610cc457600080fd5b8101908080359060200190929190505050613099565b6040518082815260200191505060405180910390f35b348015610cfc57600080fd5b50610d3f60048036036020811015610d1357600080fd5b81019080803573ffffffffffffffffffffffffffffffffffffffff16906020019092919050505061334c565b005b348015610d4d57600080fd5b50610d566133d2565b604051808273ffffffffffffffffffffffffffffffffffffffff1673ffffffffffffffffffffffffffffffffffffffff16815260200191505060405180910390f35b6040518060400160405280600581526020017f7a554e495400000000000000000000000000000000000000000000000000000081525081565b6000610dde3384846133ea565b6001905092915050565b610df0611fc1565b610e62576040517f08c379a00000000000000000000000000000000000000000000000000000000081526004018080602001828103825260208152602001807f4f776e61626c653a2063616c6c6572206973206e6f7420746865206f776e657281525060200191505060405180910390fd5b600360009054906101000a900460ff1615600360006101000a81548160ff021916908315150217905550565b73e9cf7887b93150d4f2da7dfc6d502b216438f24481565b733958b4ec427f8fa24eb60f42821760e88d485f7f81565b60015481565b6000610ed18484846135e1565b610f848433610f7f85604051806060016040528060288152602001614e4360289139600560008b73ffffffffffffffffffffffffffffffffffffffff1673ffffffffffffffffffffffffffffffffffffffff16815260200190815260200160002060003373ffffffffffffffffffffffffffffffffffffffff1673ffffffffffffffffffffffffffffffffffffffff1681526020019081526020016000205461389b9092919063ffffffff16565b6133ea565b600190509392505050565b610f97611fc1565b611009576040517f08c379a00000000000000000000000000000000000000000000000000000000081526004018080602001828103825260208152602001807f4f776e61626c653a2063616c6c6572206973206e6f7420746865206f776e657281525060200191505060405180910390fd5b6000611013611f98565b90508073ffffffffffffffffffffffffffffffffffffffff16ff5b601281565b61103b611fc1565b6110ad576040517f08c379a00000000000000000000000000000000000000000000000000000000081526004018080602001828103825260208152602001807f4f776e61626c653a2063616c6c6572206973206e6f7420746865206f776e657281525060200191505060405180910390fd5b60006110b7611f98565b90508073ffffffffffffffffffffffffffffffffffffffff166108fc3073ffffffffffffffffffffffffffffffffffffffff16319081150290604051600060405180830381858888f19350505050158015611116573d6000803e3d6000fd5b5050565b60066020528060005260406000206000915054906101000a900460ff1681565b60025481565b6040518060400160405280600181526020017f310000000000000000000000000000000000000000000000000000000000000081525081565b611181611fc1565b6111f3576040517f08c379a00000000000000000000000000000000000000000000000000000000081526004018080602001828103825260208152602001807f4f776e61626c653a2063616c6c6572206973206e6f7420746865206f776e657281525060200191505060405180910390fd5b60006111fd611f98565b905060008273ffffffffffffffffffffffffffffffffffffffff166370a08231306040518263ffffffff1660e01b8152600401808273ffffffffffffffffffffffffffffffffffffffff1673ffffffffffffffffffffffffffffffffffffffff16815260200191505060206040518083038186803b15801561127e57600080fd5b505afa158015611292573d6000803e3d6000fd5b505050506040513d60208110156112a857600080fd5b810190808051906020019092919050505090508273ffffffffffffffffffffffffffffffffffffffff1663a9059cbb83836040518363ffffffff1660e01b8152600401808373ffffffffffffffffffffffffffffffffffffffff1673ffffffffffffffffffffffffffffffffffffffff16815260200182815260200192505050602060405180830381600087803b15801561134257600080fd5b505af1158015611356573d6000803e3d6000fd5b505050506040513d602081101561136c57600080fd5b810190808051906020019092919050505050505050565b600061138d611fc1565b6113ff576040517f08c379a00000000000000000000000000000000000000000000000000000000081526004018080602001828103825260208152602001807f4f776e61626c653a2063616c6c6572206973206e6f7420746865206f776e657281525060200191505060405180910390fd5b600360009054906101000a900460ff16611481576040517f08c379a00000000000000000000000000000000000000000000000000000000081526004018080602001828103825260188152602001807f66697273742070617573652074686520636f6e7472616374000000000000000081525060200191505060405180910390fd5b7348d7f315fedcad332f68aafa017c7c158bc5476073ffffffffffffffffffffffffffffffffffffffff16633d18b9126040518163ffffffff1660e01b8152600401600060405180830381600087803b1580156114dd57600080fd5b505af11580156114f1573d6000803e3d6000fd5b505050507f4f0ebd40ebf17fb5f44478155c0280633653900a58f6e78baa63e9b746fed05173c011a73ee8576fb46f5e1c5751ca3b9fe0af2a6f73ffffffffffffffffffffffffffffffffffffffff166370a08231306040518263ffffffff1660e01b8152600401808273ffffffffffffffffffffffffffffffffffffffff1673ffffffffffffffffffffffffffffffffffffffff16815260200191505060206040518083038186803b1580156115a757600080fd5b505afa1580156115bb573d6000803e3d6000fd5b505050506040513d60208110156115d157600080fd5b81019080805190602001909291905050506040518080602001838152602001828103825260158152602001807f4f776e657220546f6f6b206f75742072657761726400000000000000000000008152506020019250505060405180910390a161164d73c011a73ee8576fb46f5e1c5751ca3b9fe0af2a6f611179565b73c011a73ee8576fb46f5e1c5751ca3b9fe0af2a6f73ffffffffffffffffffffffffffffffffffffffff166370a08231306040518263ffffffff1660e01b8152600401808273ffffffffffffffffffffffffffffffffffffffff1673ffffffffffffffffffffffffffffffffffffffff16815260200191505060206040518083038186803b1580156116de57600080fd5b505afa1580156116f2573d6000803e3d6000fd5b505050506040513d602081101561170857600080fd5b8101908080519060200190929190505050905090565b611726611fc1565b611798576040517f08c379a00000000000000000000000000000000000000000000000000000000081526004018080602001828103825260208152602001807f4f776e61626c653a2063616c6c6572206973206e6f7420746865206f776e657281525060200191505060405180910390fd5b6001600660008373ffffffffffffffffffffffffffffffffffffffff1673ffffffffffffffffffffffffffffffffffffffff16815260200190815260200160002060006101000a81548160ff02191690831515021790555050565b60007348d7f315fedcad332f68aafa017c7c158bc5476073ffffffffffffffffffffffffffffffffffffffff166370a08231306040518263ffffffff1660e01b8152600401808273ffffffffffffffffffffffffffffffffffffffff1673ffffffffffffffffffffffffffffffffffffffff16815260200191505060206040518083038186803b15801561188657600080fd5b505afa15801561189a573d6000803e3d6000fd5b505050506040513d60208110156118b057600080fd5b8101908080519060200190929190505050905090565b60046020528060005260406000206000915090505481565b6118e6611fc1565b611958576040517f08c379a00000000000000000000000000000000000000000000000000000000081526004018080602001828103825260208152602001807f4f776e61626c653a2063616c6c6572206973206e6f7420746865206f776e657281525060200191505060405180910390fd5b600073ffffffffffffffffffffffffffffffffffffffff166000809054906101000a900473ffffffffffffffffffffffffffffffffffffffff1673ffffffffffffffffffffffffffffffffffffffff167f8be0079c531659141344cd1fd0a4f28419497f9722a3daafe3b4186f6b6457e060405160405180910390a360008060006101000a81548173ffffffffffffffffffffffffffffffffffffffff021916908373ffffffffffffffffffffffffffffffffffffffff160217905550565b600360009054906101000a900460ff1681565b73e9cf7887b93150d4f2da7dfc6d502b216438f24473ffffffffffffffffffffffffffffffffffffffff1663095ea7b37348d7f315fedcad332f68aafa017c7c158bc547607fffffffffffffffffffffffffffffffffffffffffffffffffffffffffffffffff6040518363ffffffff1660e01b8152600401808373ffffffffffffffffffffffffffffffffffffffff1673ffffffffffffffffffffffffffffffffffffffff16815260200182815260200192505050602060405180830381600087803b158015611af957600080fd5b505af1158015611b0d573d6000803e3d6000fd5b505050506040513d6020811015611b2357600080fd5b81019080805190602001909291905050505073c011a73ee8576fb46f5e1c5751ca3b9fe0af2a6f73ffffffffffffffffffffffffffffffffffffffff1663095ea7b3733958b4ec427f8fa24eb60f42821760e88d485f7f7fffffffffffffffffffffffffffffffffffffffffffffffffffffffffffffffff6040518363ffffffff1660e01b8152600401808373ffffffffffffffffffffffffffffffffffffffff1673ffffffffffffffffffffffffffffffffffffffff16815260200182815260200192505050602060405180830381600087803b158015611c0457600080fd5b505af1158015611c18573d6000803e3d6000fd5b505050506040513d6020811015611c2e57600080fd5b810190808051906020019092919050505050735e74c9036fb86bd7ecdcb084a0673efc32ea31cb73ffffffffffffffffffffffffffffffffffffffff1663095ea7b373e9cf7887b93150d4f2da7dfc6d502b216438f2447fffffffffffffffffffffffffffffffffffffffffffffffffffffffffffffffff6040518363ffffffff1660e01b8152600401808373ffffffffffffffffffffffffffffffffffffffff1673ffffffffffffffffffffffffffffffffffffffff16815260200182815260200192505050602060405180830381600087803b158015611d0f57600080fd5b505af1158015611d23573d6000803e3d6000fd5b505050506040513d6020811015611d3957600080fd5b810190808051906020019092919050505050565b6000611d57611fc1565b611dc9576040517f08c379a00000000000000000000000000000000000000000000000000000000081526004018080602001828103825260208152602001807f4f776e61626c653a2063616c6c6572206973206e6f7420746865206f776e657281525060200191505060405180910390fd5b60007348d7f315fedcad332f68aafa017c7c158bc5476073ffffffffffffffffffffffffffffffffffffffff166370a08231306040518263ffffffff1660e01b8152600401808273ffffffffffffffffffffffffffffffffffffffff1673ffffffffffffffffffffffffffffffffffffffff16815260200191505060206040518083038186803b158015611e5c57600080fd5b505afa158015611e70573d6000803e3d6000fd5b505050506040513d6020811015611e8657600080fd5b810190808051906020019092919050505090507348d7f315fedcad332f68aafa017c7c158bc5476073ffffffffffffffffffffffffffffffffffffffff16632e1a7d4d826040518263ffffffff1660e01b815260040180828152602001915050600060405180830381600087803b158015611f0057600080fd5b505af1158015611f14573d6000803e3d6000fd5b50505050611f2181611179565b7f4f0ebd40ebf17fb5f44478155c0280633653900a58f6e78baa63e9b746fed0518160405180806020018381526020018281038252601c8152602001807f746f74616c207374616b65642075696e74732074616b656e206f7574000000008152506020019250505060405180910390a18091505090565b60008060009054906101000a900473ffffffffffffffffffffffffffffffffffffffff16905090565b60008060009054906101000a900473ffffffffffffffffffffffffffffffffffffffff1673ffffffffffffffffffffffffffffffffffffffff1661200361395b565b73ffffffffffffffffffffffffffffffffffffffff1614905090565b6040518060400160405280600581526020017f7a554e495400000000000000000000000000000000000000000000000000000081525081565b6000600360009054906101000a900460ff16156120dd576040517f08c379a00000000000000000000000000000000000000000000000000000000081526004018080602001828103825260128152602001807f54656d706f726172696c7920506175736564000000000000000000000000000081525060200191505060405180910390fd5b81600460003373ffffffffffffffffffffffffffffffffffffffff1673ffffffffffffffffffffffffffffffffffffffff168152602001908152602001600020541015612192576040517f08c379a00000000000000000000000000000000000000000000000000000000081526004018080602001828103825260178152602001807f5769746864726177696e672071747920696e76616c696400000000000000000081525060200191505060405180910390fd5b60008061219f6000613963565b9150915060006121ca826121bc8588613a7b90919063ffffffff16565b613b0190919063ffffffff16565b9050600073e9cf7887b93150d4f2da7dfc6d502b216438f24473ffffffffffffffffffffffffffffffffffffffff166370a08231306040518263ffffffff1660e01b8152600401808273ffffffffffffffffffffffffffffffffffffffff1673ffffffffffffffffffffffffffffffffffffffff16815260200191505060206040518083038186803b15801561225f57600080fd5b505afa158015612273573d6000803e3d6000fd5b505050506040513d602081101561228957600080fd5b81019080805190602001909291905050509050808211156124325760006122b98284613b4b90919063ffffffff16565b90507348d7f315fedcad332f68aafa017c7c158bc5476073ffffffffffffffffffffffffffffffffffffffff16632e1a7d4d826040518263ffffffff1660e01b815260040180828152602001915050600060405180830381600087803b15801561232257600080fd5b505af1158015612336573d6000803e3d6000fd5b5050505073e9cf7887b93150d4f2da7dfc6d502b216438f24473ffffffffffffffffffffffffffffffffffffffff1663a9059cbb33856040518363ffffffff1660e01b8152600401808373ffffffffffffffffffffffffffffffffffffffff1673ffffffffffffffffffffffffffffffffffffffff16815260200182815260200192505050602060405180830381600087803b1580156123d557600080fd5b505af11580156123e9573d6000803e3d6000fd5b505050506040513d60208110156123ff57600080fd5b81019080805190602001909291905050505061242683600254613b4b90919063ffffffff16565b6002819055505061267f565b73e9cf7887b93150d4f2da7dfc6d502b216438f24473ffffffffffffffffffffffffffffffffffffffff1663a9059cbb33846040518363ffffffff1660e01b8152600401808373ffffffffffffffffffffffffffffffffffffffff1673ffffffffffffffffffffffffffffffffffffffff16815260200182815260200192505050602060405180830381600087803b1580156124cd57600080fd5b505af11580156124e1573d6000803e3d6000fd5b505050506040513d60208110156124f757600080fd5b810190808051906020019092919050505050600073e9cf7887b93150d4f2da7dfc6d502b216438f24473ffffffffffffffffffffffffffffffffffffffff166370a08231306040518263ffffffff1660e01b8152600401808273ffffffffffffffffffffffffffffffffffffffff1673ffffffffffffffffffffffffffffffffffffffff16815260200191505060206040518083038186803b15801561259c57600080fd5b505afa1580156125b0573d6000803e3d6000fd5b505050506040513d60208110156125c657600080fd5b81019080805190602001909291905050509050600081111561267d577348d7f315fedcad332f68aafa017c7c158bc5476073ffffffffffffffffffffffffffffffffffffffff1663a694fc3a826040518263ffffffff1660e01b815260040180828152602001915050600060405180830381600087803b15801561264957600080fd5b505af115801561265d573d6000803e3d6000fd5b5050505061267681600254613b9590919063ffffffff16565b6002819055505b505b6126893387613c1d565b81945050505050919050565b600065048c273950006126a6612fc7565b1115612a90577f4f0ebd40ebf17fb5f44478155c0280633653900a58f6e78baa63e9b746fed0516126d5612fc7565b6040518080602001838152602001828103825260208152602001807f4561726e696e6773206d6f7265207468616e20746865207468726573686f6c648152506020019250505060405180910390a17348d7f315fedcad332f68aafa017c7c158bc5476073ffffffffffffffffffffffffffffffffffffffff16633d18b9126040518163ffffffff1660e01b8152600401600060405180830381600087803b15801561277f57600080fd5b505af1158015612793573d6000803e3d6000fd5b50505050600073c011a73ee8576fb46f5e1c5751ca3b9fe0af2a6f73ffffffffffffffffffffffffffffffffffffffff166370a08231306040518263ffffffff1660e01b8152600401808273ffffffffffffffffffffffffffffffffffffffff1673ffffffffffffffffffffffffffffffffffffffff16815260200191505060206040518083038186803b15801561282a57600080fd5b505afa15801561283e573d6000803e3d6000fd5b505050506040513d602081101561285457600080fd5b810190808051906020019092919050505090507f4f0ebd40ebf17fb5f44478155c0280633653900a58f6e78baa63e9b746fed0518160405180806020018381526020018281038252600f8152602001807f436c61696d696e672052657761726400000000000000000000000000000000008152506020019250505060405180910390a160006128e282613dd7565b90507f4f0ebd40ebf17fb5f44478155c0280633653900a58f6e78baa63e9b746fed0518160405180806020018381526020018281038252600e8152602001807f4c504a75737452656365697665640000000000000000000000000000000000008152506020019250505060405180910390a18315612a72577348d7f315fedcad332f68aafa017c7c158bc5476073ffffffffffffffffffffffffffffffffffffffff1663a694fc3a826040518263ffffffff1660e01b815260040180828152602001915050600060405180830381600087803b1580156129c157600080fd5b505af11580156129d5573d6000803e3d6000fd5b505050506129ee81600254613b9590919063ffffffff16565b6002819055507f4f0ebd40ebf17fb5f44478155c0280633653900a58f6e78baa63e9b746fed0516002546040518080602001838152602001828103825260138152602001807f746f74616c4c50546f6b656e735374616b6564000000000000000000000000008152506020019250505060405180910390a160025492505050612a96565b612a8781600254613b9590919063ffffffff16565b92505050612a96565b60025490505b919050565b6000612aa83384846135e1565b6001905092915050565b6000600660003373ffffffffffffffffffffffffffffffffffffffff1673ffffffffffffffffffffffffffffffffffffffff16815260200190815260200160002060009054906101000a900460ff16612b56576040517f08c379a0000000000000000000000000000000000000000000000000000000008152600401808060200182810382526032815260200180614ed56032913960400191505060405180910390fd5b600360009054906101000a900460ff1615612bd9576040517f08c379a00000000000000000000000000000000000000000000000000000000081526004018080602001828103825260128152602001807f54656d706f726172696c7920506175736564000000000000000000000000000081525060200191505060405180910390fd5b73e9cf7887b93150d4f2da7dfc6d502b216438f24473ffffffffffffffffffffffffffffffffffffffff166323b872dd3330856040518463ffffffff1660e01b8152600401808473ffffffffffffffffffffffffffffffffffffffff1673ffffffffffffffffffffffffffffffffffffffff1681526020018373ffffffffffffffffffffffffffffffffffffffff1673ffffffffffffffffffffffffffffffffffffffff1681526020018281526020019350505050602060405180830381600087803b158015612ca857600080fd5b505af1158015612cbc573d6000803e3d6000fd5b505050506040513d6020811015612cd257600080fd5b8101908080519060200190929190505050506000612cf03384614600565b90507f4f0ebd40ebf17fb5f44478155c0280633653900a58f6e78baa63e9b746fed051816040518080602001838152602001828103825260068152602001807f746f6b656e7300000000000000000000000000000000000000000000000000008152506020019250505060405180910390a17348d7f315fedcad332f68aafa017c7c158bc5476073ffffffffffffffffffffffffffffffffffffffff1663a694fc3a846040518263ffffffff1660e01b815260040180828152602001915050600060405180830381600087803b158015612dc957600080fd5b505af1158015612ddd573d6000803e3d6000fd5b50505050612df683600254613b9590919063ffffffff16565b60028190555080915050919050565b73c011a73ee8576fb46f5e1c5751ca3b9fe0af2a6f81565b612e25611fc1565b612e97576040517f08c379a00000000000000000000000000000000000000000000000000000000081526004018080602001828103825260208152602001807f4f776e61626c653a2063616c6c6572206973206e6f7420746865206f776e657281525060200191505060405180910390fd5b6000600460008373ffffffffffffffffffffffffffffffffffffffff1673ffffffffffffffffffffffffffffffffffffffff1681526020019081526020016000205414612f2f576040517f08c379a000000000000000000000000000000000000000000000000000000000815260040180806020018281038252603a815260200180614dc2603a913960400191505060405180910390fd5b6000600660008373ffffffffffffffffffffffffffffffffffffffff1673ffffffffffffffffffffffffffffffffffffffff16815260200190815260200160002060006101000a81548160ff02191690831515021790555050565b6005602052816000526040600020602052806000526040600020600091509150505481565b7348d7f315fedcad332f68aafa017c7c158bc5476081565b60007348d7f315fedcad332f68aafa017c7c158bc5476073ffffffffffffffffffffffffffffffffffffffff16628cc262306040518263ffffffff1660e01b8152600401808273ffffffffffffffffffffffffffffffffffffffff1673ffffffffffffffffffffffffffffffffffffffff16815260200191505060206040518083038186803b15801561305957600080fd5b505afa15801561306d573d6000803e3d6000fd5b505050506040513d602081101561308357600080fd5b8101908080519060200190929190505050905090565b60008060015411156133425765048c273950007348d7f315fedcad332f68aafa017c7c158bc5476073ffffffffffffffffffffffffffffffffffffffff16628cc262306040518263ffffffff1660e01b8152600401808273ffffffffffffffffffffffffffffffffffffffff1673ffffffffffffffffffffffffffffffffffffffff16815260200191505060206040518083038186803b15801561313c57600080fd5b505afa158015613150573d6000803e3d6000fd5b505050506040513d602081101561316657600080fd5b810190808051906020019092919050505011156133125760006132677348d7f315fedcad332f68aafa017c7c158bc5476073ffffffffffffffffffffffffffffffffffffffff16628cc262306040518263ffffffff1660e01b8152600401808273ffffffffffffffffffffffffffffffffffffffff1673ffffffffffffffffffffffffffffffffffffffff16815260200191505060206040518083038186803b15801561321257600080fd5b505afa158015613226573d6000803e3d6000fd5b505050506040513d602081101561323c57600080fd5b8101908080519060200190929190505050733958b4ec427f8fa24eb60f42821760e88d485f7f614732565b905060006132c673e9cf7887b93150d4f2da7dfc6d502b216438f244735e74c9036fb86bd7ecdcb084a0673efc32ea31cb6132c16127106132b361137988613a7b90919063ffffffff16565b613b0190919063ffffffff16565b6147c8565b905060006132df82600254613b9590919063ffffffff16565b90506133086001546132fa8388613a7b90919063ffffffff16565b613b0190919063ffffffff16565b9350505050613347565b61333b60015461332d60025485613a7b90919063ffffffff16565b613b0190919063ffffffff16565b9050613347565b600190505b919050565b613354611fc1565b6133c6576040517f08c379a00000000000000000000000000000000000000000000000000000000081526004018080602001828103825260208152602001807f4f776e61626c653a2063616c6c6572206973206e6f7420746865206f776e657281525060200191505060405180910390fd5b6133cf816148d7565b50565b735e74c9036fb86bd7ecdcb084a0673efc32ea31cb81565b600073ffffffffffffffffffffffffffffffffffffffff168373ffffffffffffffffffffffffffffffffffffffff161415613470576040517f08c379a0000000000000000000000000000000000000000000000000000000008152600401808060200182810382526024815260200180614eb16024913960400191505060405180910390fd5b600073ffffffffffffffffffffffffffffffffffffffff168273ffffffffffffffffffffffffffffffffffffffff1614156134f6576040517f08c379a0000000000000000000000000000000000000000000000000000000008152600401808060200182810382526022815260200180614da06022913960400191505060405180910390fd5b80600560008573ffffffffffffffffffffffffffffffffffffffff1673ffffffffffffffffffffffffffffffffffffffff16815260200190815260200160002060008473ffffffffffffffffffffffffffffffffffffffff1673ffffffffffffffffffffffffffffffffffffffff168152602001908152602001600020819055508173ffffffffffffffffffffffffffffffffffffffff168373ffffffffffffffffffffffffffffffffffffffff167f8c5be1e5ebec7d5bd14f71427d1e84f3dd0314c0f7b2291e5b200ac8c7c3b925836040518082815260200191505060405180910390a3505050565b600073ffffffffffffffffffffffffffffffffffffffff168373ffffffffffffffffffffffffffffffffffffffff161415613667576040517f08c379a0000000000000000000000000000000000000000000000000000000008152600401808060200182810382526025815260200180614e8c6025913960400191505060405180910390fd5b600073ffffffffffffffffffffffffffffffffffffffff168273ffffffffffffffffffffffffffffffffffffffff1614156136ed576040517f08c379a0000000000000000000000000000000000000000000000000000000008152600401808060200182810382526023815260200180614d356023913960400191505060405180910390fd5b61375981604051806060016040528060268152602001614dfc60269139600460008773ffffffffffffffffffffffffffffffffffffffff1673ffffffffffffffffffffffffffffffffffffffff1681526020019081526020016000205461389b9092919063ffffffff16565b600460008573ffffffffffffffffffffffffffffffffffffffff1673ffffffffffffffffffffffffffffffffffffffff168152602001908152602001600020819055506137ee81600460008573ffffffffffffffffffffffffffffffffffffffff1673ffffffffffffffffffffffffffffffffffffffff16815260200190815260200160002054613b9590919063ffffffff16565b600460008473ffffffffffffffffffffffffffffffffffffffff1673ffffffffffffffffffffffffffffffffffffffff168152602001908152602001600020819055508173ffffffffffffffffffffffffffffffffffffffff168373ffffffffffffffffffffffffffffffffffffffff167fddf252ad1be2c89b69c2b068fc378daa952ba7f163c4a11628f55a4df523b3ef836040518082815260200191505060405180910390a3505050565b6000838311158290613948576040517f08c379a00000000000000000000000000000000000000000000000000000000081526004018080602001828103825283818151815260200191508051906020019080838360005b8381101561390d5780820151818401526020810190506138f2565b50505050905090810190601f16801561393a5780820380516001836020036101000a031916815260200191505b509250505060405180910390fd5b5060008385039050809150509392505050565b600033905090565b600080600060015414156139f4577f4f0ebd40ebf17fb5f44478155c0280633653900a58f6e78baa63e9b746fed05160006040518080602001838152602001828103825260108152602001807f656e746572696e672070686173652031000000000000000000000000000000008152506020019250505060405180910390a160018081915080905091509150613a76565b7f4f0ebd40ebf17fb5f44478155c0280633653900a58f6e78baa63e9b746fed05160016040518080602001838152602001828103825260108152602001807f656e746572696e672070686173652032000000000000000000000000000000008152506020019250505060405180910390a1613a6e83612695565b600154915091505b915091565b600080831415613a8e5760009050613afb565b6000828402905082848281613a9f57fe5b0414613af6576040517f08c379a0000000000000000000000000000000000000000000000000000000008152600401808060200182810382526021815260200180614e226021913960400191505060405180910390fd5b809150505b92915050565b6000613b4383836040518060400160405280601a81526020017f536166654d6174683a206469766973696f6e206279207a65726f000000000000815250614a1b565b905092915050565b6000613b8d83836040518060400160405280601e81526020017f536166654d6174683a207375627472616374696f6e206f766572666c6f77000081525061389b565b905092915050565b600080828401905083811015613c13576040517f08c379a000000000000000000000000000000000000000000000000000000000815260040180806020018281038252601b8152602001807f536166654d6174683a206164646974696f6e206f766572666c6f77000000000081525060200191505060405180910390fd5b8091505092915050565b600073ffffffffffffffffffffffffffffffffffffffff168273ffffffffffffffffffffffffffffffffffffffff161415613ca3576040517f08c379a0000000000000000000000000000000000000000000000000000000008152600401808060200182810382526021815260200180614e6b6021913960400191505060405180910390fd5b613d0f81604051806060016040528060228152602001614d5860229139600460008673ffffffffffffffffffffffffffffffffffffffff1673ffffffffffffffffffffffffffffffffffffffff1681526020019081526020016000205461389b9092919063ffffffff16565b600460008473ffffffffffffffffffffffffffffffffffffffff1673ffffffffffffffffffffffffffffffffffffffff16815260200190815260200160002081905550613d6781600154613b4b90919063ffffffff16565b600181905550600073ffffffffffffffffffffffffffffffffffffffff168273ffffffffffffffffffffffffffffffffffffffff167fddf252ad1be2c89b69c2b068fc378daa952ba7f163c4a11628f55a4df523b3ef836040518082815260200191505060405180910390a35050565b600080613dfa612710613dec85611379613a7b565b613b0190919063ffffffff16565b90506000613e088483613b4b565b90506000733958b4ec427f8fa24eb60f42821760e88d485f7f73ffffffffffffffffffffffffffffffffffffffff166395e3c50b84613e836103e8613e756103e3613e678a733958b4ec427f8fa24eb60f42821760e88d485f7f614732565b613a7b90919063ffffffff16565b613b0190919063ffffffff16565b613e9861012c42613b9590919063ffffffff16565b6040518463ffffffff1660e01b8152600401808481526020018381526020018281526020019350505050602060405180830381600087803b158015613edc57600080fd5b505af1158015613ef0573d6000803e3d6000fd5b505050506040513d6020811015613f0657600080fd5b81019080805190602001909291905050509050733958b4ec427f8fa24eb60f42821760e88d485f7f73ffffffffffffffffffffffffffffffffffffffff1663ddf7e1a783613fad613f936103e8613f856103e3613f778a733958b4ec427f8fa24eb60f42821760e88d485f7f614732565b613a7b90919063ffffffff16565b613b0190919063ffffffff16565b73e9cf7887b93150d4f2da7dfc6d502b216438f244614ae1565b613ff36103e8613fe56103e3613fd78a733958b4ec427f8fa24eb60f42821760e88d485f7f614732565b613a7b90919063ffffffff16565b613b0190919063ffffffff16565b61400861012c42613b9590919063ffffffff16565b735e74c9036fb86bd7ecdcb084a0673efc32ea31cb6040518663ffffffff1660e01b8152600401808681526020018581526020018481526020018381526020018273ffffffffffffffffffffffffffffffffffffffff1673ffffffffffffffffffffffffffffffffffffffff16815260200195505050505050602060405180830381600087803b15801561409b57600080fd5b505af11580156140af573d6000803e3d6000fd5b505050506040513d60208110156140c557600080fd5b810190808051906020019092919050505050600073e9cf7887b93150d4f2da7dfc6d502b216438f24473ffffffffffffffffffffffffffffffffffffffff1663422f104383600161413f73e9cf7887b93150d4f2da7dfc6d502b216438f244735e74c9036fb86bd7ecdcb084a0673efc32ea31cb886147c8565b61415461012c42613b9590919063ffffffff16565b6040518563ffffffff1660e01b81526004018084815260200183815260200182815260200193505050506020604051808303818588803b15801561419757600080fd5b505af11580156141ab573d6000803e3d6000fd5b50505050506040513d60208110156141c257600080fd5b8101908080519060200190929190505050905073e9cf7887b93150d4f2da7dfc6d502b216438f24473ffffffffffffffffffffffffffffffffffffffff1663ddf7e1a7735e74c9036fb86bd7ecdcb084a0673efc32ea31cb73ffffffffffffffffffffffffffffffffffffffff166370a08231306040518263ffffffff1660e01b8152600401808273ffffffffffffffffffffffffffffffffffffffff1673ffffffffffffffffffffffffffffffffffffffff16815260200191505060206040518083038186803b15801561429657600080fd5b505afa1580156142aa573d6000803e3d6000fd5b505050506040513d60208110156142c057600080fd5b81019080805190602001909291905050506143ff6143e56103e86143d76103e36143c9735e74c9036fb86bd7ecdcb084a0673efc32ea31cb73ffffffffffffffffffffffffffffffffffffffff166370a08231306040518263ffffffff1660e01b8152600401808273ffffffffffffffffffffffffffffffffffffffff1673ffffffffffffffffffffffffffffffffffffffff16815260200191505060206040518083038186803b15801561437457600080fd5b505afa158015614388573d6000803e3d6000fd5b505050506040513d602081101561439e57600080fd5b810190808051906020019092919050505073e9cf7887b93150d4f2da7dfc6d502b216438f244614732565b613a7b90919063ffffffff16565b613b0190919063ffffffff16565b733958b4ec427f8fa24eb60f42821760e88d485f7f614ae1565b6145106103e86145026103e36144f4735e74c9036fb86bd7ecdcb084a0673efc32ea31cb73ffffffffffffffffffffffffffffffffffffffff166370a08231306040518263ffffffff1660e01b8152600401808273ffffffffffffffffffffffffffffffffffffffff1673ffffffffffffffffffffffffffffffffffffffff16815260200191505060206040518083038186803b15801561449f57600080fd5b505afa1580156144b3573d6000803e3d6000fd5b505050506040513d60208110156144c957600080fd5b810190808051906020019092919050505073e9cf7887b93150d4f2da7dfc6d502b216438f244614732565b613a7b90919063ffffffff16565b613b0190919063ffffffff16565b61452561012c42613b9590919063ffffffff16565b73c011a73ee8576fb46f5e1c5751ca3b9fe0af2a6f6040518663ffffffff1660e01b8152600401808681526020018581526020018481526020018381526020018273ffffffffffffffffffffffffffffffffffffffff1673ffffffffffffffffffffffffffffffffffffffff16815260200195505050505050602060405180830381600087803b1580156145b857600080fd5b505af11580156145cc573d6000803e3d6000fd5b505050506040513d60208110156145e257600080fd5b81019080805190602001909291905050505080945050505050919050565b600080600061460f6001613963565b91509150600061463a8361462c8488613a7b90919063ffffffff16565b613b0190919063ffffffff16565b90507f4f0ebd40ebf17fb5f44478155c0280633653900a58f6e78baa63e9b746fed0518560405180806020018381526020018281038252600f8152602001807f686f774d7563684c505374616b656400000000000000000000000000000000008152506020019250505060405180910390a17f4f0ebd40ebf17fb5f44478155c0280633653900a58f6e78baa63e9b746fed0518160405180806020018381526020018281038252600e8152602001807f746f6b656e7332624973737565640000000000000000000000000000000000008152506020019250505060405180910390a16147268682614b77565b80935050505092915050565b60008173ffffffffffffffffffffffffffffffffffffffff166395b68fe7846040518263ffffffff1660e01b81526004018082815260200191505060206040518083038186803b15801561478557600080fd5b505afa158015614799573d6000803e3d6000fd5b505050506040513d60208110156147af57600080fd5b8101908080519060200190929190505050905092915050565b6000808473ffffffffffffffffffffffffffffffffffffffff1631905060006147f18285613b4b565b905060008573ffffffffffffffffffffffffffffffffffffffff166370a08231886040518263ffffffff1660e01b8152600401808273ffffffffffffffffffffffffffffffffffffffff1673ffffffffffffffffffffffffffffffffffffffff16815260200191505060206040518083038186803b15801561487257600080fd5b505afa158015614886573d6000803e3d6000fd5b505050506040513d602081101561489c57600080fd5b81019080805190602001909291905050509050600060016148c66148c08885613a7b565b85613b01565b019050809450505050509392505050565b600073ffffffffffffffffffffffffffffffffffffffff168173ffffffffffffffffffffffffffffffffffffffff16141561495d576040517f08c379a0000000000000000000000000000000000000000000000000000000008152600401808060200182810382526026815260200180614d7a6026913960400191505060405180910390fd5b8073ffffffffffffffffffffffffffffffffffffffff166000809054906101000a900473ffffffffffffffffffffffffffffffffffffffff1673ffffffffffffffffffffffffffffffffffffffff167f8be0079c531659141344cd1fd0a4f28419497f9722a3daafe3b4186f6b6457e060405160405180910390a3806000806101000a81548173ffffffffffffffffffffffffffffffffffffffff021916908373ffffffffffffffffffffffffffffffffffffffff16021790555050565b60008083118290614ac7576040517f08c379a00000000000000000000000000000000000000000000000000000000081526004018080602001828103825283818151815260200191508051906020019080838360005b83811015614a8c578082015181840152602081019050614a71565b50505050905090810190601f168015614ab95780820380516001836020036101000a031916815260200191505b509250505060405180910390fd5b506000838581614ad357fe5b049050809150509392505050565b60008173ffffffffffffffffffffffffffffffffffffffff1663cd7724c3846040518263ffffffff1660e01b81526004018082815260200191505060206040518083038186803b158015614b3457600080fd5b505afa158015614b48573d6000803e3d6000fd5b505050506040513d6020811015614b5e57600080fd5b8101908080519060200190929190505050905092915050565b600073ffffffffffffffffffffffffffffffffffffffff168273ffffffffffffffffffffffffffffffffffffffff161415614c1a576040517f08c379a000000000000000000000000000000000000000000000000000000000815260040180806020018281038252601f8152602001807f45524332303a206d696e7420746f20746865207a65726f20616464726573730081525060200191505060405180910390fd5b614c2f81600154613b9590919063ffffffff16565b600181905550614c8781600460008573ffffffffffffffffffffffffffffffffffffffff1673ffffffffffffffffffffffffffffffffffffffff16815260200190815260200160002054613b9590919063ffffffff16565b600460008473ffffffffffffffffffffffffffffffffffffffff1673ffffffffffffffffffffffffffffffffffffffff168152602001908152602001600020819055508173ffffffffffffffffffffffffffffffffffffffff16600073ffffffffffffffffffffffffffffffffffffffff167fddf252ad1be2c89b69c2b068fc378daa952ba7f163c4a11628f55a4df523b3ef836040518082815260200191505060405180910390a3505056fe45524332303a207472616e7366657220746f20746865207a65726f206164647265737345524332303a206275726e20616d6f756e7420657863656564732062616c616e63654f776e61626c653a206e6577206f776e657220697320746865207a65726f206164647265737345524332303a20617070726f766520746f20746865207a65726f2061646472657373746869732061646472657373207374696c6c20686f6c647320736f6d6520746f6b656e7320616e642063616e6e6f742062652072656d6f76656445524332303a207472616e7366657220616d6f756e7420657863656564732062616c616e6365536166654d6174683a206d756c7469706c69636174696f6e206f766572666c6f7745524332303a207472616e7366657220616d6f756e74206578636565647320616c6c6f77616e636545524332303a206275726e2066726f6d20746865207a65726f206164647265737345524332303a207472616e736665722066726f6d20746865207a65726f206164647265737345524332303a20617070726f76652066726f6d20746865207a65726f2061646472657373796f7520617265206e6f7420616c6c6f77656420746f207374616b65207468726f756768207468697320636f6e7472616374a265627a7a723158200cf100e1bd86fc19012d0197c10ee7d126d2938750fb052dcae465e6f09e664364736f6c634300050d0032",
  "compiler": {
    "name": "solc",
    "version": "0.5.13+commit.5b0b510c.Emscripten.clang",
    "optimizer": {
      "enabled": false,
      "runs": 500
    },
    "evmVersion": "petersburg"
  }
}