{
  "fileName": "zUniPool.sol",
  "contractName": "zUniPool",
  "source": "pragma solidity ^0.5.0;\n\nimport \"./Unipool.sol\";\nimport \"./iUniswapExchangeContract.sol\";\n\ncontract zUniPool {\n    using SafeMath for uint256;\n    using SafeERC20 for IERC20;\n\n    // --- ERC20 Data ---\n    string public constant name = \"zUNI\";\n    string public constant symbol = \"zUNI\";\n    string public constant version = \"1\";\n    uint8 public constant decimals = 18;\n    uint256 public totalSupply;\n\n    /**\n     - Need to check impact of Uniswap V2,  will we need to deploy a v2 or new version of DZSLT\n     due to changes in sETH_LP_TokenAddress and potentially a new version of SNXUniswapTokenAddress?\n    */\n    address public constant UnipoolAddress = 0x48D7f315feDcaD332F68aafa017c7C158BC54760;\n    IERC20 public constant sETHTokenAddress = IERC20(\n        0x5e74C9036fb86BD7eCdcb084a0673EFc32eA31cb\n    );\n    IERC20 public constant sETH_LP_TokenAddress = IERC20(\n        0xe9Cf7887b93150D4F2Da7dFc6D502B216438F244\n    );\n    IERC20 public constant SNXTokenAddress = IERC20(\n        0xC011a73ee8576Fb46F5E1c5751cA3B9Fe0af2a6F\n    );\n    IERC20 public constant SNXUniSwapTokenAddress = IERC20(\n        0x3958B4eC427F8fa24eB60F42821760e88d485f7F\n    );\n\n    uint256 public totalLPTokensStaked;\n\n    mapping(address => uint256) public balanceOf;\n    mapping(address => mapping(address => uint256)) public allowance;\n\n    // events\n    event LPTokensStaked(address indexed staker, uint256 qtyStaked);\n    event LPTokensWithdrawn(address indexed leaver, uint256 qtyWithdrawn);\n    event Approval(address indexed src, address indexed guy, uint256 wad);\n    event Transfer(address indexed src, address indexed dst, uint256 wad);\n\n    // testing events\n    event internall(string, uint256);\n\n    constructor() public {\n        approve_Addresses();\n    }\n\n    function approve_Addresses() public {\n        sETH_LP_TokenAddress.approve(UnipoolAddress, ((2**256) - 1));\n        SNXTokenAddress.approve(\n            address(SNXUniSwapTokenAddress),\n            ((2**256) - 1)\n        );\n        sETHTokenAddress.approve(address(sETH_LP_TokenAddress), ((2**256) - 1));\n    }\n\n    // reader functions\n\n    function howMuchHasThisContractStaked()\n        public\n        view\n        returns (uint256 LPTokens)\n    {\n        return Unipool(UnipoolAddress).balanceOf(address(this));\n    }\n\n    function howMuchHasThisContractEarned()\n        public\n        view\n        returns (uint256 SNXEarned)\n    {\n        return Unipool(UnipoolAddress).earned(address(this));\n    }\n\n    /**\n     * @dev Returs the amount of LP redemeemable / to be staked for a given quantity of zUNI\n     */\n    function howMuchIszUNIWorth(uint256 _zUNIinWEI)\n        external\n        view\n        returns (uint256)\n    {\n        if (totalSupply > 0) {\n            if (\n                Unipool(UnipoolAddress).earned(address(this)) > 0.000005 ether\n            ) {\n                uint256 eth4SNX = min_eth(\n                    (Unipool(UnipoolAddress).earned(address(this))),\n                    address(SNXUniSwapTokenAddress)\n                );\n                uint256 maxTokens = getMaxTokens(\n                    address(sETH_LP_TokenAddress),\n                    sETHTokenAddress,\n                    ((eth4SNX).mul(4985)).div(10000)\n                );\n                uint256 notinalLP = totalLPTokensStaked.add(maxTokens);\n                return (((_zUNIinWEI).mul(notinalLP)).div(totalSupply));\n            } else {\n                return (\n                    ((_zUNIinWEI).mul(totalLPTokensStaked)).div(totalSupply)\n                );\n            }\n        } else {\n            return (1);\n        }\n\n    }\n\n    // action functions\n    function stakeMyShare(uint256 _LPTokenUints) public returns (uint256) {\n        // transfer to this address\n        sETH_LP_TokenAddress.transferFrom(\n            msg.sender,\n            address(this),\n            _LPTokenUints\n        );\n\n        uint256 tokens = issueTokens(msg.sender, _LPTokenUints);\n        emit internall(\"tokens\", tokens);\n\n        Unipool(UnipoolAddress).stake(_LPTokenUints);\n\n        totalLPTokensStaked = totalLPTokensStaked.add(_LPTokenUints);\n        return (tokens);\n    }\n\n    function issueTokens(address toWhom, uint256 howMuchLPStaked)\n        internal\n        returns (uint256 tokensIssued)\n    {\n        (uint256 totalLPs, uint256 totalzUNIs) = getDetails(true);\n        uint256 tokens2bIssued = (howMuchLPStaked.mul(totalzUNIs)).div(\n            totalLPs\n        );\n        emit internall(\"howMuchLPStaked\", howMuchLPStaked);\n        emit internall(\"tokens2bIssued\", tokens2bIssued);\n        mint(toWhom, tokens2bIssued);\n        return tokens2bIssued;\n    }\n\n    function getDetails(bool enter)\n        internal\n        returns (uint256 totalLPs, uint256 totalzUNIs)\n    {\n        if (totalSupply == 0) {\n            emit internall(\"entering phase 1\", 0);\n            return (1, 1);\n        } else {\n            emit internall(\"entering phase 2\", 1);\n            return (reBalance(enter), totalSupply);\n        }\n    }\n\n    function reBalance(bool enter) public returns (uint256 LPTokenWealth) {\n        /* @dev: it does not make economical sense to claim reward if the SNX \n        / earned is less than 0.000005; considering the price of SNX at the time \n        / of writing this contract\n        */\n\n        if (howMuchHasThisContractEarned() > 0.000005 ether) {\n            emit internall(\n                \"Earnings more than the threshold\",\n                howMuchHasThisContractEarned()\n            );\n            Unipool(UnipoolAddress).getReward();\n            emit internall(\"Claiming Reward\", 12);\n            uint256 SNXInHandHoldings = SNXTokenAddress.balanceOf(\n                address(this)\n            ); // 0\n            uint256 LPJustReceived = convertSNXtoLP(SNXInHandHoldings);\n            emit internall(\"LPJustReceived\", LPJustReceived);\n            if (enter) {\n                Unipool(UnipoolAddress).stake(LPJustReceived);\n                totalLPTokensStaked = totalLPTokensStaked.add(LPJustReceived);\n                emit internall(\"totalLPTokensStaked\", totalLPTokensStaked);\n                return (totalLPTokensStaked);\n            } else {\n                return (totalLPTokensStaked.add(LPJustReceived));\n            }\n\n        } else {\n            return (totalLPTokensStaked);\n        }\n    }\n\n    function convertSNXtoLP(uint256 SNXQty)\n        internal\n        returns (uint256 LPReceived)\n    {\n        uint256 SNX2BcETH = SafeMath.mul(SNXQty, 4985).div(10000);\n        uint256 SNX2BcSETH = SafeMath.sub(SNXQty, SNX2BcETH);\n\n        uint256 ETHfromSNX = UniswapExchangeInterface(\n            address(SNXUniSwapTokenAddress)\n        )\n            .tokenToEthSwapInput(\n            SNX2BcETH,\n            (\n                (\n                    min_eth(SNX2BcETH, address(SNXUniSwapTokenAddress))\n                        .mul(995)\n                        .div(1000)\n                )\n            ),\n            now.add(300)\n        );\n\n        // converting a portion of the SNX to sETH for the purpose of adding liquidity\n        UniswapExchangeInterface(address(SNXUniSwapTokenAddress))\n            .tokenToTokenSwapInput(\n            SNX2BcSETH,\n            min_tokens(\n                (min_eth(SNX2BcSETH, address(SNXUniSwapTokenAddress)).mul(995))\n                    .div(1000),\n                address(sETH_LP_TokenAddress)\n            ),\n            (\n                min_eth(SNX2BcSETH, address(SNXUniSwapTokenAddress))\n                    .mul(995)\n                    .div(1000)\n            ),\n            now.add(300),\n            address(sETHTokenAddress)\n        );\n\n        // adding liquidity\n        uint256 LPU = UniswapExchangeInterface(address(sETH_LP_TokenAddress))\n            .addLiquidity\n            .value(ETHfromSNX)(\n            1,\n            getMaxTokens(\n                address(sETH_LP_TokenAddress),\n                sETHTokenAddress,\n                ETHfromSNX\n            ),\n            now.add(300)\n        );\n\n        // converting the balance sETH to SNX\n\n        UniswapExchangeInterface(address(sETH_LP_TokenAddress))\n            .tokenToTokenSwapInput(\n            (sETHTokenAddress.balanceOf(address(this))),\n            min_tokens(\n                (\n                    min_eth(\n                        (sETHTokenAddress.balanceOf(address(this))),\n                        address(sETH_LP_TokenAddress)\n                    )\n                        .mul(995)\n                        .div(1000)\n                ),\n                address(SNXUniSwapTokenAddress)\n            ),\n            (\n                min_eth(\n                    (sETHTokenAddress.balanceOf(address(this))),\n                    address(sETH_LP_TokenAddress)\n                )\n                    .mul(995)\n                    .div(1000)\n            ),\n            now.add(300),\n            address(SNXTokenAddress)\n        );\n\n        return LPU;\n    }\n\n    function getMaxTokens(address uniExchAdd, IERC20 ERC20Add, uint256 value)\n        internal\n        view\n        returns (uint256)\n    {\n        uint256 contractBalance = address(uniExchAdd).balance;\n        uint256 eth_reserve = SafeMath.sub(contractBalance, value);\n        uint256 token_reserve = ERC20Add.balanceOf(uniExchAdd);\n        uint256 token_amount = SafeMath.div(\n            SafeMath.mul(value, token_reserve),\n            eth_reserve\n        ) +\n            1;\n        return token_amount;\n    }\n\n    function min_eth(uint256 tokenQTY, address uniExchAdd)\n        internal\n        view\n        returns (uint256)\n    {\n        return\n            UniswapExchangeInterface(uniExchAdd).getTokenToEthInputPrice(\n                tokenQTY\n            );\n    }\n\n    function min_tokens(uint256 ethAmt, address uniExchAdd)\n        internal\n        view\n        returns (uint256)\n    {\n        return\n            UniswapExchangeInterface(uniExchAdd).getEthToTokenInputPrice(\n                ethAmt\n            );\n    }\n\n    function getMyStakeOut(uint256 _tokenQTY)\n        public\n        returns (uint256 LPTokensReleased)\n    {\n        require(balanceOf[msg.sender] >= _tokenQTY, \"Withdrawing qty invalid\");\n        (uint256 totalLPs, uint256 totalzUNIs) = getDetails(false);\n        uint256 LPs2bRedemeed = (_tokenQTY.mul(totalLPs)).div(totalzUNIs);\n        uint256 LPsInHand = sETH_LP_TokenAddress.balanceOf(address(this));\n        if (LPs2bRedemeed > LPsInHand) {\n            uint256 LPsShortOf = LPs2bRedemeed.sub(LPsInHand);\n            Unipool(UnipoolAddress).withdraw(LPsShortOf);\n            sETH_LP_TokenAddress.transfer(msg.sender, LPs2bRedemeed);\n            totalLPTokensStaked = totalLPTokensStaked.sub(LPs2bRedemeed);\n        } else {\n            sETH_LP_TokenAddress.transfer(msg.sender, LPs2bRedemeed);\n            uint256 leftOverLPs = sETH_LP_TokenAddress.balanceOf(address(this));\n            if (leftOverLPs > 0) {\n                Unipool(UnipoolAddress).stake(leftOverLPs);\n                totalLPTokensStaked = totalLPTokensStaked.add(leftOverLPs);\n            }\n        }\n        burn(msg.sender, _tokenQTY);\n        return (LPs2bRedemeed);\n    }\n\n    function mint(address account, uint256 amount) internal {\n        require(account != address(0), \"ERC20: mint to the zero address\");\n        // _beforeTokenTransfer(address(0), account, amount);\n        totalSupply = totalSupply.add(amount);\n        balanceOf[account] = balanceOf[account].add(amount);\n        emit Transfer(address(0), account, amount);\n    }\n\n    function burn(address account, uint256 amount) internal {\n        require(account != address(0), \"ERC20: burn from the zero address\");\n        // _beforeTokenTransfer(account, address(0), amount);\n        balanceOf[account] = balanceOf[account].sub(\n            amount,\n            \"ERC20: burn amount exceeds balance\"\n        );\n        totalSupply = totalSupply.sub(amount);\n        emit Transfer(account, address(0), amount);\n    }\n\n    function transfer(address recipient, uint256 amount) public returns (bool) {\n        _transfer(msg.sender, recipient, amount);\n        return true;\n    }\n\n    function approve(address spender, uint256 amount) public returns (bool) {\n        _approve(msg.sender, spender, amount);\n        return true;\n    }\n\n    function transferFrom(address sender, address recipient, uint256 amount)\n        public\n        returns (bool)\n    {\n        _transfer(sender, recipient, amount);\n        _approve(\n            sender,\n            msg.sender,\n            allowance[sender][msg.sender].sub(\n                amount,\n                \"ERC20: transfer amount exceeds allowance\"\n            )\n        );\n        return true;\n    }\n\n    function _transfer(address sender, address recipient, uint256 amount)\n        internal\n    {\n        require(sender != address(0), \"ERC20: transfer from the zero address\");\n        require(recipient != address(0), \"ERC20: transfer to the zero address\");\n        // _beforeTokenTransfer(sender, recipient, amount);\n        balanceOf[sender] = balanceOf[sender].sub(\n            amount,\n            \"ERC20: transfer amount exceeds balance\"\n        );\n        balanceOf[recipient] = balanceOf[recipient].add(amount);\n        emit Transfer(sender, recipient, amount);\n    }\n\n    function _approve(address owner, address spender, uint256 amount) internal {\n        require(owner != address(0), \"ERC20: approve from the zero address\");\n        require(spender != address(0), \"ERC20: approve to the zero address\");\n        allowance[owner][spender] = amount;\n        emit Approval(owner, spender, amount);\n    }\n\n    function() external payable {\n        emit internall(\"got cash\", msg.value);\n    }\n\n}\n",
  "sourcePath": "contracts/zUniPool.sol",
  "abi": [
    {
      "inputs": [],
      "payable": false,
      "stateMutability": "nonpayable",
      "type": "constructor"
    },
    {
      "anonymous": false,
      "inputs": [
        {
          "indexed": true,
          "internalType": "address",
          "name": "src",
          "type": "address"
        },
        {
          "indexed": true,
          "internalType": "address",
          "name": "guy",
          "type": "address"
        },
        {
          "indexed": false,
          "internalType": "uint256",
          "name": "wad",
          "type": "uint256"
        }
      ],
      "name": "Approval",
      "type": "event"
    },
    {
      "anonymous": false,
      "inputs": [
        {
          "indexed": true,
          "internalType": "address",
          "name": "staker",
          "type": "address"
        },
        {
          "indexed": false,
          "internalType": "uint256",
          "name": "qtyStaked",
          "type": "uint256"
        }
      ],
      "name": "LPTokensStaked",
      "type": "event"
    },
    {
      "anonymous": false,
      "inputs": [
        {
          "indexed": true,
          "internalType": "address",
          "name": "leaver",
          "type": "address"
        },
        {
          "indexed": false,
          "internalType": "uint256",
          "name": "qtyWithdrawn",
          "type": "uint256"
        }
      ],
      "name": "LPTokensWithdrawn",
      "type": "event"
    },
    {
      "anonymous": false,
      "inputs": [
        {
          "indexed": true,
          "internalType": "address",
          "name": "src",
          "type": "address"
        },
        {
          "indexed": true,
          "internalType": "address",
          "name": "dst",
          "type": "address"
        },
        {
          "indexed": false,
          "internalType": "uint256",
          "name": "wad",
          "type": "uint256"
        }
      ],
      "name": "Transfer",
      "type": "event"
    },
    {
      "anonymous": false,
      "inputs": [
        {
          "indexed": false,
          "internalType": "string",
          "name": "",
          "type": "string"
        },
        {
          "indexed": false,
          "internalType": "uint256",
          "name": "",
          "type": "uint256"
        }
      ],
      "name": "internall",
      "type": "event"
    },
    {
      "payable": true,
      "stateMutability": "payable",
      "type": "fallback"
    },
    {
      "constant": true,
      "inputs": [],
      "name": "SNXTokenAddress",
      "outputs": [
        {
          "internalType": "contract IERC20",
          "name": "",
          "type": "address"
        }
      ],
      "payable": false,
      "stateMutability": "view",
      "type": "function"
    },
    {
      "constant": true,
      "inputs": [],
      "name": "SNXUniSwapTokenAddress",
      "outputs": [
        {
          "internalType": "contract IERC20",
          "name": "",
          "type": "address"
        }
      ],
      "payable": false,
      "stateMutability": "view",
      "type": "function"
    },
    {
      "constant": true,
      "inputs": [],
      "name": "UnipoolAddress",
      "outputs": [
        {
          "internalType": "address",
          "name": "",
          "type": "address"
        }
      ],
      "payable": false,
      "stateMutability": "view",
      "type": "function"
    },
    {
      "constant": true,
      "inputs": [
        {
          "internalType": "address",
          "name": "",
          "type": "address"
        },
        {
          "internalType": "address",
          "name": "",
          "type": "address"
        }
      ],
      "name": "allowance",
      "outputs": [
        {
          "internalType": "uint256",
          "name": "",
          "type": "uint256"
        }
      ],
      "payable": false,
      "stateMutability": "view",
      "type": "function"
    },
    {
      "constant": false,
      "inputs": [
        {
          "internalType": "address",
          "name": "spender",
          "type": "address"
        },
        {
          "internalType": "uint256",
          "name": "amount",
          "type": "uint256"
        }
      ],
      "name": "approve",
      "outputs": [
        {
          "internalType": "bool",
          "name": "",
          "type": "bool"
        }
      ],
      "payable": false,
      "stateMutability": "nonpayable",
      "type": "function"
    },
    {
      "constant": false,
      "inputs": [],
      "name": "approve_Addresses",
      "outputs": [],
      "payable": false,
      "stateMutability": "nonpayable",
      "type": "function"
    },
    {
      "constant": true,
      "inputs": [
        {
          "internalType": "address",
          "name": "",
          "type": "address"
        }
      ],
      "name": "balanceOf",
      "outputs": [
        {
          "internalType": "uint256",
          "name": "",
          "type": "uint256"
        }
      ],
      "payable": false,
      "stateMutability": "view",
      "type": "function"
    },
    {
      "constant": true,
      "inputs": [],
      "name": "decimals",
      "outputs": [
        {
          "internalType": "uint8",
          "name": "",
          "type": "uint8"
        }
      ],
      "payable": false,
      "stateMutability": "view",
      "type": "function"
    },
    {
      "constant": false,
      "inputs": [
        {
          "internalType": "uint256",
          "name": "_tokenQTY",
          "type": "uint256"
        }
      ],
      "name": "getMyStakeOut",
      "outputs": [
        {
          "internalType": "uint256",
          "name": "LPTokensReleased",
          "type": "uint256"
        }
      ],
      "payable": false,
      "stateMutability": "nonpayable",
      "type": "function"
    },
    {
      "constant": true,
      "inputs": [],
      "name": "howMuchHasThisContractEarned",
      "outputs": [
        {
          "internalType": "uint256",
          "name": "SNXEarned",
          "type": "uint256"
        }
      ],
      "payable": false,
      "stateMutability": "view",
      "type": "function"
    },
    {
      "constant": true,
      "inputs": [],
      "name": "howMuchHasThisContractStaked",
      "outputs": [
        {
          "internalType": "uint256",
          "name": "LPTokens",
          "type": "uint256"
        }
      ],
      "payable": false,
      "stateMutability": "view",
      "type": "function"
    },
    {
      "constant": true,
      "inputs": [
        {
          "internalType": "uint256",
          "name": "_zUNIinWEI",
          "type": "uint256"
        }
      ],
      "name": "howMuchIszUNIWorth",
      "outputs": [
        {
          "internalType": "uint256",
          "name": "",
          "type": "uint256"
        }
      ],
      "payable": false,
      "stateMutability": "view",
      "type": "function"
    },
    {
      "constant": true,
      "inputs": [],
      "name": "name",
      "outputs": [
        {
          "internalType": "string",
          "name": "",
          "type": "string"
        }
      ],
      "payable": false,
      "stateMutability": "view",
      "type": "function"
    },
    {
      "constant": false,
      "inputs": [
        {
          "internalType": "bool",
          "name": "enter",
          "type": "bool"
        }
      ],
      "name": "reBalance",
      "outputs": [
        {
          "internalType": "uint256",
          "name": "LPTokenWealth",
          "type": "uint256"
        }
      ],
      "payable": false,
      "stateMutability": "nonpayable",
      "type": "function"
    },
    {
      "constant": true,
      "inputs": [],
      "name": "sETHTokenAddress",
      "outputs": [
        {
          "internalType": "contract IERC20",
          "name": "",
          "type": "address"
        }
      ],
      "payable": false,
      "stateMutability": "view",
      "type": "function"
    },
    {
      "constant": true,
      "inputs": [],
      "name": "sETH_LP_TokenAddress",
      "outputs": [
        {
          "internalType": "contract IERC20",
          "name": "",
          "type": "address"
        }
      ],
      "payable": false,
      "stateMutability": "view",
      "type": "function"
    },
    {
      "constant": false,
      "inputs": [
        {
          "internalType": "uint256",
          "name": "_LPTokenUints",
          "type": "uint256"
        }
      ],
      "name": "stakeMyShare",
      "outputs": [
        {
          "internalType": "uint256",
          "name": "",
          "type": "uint256"
        }
      ],
      "payable": false,
      "stateMutability": "nonpayable",
      "type": "function"
    },
    {
      "constant": true,
      "inputs": [],
      "name": "symbol",
      "outputs": [
        {
          "internalType": "string",
          "name": "",
          "type": "string"
        }
      ],
      "payable": false,
      "stateMutability": "view",
      "type": "function"
    },
    {
      "constant": true,
      "inputs": [],
      "name": "totalLPTokensStaked",
      "outputs": [
        {
          "internalType": "uint256",
          "name": "",
          "type": "uint256"
        }
      ],
      "payable": false,
      "stateMutability": "view",
      "type": "function"
    },
    {
      "constant": true,
      "inputs": [],
      "name": "totalSupply",
      "outputs": [
        {
          "internalType": "uint256",
          "name": "",
          "type": "uint256"
        }
      ],
      "payable": false,
      "stateMutability": "view",
      "type": "function"
    },
    {
      "constant": false,
      "inputs": [
        {
          "internalType": "address",
          "name": "recipient",
          "type": "address"
        },
        {
          "internalType": "uint256",
          "name": "amount",
          "type": "uint256"
        }
      ],
      "name": "transfer",
      "outputs": [
        {
          "internalType": "bool",
          "name": "",
          "type": "bool"
        }
      ],
      "payable": false,
      "stateMutability": "nonpayable",
      "type": "function"
    },
    {
      "constant": false,
      "inputs": [
        {
          "internalType": "address",
          "name": "sender",
          "type": "address"
        },
        {
          "internalType": "address",
          "name": "recipient",
          "type": "address"
        },
        {
          "internalType": "uint256",
          "name": "amount",
          "type": "uint256"
        }
      ],
      "name": "transferFrom",
      "outputs": [
        {
          "internalType": "bool",
          "name": "",
          "type": "bool"
        }
      ],
      "payable": false,
      "stateMutability": "nonpayable",
      "type": "function"
    },
    {
      "constant": true,
      "inputs": [],
      "name": "version",
      "outputs": [
        {
          "internalType": "string",
          "name": "",
          "type": "string"
        }
      ],
      "payable": false,
      "stateMutability": "view",
      "type": "function"
    }
  ],
  "bytecode": "0x60806040523480156200001157600080fd5b50620000226200002860201b60201c565b62000354565b73e9cf7887b93150d4f2da7dfc6d502b216438f24473ffffffffffffffffffffffffffffffffffffffff1663095ea7b37348d7f315fedcad332f68aafa017c7c158bc547607fffffffffffffffffffffffffffffffffffffffffffffffffffffffffffffffff6040518363ffffffff1660e01b8152600401808373ffffffffffffffffffffffffffffffffffffffff1673ffffffffffffffffffffffffffffffffffffffff16815260200182815260200192505050602060405180830381600087803b158015620000f857600080fd5b505af11580156200010d573d6000803e3d6000fd5b505050506040513d60208110156200012457600080fd5b81019080805190602001909291905050505073c011a73ee8576fb46f5e1c5751ca3b9fe0af2a6f73ffffffffffffffffffffffffffffffffffffffff1663095ea7b3733958b4ec427f8fa24eb60f42821760e88d485f7f7fffffffffffffffffffffffffffffffffffffffffffffffffffffffffffffffff6040518363ffffffff1660e01b8152600401808373ffffffffffffffffffffffffffffffffffffffff1673ffffffffffffffffffffffffffffffffffffffff16815260200182815260200192505050602060405180830381600087803b1580156200020657600080fd5b505af11580156200021b573d6000803e3d6000fd5b505050506040513d60208110156200023257600080fd5b810190808051906020019092919050505050735e74c9036fb86bd7ecdcb084a0673efc32ea31cb73ffffffffffffffffffffffffffffffffffffffff1663095ea7b373e9cf7887b93150d4f2da7dfc6d502b216438f2447fffffffffffffffffffffffffffffffffffffffffffffffffffffffffffffffff6040518363ffffffff1660e01b8152600401808373ffffffffffffffffffffffffffffffffffffffff1673ffffffffffffffffffffffffffffffffffffffff16815260200182815260200192505050602060405180830381600087803b1580156200031457600080fd5b505af115801562000329573d6000803e3d6000fd5b505050506040513d60208110156200034057600080fd5b810190808051906020019092919050505050565b61392080620003646000396000f3fe6080604052600436106101705760003560e01c80637c50e076116100d6578063bbaabe041161007f578063e5be1a9611610059578063e5be1a9614610909578063e7be53a414610934578063f70f48931461098357610170565b8063bbaabe04146107d6578063dd62ed3e1461082d578063e4c78211146108b257610170565b8063a75afc7d116100b0578063a75afc7d146106c3578063a9059cbb14610714578063aca5bbd01461078757610170565b80637c50e076146105cd57806395d89b41146105e4578063966eed1f1461067457610170565b806323b872dd1161013857806354fd4d501161011257806354fd4d50146104ad5780636c57e5751461053d57806370a082311461056857610170565b806323b872dd146103be578063313ce567146104515780634211a5951461048257610170565b806306fdde03146101e2578063095ea7b31461027257806314d74204146102e5578063161e8e821461033c57806318160ddd14610393575b7f4f0ebd40ebf17fb5f44478155c0280633653900a58f6e78baa63e9b746fed051346040518080602001838152602001828103825260088152602001807f676f7420636173680000000000000000000000000000000000000000000000008152506020019250505060405180910390a1005b3480156101ee57600080fd5b506101f76109da565b6040518080602001828103825283818151815260200191508051906020019080838360005b8381101561023757808201518184015260208101905061021c565b50505050905090810190601f1680156102645780820380516001836020036101000a031916815260200191505b509250505060405180910390f35b34801561027e57600080fd5b506102cb6004803603604081101561029557600080fd5b81019080803573ffffffffffffffffffffffffffffffffffffffff16906020019092919080359060200190929190505050610a13565b604051808215151515815260200191505060405180910390f35b3480156102f157600080fd5b506102fa610a2a565b604051808273ffffffffffffffffffffffffffffffffffffffff1673ffffffffffffffffffffffffffffffffffffffff16815260200191505060405180910390f35b34801561034857600080fd5b50610351610a42565b604051808273ffffffffffffffffffffffffffffffffffffffff1673ffffffffffffffffffffffffffffffffffffffff16815260200191505060405180910390f35b34801561039f57600080fd5b506103a8610a5a565b6040518082815260200191505060405180910390f35b3480156103ca57600080fd5b50610437600480360360608110156103e157600080fd5b81019080803573ffffffffffffffffffffffffffffffffffffffff169060200190929190803573ffffffffffffffffffffffffffffffffffffffff16906020019092919080359060200190929190505050610a60565b604051808215151515815260200191505060405180910390f35b34801561045d57600080fd5b50610466610b2b565b604051808260ff1660ff16815260200191505060405180910390f35b34801561048e57600080fd5b50610497610b30565b6040518082815260200191505060405180910390f35b3480156104b957600080fd5b506104c2610b36565b6040518080602001828103825283818151815260200191508051906020019080838360005b838110156105025780820151818401526020810190506104e7565b50505050905090810190601f16801561052f5780820380516001836020036101000a031916815260200191505b509250505060405180910390f35b34801561054957600080fd5b50610552610b6f565b6040518082815260200191505060405180910390f35b34801561057457600080fd5b506105b76004803603602081101561058b57600080fd5b81019080803573ffffffffffffffffffffffffffffffffffffffff169060200190929190505050610c42565b6040518082815260200191505060405180910390f35b3480156105d957600080fd5b506105e2610c5a565b005b3480156105f057600080fd5b506105f9610f7d565b6040518080602001828103825283818151815260200191508051906020019080838360005b8381101561063957808201518184015260208101905061061e565b50505050905090810190601f1680156106665780820380516001836020036101000a031916815260200191505b509250505060405180910390f35b34801561068057600080fd5b506106ad6004803603602081101561069757600080fd5b8101908080359060200190929190505050610fb6565b6040518082815260200191505060405180910390f35b3480156106cf57600080fd5b506106fe600480360360208110156106e657600080fd5b81019080803515159060200190929190505050611570565b6040518082815260200191505060405180910390f35b34801561072057600080fd5b5061076d6004803603604081101561073757600080fd5b81019080803573ffffffffffffffffffffffffffffffffffffffff16906020019092919080359060200190929190505050611977565b604051808215151515815260200191505060405180910390f35b34801561079357600080fd5b506107c0600480360360208110156107aa57600080fd5b810190808035906020019092919050505061198e565b6040518082815260200191505060405180910390f35b3480156107e257600080fd5b506107eb611bbc565b604051808273ffffffffffffffffffffffffffffffffffffffff1673ffffffffffffffffffffffffffffffffffffffff16815260200191505060405180910390f35b34801561083957600080fd5b5061089c6004803603604081101561085057600080fd5b81019080803573ffffffffffffffffffffffffffffffffffffffff169060200190929190803573ffffffffffffffffffffffffffffffffffffffff169060200190929190505050611bd4565b6040518082815260200191505060405180910390f35b3480156108be57600080fd5b506108c7611bf9565b604051808273ffffffffffffffffffffffffffffffffffffffff1673ffffffffffffffffffffffffffffffffffffffff16815260200191505060405180910390f35b34801561091557600080fd5b5061091e611c11565b6040518082815260200191505060405180910390f35b34801561094057600080fd5b5061096d6004803603602081101561095757600080fd5b8101908080359060200190929190505050611ce3565b6040518082815260200191505060405180910390f35b34801561098f57600080fd5b50610998611f96565b604051808273ffffffffffffffffffffffffffffffffffffffff1673ffffffffffffffffffffffffffffffffffffffff16815260200191505060405180910390f35b6040518060400160405280600481526020017f7a554e490000000000000000000000000000000000000000000000000000000081525081565b6000610a20338484611fae565b6001905092915050565b73e9cf7887b93150d4f2da7dfc6d502b216438f24481565b733958b4ec427f8fa24eb60f42821760e88d485f7f81565b60005481565b6000610a6d8484846121a5565b610b208433610b1b8560405180606001604052806028815260200161385a60289139600360008b73ffffffffffffffffffffffffffffffffffffffff1673ffffffffffffffffffffffffffffffffffffffff16815260200190815260200160002060003373ffffffffffffffffffffffffffffffffffffffff1673ffffffffffffffffffffffffffffffffffffffff1681526020019081526020016000205461245f9092919063ffffffff16565b611fae565b600190509392505050565b601281565b60015481565b6040518060400160405280600181526020017f310000000000000000000000000000000000000000000000000000000000000081525081565b60007348d7f315fedcad332f68aafa017c7c158bc5476073ffffffffffffffffffffffffffffffffffffffff166370a08231306040518263ffffffff1660e01b8152600401808273ffffffffffffffffffffffffffffffffffffffff1673ffffffffffffffffffffffffffffffffffffffff16815260200191505060206040518083038186803b158015610c0257600080fd5b505afa158015610c16573d6000803e3d6000fd5b505050506040513d6020811015610c2c57600080fd5b8101908080519060200190929190505050905090565b60026020528060005260406000206000915090505481565b73e9cf7887b93150d4f2da7dfc6d502b216438f24473ffffffffffffffffffffffffffffffffffffffff1663095ea7b37348d7f315fedcad332f68aafa017c7c158bc547607fffffffffffffffffffffffffffffffffffffffffffffffffffffffffffffffff6040518363ffffffff1660e01b8152600401808373ffffffffffffffffffffffffffffffffffffffff1673ffffffffffffffffffffffffffffffffffffffff16815260200182815260200192505050602060405180830381600087803b158015610d2957600080fd5b505af1158015610d3d573d6000803e3d6000fd5b505050506040513d6020811015610d5357600080fd5b81019080805190602001909291905050505073c011a73ee8576fb46f5e1c5751ca3b9fe0af2a6f73ffffffffffffffffffffffffffffffffffffffff1663095ea7b3733958b4ec427f8fa24eb60f42821760e88d485f7f7fffffffffffffffffffffffffffffffffffffffffffffffffffffffffffffffff6040518363ffffffff1660e01b8152600401808373ffffffffffffffffffffffffffffffffffffffff1673ffffffffffffffffffffffffffffffffffffffff16815260200182815260200192505050602060405180830381600087803b158015610e3457600080fd5b505af1158015610e48573d6000803e3d6000fd5b505050506040513d6020811015610e5e57600080fd5b810190808051906020019092919050505050735e74c9036fb86bd7ecdcb084a0673efc32ea31cb73ffffffffffffffffffffffffffffffffffffffff1663095ea7b373e9cf7887b93150d4f2da7dfc6d502b216438f2447fffffffffffffffffffffffffffffffffffffffffffffffffffffffffffffffff6040518363ffffffff1660e01b8152600401808373ffffffffffffffffffffffffffffffffffffffff1673ffffffffffffffffffffffffffffffffffffffff16815260200182815260200192505050602060405180830381600087803b158015610f3f57600080fd5b505af1158015610f53573d6000803e3d6000fd5b505050506040513d6020811015610f6957600080fd5b810190808051906020019092919050505050565b6040518060400160405280600481526020017f7a554e490000000000000000000000000000000000000000000000000000000081525081565b600081600260003373ffffffffffffffffffffffffffffffffffffffff1673ffffffffffffffffffffffffffffffffffffffff16815260200190815260200160002054101561106d576040517f08c379a00000000000000000000000000000000000000000000000000000000081526004018080602001828103825260178152602001807f5769746864726177696e672071747920696e76616c696400000000000000000081525060200191505060405180910390fd5b60008061107a600061251f565b9150915060006110a582611097858861263690919063ffffffff16565b6126bc90919063ffffffff16565b9050600073e9cf7887b93150d4f2da7dfc6d502b216438f24473ffffffffffffffffffffffffffffffffffffffff166370a08231306040518263ffffffff1660e01b8152600401808273ffffffffffffffffffffffffffffffffffffffff1673ffffffffffffffffffffffffffffffffffffffff16815260200191505060206040518083038186803b15801561113a57600080fd5b505afa15801561114e573d6000803e3d6000fd5b505050506040513d602081101561116457600080fd5b810190808051906020019092919050505090508082111561130d576000611194828461270690919063ffffffff16565b90507348d7f315fedcad332f68aafa017c7c158bc5476073ffffffffffffffffffffffffffffffffffffffff16632e1a7d4d826040518263ffffffff1660e01b815260040180828152602001915050600060405180830381600087803b1580156111fd57600080fd5b505af1158015611211573d6000803e3d6000fd5b5050505073e9cf7887b93150d4f2da7dfc6d502b216438f24473ffffffffffffffffffffffffffffffffffffffff1663a9059cbb33856040518363ffffffff1660e01b8152600401808373ffffffffffffffffffffffffffffffffffffffff1673ffffffffffffffffffffffffffffffffffffffff16815260200182815260200192505050602060405180830381600087803b1580156112b057600080fd5b505af11580156112c4573d6000803e3d6000fd5b505050506040513d60208110156112da57600080fd5b8101908080519060200190929190505050506113018360015461270690919063ffffffff16565b6001819055505061155a565b73e9cf7887b93150d4f2da7dfc6d502b216438f24473ffffffffffffffffffffffffffffffffffffffff1663a9059cbb33846040518363ffffffff1660e01b8152600401808373ffffffffffffffffffffffffffffffffffffffff1673ffffffffffffffffffffffffffffffffffffffff16815260200182815260200192505050602060405180830381600087803b1580156113a857600080fd5b505af11580156113bc573d6000803e3d6000fd5b505050506040513d60208110156113d257600080fd5b810190808051906020019092919050505050600073e9cf7887b93150d4f2da7dfc6d502b216438f24473ffffffffffffffffffffffffffffffffffffffff166370a08231306040518263ffffffff1660e01b8152600401808273ffffffffffffffffffffffffffffffffffffffff1673ffffffffffffffffffffffffffffffffffffffff16815260200191505060206040518083038186803b15801561147757600080fd5b505afa15801561148b573d6000803e3d6000fd5b505050506040513d60208110156114a157600080fd5b810190808051906020019092919050505090506000811115611558577348d7f315fedcad332f68aafa017c7c158bc5476073ffffffffffffffffffffffffffffffffffffffff1663a694fc3a826040518263ffffffff1660e01b815260040180828152602001915050600060405180830381600087803b15801561152457600080fd5b505af1158015611538573d6000803e3d6000fd5b505050506115518160015461275090919063ffffffff16565b6001819055505b505b61156433876127d8565b81945050505050919050565b600065048c27395000611581611c11565b111561196c577f4f0ebd40ebf17fb5f44478155c0280633653900a58f6e78baa63e9b746fed0516115b0611c11565b6040518080602001838152602001828103825260208152602001807f4561726e696e6773206d6f7265207468616e20746865207468726573686f6c648152506020019250505060405180910390a17348d7f315fedcad332f68aafa017c7c158bc5476073ffffffffffffffffffffffffffffffffffffffff16633d18b9126040518163ffffffff1660e01b8152600401600060405180830381600087803b15801561165a57600080fd5b505af115801561166e573d6000803e3d6000fd5b505050507f4f0ebd40ebf17fb5f44478155c0280633653900a58f6e78baa63e9b746fed051600c60405180806020018381526020018281038252600f8152602001807f436c61696d696e672052657761726400000000000000000000000000000000008152506020019250505060405180910390a1600073c011a73ee8576fb46f5e1c5751ca3b9fe0af2a6f73ffffffffffffffffffffffffffffffffffffffff166370a08231306040518263ffffffff1660e01b8152600401808273ffffffffffffffffffffffffffffffffffffffff1673ffffffffffffffffffffffffffffffffffffffff16815260200191505060206040518083038186803b15801561177657600080fd5b505afa15801561178a573d6000803e3d6000fd5b505050506040513d60208110156117a057600080fd5b8101908080519060200190929190505050905060006117be82612992565b90507f4f0ebd40ebf17fb5f44478155c0280633653900a58f6e78baa63e9b746fed0518160405180806020018381526020018281038252600e8152602001807f4c504a75737452656365697665640000000000000000000000000000000000008152506020019250505060405180910390a1831561194e577348d7f315fedcad332f68aafa017c7c158bc5476073ffffffffffffffffffffffffffffffffffffffff1663a694fc3a826040518263ffffffff1660e01b815260040180828152602001915050600060405180830381600087803b15801561189d57600080fd5b505af11580156118b1573d6000803e3d6000fd5b505050506118ca8160015461275090919063ffffffff16565b6001819055507f4f0ebd40ebf17fb5f44478155c0280633653900a58f6e78baa63e9b746fed0516001546040518080602001838152602001828103825260138152602001807f746f74616c4c50546f6b656e735374616b6564000000000000000000000000008152506020019250505060405180910390a160015492505050611972565b6119638160015461275090919063ffffffff16565b92505050611972565b60015490505b919050565b60006119843384846121a5565b6001905092915050565b600073e9cf7887b93150d4f2da7dfc6d502b216438f24473ffffffffffffffffffffffffffffffffffffffff166323b872dd3330856040518463ffffffff1660e01b8152600401808473ffffffffffffffffffffffffffffffffffffffff1673ffffffffffffffffffffffffffffffffffffffff1681526020018373ffffffffffffffffffffffffffffffffffffffff1673ffffffffffffffffffffffffffffffffffffffff1681526020018281526020019350505050602060405180830381600087803b158015611a5f57600080fd5b505af1158015611a73573d6000803e3d6000fd5b505050506040513d6020811015611a8957600080fd5b8101908080519060200190929190505050506000611aa733846131bb565b90507f4f0ebd40ebf17fb5f44478155c0280633653900a58f6e78baa63e9b746fed051816040518080602001838152602001828103825260068152602001807f746f6b656e7300000000000000000000000000000000000000000000000000008152506020019250505060405180910390a17348d7f315fedcad332f68aafa017c7c158bc5476073ffffffffffffffffffffffffffffffffffffffff1663a694fc3a846040518263ffffffff1660e01b815260040180828152602001915050600060405180830381600087803b158015611b8057600080fd5b505af1158015611b94573d6000803e3d6000fd5b50505050611bad8360015461275090919063ffffffff16565b60018190555080915050919050565b73c011a73ee8576fb46f5e1c5751ca3b9fe0af2a6f81565b6003602052816000526040600020602052806000526040600020600091509150505481565b7348d7f315fedcad332f68aafa017c7c158bc5476081565b60007348d7f315fedcad332f68aafa017c7c158bc5476073ffffffffffffffffffffffffffffffffffffffff16628cc262306040518263ffffffff1660e01b8152600401808273ffffffffffffffffffffffffffffffffffffffff1673ffffffffffffffffffffffffffffffffffffffff16815260200191505060206040518083038186803b158015611ca357600080fd5b505afa158015611cb7573d6000803e3d6000fd5b505050506040513d6020811015611ccd57600080fd5b8101908080519060200190929190505050905090565b6000806000541115611f8c5765048c273950007348d7f315fedcad332f68aafa017c7c158bc5476073ffffffffffffffffffffffffffffffffffffffff16628cc262306040518263ffffffff1660e01b8152600401808273ffffffffffffffffffffffffffffffffffffffff1673ffffffffffffffffffffffffffffffffffffffff16815260200191505060206040518083038186803b158015611d8657600080fd5b505afa158015611d9a573d6000803e3d6000fd5b505050506040513d6020811015611db057600080fd5b81019080805190602001909291905050501115611f5c576000611eb17348d7f315fedcad332f68aafa017c7c158bc5476073ffffffffffffffffffffffffffffffffffffffff16628cc262306040518263ffffffff1660e01b8152600401808273ffffffffffffffffffffffffffffffffffffffff1673ffffffffffffffffffffffffffffffffffffffff16815260200191505060206040518083038186803b158015611e5c57600080fd5b505afa158015611e70573d6000803e3d6000fd5b505050506040513d6020811015611e8657600080fd5b8101908080519060200190929190505050733958b4ec427f8fa24eb60f42821760e88d485f7f6132ed565b90506000611f1073e9cf7887b93150d4f2da7dfc6d502b216438f244735e74c9036fb86bd7ecdcb084a0673efc32ea31cb611f0b612710611efd6113798861263690919063ffffffff16565b6126bc90919063ffffffff16565b613383565b90506000611f298260015461275090919063ffffffff16565b9050611f52600054611f44838861263690919063ffffffff16565b6126bc90919063ffffffff16565b9350505050611f91565b611f85600054611f776001548561263690919063ffffffff16565b6126bc90919063ffffffff16565b9050611f91565b600190505b919050565b735e74c9036fb86bd7ecdcb084a0673efc32ea31cb81565b600073ffffffffffffffffffffffffffffffffffffffff168373ffffffffffffffffffffffffffffffffffffffff161415612034576040517f08c379a00000000000000000000000000000000000000000000000000000000081526004018080602001828103825260248152602001806138c86024913960400191505060405180910390fd5b600073ffffffffffffffffffffffffffffffffffffffff168273ffffffffffffffffffffffffffffffffffffffff1614156120ba576040517f08c379a00000000000000000000000000000000000000000000000000000000081526004018080602001828103825260228152602001806137f16022913960400191505060405180910390fd5b80600360008573ffffffffffffffffffffffffffffffffffffffff1673ffffffffffffffffffffffffffffffffffffffff16815260200190815260200160002060008473ffffffffffffffffffffffffffffffffffffffff1673ffffffffffffffffffffffffffffffffffffffff168152602001908152602001600020819055508173ffffffffffffffffffffffffffffffffffffffff168373ffffffffffffffffffffffffffffffffffffffff167f8c5be1e5ebec7d5bd14f71427d1e84f3dd0314c0f7b2291e5b200ac8c7c3b925836040518082815260200191505060405180910390a3505050565b600073ffffffffffffffffffffffffffffffffffffffff168373ffffffffffffffffffffffffffffffffffffffff16141561222b576040517f08c379a00000000000000000000000000000000000000000000000000000000081526004018080602001828103825260258152602001806138a36025913960400191505060405180910390fd5b600073ffffffffffffffffffffffffffffffffffffffff168273ffffffffffffffffffffffffffffffffffffffff1614156122b1576040517f08c379a00000000000000000000000000000000000000000000000000000000081526004018080602001828103825260238152602001806137ac6023913960400191505060405180910390fd5b61231d8160405180606001604052806026815260200161381360269139600260008773ffffffffffffffffffffffffffffffffffffffff1673ffffffffffffffffffffffffffffffffffffffff1681526020019081526020016000205461245f9092919063ffffffff16565b600260008573ffffffffffffffffffffffffffffffffffffffff1673ffffffffffffffffffffffffffffffffffffffff168152602001908152602001600020819055506123b281600260008573ffffffffffffffffffffffffffffffffffffffff1673ffffffffffffffffffffffffffffffffffffffff1681526020019081526020016000205461275090919063ffffffff16565b600260008473ffffffffffffffffffffffffffffffffffffffff1673ffffffffffffffffffffffffffffffffffffffff168152602001908152602001600020819055508173ffffffffffffffffffffffffffffffffffffffff168373ffffffffffffffffffffffffffffffffffffffff167fddf252ad1be2c89b69c2b068fc378daa952ba7f163c4a11628f55a4df523b3ef836040518082815260200191505060405180910390a3505050565b600083831115829061250c576040517f08c379a00000000000000000000000000000000000000000000000000000000081526004018080602001828103825283818151815260200191508051906020019080838360005b838110156124d15780820151818401526020810190506124b6565b50505050905090810190601f1680156124fe5780820380516001836020036101000a031916815260200191505b509250505060405180910390fd5b5060008385039050809150509392505050565b6000806000805414156125af577f4f0ebd40ebf17fb5f44478155c0280633653900a58f6e78baa63e9b746fed05160006040518080602001838152602001828103825260108152602001807f656e746572696e672070686173652031000000000000000000000000000000008152506020019250505060405180910390a160018081915080905091509150612631565b7f4f0ebd40ebf17fb5f44478155c0280633653900a58f6e78baa63e9b746fed05160016040518080602001838152602001828103825260108152602001807f656e746572696e672070686173652032000000000000000000000000000000008152506020019250505060405180910390a161262983611570565b600054915091505b915091565b60008083141561264957600090506126b6565b600082840290508284828161265a57fe5b04146126b1576040517f08c379a00000000000000000000000000000000000000000000000000000000081526004018080602001828103825260218152602001806138396021913960400191505060405180910390fd5b809150505b92915050565b60006126fe83836040518060400160405280601a81526020017f536166654d6174683a206469766973696f6e206279207a65726f000000000000815250613492565b905092915050565b600061274883836040518060400160405280601e81526020017f536166654d6174683a207375627472616374696f6e206f766572666c6f77000081525061245f565b905092915050565b6000808284019050838110156127ce576040517f08c379a000000000000000000000000000000000000000000000000000000000815260040180806020018281038252601b8152602001807f536166654d6174683a206164646974696f6e206f766572666c6f77000000000081525060200191505060405180910390fd5b8091505092915050565b600073ffffffffffffffffffffffffffffffffffffffff168273ffffffffffffffffffffffffffffffffffffffff16141561285e576040517f08c379a00000000000000000000000000000000000000000000000000000000081526004018080602001828103825260218152602001806138826021913960400191505060405180910390fd5b6128ca816040518060600160405280602281526020016137cf60229139600260008673ffffffffffffffffffffffffffffffffffffffff1673ffffffffffffffffffffffffffffffffffffffff1681526020019081526020016000205461245f9092919063ffffffff16565b600260008473ffffffffffffffffffffffffffffffffffffffff1673ffffffffffffffffffffffffffffffffffffffff168152602001908152602001600020819055506129228160005461270690919063ffffffff16565b600081905550600073ffffffffffffffffffffffffffffffffffffffff168273ffffffffffffffffffffffffffffffffffffffff167fddf252ad1be2c89b69c2b068fc378daa952ba7f163c4a11628f55a4df523b3ef836040518082815260200191505060405180910390a35050565b6000806129b56127106129a785611379612636565b6126bc90919063ffffffff16565b905060006129c38483612706565b90506000733958b4ec427f8fa24eb60f42821760e88d485f7f73ffffffffffffffffffffffffffffffffffffffff166395e3c50b84612a3e6103e8612a306103e3612a228a733958b4ec427f8fa24eb60f42821760e88d485f7f6132ed565b61263690919063ffffffff16565b6126bc90919063ffffffff16565b612a5361012c4261275090919063ffffffff16565b6040518463ffffffff1660e01b8152600401808481526020018381526020018281526020019350505050602060405180830381600087803b158015612a9757600080fd5b505af1158015612aab573d6000803e3d6000fd5b505050506040513d6020811015612ac157600080fd5b81019080805190602001909291905050509050733958b4ec427f8fa24eb60f42821760e88d485f7f73ffffffffffffffffffffffffffffffffffffffff1663ddf7e1a783612b68612b4e6103e8612b406103e3612b328a733958b4ec427f8fa24eb60f42821760e88d485f7f6132ed565b61263690919063ffffffff16565b6126bc90919063ffffffff16565b73e9cf7887b93150d4f2da7dfc6d502b216438f244613558565b612bae6103e8612ba06103e3612b928a733958b4ec427f8fa24eb60f42821760e88d485f7f6132ed565b61263690919063ffffffff16565b6126bc90919063ffffffff16565b612bc361012c4261275090919063ffffffff16565b735e74c9036fb86bd7ecdcb084a0673efc32ea31cb6040518663ffffffff1660e01b8152600401808681526020018581526020018481526020018381526020018273ffffffffffffffffffffffffffffffffffffffff1673ffffffffffffffffffffffffffffffffffffffff16815260200195505050505050602060405180830381600087803b158015612c5657600080fd5b505af1158015612c6a573d6000803e3d6000fd5b505050506040513d6020811015612c8057600080fd5b810190808051906020019092919050505050600073e9cf7887b93150d4f2da7dfc6d502b216438f24473ffffffffffffffffffffffffffffffffffffffff1663422f1043836001612cfa73e9cf7887b93150d4f2da7dfc6d502b216438f244735e74c9036fb86bd7ecdcb084a0673efc32ea31cb88613383565b612d0f61012c4261275090919063ffffffff16565b6040518563ffffffff1660e01b81526004018084815260200183815260200182815260200193505050506020604051808303818588803b158015612d5257600080fd5b505af1158015612d66573d6000803e3d6000fd5b50505050506040513d6020811015612d7d57600080fd5b8101908080519060200190929190505050905073e9cf7887b93150d4f2da7dfc6d502b216438f24473ffffffffffffffffffffffffffffffffffffffff1663ddf7e1a7735e74c9036fb86bd7ecdcb084a0673efc32ea31cb73ffffffffffffffffffffffffffffffffffffffff166370a08231306040518263ffffffff1660e01b8152600401808273ffffffffffffffffffffffffffffffffffffffff1673ffffffffffffffffffffffffffffffffffffffff16815260200191505060206040518083038186803b158015612e5157600080fd5b505afa158015612e65573d6000803e3d6000fd5b505050506040513d6020811015612e7b57600080fd5b8101908080519060200190929190505050612fba612fa06103e8612f926103e3612f84735e74c9036fb86bd7ecdcb084a0673efc32ea31cb73ffffffffffffffffffffffffffffffffffffffff166370a08231306040518263ffffffff1660e01b8152600401808273ffffffffffffffffffffffffffffffffffffffff1673ffffffffffffffffffffffffffffffffffffffff16815260200191505060206040518083038186803b158015612f2f57600080fd5b505afa158015612f43573d6000803e3d6000fd5b505050506040513d6020811015612f5957600080fd5b810190808051906020019092919050505073e9cf7887b93150d4f2da7dfc6d502b216438f2446132ed565b61263690919063ffffffff16565b6126bc90919063ffffffff16565b733958b4ec427f8fa24eb60f42821760e88d485f7f613558565b6130cb6103e86130bd6103e36130af735e74c9036fb86bd7ecdcb084a0673efc32ea31cb73ffffffffffffffffffffffffffffffffffffffff166370a08231306040518263ffffffff1660e01b8152600401808273ffffffffffffffffffffffffffffffffffffffff1673ffffffffffffffffffffffffffffffffffffffff16815260200191505060206040518083038186803b15801561305a57600080fd5b505afa15801561306e573d6000803e3d6000fd5b505050506040513d602081101561308457600080fd5b810190808051906020019092919050505073e9cf7887b93150d4f2da7dfc6d502b216438f2446132ed565b61263690919063ffffffff16565b6126bc90919063ffffffff16565b6130e061012c4261275090919063ffffffff16565b73c011a73ee8576fb46f5e1c5751ca3b9fe0af2a6f6040518663ffffffff1660e01b8152600401808681526020018581526020018481526020018381526020018273ffffffffffffffffffffffffffffffffffffffff1673ffffffffffffffffffffffffffffffffffffffff16815260200195505050505050602060405180830381600087803b15801561317357600080fd5b505af1158015613187573d6000803e3d6000fd5b505050506040513d602081101561319d57600080fd5b81019080805190602001909291905050505080945050505050919050565b60008060006131ca600161251f565b9150915060006131f5836131e7848861263690919063ffffffff16565b6126bc90919063ffffffff16565b90507f4f0ebd40ebf17fb5f44478155c0280633653900a58f6e78baa63e9b746fed0518560405180806020018381526020018281038252600f8152602001807f686f774d7563684c505374616b656400000000000000000000000000000000008152506020019250505060405180910390a17f4f0ebd40ebf17fb5f44478155c0280633653900a58f6e78baa63e9b746fed0518160405180806020018381526020018281038252600e8152602001807f746f6b656e7332624973737565640000000000000000000000000000000000008152506020019250505060405180910390a16132e186826135ee565b80935050505092915050565b60008173ffffffffffffffffffffffffffffffffffffffff166395b68fe7846040518263ffffffff1660e01b81526004018082815260200191505060206040518083038186803b15801561334057600080fd5b505afa158015613354573d6000803e3d6000fd5b505050506040513d602081101561336a57600080fd5b8101908080519060200190929190505050905092915050565b6000808473ffffffffffffffffffffffffffffffffffffffff1631905060006133ac8285612706565b905060008573ffffffffffffffffffffffffffffffffffffffff166370a08231886040518263ffffffff1660e01b8152600401808273ffffffffffffffffffffffffffffffffffffffff1673ffffffffffffffffffffffffffffffffffffffff16815260200191505060206040518083038186803b15801561342d57600080fd5b505afa158015613441573d6000803e3d6000fd5b505050506040513d602081101561345757600080fd5b810190808051906020019092919050505090506000600161348161347b8885612636565b856126bc565b019050809450505050509392505050565b6000808311829061353e576040517f08c379a00000000000000000000000000000000000000000000000000000000081526004018080602001828103825283818151815260200191508051906020019080838360005b838110156135035780820151818401526020810190506134e8565b50505050905090810190601f1680156135305780820380516001836020036101000a031916815260200191505b509250505060405180910390fd5b50600083858161354a57fe5b049050809150509392505050565b60008173ffffffffffffffffffffffffffffffffffffffff1663cd7724c3846040518263ffffffff1660e01b81526004018082815260200191505060206040518083038186803b1580156135ab57600080fd5b505afa1580156135bf573d6000803e3d6000fd5b505050506040513d60208110156135d557600080fd5b8101908080519060200190929190505050905092915050565b600073ffffffffffffffffffffffffffffffffffffffff168273ffffffffffffffffffffffffffffffffffffffff161415613691576040517f08c379a000000000000000000000000000000000000000000000000000000000815260040180806020018281038252601f8152602001807f45524332303a206d696e7420746f20746865207a65726f20616464726573730081525060200191505060405180910390fd5b6136a68160005461275090919063ffffffff16565b6000819055506136fe81600260008573ffffffffffffffffffffffffffffffffffffffff1673ffffffffffffffffffffffffffffffffffffffff1681526020019081526020016000205461275090919063ffffffff16565b600260008473ffffffffffffffffffffffffffffffffffffffff1673ffffffffffffffffffffffffffffffffffffffff168152602001908152602001600020819055508173ffffffffffffffffffffffffffffffffffffffff16600073ffffffffffffffffffffffffffffffffffffffff167fddf252ad1be2c89b69c2b068fc378daa952ba7f163c4a11628f55a4df523b3ef836040518082815260200191505060405180910390a3505056fe45524332303a207472616e7366657220746f20746865207a65726f206164647265737345524332303a206275726e20616d6f756e7420657863656564732062616c616e636545524332303a20617070726f766520746f20746865207a65726f206164647265737345524332303a207472616e7366657220616d6f756e7420657863656564732062616c616e6365536166654d6174683a206d756c7469706c69636174696f6e206f766572666c6f7745524332303a207472616e7366657220616d6f756e74206578636565647320616c6c6f77616e636545524332303a206275726e2066726f6d20746865207a65726f206164647265737345524332303a207472616e736665722066726f6d20746865207a65726f206164647265737345524332303a20617070726f76652066726f6d20746865207a65726f2061646472657373a265627a7a723158200ab5ae379c0f1bcffaf7c7f3e9061b9c3c16d615842f1569c95b9d638231f04564736f6c634300050d0032",
  "compiler": {
    "name": "solc",
    "version": "0.5.13+commit.5b0b510c.Emscripten.clang",
    "optimizer": {
      "enabled": false,
      "runs": 500
    },
    "evmVersion": "petersburg"
  }
}