{
  "contractName": "zUniPool",
  "abi": [
    {
      "inputs": [
        {
          "internalType": "address",
          "name": "_UniPoolAddress",
          "type": "address"
        }
      ],
      "payable": false,
      "stateMutability": "nonpayable",
      "type": "constructor"
    },
    {
      "anonymous": false,
      "inputs": [
        {
          "indexed": true,
          "internalType": "address",
          "name": "src",
          "type": "address"
        },
        {
          "indexed": true,
          "internalType": "address",
          "name": "guy",
          "type": "address"
        },
        {
          "indexed": false,
          "internalType": "uint256",
          "name": "wad",
          "type": "uint256"
        }
      ],
      "name": "Approval",
      "type": "event"
    },
    {
      "anonymous": false,
      "inputs": [
        {
          "indexed": true,
          "internalType": "address",
          "name": "staker",
          "type": "address"
        },
        {
          "indexed": false,
          "internalType": "uint256",
          "name": "qtyStaked",
          "type": "uint256"
        }
      ],
      "name": "LPTokensStaked",
      "type": "event"
    },
    {
      "anonymous": false,
      "inputs": [
        {
          "indexed": true,
          "internalType": "address",
          "name": "leaver",
          "type": "address"
        },
        {
          "indexed": false,
          "internalType": "uint256",
          "name": "qtyWithdrawn",
          "type": "uint256"
        }
      ],
      "name": "LPTokensWithdrawn",
      "type": "event"
    },
    {
      "anonymous": false,
      "inputs": [
        {
          "indexed": true,
          "internalType": "address",
          "name": "src",
          "type": "address"
        },
        {
          "indexed": true,
          "internalType": "address",
          "name": "dst",
          "type": "address"
        },
        {
          "indexed": false,
          "internalType": "uint256",
          "name": "wad",
          "type": "uint256"
        }
      ],
      "name": "Transfer",
      "type": "event"
    },
    {
      "anonymous": false,
      "inputs": [
        {
          "indexed": false,
          "internalType": "string",
          "name": "",
          "type": "string"
        },
        {
          "indexed": false,
          "internalType": "uint256",
          "name": "",
          "type": "uint256"
        }
      ],
      "name": "internall",
      "type": "event"
    },
    {
      "payable": true,
      "stateMutability": "payable",
      "type": "fallback"
    },
    {
      "constant": true,
      "inputs": [],
      "name": "SNXTokenAddress",
      "outputs": [
        {
          "internalType": "contract IERC20",
          "name": "",
          "type": "address"
        }
      ],
      "payable": false,
      "stateMutability": "view",
      "type": "function"
    },
    {
      "constant": true,
      "inputs": [],
      "name": "SNXUniSwapTokenAddress",
      "outputs": [
        {
          "internalType": "contract IERC20",
          "name": "",
          "type": "address"
        }
      ],
      "payable": false,
      "stateMutability": "view",
      "type": "function"
    },
    {
      "constant": true,
      "inputs": [],
      "name": "UnipoolAddress",
      "outputs": [
        {
          "internalType": "address",
          "name": "",
          "type": "address"
        }
      ],
      "payable": false,
      "stateMutability": "view",
      "type": "function"
    },
    {
      "constant": true,
      "inputs": [
        {
          "internalType": "address",
          "name": "",
          "type": "address"
        },
        {
          "internalType": "address",
          "name": "",
          "type": "address"
        }
      ],
      "name": "allowance",
      "outputs": [
        {
          "internalType": "uint256",
          "name": "",
          "type": "uint256"
        }
      ],
      "payable": false,
      "stateMutability": "view",
      "type": "function"
    },
    {
      "constant": true,
      "inputs": [
        {
          "internalType": "address",
          "name": "",
          "type": "address"
        }
      ],
      "name": "balanceOf",
      "outputs": [
        {
          "internalType": "uint256",
          "name": "",
          "type": "uint256"
        }
      ],
      "payable": false,
      "stateMutability": "view",
      "type": "function"
    },
    {
      "constant": true,
      "inputs": [],
      "name": "decimals",
      "outputs": [
        {
          "internalType": "uint8",
          "name": "",
          "type": "uint8"
        }
      ],
      "payable": false,
      "stateMutability": "view",
      "type": "function"
    },
    {
      "constant": true,
      "inputs": [],
      "name": "name",
      "outputs": [
        {
          "internalType": "string",
          "name": "",
          "type": "string"
        }
      ],
      "payable": false,
      "stateMutability": "view",
      "type": "function"
    },
    {
      "constant": true,
      "inputs": [],
      "name": "sETHTokenAddress",
      "outputs": [
        {
          "internalType": "contract IERC20",
          "name": "",
          "type": "address"
        }
      ],
      "payable": false,
      "stateMutability": "view",
      "type": "function"
    },
    {
      "constant": true,
      "inputs": [],
      "name": "sETH_LP_TokenAddress",
      "outputs": [
        {
          "internalType": "contract IERC20",
          "name": "",
          "type": "address"
        }
      ],
      "payable": false,
      "stateMutability": "view",
      "type": "function"
    },
    {
      "constant": true,
      "inputs": [],
      "name": "symbol",
      "outputs": [
        {
          "internalType": "string",
          "name": "",
          "type": "string"
        }
      ],
      "payable": false,
      "stateMutability": "view",
      "type": "function"
    },
    {
      "constant": true,
      "inputs": [],
      "name": "totalLPTokensStaked",
      "outputs": [
        {
          "internalType": "uint256",
          "name": "",
          "type": "uint256"
        }
      ],
      "payable": false,
      "stateMutability": "view",
      "type": "function"
    },
    {
      "constant": true,
      "inputs": [],
      "name": "totalSupply",
      "outputs": [
        {
          "internalType": "uint256",
          "name": "",
          "type": "uint256"
        }
      ],
      "payable": false,
      "stateMutability": "view",
      "type": "function"
    },
    {
      "constant": true,
      "inputs": [],
      "name": "version",
      "outputs": [
        {
          "internalType": "string",
          "name": "",
          "type": "string"
        }
      ],
      "payable": false,
      "stateMutability": "view",
      "type": "function"
    },
    {
      "constant": false,
      "inputs": [],
      "name": "approve_Addresses",
      "outputs": [],
      "payable": false,
      "stateMutability": "nonpayable",
      "type": "function"
    },
    {
      "constant": true,
      "inputs": [],
      "name": "howMuchHasThisContractStaked",
      "outputs": [
        {
          "internalType": "uint256",
          "name": "LPTokens",
          "type": "uint256"
        }
      ],
      "payable": false,
      "stateMutability": "view",
      "type": "function"
    },
    {
      "constant": true,
      "inputs": [],
      "name": "howMuchHasThisContractEarned",
      "outputs": [
        {
          "internalType": "uint256",
          "name": "SNXEarned",
          "type": "uint256"
        }
      ],
      "payable": false,
      "stateMutability": "view",
      "type": "function"
    },
    {
      "constant": true,
      "inputs": [
        {
          "internalType": "uint256",
          "name": "_zUNIinWEI",
          "type": "uint256"
        }
      ],
      "name": "howMuchIszUNIWorth",
      "outputs": [
        {
          "internalType": "uint256",
          "name": "",
          "type": "uint256"
        }
      ],
      "payable": false,
      "stateMutability": "view",
      "type": "function"
    },
    {
      "constant": false,
      "inputs": [
        {
          "internalType": "uint256",
          "name": "_LPTokenUints",
          "type": "uint256"
        }
      ],
      "name": "stakeMyShare",
      "outputs": [
        {
          "internalType": "uint256",
          "name": "",
          "type": "uint256"
        }
      ],
      "payable": false,
      "stateMutability": "nonpayable",
      "type": "function"
    },
    {
      "constant": false,
      "inputs": [
        {
          "internalType": "bool",
          "name": "enter",
          "type": "bool"
        }
      ],
      "name": "reBalance",
      "outputs": [
        {
          "internalType": "uint256",
          "name": "LPTokenWealth",
          "type": "uint256"
        }
      ],
      "payable": false,
      "stateMutability": "nonpayable",
      "type": "function"
    },
    {
      "constant": false,
      "inputs": [
        {
          "internalType": "uint256",
          "name": "_tokenQTY",
          "type": "uint256"
        }
      ],
      "name": "getMyStakeOut",
      "outputs": [
        {
          "internalType": "uint256",
          "name": "LPTokensReleased",
          "type": "uint256"
        }
      ],
      "payable": false,
      "stateMutability": "nonpayable",
      "type": "function"
    },
    {
      "constant": false,
      "inputs": [
        {
          "internalType": "address",
          "name": "recipient",
          "type": "address"
        },
        {
          "internalType": "uint256",
          "name": "amount",
          "type": "uint256"
        }
      ],
      "name": "transfer",
      "outputs": [
        {
          "internalType": "bool",
          "name": "",
          "type": "bool"
        }
      ],
      "payable": false,
      "stateMutability": "nonpayable",
      "type": "function"
    },
    {
      "constant": false,
      "inputs": [
        {
          "internalType": "address",
          "name": "spender",
          "type": "address"
        },
        {
          "internalType": "uint256",
          "name": "amount",
          "type": "uint256"
        }
      ],
      "name": "approve",
      "outputs": [
        {
          "internalType": "bool",
          "name": "",
          "type": "bool"
        }
      ],
      "payable": false,
      "stateMutability": "nonpayable",
      "type": "function"
    },
    {
      "constant": false,
      "inputs": [
        {
          "internalType": "address",
          "name": "sender",
          "type": "address"
        },
        {
          "internalType": "address",
          "name": "recipient",
          "type": "address"
        },
        {
          "internalType": "uint256",
          "name": "amount",
          "type": "uint256"
        }
      ],
      "name": "transferFrom",
      "outputs": [
        {
          "internalType": "bool",
          "name": "",
          "type": "bool"
        }
      ],
      "payable": false,
      "stateMutability": "nonpayable",
      "type": "function"
    }
  ],
  "bytecode": "0x60806040523480156200001157600080fd5b50604051620026fa380380620026fa833981810160405260208110156200003757600080fd5b5051600180546001600160a01b0319166001600160a01b0383161790556200005e62000065565b5062000284565b600154604080517f095ea7b30000000000000000000000000000000000000000000000000000000081526001600160a01b03909216600483015260001960248301525173e9cf7887b93150d4f2da7dfc6d502b216438f2449163095ea7b39160448083019260209291908290030181600087803b158015620000e657600080fd5b505af1158015620000fb573d6000803e3d6000fd5b505050506040513d60208110156200011257600080fd5b5050604080517f095ea7b3000000000000000000000000000000000000000000000000000000008152733958b4ec427f8fa24eb60f42821760e88d485f7f60048201526000196024820152905173c011a73ee8576fb46f5e1c5751ca3b9fe0af2a6f9163095ea7b39160448083019260209291908290030181600087803b1580156200019d57600080fd5b505af1158015620001b2573d6000803e3d6000fd5b505050506040513d6020811015620001c957600080fd5b5050604080517f095ea7b300000000000000000000000000000000000000000000000000000000815273e9cf7887b93150d4f2da7dfc6d502b216438f244600482015260001960248201529051735e74c9036fb86bd7ecdcb084a0673efc32ea31cb9163095ea7b39160448083019260209291908290030181600087803b1580156200025457600080fd5b505af115801562000269573d6000803e3d6000fd5b505050506040513d60208110156200028057600080fd5b5050565b61246680620002946000396000f3fe6080604052600436106101705760003560e01c80637c50e076116100d6578063bbaabe041161007f578063e5be1a9611610059578063e5be1a9614610509578063e7be53a41461051e578063f70f48931461054857610170565b8063bbaabe04146104a4578063dd62ed3e146104b9578063e4c78211146104f457610170565b8063a75afc7d116100b0578063a75afc7d14610415578063a9059cbb14610441578063aca5bbd01461047a57610170565b80637c50e076146103d457806395d89b41146101b0578063966eed1f146103eb57610170565b806323b872dd1161013857806354fd4d501161011257806354fd4d50146103775780636c57e5751461038c57806370a08231146103a157610170565b806323b872dd146102f4578063313ce567146103375780634211a5951461036257610170565b806306fdde03146101b0578063095ea7b31461023a57806314d7420414610287578063161e8e82146102b857806318160ddd146102cd575b60408051346020820152818152600881830152670cedee840c6c2e6d60c31b6060820152905160008051602061235f8339815191529181900360800190a1005b3480156101bc57600080fd5b506101c561055d565b6040805160208082528351818301528351919283929083019185019080838360005b838110156101ff5781810151838201526020016101e7565b50505050905090810190601f16801561022c5780820380516001836020036101000a031916815260200191505b509250505060405180910390f35b34801561024657600080fd5b506102736004803603604081101561025d57600080fd5b506001600160a01b03813516906020013561057d565b604080519115158252519081900360200190f35b34801561029357600080fd5b5061029c610594565b604080516001600160a01b039092168252519081900360200190f35b3480156102c457600080fd5b5061029c6105ac565b3480156102d957600080fd5b506102e26105c4565b60408051918252519081900360200190f35b34801561030057600080fd5b506102736004803603606081101561031757600080fd5b506001600160a01b038135811691602081013590911690604001356105ca565b34801561034357600080fd5b5061034c610639565b6040805160ff9092168252519081900360200190f35b34801561036e57600080fd5b506102e261063e565b34801561038357600080fd5b506101c5610644565b34801561039857600080fd5b506102e2610661565b3480156103ad57600080fd5b506102e2600480360360208110156103c457600080fd5b50356001600160a01b03166106dd565b3480156103e057600080fd5b506103e96106ef565b005b3480156103f757600080fd5b506102e26004803603602081101561040e57600080fd5b50356108ba565b34801561042157600080fd5b506102e26004803603602081101561043857600080fd5b50351515610c9e565b34801561044d57600080fd5b506102736004803603604081101561046457600080fd5b506001600160a01b038135169060200135610fbf565b34801561048657600080fd5b506102e26004803603602081101561049d57600080fd5b5035610fcc565b3480156104b057600080fd5b5061029c61112b565b3480156104c557600080fd5b506102e2600480360360408110156104dc57600080fd5b506001600160a01b0381358116916020013516611143565b34801561050057600080fd5b5061029c611160565b34801561051557600080fd5b506102e261116f565b34801561052a57600080fd5b506102e26004803603602081101561054157600080fd5b50356111b8565b34801561055457600080fd5b5061029c61138c565b604051806040016040528060048152602001637a554e4960e01b81525081565b600061058a3384846113a4565b5060015b92915050565b73e9cf7887b93150d4f2da7dfc6d502b216438f24481565b733958b4ec427f8fa24eb60f42821760e88d485f7f81565b60005481565b60006105d7848484611490565b61062f843361062a856040518060600160405280602881526020016123a0602891396001600160a01b038a166000908152600460209081526040808320338452909152902054919063ffffffff6115ee16565b6113a4565b5060019392505050565b601281565b60025481565b604051806040016040528060018152602001603160f81b81525081565b600154604080516370a0823160e01b815230600482015290516000926001600160a01b0316916370a08231916024808301926020929190829003018186803b1580156106ac57600080fd5b505afa1580156106c0573d6000803e3d6000fd5b505050506040513d60208110156106d657600080fd5b5051905090565b60036020526000908152604090205481565b6001546040805163095ea7b360e01b81526001600160a01b03909216600483015260001960248301525173e9cf7887b93150d4f2da7dfc6d502b216438f2449163095ea7b39160448083019260209291908290030181600087803b15801561075657600080fd5b505af115801561076a573d6000803e3d6000fd5b505050506040513d602081101561078057600080fd5b50506040805163095ea7b360e01b8152733958b4ec427f8fa24eb60f42821760e88d485f7f60048201526000196024820152905173c011a73ee8576fb46f5e1c5751ca3b9fe0af2a6f9163095ea7b39160448083019260209291908290030181600087803b1580156107f157600080fd5b505af1158015610805573d6000803e3d6000fd5b505050506040513d602081101561081b57600080fd5b50506040805163095ea7b360e01b815273e9cf7887b93150d4f2da7dfc6d502b216438f244600482015260001960248201529051735e74c9036fb86bd7ecdcb084a0673efc32ea31cb9163095ea7b39160448083019260209291908290030181600087803b15801561088c57600080fd5b505af11580156108a0573d6000803e3d6000fd5b505050506040513d60208110156108b657600080fd5b5050565b3360009081526003602052604081205482111561091e576040805162461bcd60e51b815260206004820152601760248201527f5769746864726177696e672071747920696e76616c6964000000000000000000604482015290519081900360640190fd5b60008061092b6000611685565b9092509050600061095282610946878663ffffffff61175c16565b9063ffffffff6117bc16565b604080516370a0823160e01b8152306004820152905191925060009173e9cf7887b93150d4f2da7dfc6d502b216438f244916370a08231916024808301926020929190829003018186803b1580156109a957600080fd5b505afa1580156109bd573d6000803e3d6000fd5b505050506040513d60208110156109d357600080fd5b5051905080821115610afb5760006109f1838363ffffffff6117fe16565b60015460408051632e1a7d4d60e01b81526004810184905290519293506001600160a01b0390911691632e1a7d4d9160248082019260009290919082900301818387803b158015610a4157600080fd5b505af1158015610a55573d6000803e3d6000fd5b50506040805163a9059cbb60e01b815233600482015260248101879052905173e9cf7887b93150d4f2da7dfc6d502b216438f244935063a9059cbb925060448083019260209291908290030181600087803b158015610ab357600080fd5b505af1158015610ac7573d6000803e3d6000fd5b505050506040513d6020811015610add57600080fd5b5050600254610af2908463ffffffff6117fe16565b60025550610c89565b6040805163a9059cbb60e01b815233600482015260248101849052905173e9cf7887b93150d4f2da7dfc6d502b216438f2449163a9059cbb9160448083019260209291908290030181600087803b158015610b5557600080fd5b505af1158015610b69573d6000803e3d6000fd5b505050506040513d6020811015610b7f57600080fd5b5050604080516370a0823160e01b8152306004820152905160009173e9cf7887b93150d4f2da7dfc6d502b216438f244916370a0823191602480820192602092909190829003018186803b158015610bd657600080fd5b505afa158015610bea573d6000803e3d6000fd5b505050506040513d6020811015610c0057600080fd5b505190508015610c87576001546040805163534a7e1d60e11b81526004810184905290516001600160a01b039092169163a694fc3a9160248082019260009290919082900301818387803b158015610c5757600080fd5b505af1158015610c6b573d6000803e3d6000fd5b5050600254610c83925090508263ffffffff61184016565b6002555b505b610c93338761189a565b50925050505b919050565b600065048c27395000610caf61116f565b1115610fb65760008051602061235f833981519152610ccc61116f565b60408051602080820193909352818152808201929092527f4561726e696e6773206d6f7265207468616e20746865207468726573686f6c646060830152519081900360800190a1600160009054906101000a90046001600160a01b03166001600160a01b0316633d18b9126040518163ffffffff1660e01b8152600401600060405180830381600087803b158015610d6357600080fd5b505af1158015610d77573d6000803e3d6000fd5b505060408051600c6020820152818152600f818301527f436c61696d696e672052657761726400000000000000000000000000000000006060820152905160008051602061235f8339815191529350908190036080019150a1604080516370a0823160e01b8152306004820152905160009173c011a73ee8576fb46f5e1c5751ca3b9fe0af2a6f916370a0823191602480820192602092909190829003018186803b158015610e2557600080fd5b505afa158015610e39573d6000803e3d6000fd5b505050506040513d6020811015610e4f57600080fd5b505190506000610e5e82611997565b6040805160208101839052818152600e818301527f4c504a75737452656365697665640000000000000000000000000000000000006060820152905191925060008051602061235f833981519152919081900360800190a18315610f9a576001546040805163534a7e1d60e11b81526004810184905290516001600160a01b039092169163a694fc3a9160248082019260009290919082900301818387803b158015610f0957600080fd5b505af1158015610f1d573d6000803e3d6000fd5b5050600254610f35925090508263ffffffff61184016565b60028190556040805160208101929092528082526013828201527f746f74616c4c50546f6b656e735374616b65640000000000000000000000000060608301525160008051602061235f8339815191529181900360800190a160025492505050610c99565b600254610fad908263ffffffff61184016565b92505050610c99565b50600254610c99565b600061058a338484611490565b604080516323b872dd60e01b815233600482015230602482015260448101839052905160009173e9cf7887b93150d4f2da7dfc6d502b216438f244916323b872dd9160648082019260209290919082900301818787803b15801561102f57600080fd5b505af1158015611043573d6000803e3d6000fd5b505050506040513d602081101561105957600080fd5b50600090506110683384611f0f565b604080516020810183905281815260068183015265746f6b656e7360d01b6060820152905191925060008051602061235f833981519152919081900360800190a16001546040805163534a7e1d60e11b81526004810186905290516001600160a01b039092169163a694fc3a9160248082019260009290919082900301818387803b1580156110f657600080fd5b505af115801561110a573d6000803e3d6000fd5b5050600254611122925090508463ffffffff61184016565b60025592915050565b73c011a73ee8576fb46f5e1c5751ca3b9fe0af2a6f81565b600460209081526000928352604080842090915290825290205481565b6001546001600160a01b031681565b600154604080516246613160e11b815230600482015290516000926001600160a01b031691628cc262916024808301926020929190829003018186803b1580156106ac57600080fd5b600080541561138457600154604080516246613160e11b8152306004820152905165048c27395000926001600160a01b031691628cc262916024808301926020929190829003018186803b15801561120f57600080fd5b505afa158015611223573d6000803e3d6000fd5b505050506040513d602081101561123957600080fd5b5051111561136257600154604080516246613160e11b815230600482015290516000926112d7926001600160a01b0390911691628cc26291602480820192602092909190829003018186803b15801561129157600080fd5b505afa1580156112a5573d6000803e3d6000fd5b505050506040513d60208110156112bb57600080fd5b5051733958b4ec427f8fa24eb60f42821760e88d485f7f611ff8565b9050600061132573e9cf7887b93150d4f2da7dfc6d502b216438f244735e74c9036fb86bd7ecdcb084a0673efc32ea31cb6113206127106109468761137963ffffffff61175c16565b612071565b9050600061133e8260025461184090919063ffffffff16565b60005490915061135890610946878463ffffffff61175c16565b9350505050610c99565b61137d6000546109466002548561175c90919063ffffffff16565b9050610c99565b506001610c99565b735e74c9036fb86bd7ecdcb084a0673efc32ea31cb81565b6001600160a01b0383166113e95760405162461bcd60e51b815260040180806020018281038252602481526020018061240e6024913960400191505060405180910390fd5b6001600160a01b03821661142e5760405162461bcd60e51b81526004018080602001828103825260228152602001806123176022913960400191505060405180910390fd5b6001600160a01b03808416600081815260046020908152604080832094871680845294825291829020859055815185815291517f8c5be1e5ebec7d5bd14f71427d1e84f3dd0314c0f7b2291e5b200ac8c7c3b9259281900390910190a3505050565b6001600160a01b0383166114d55760405162461bcd60e51b81526004018080602001828103825260258152602001806123e96025913960400191505060405180910390fd5b6001600160a01b03821661151a5760405162461bcd60e51b81526004018080602001828103825260238152602001806122d26023913960400191505060405180910390fd5b61155d81604051806060016040528060268152602001612339602691396001600160a01b038616600090815260036020526040902054919063ffffffff6115ee16565b6001600160a01b038085166000908152600360205260408082209390935590841681522054611592908263ffffffff61184016565b6001600160a01b0380841660008181526003602090815260409182902094909455805185815290519193928716927fddf252ad1be2c89b69c2b068fc378daa952ba7f163c4a11628f55a4df523b3ef92918290030190a3505050565b6000818484111561167d5760405162461bcd60e51b81526004018080602001828103825283818151815260200191508051906020019080838360005b8381101561164257818101518382015260200161162a565b50505050905090810190601f16801561166f5780820380516001836020036101000a031916815260200191505b509250505060405180910390fd5b505050900390565b600080600054600014156116f25760408051600060208201528181526010818301527f656e746572696e672070686173652031000000000000000000000000000000006060820152905160008051602061235f8339815191529181900360800190a1506001905080611757565b60408051600160208201528181526010818301527f656e746572696e672070686173652032000000000000000000000000000000006060820152905160008051602061235f8339815191529181900360800190a161174f83610c9e565b600054915091505b915091565b60008261176b5750600061058e565b8282028284828161177857fe5b04146117b55760405162461bcd60e51b815260040180806020018281038252602181526020018061237f6021913960400191505060405180910390fd5b9392505050565b60006117b583836040518060400160405280601a81526020017f536166654d6174683a206469766973696f6e206279207a65726f000000000000815250612135565b60006117b583836040518060400160405280601e81526020017f536166654d6174683a207375627472616374696f6e206f766572666c6f7700008152506115ee565b6000828201838110156117b5576040805162461bcd60e51b815260206004820152601b60248201527f536166654d6174683a206164646974696f6e206f766572666c6f770000000000604482015290519081900360640190fd5b6001600160a01b0382166118df5760405162461bcd60e51b81526004018080602001828103825260218152602001806123c86021913960400191505060405180910390fd5b611922816040518060600160405280602281526020016122f5602291396001600160a01b038516600090815260036020526040902054919063ffffffff6115ee16565b6001600160a01b0383166000908152600360205260408120919091555461194f908263ffffffff6117fe16565b60009081556040805183815290516001600160a01b038516917fddf252ad1be2c89b69c2b068fc378daa952ba7f163c4a11628f55a4df523b3ef919081900360200190a35050565b6000806119ac6127106109468561137961175c565b905060006119ba84836117fe565b90506000733958b4ec427f8fa24eb60f42821760e88d485f7f6395e3c50b846119fb6103e86109466103e36119ef8588611ff8565b9063ffffffff61175c16565b611a0d4261012c63ffffffff61184016565b6040518463ffffffff1660e01b8152600401808481526020018381526020018281526020019350505050602060405180830381600087803b158015611a5157600080fd5b505af1158015611a65573d6000803e3d6000fd5b505050506040513d6020811015611a7b57600080fd5b50519050733958b4ec427f8fa24eb60f42821760e88d485f7f63ddf7e1a783611acd611ab36103e86109466103e36119ef8689611ff8565b73e9cf7887b93150d4f2da7dfc6d502b216438f24461219a565b611af76103e86109466103e36119ef8a733958b4ec427f8fa24eb60f42821760e88d485f7f611ff8565b611b094261012c63ffffffff61184016565b735e74c9036fb86bd7ecdcb084a0673efc32ea31cb6040518663ffffffff1660e01b815260040180868152602001858152602001848152602001838152602001826001600160a01b03166001600160a01b0316815260200195505050505050602060405180830381600087803b158015611b8257600080fd5b505af1158015611b96573d6000803e3d6000fd5b505050506040513d6020811015611bac57600080fd5b506000905073e9cf7887b93150d4f2da7dfc6d502b216438f24463422f1043836001611bed84735e74c9036fb86bd7ecdcb084a0673efc32ea31cb84612071565b611bff4261012c63ffffffff61184016565b6040518563ffffffff1660e01b81526004018084815260200183815260200182815260200193505050506020604051808303818588803b158015611c4257600080fd5b505af1158015611c56573d6000803e3d6000fd5b50505050506040513d6020811015611c6d57600080fd5b5051604080516370a0823160e01b8152306004820152905191925073e9cf7887b93150d4f2da7dfc6d502b216438f2449163ddf7e1a791735e74c9036fb86bd7ecdcb084a0673efc32ea31cb916370a0823191602480820192602092909190829003018186803b158015611ce057600080fd5b505afa158015611cf4573d6000803e3d6000fd5b505050506040513d6020811015611d0a57600080fd5b5051604080516370a0823160e01b81523060048201529051611dd591611dbb916103e891610946916103e3916119ef91735e74c9036fb86bd7ecdcb084a0673efc32ea31cb916370a08231916024808301926020929190829003018186803b158015611d7557600080fd5b505afa158015611d89573d6000803e3d6000fd5b505050506040513d6020811015611d9f57600080fd5b505173e9cf7887b93150d4f2da7dfc6d502b216438f244611ff8565b733958b4ec427f8fa24eb60f42821760e88d485f7f61219a565b611e4e6103e86109466103e36119ef735e74c9036fb86bd7ecdcb084a0673efc32ea31cb6001600160a01b03166370a08231306040518263ffffffff1660e01b815260040180826001600160a01b03166001600160a01b0316815260200191505060206040518083038186803b158015611d7557600080fd5b611e604261012c63ffffffff61184016565b73c011a73ee8576fb46f5e1c5751ca3b9fe0af2a6f6040518663ffffffff1660e01b815260040180868152602001858152602001848152602001838152602001826001600160a01b03166001600160a01b0316815260200195505050505050602060405180830381600087803b158015611ed957600080fd5b505af1158015611eed573d6000803e3d6000fd5b505050506040513d6020811015611f0357600080fd5b50909695505050505050565b6000806000611f1e6001611685565b90925090506000611f3983610946878563ffffffff61175c16565b6040805160208101889052818152600f818301527f686f774d7563684c505374616b656400000000000000000000000000000000006060820152905191925060008051602061235f833981519152919081900360800190a16040805160208101839052818152600e818301527f746f6b656e7332624973737565640000000000000000000000000000000000006060820152905160008051602061235f8339815191529181900360800190a1611fef86826121e0565b95945050505050565b6000816001600160a01b03166395b68fe7846040518263ffffffff1660e01b81526004018082815260200191505060206040518083038186803b15801561203e57600080fd5b505afa158015612052573d6000803e3d6000fd5b505050506040513d602081101561206857600080fd5b50519392505050565b60006001600160a01b038416318161208982856117fe565b90506000856001600160a01b03166370a08231886040518263ffffffff1660e01b815260040180826001600160a01b03166001600160a01b0316815260200191505060206040518083038186803b1580156120e357600080fd5b505afa1580156120f7573d6000803e3d6000fd5b505050506040513d602081101561210d57600080fd5b505190506000612126612120878461175c565b846117bc565b60010198975050505050505050565b600081836121845760405162461bcd60e51b815260206004820181815283516024840152835190928392604490910191908501908083836000831561164257818101518382015260200161162a565b50600083858161219057fe5b0495945050505050565b6000816001600160a01b031663cd7724c3846040518263ffffffff1660e01b81526004018082815260200191505060206040518083038186803b15801561203e57600080fd5b6001600160a01b03821661223b576040805162461bcd60e51b815260206004820152601f60248201527f45524332303a206d696e7420746f20746865207a65726f206164647265737300604482015290519081900360640190fd5b60005461224e908263ffffffff61184016565b60009081556001600160a01b038316815260036020526040902054612279908263ffffffff61184016565b6001600160a01b03831660008181526003602090815260408083209490945583518581529351929391927fddf252ad1be2c89b69c2b068fc378daa952ba7f163c4a11628f55a4df523b3ef9281900390910190a3505056fe45524332303a207472616e7366657220746f20746865207a65726f206164647265737345524332303a206275726e20616d6f756e7420657863656564732062616c616e636545524332303a20617070726f766520746f20746865207a65726f206164647265737345524332303a207472616e7366657220616d6f756e7420657863656564732062616c616e63654f0ebd40ebf17fb5f44478155c0280633653900a58f6e78baa63e9b746fed051536166654d6174683a206d756c7469706c69636174696f6e206f766572666c6f7745524332303a207472616e7366657220616d6f756e74206578636565647320616c6c6f77616e636545524332303a206275726e2066726f6d20746865207a65726f206164647265737345524332303a207472616e736665722066726f6d20746865207a65726f206164647265737345524332303a20617070726f76652066726f6d20746865207a65726f2061646472657373a265627a7a723158206a425e9f7dfa685795b658a2594fec2e007a0dcc94636c76260a21c563c7bb9664736f6c634300050d0032",
  "source": "pragma solidity ^0.5.0;\r\n\r\nimport \"./Unipool.sol\";\r\nimport \"./iUniswapExchangeContract.sol\";\r\n\r\ncontract zUniPool {\r\n    using SafeMath for uint256;\r\n    using SafeERC20 for IERC20;\r\n\r\n    // --- ERC20 Data ---\r\n    string public constant name = \"zUNI\";\r\n    string public constant symbol = \"zUNI\";\r\n    string public constant version = \"1\";\r\n    uint8 public constant decimals = 18;\r\n    uint256 public totalSupply;\r\n\r\n    /**\r\n     - Need to check impact of Uniswap V2,  will we need to deploy a v2 or new version of DZSLT\r\n     due to changes in sETH_LP_TokenAddress and potentially a new version of SNXUniswapTokenAddress?\r\n    */\r\n    address public UnipoolAddress;\r\n    IERC20 public constant sETHTokenAddress = IERC20(\r\n        0x5e74C9036fb86BD7eCdcb084a0673EFc32eA31cb\r\n    );\r\n    IERC20 public constant sETH_LP_TokenAddress = IERC20(\r\n        0xe9Cf7887b93150D4F2Da7dFc6D502B216438F244\r\n    );\r\n    IERC20 public constant SNXTokenAddress = IERC20(\r\n        0xC011a73ee8576Fb46F5E1c5751cA3B9Fe0af2a6F\r\n    );\r\n    IERC20 public constant SNXUniSwapTokenAddress = IERC20(\r\n        0x3958B4eC427F8fa24eB60F42821760e88d485f7F\r\n    );\r\n\r\n    uint256 public totalLPTokensStaked;\r\n\r\n    mapping(address => uint256) public balanceOf;\r\n    mapping(address => mapping(address => uint256)) public allowance;\r\n\r\n    // events\r\n    event LPTokensStaked(address indexed staker, uint256 qtyStaked);\r\n    event LPTokensWithdrawn(address indexed leaver, uint256 qtyWithdrawn);\r\n    event Approval(address indexed src, address indexed guy, uint256 wad);\r\n    event Transfer(address indexed src, address indexed dst, uint256 wad);\r\n\r\n    // testing events\r\n    event internall(string, uint256);\r\n\r\n    constructor(address _UniPoolAddress) public {\r\n        UnipoolAddress = _UniPoolAddress;\r\n        approve_Addresses();\r\n    }\r\n\r\n    function approve_Addresses() public {\r\n        sETH_LP_TokenAddress.approve(UnipoolAddress, ((2**256) - 1));\r\n        SNXTokenAddress.approve(\r\n            address(SNXUniSwapTokenAddress),\r\n            ((2**256) - 1)\r\n        );\r\n        sETHTokenAddress.approve(address(sETH_LP_TokenAddress), ((2**256) - 1));\r\n    }\r\n\r\n    // reader functions\r\n\r\n    function howMuchHasThisContractStaked()\r\n        public\r\n        view\r\n        returns (uint256 LPTokens)\r\n    {\r\n        return Unipool(UnipoolAddress).balanceOf(address(this));\r\n    }\r\n\r\n    function howMuchHasThisContractEarned()\r\n        public\r\n        view\r\n        returns (uint256 SNXEarned)\r\n    {\r\n        return Unipool(UnipoolAddress).earned(address(this));\r\n    }\r\n\r\n    /**\r\n     * @dev Returs the amount of LP redemeemable / to be staked for a given quantity of zUNI\r\n     */\r\n    function howMuchIszUNIWorth(uint256 _zUNIinWEI)\r\n        external\r\n        view\r\n        returns (uint256)\r\n    {\r\n        if (totalSupply > 0) {\r\n            if (\r\n                Unipool(UnipoolAddress).earned(address(this)) > 0.000005 ether\r\n            ) {\r\n                uint256 eth4SNX = min_eth(\r\n                    (Unipool(UnipoolAddress).earned(address(this))),\r\n                    address(SNXUniSwapTokenAddress)\r\n                );\r\n                uint256 maxTokens = getMaxTokens(\r\n                    address(sETH_LP_TokenAddress),\r\n                    sETHTokenAddress,\r\n                    ((eth4SNX).mul(4985)).div(10000)\r\n                );\r\n                uint256 notinalLP = totalLPTokensStaked.add(maxTokens);\r\n                return (((_zUNIinWEI).mul(notinalLP)).div(totalSupply));\r\n            } else {\r\n                return (\r\n                    ((_zUNIinWEI).mul(totalLPTokensStaked)).div(totalSupply)\r\n                );\r\n            }\r\n        } else {\r\n            return (1);\r\n        }\r\n\r\n    }\r\n\r\n    // action functions\r\n    function stakeMyShare(uint256 _LPTokenUints) public returns (uint256) {\r\n        // transfer to this address\r\n        sETH_LP_TokenAddress.transferFrom(\r\n            msg.sender,\r\n            address(this),\r\n            _LPTokenUints\r\n        );\r\n\r\n        uint256 tokens = issueTokens(msg.sender, _LPTokenUints);\r\n        emit internall(\"tokens\", tokens);\r\n\r\n        Unipool(UnipoolAddress).stake(_LPTokenUints);\r\n\r\n        totalLPTokensStaked = totalLPTokensStaked.add(_LPTokenUints);\r\n        return (tokens);\r\n    }\r\n\r\n    function issueTokens(address toWhom, uint256 howMuchLPStaked)\r\n        internal\r\n        returns (uint256 tokensIssued)\r\n    {\r\n        (uint256 totalLPs, uint256 totalzUNIs) = getDetails(true);\r\n        uint256 tokens2bIssued = (howMuchLPStaked.mul(totalzUNIs)).div(\r\n            totalLPs\r\n        );\r\n        emit internall(\"howMuchLPStaked\", howMuchLPStaked);\r\n        emit internall(\"tokens2bIssued\", tokens2bIssued);\r\n        mint(toWhom, tokens2bIssued);\r\n        return tokens2bIssued;\r\n    }\r\n\r\n    function getDetails(bool enter)\r\n        internal\r\n        returns (uint256 totalLPs, uint256 totalzUNIs)\r\n    {\r\n        if (totalSupply == 0) {\r\n            emit internall(\"entering phase 1\", 0);\r\n            return (1, 1);\r\n        } else {\r\n            emit internall(\"entering phase 2\", 1);\r\n            return (reBalance(enter), totalSupply);\r\n        }\r\n    }\r\n\r\n    function reBalance(bool enter) public returns (uint256 LPTokenWealth) {\r\n        /* @dev: it does not make economical sense to claim reward if the SNX \r\n        / earned is less than 0.000005; considering the price of SNX at the time \r\n        / of writing this contract\r\n        */\r\n\r\n        if (howMuchHasThisContractEarned() > 0.000005 ether) {\r\n            emit internall(\r\n                \"Earnings more than the threshold\",\r\n                howMuchHasThisContractEarned()\r\n            );\r\n            Unipool(UnipoolAddress).getReward();\r\n            emit internall(\"Claiming Reward\", 12);\r\n            uint256 SNXInHandHoldings = SNXTokenAddress.balanceOf(\r\n                address(this)\r\n            ); // 0\r\n            uint256 LPJustReceived = convertSNXtoLP(SNXInHandHoldings);\r\n            emit internall(\"LPJustReceived\", LPJustReceived);\r\n            if (enter) {\r\n                Unipool(UnipoolAddress).stake(LPJustReceived);\r\n                totalLPTokensStaked = totalLPTokensStaked.add(LPJustReceived);\r\n                emit internall(\"totalLPTokensStaked\", totalLPTokensStaked);\r\n                return (totalLPTokensStaked);\r\n            } else {\r\n                return (totalLPTokensStaked.add(LPJustReceived));\r\n            }\r\n\r\n        } else {\r\n            return (totalLPTokensStaked);\r\n        }\r\n    }\r\n\r\n    function convertSNXtoLP(uint256 SNXQty)\r\n        internal\r\n        returns (uint256 LPReceived)\r\n    {\r\n        uint256 SNX2BcETH = SafeMath.mul(SNXQty, 4985).div(10000);\r\n        uint256 SNX2BcSETH = SafeMath.sub(SNXQty, SNX2BcETH);\r\n\r\n        uint256 ETHfromSNX = UniswapExchangeInterface(\r\n            address(SNXUniSwapTokenAddress)\r\n        )\r\n            .tokenToEthSwapInput(\r\n            SNX2BcETH,\r\n            (\r\n                (\r\n                    min_eth(SNX2BcETH, address(SNXUniSwapTokenAddress))\r\n                        .mul(995)\r\n                        .div(1000)\r\n                )\r\n            ),\r\n            now.add(300)\r\n        );\r\n\r\n        // converting a portion of the SNX to sETH for the purpose of adding liquidity\r\n        UniswapExchangeInterface(address(SNXUniSwapTokenAddress))\r\n            .tokenToTokenSwapInput(\r\n            SNX2BcSETH,\r\n            min_tokens(\r\n                (min_eth(SNX2BcSETH, address(SNXUniSwapTokenAddress)).mul(995))\r\n                    .div(1000),\r\n                address(sETH_LP_TokenAddress)\r\n            ),\r\n            (\r\n                min_eth(SNX2BcSETH, address(SNXUniSwapTokenAddress))\r\n                    .mul(995)\r\n                    .div(1000)\r\n            ),\r\n            now.add(300),\r\n            address(sETHTokenAddress)\r\n        );\r\n\r\n        // adding liquidity\r\n        uint256 LPU = UniswapExchangeInterface(address(sETH_LP_TokenAddress))\r\n            .addLiquidity\r\n            .value(ETHfromSNX)(\r\n            1,\r\n            getMaxTokens(\r\n                address(sETH_LP_TokenAddress),\r\n                sETHTokenAddress,\r\n                ETHfromSNX\r\n            ),\r\n            now.add(300)\r\n        );\r\n\r\n        // converting the balance sETH to SNX\r\n\r\n        UniswapExchangeInterface(address(sETH_LP_TokenAddress))\r\n            .tokenToTokenSwapInput(\r\n            (sETHTokenAddress.balanceOf(address(this))),\r\n            min_tokens(\r\n                (\r\n                    min_eth(\r\n                        (sETHTokenAddress.balanceOf(address(this))),\r\n                        address(sETH_LP_TokenAddress)\r\n                    )\r\n                        .mul(995)\r\n                        .div(1000)\r\n                ),\r\n                address(SNXUniSwapTokenAddress)\r\n            ),\r\n            (\r\n                min_eth(\r\n                    (sETHTokenAddress.balanceOf(address(this))),\r\n                    address(sETH_LP_TokenAddress)\r\n                )\r\n                    .mul(995)\r\n                    .div(1000)\r\n            ),\r\n            now.add(300),\r\n            address(SNXTokenAddress)\r\n        );\r\n\r\n        return LPU;\r\n    }\r\n\r\n    function getMaxTokens(address uniExchAdd, IERC20 ERC20Add, uint256 value)\r\n        internal\r\n        view\r\n        returns (uint256)\r\n    {\r\n        uint256 contractBalance = address(uniExchAdd).balance;\r\n        uint256 eth_reserve = SafeMath.sub(contractBalance, value);\r\n        uint256 token_reserve = ERC20Add.balanceOf(uniExchAdd);\r\n        uint256 token_amount = SafeMath.div(\r\n            SafeMath.mul(value, token_reserve),\r\n            eth_reserve\r\n        ) +\r\n            1;\r\n        return token_amount;\r\n    }\r\n\r\n    function min_eth(uint256 tokenQTY, address uniExchAdd)\r\n        internal\r\n        view\r\n        returns (uint256)\r\n    {\r\n        return\r\n            UniswapExchangeInterface(uniExchAdd).getTokenToEthInputPrice(\r\n                tokenQTY\r\n            );\r\n    }\r\n\r\n    function min_tokens(uint256 ethAmt, address uniExchAdd)\r\n        internal\r\n        view\r\n        returns (uint256)\r\n    {\r\n        return\r\n            UniswapExchangeInterface(uniExchAdd).getEthToTokenInputPrice(\r\n                ethAmt\r\n            );\r\n    }\r\n\r\n    function getMyStakeOut(uint256 _tokenQTY)\r\n        public\r\n        returns (uint256 LPTokensReleased)\r\n    {\r\n        require(balanceOf[msg.sender] >= _tokenQTY, \"Withdrawing qty invalid\");\r\n        (uint256 totalLPs, uint256 totalzUNIs) = getDetails(false);\r\n        uint256 LPs2bRedemeed = (_tokenQTY.mul(totalLPs)).div(totalzUNIs);\r\n        uint256 LPsInHand = sETH_LP_TokenAddress.balanceOf(address(this));\r\n        if (LPs2bRedemeed > LPsInHand) {\r\n            uint256 LPsShortOf = LPs2bRedemeed.sub(LPsInHand);\r\n            Unipool(UnipoolAddress).withdraw(LPsShortOf);\r\n            sETH_LP_TokenAddress.transfer(msg.sender, LPs2bRedemeed);\r\n            totalLPTokensStaked = totalLPTokensStaked.sub(LPs2bRedemeed);\r\n        } else {\r\n            sETH_LP_TokenAddress.transfer(msg.sender, LPs2bRedemeed);\r\n            uint256 leftOverLPs = sETH_LP_TokenAddress.balanceOf(address(this));\r\n            if (leftOverLPs > 0) {\r\n                Unipool(UnipoolAddress).stake(leftOverLPs);\r\n                totalLPTokensStaked = totalLPTokensStaked.add(leftOverLPs);\r\n            }\r\n        }\r\n        burn(msg.sender, _tokenQTY);\r\n        return (LPs2bRedemeed);\r\n    }\r\n\r\n    function mint(address account, uint256 amount) internal {\r\n        require(account != address(0), \"ERC20: mint to the zero address\");\r\n        // _beforeTokenTransfer(address(0), account, amount);\r\n        totalSupply = totalSupply.add(amount);\r\n        balanceOf[account] = balanceOf[account].add(amount);\r\n        emit Transfer(address(0), account, amount);\r\n    }\r\n\r\n    function burn(address account, uint256 amount) internal {\r\n        require(account != address(0), \"ERC20: burn from the zero address\");\r\n        // _beforeTokenTransfer(account, address(0), amount);\r\n        balanceOf[account] = balanceOf[account].sub(\r\n            amount,\r\n            \"ERC20: burn amount exceeds balance\"\r\n        );\r\n        totalSupply = totalSupply.sub(amount);\r\n        emit Transfer(account, address(0), amount);\r\n    }\r\n\r\n    function transfer(address recipient, uint256 amount) public returns (bool) {\r\n        _transfer(msg.sender, recipient, amount);\r\n        return true;\r\n    }\r\n\r\n    function approve(address spender, uint256 amount) public returns (bool) {\r\n        _approve(msg.sender, spender, amount);\r\n        return true;\r\n    }\r\n\r\n    function transferFrom(address sender, address recipient, uint256 amount)\r\n        public\r\n        returns (bool)\r\n    {\r\n        _transfer(sender, recipient, amount);\r\n        _approve(\r\n            sender,\r\n            msg.sender,\r\n            allowance[sender][msg.sender].sub(\r\n                amount,\r\n                \"ERC20: transfer amount exceeds allowance\"\r\n            )\r\n        );\r\n        return true;\r\n    }\r\n\r\n    function _transfer(address sender, address recipient, uint256 amount)\r\n        internal\r\n    {\r\n        require(sender != address(0), \"ERC20: transfer from the zero address\");\r\n        require(recipient != address(0), \"ERC20: transfer to the zero address\");\r\n        // _beforeTokenTransfer(sender, recipient, amount);\r\n        balanceOf[sender] = balanceOf[sender].sub(\r\n            amount,\r\n            \"ERC20: transfer amount exceeds balance\"\r\n        );\r\n        balanceOf[recipient] = balanceOf[recipient].add(amount);\r\n        emit Transfer(sender, recipient, amount);\r\n    }\r\n\r\n    function _approve(address owner, address spender, uint256 amount) internal {\r\n        require(owner != address(0), \"ERC20: approve from the zero address\");\r\n        require(spender != address(0), \"ERC20: approve to the zero address\");\r\n        allowance[owner][spender] = amount;\r\n        emit Approval(owner, spender, amount);\r\n    }\r\n\r\n    function() external payable {\r\n        emit internall(\"got cash\", msg.value);\r\n    }\r\n\r\n}",
  "sourcePath": "C:\\Users\\zonyc\\Dropbox\\GitHub\\Unipool\\contracts\\zUniPool.sol",
  "compiler": {
    "name": "solc",
    "version": "0.5.13+commit.5b0b510c.Emscripten.clang"
  },
  "schemaVersion": "3.0.23",
  "updatedAt": "2020-03-11T04:06:34.626Z",
  "networkType": "ethereum",
  "devdoc": {
    "methods": {
      "howMuchIszUNIWorth(uint256)": {
        "details": "Returs the amount of LP redemeemable / to be staked for a given quantity of zUNI"
      }
    }
  },
  "userdoc": {
    "methods": {}
  }
}